{
	"max_nums.sol": {
		"ArrayMax": {
			"abi": [
				{
					"inputs": [
						{
							"internalType": "uint256",
							"name": "",
							"type": "uint256"
						}
					],
					"name": "array",
					"outputs": [
						{
							"internalType": "uint256",
							"name": "",
							"type": "uint256"
						}
					],
					"stateMutability": "view",
					"type": "function"
				},
				{
					"inputs": [],
					"name": "getmax",
					"outputs": [
						{
							"internalType": "uint256",
							"name": "",
							"type": "uint256"
						}
					],
					"stateMutability": "view",
					"type": "function"
				},
				{
					"inputs": [
						{
							"internalType": "uint256",
							"name": "value",
							"type": "uint256"
						}
					],
					"name": "setvalue",
					"outputs": [],
					"stateMutability": "nonpayable",
					"type": "function"
				}
			],
			"devdoc": {
				"kind": "dev",
				"methods": {},
				"version": 1
			},
			"evm": {
				"assembly": "    /* \"max_nums.sol\":60:588  contract ArrayMax{... */\n  mstore(0x40, 0x80)\n    /* \"max_nums.sol\":84:115  uint[] public array = [1,2,3,4] */\n  mload(0x40)\n  dup1\n  0x80\n  add\n  0x40\n  mstore\n  dup1\n    /* \"max_nums.sol\":107:108  1 */\n  0x01\n    /* \"max_nums.sol\":84:115  uint[] public array = [1,2,3,4] */\n  0xff\n  and\n  dup2\n  mstore\n  0x20\n  add\n    /* \"max_nums.sol\":109:110  2 */\n  0x02\n    /* \"max_nums.sol\":84:115  uint[] public array = [1,2,3,4] */\n  0xff\n  and\n  dup2\n  mstore\n  0x20\n  add\n    /* \"max_nums.sol\":111:112  3 */\n  0x03\n    /* \"max_nums.sol\":84:115  uint[] public array = [1,2,3,4] */\n  0xff\n  and\n  dup2\n  mstore\n  0x20\n  add\n    /* \"max_nums.sol\":113:114  4 */\n  0x04\n    /* \"max_nums.sol\":84:115  uint[] public array = [1,2,3,4] */\n  0xff\n  and\n  dup2\n  mstore\n  pop\n  0x00\n  swap1\n  0x04\n  tag_1\n  swap3\n  swap2\n  swap1\n  tag_2\n  jump\t// in\ntag_1:\n  pop\n    /* \"max_nums.sol\":60:588  contract ArrayMax{... */\n  callvalue\n  dup1\n  iszero\n  tag_3\n  jumpi\n  0x00\n  dup1\n  revert\ntag_3:\n  pop\n  jump(tag_4)\ntag_2:\n  dup3\n  dup1\n  sload\n  dup3\n  dup3\n  sstore\n  swap1\n  0x00\n  mstore\n  keccak256(0x00, 0x20)\n  swap1\n  dup2\n  add\n  swap3\n  dup3\n  iszero\n  tag_5\n  jumpi\n  swap2\n  0x20\n  mul\n  dup3\n  add\ntag_6:\n  dup3\n  dup2\n  gt\n  iszero\n  tag_7\n  jumpi\n  dup3\n  mload\n  dup3\n  swap1\n  0xff\n  and\n  swap1\n  sstore\n  swap2\n  0x20\n  add\n  swap2\n  swap1\n  0x01\n  add\n  swap1\n  jump(tag_6)\ntag_7:\ntag_5:\n  pop\n  swap1\n  pop\n  tag_8\n  swap2\n  swap1\n  tag_9\n  jump\t// in\ntag_8:\n  pop\n  swap1\n  jump\t// out\ntag_9:\ntag_10:\n  dup1\n  dup3\n  gt\n  iszero\n  tag_11\n  jumpi\n  0x00\n  dup2\n  0x00\n  swap1\n  sstore\n  pop\n  0x01\n  add\n  jump(tag_10)\ntag_11:\n  pop\n  swap1\n  jump\t// out\ntag_4:\n  dataSize(sub_0)\n  dup1\n  dataOffset(sub_0)\n  0x00\n  codecopy\n  0x00\n  return\nstop\n\nsub_0: assembly {\n        /* \"max_nums.sol\":60:588  contract ArrayMax{... */\n      mstore(0x40, 0x80)\n      callvalue\n      dup1\n      iszero\n      tag_1\n      jumpi\n      0x00\n      dup1\n      revert\n    tag_1:\n      pop\n      jumpi(tag_2, lt(calldatasize, 0x04))\n      shr(0xe0, calldataload(0x00))\n      dup1\n      0x0b4745ec\n      eq\n      tag_3\n      jumpi\n      dup1\n      0x2815f68e\n      eq\n      tag_4\n      jumpi\n      dup1\n      0x38d94193\n      eq\n      tag_5\n      jumpi\n    tag_2:\n      0x00\n      dup1\n      revert\n        /* \"max_nums.sol\":122:194  function setvalue(uint value) public{... */\n    tag_3:\n      tag_6\n      0x04\n      dup1\n      calldatasize\n      sub\n      dup2\n      add\n      swap1\n      tag_7\n      swap2\n      swap1\n      tag_8\n      jump\t// in\n    tag_7:\n      tag_9\n      jump\t// in\n    tag_6:\n      stop\n        /* \"max_nums.sol\":200:585  function getmax() public view returns(uint){... */\n    tag_4:\n      tag_10\n      tag_11\n      jump\t// in\n    tag_10:\n      mload(0x40)\n      tag_12\n      swap2\n      swap1\n      tag_13\n      jump\t// in\n    tag_12:\n      mload(0x40)\n      dup1\n      swap2\n      sub\n      swap1\n      return\n        /* \"max_nums.sol\":84:115  uint[] public array = [1,2,3,4] */\n    tag_5:\n      tag_14\n      0x04\n      dup1\n      calldatasize\n      sub\n      dup2\n      add\n      swap1\n      tag_15\n      swap2\n      swap1\n      tag_8\n      jump\t// in\n    tag_15:\n      tag_16\n      jump\t// in\n    tag_14:\n      mload(0x40)\n      tag_17\n      swap2\n      swap1\n      tag_13\n      jump\t// in\n    tag_17:\n      mload(0x40)\n      dup1\n      swap2\n      sub\n      swap1\n      return\n        /* \"max_nums.sol\":122:194  function setvalue(uint value) public{... */\n    tag_9:\n        /* \"max_nums.sol\":169:174  array */\n      0x00\n        /* \"max_nums.sol\":180:185  value */\n      dup2\n        /* \"max_nums.sol\":169:186  array.push(value) */\n      swap1\n      dup1\n      0x01\n      dup2\n      sload\n      add\n      dup1\n      dup3\n      sstore\n      dup1\n      swap2\n      pop\n      pop\n      0x01\n      swap1\n      sub\n      swap1\n      0x00\n      mstore\n      keccak256(0x00, 0x20)\n      add\n      0x00\n      swap1\n      swap2\n      swap1\n      swap2\n      swap1\n      swap2\n      pop\n      sstore\n        /* \"max_nums.sol\":122:194  function setvalue(uint value) public{... */\n      pop\n      jump\t// out\n        /* \"max_nums.sol\":200:585  function getmax() public view returns(uint){... */\n    tag_11:\n        /* \"max_nums.sol\":238:242  uint */\n      0x00\n        /* \"max_nums.sol\":277:278  0 */\n      dup1\n        /* \"max_nums.sol\":262:267  array */\n      0x00\n        /* \"max_nums.sol\":262:274  array.length */\n      dup1\n      sload\n      swap1\n      pop\n        /* \"max_nums.sol\":262:278  array.length > 0 */\n      gt\n        /* \"max_nums.sol\":254:297  require(array.length > 0, \"Array is empty\") */\n      tag_21\n      jumpi\n      mload(0x40)\n      0x08c379a000000000000000000000000000000000000000000000000000000000\n      dup2\n      mstore\n      0x04\n      add\n      tag_22\n      swap1\n      tag_23\n      jump\t// in\n    tag_22:\n      mload(0x40)\n      dup1\n      swap2\n      sub\n      swap1\n      revert\n    tag_21:\n        /* \"max_nums.sol\":310:318  uint max */\n      0x00\n        /* \"max_nums.sol\":321:326  array */\n      dup1\n        /* \"max_nums.sol\":327:328  0 */\n      0x00\n        /* \"max_nums.sol\":321:329  array[0] */\n      dup2\n      sload\n      dup2\n      lt\n      tag_24\n      jumpi\n      tag_25\n      tag_26\n      jump\t// in\n    tag_25:\n    tag_24:\n      swap1\n      0x00\n      mstore\n      keccak256(0x00, 0x20)\n      add\n      sload\n        /* \"max_nums.sol\":310:329  uint max = array[0] */\n      swap1\n      pop\n        /* \"max_nums.sol\":386:392  uint i */\n      0x00\n        /* \"max_nums.sol\":395:396  1 */\n      0x01\n        /* \"max_nums.sol\":386:396  uint i = 1 */\n      swap1\n      pop\n        /* \"max_nums.sol\":381:557  for (uint i = 1; i < array.length; i++) {... */\n    tag_28:\n        /* \"max_nums.sol\":402:407  array */\n      0x00\n        /* \"max_nums.sol\":402:414  array.length */\n      dup1\n      sload\n      swap1\n      pop\n        /* \"max_nums.sol\":398:399  i */\n      dup2\n        /* \"max_nums.sol\":398:414  i < array.length */\n      lt\n        /* \"max_nums.sol\":381:557  for (uint i = 1; i < array.length; i++) {... */\n      iszero\n      tag_29\n      jumpi\n        /* \"max_nums.sol\":451:454  max */\n      dup2\n        /* \"max_nums.sol\":440:445  array */\n      0x00\n        /* \"max_nums.sol\":446:447  i */\n      dup3\n        /* \"max_nums.sol\":440:448  array[i] */\n      dup2\n      sload\n      dup2\n      lt\n      tag_31\n      jumpi\n      tag_32\n      tag_26\n      jump\t// in\n    tag_32:\n    tag_31:\n      swap1\n      0x00\n      mstore\n      keccak256(0x00, 0x20)\n      add\n      sload\n        /* \"max_nums.sol\":440:454  array[i] > max */\n      gt\n        /* \"max_nums.sol\":436:546  if (array[i] > max) {... */\n      iszero\n      tag_34\n      jumpi\n        /* \"max_nums.sol\":481:486  array */\n      0x00\n        /* \"max_nums.sol\":487:488  i */\n      dup2\n        /* \"max_nums.sol\":481:489  array[i] */\n      dup2\n      sload\n      dup2\n      lt\n      tag_35\n      jumpi\n      tag_36\n      tag_26\n      jump\t// in\n    tag_36:\n    tag_35:\n      swap1\n      0x00\n      mstore\n      keccak256(0x00, 0x20)\n      add\n      sload\n        /* \"max_nums.sol\":475:489  max = array[i] */\n      swap2\n      pop\n        /* \"max_nums.sol\":436:546  if (array[i] > max) {... */\n    tag_34:\n        /* \"max_nums.sol\":416:419  i++ */\n      dup1\n      dup1\n      0x01\n      add\n      swap2\n      pop\n      pop\n        /* \"max_nums.sol\":381:557  for (uint i = 1; i < array.length; i++) {... */\n      jump(tag_28)\n    tag_29:\n      pop\n        /* \"max_nums.sol\":574:577  max */\n      dup1\n        /* \"max_nums.sol\":567:577  return max */\n      swap2\n      pop\n      pop\n        /* \"max_nums.sol\":200:585  function getmax() public view returns(uint){... */\n      swap1\n      jump\t// out\n        /* \"max_nums.sol\":84:115  uint[] public array = [1,2,3,4] */\n    tag_16:\n      0x00\n      dup2\n      dup2\n      sload\n      dup2\n      lt\n      tag_38\n      jumpi\n      0x00\n      dup1\n      revert\n    tag_38:\n      swap1\n      0x00\n      mstore\n      keccak256(0x00, 0x20)\n      add\n      0x00\n      swap2\n      pop\n      swap1\n      pop\n      sload\n      dup2\n      jump\t// out\n        /* \"#utility.yul\":88:205   */\n    tag_41:\n        /* \"#utility.yul\":197:198   */\n      0x00\n        /* \"#utility.yul\":194:195   */\n      dup1\n        /* \"#utility.yul\":187:199   */\n      revert\n        /* \"#utility.yul\":334:411   */\n    tag_43:\n        /* \"#utility.yul\":371:378   */\n      0x00\n        /* \"#utility.yul\":400:405   */\n      dup2\n        /* \"#utility.yul\":389:405   */\n      swap1\n      pop\n        /* \"#utility.yul\":334:411   */\n      swap2\n      swap1\n      pop\n      jump\t// out\n        /* \"#utility.yul\":417:539   */\n    tag_44:\n        /* \"#utility.yul\":490:514   */\n      tag_56\n        /* \"#utility.yul\":508:513   */\n      dup2\n        /* \"#utility.yul\":490:514   */\n      tag_43\n      jump\t// in\n    tag_56:\n        /* \"#utility.yul\":483:488   */\n      dup2\n        /* \"#utility.yul\":480:515   */\n      eq\n        /* \"#utility.yul\":470:533   */\n      tag_57\n      jumpi\n        /* \"#utility.yul\":529:530   */\n      0x00\n        /* \"#utility.yul\":526:527   */\n      dup1\n        /* \"#utility.yul\":519:531   */\n      revert\n        /* \"#utility.yul\":470:533   */\n    tag_57:\n        /* \"#utility.yul\":417:539   */\n      pop\n      jump\t// out\n        /* \"#utility.yul\":545:684   */\n    tag_45:\n        /* \"#utility.yul\":591:596   */\n      0x00\n        /* \"#utility.yul\":629:635   */\n      dup2\n        /* \"#utility.yul\":616:636   */\n      calldataload\n        /* \"#utility.yul\":607:636   */\n      swap1\n      pop\n        /* \"#utility.yul\":645:678   */\n      tag_59\n        /* \"#utility.yul\":672:677   */\n      dup2\n        /* \"#utility.yul\":645:678   */\n      tag_44\n      jump\t// in\n    tag_59:\n        /* \"#utility.yul\":545:684   */\n      swap3\n      swap2\n      pop\n      pop\n      jump\t// out\n        /* \"#utility.yul\":690:1019   */\n    tag_8:\n        /* \"#utility.yul\":749:755   */\n      0x00\n        /* \"#utility.yul\":798:800   */\n      0x20\n        /* \"#utility.yul\":786:795   */\n      dup3\n        /* \"#utility.yul\":777:784   */\n      dup5\n        /* \"#utility.yul\":773:796   */\n      sub\n        /* \"#utility.yul\":769:801   */\n      slt\n        /* \"#utility.yul\":766:885   */\n      iszero\n      tag_61\n      jumpi\n        /* \"#utility.yul\":804:883   */\n      tag_62\n      tag_41\n      jump\t// in\n    tag_62:\n        /* \"#utility.yul\":766:885   */\n    tag_61:\n        /* \"#utility.yul\":924:925   */\n      0x00\n        /* \"#utility.yul\":949:1002   */\n      tag_63\n        /* \"#utility.yul\":994:1001   */\n      dup5\n        /* \"#utility.yul\":985:991   */\n      dup3\n        /* \"#utility.yul\":974:983   */\n      dup6\n        /* \"#utility.yul\":970:992   */\n      add\n        /* \"#utility.yul\":949:1002   */\n      tag_45\n      jump\t// in\n    tag_63:\n        /* \"#utility.yul\":939:1002   */\n      swap2\n      pop\n        /* \"#utility.yul\":895:1012   */\n      pop\n        /* \"#utility.yul\":690:1019   */\n      swap3\n      swap2\n      pop\n      pop\n      jump\t// out\n        /* \"#utility.yul\":1025:1143   */\n    tag_46:\n        /* \"#utility.yul\":1112:1136   */\n      tag_65\n        /* \"#utility.yul\":1130:1135   */\n      dup2\n        /* \"#utility.yul\":1112:1136   */\n      tag_43\n      jump\t// in\n    tag_65:\n        /* \"#utility.yul\":1107:1110   */\n      dup3\n        /* \"#utility.yul\":1100:1137   */\n      mstore\n        /* \"#utility.yul\":1025:1143   */\n      pop\n      pop\n      jump\t// out\n        /* \"#utility.yul\":1149:1371   */\n    tag_13:\n        /* \"#utility.yul\":1242:1246   */\n      0x00\n        /* \"#utility.yul\":1280:1282   */\n      0x20\n        /* \"#utility.yul\":1269:1278   */\n      dup3\n        /* \"#utility.yul\":1265:1283   */\n      add\n        /* \"#utility.yul\":1257:1283   */\n      swap1\n      pop\n        /* \"#utility.yul\":1293:1364   */\n      tag_67\n        /* \"#utility.yul\":1361:1362   */\n      0x00\n        /* \"#utility.yul\":1350:1359   */\n      dup4\n        /* \"#utility.yul\":1346:1363   */\n      add\n        /* \"#utility.yul\":1337:1343   */\n      dup5\n        /* \"#utility.yul\":1293:1364   */\n      tag_46\n      jump\t// in\n    tag_67:\n        /* \"#utility.yul\":1149:1371   */\n      swap3\n      swap2\n      pop\n      pop\n      jump\t// out\n        /* \"#utility.yul\":1377:1546   */\n    tag_47:\n        /* \"#utility.yul\":1461:1472   */\n      0x00\n        /* \"#utility.yul\":1495:1501   */\n      dup3\n        /* \"#utility.yul\":1490:1493   */\n      dup3\n        /* \"#utility.yul\":1483:1502   */\n      mstore\n        /* \"#utility.yul\":1535:1539   */\n      0x20\n        /* \"#utility.yul\":1530:1533   */\n      dup3\n        /* \"#utility.yul\":1526:1540   */\n      add\n        /* \"#utility.yul\":1511:1540   */\n      swap1\n      pop\n        /* \"#utility.yul\":1377:1546   */\n      swap3\n      swap2\n      pop\n      pop\n      jump\t// out\n        /* \"#utility.yul\":1552:1716   */\n    tag_48:\n        /* \"#utility.yul\":1692:1708   */\n      0x417272617920697320656d707479000000000000000000000000000000000000\n        /* \"#utility.yul\":1688:1689   */\n      0x00\n        /* \"#utility.yul\":1680:1686   */\n      dup3\n        /* \"#utility.yul\":1676:1690   */\n      add\n        /* \"#utility.yul\":1669:1709   */\n      mstore\n        /* \"#utility.yul\":1552:1716   */\n      pop\n      jump\t// out\n        /* \"#utility.yul\":1722:2088   */\n    tag_49:\n        /* \"#utility.yul\":1864:1867   */\n      0x00\n        /* \"#utility.yul\":1885:1952   */\n      tag_71\n        /* \"#utility.yul\":1949:1951   */\n      0x0e\n        /* \"#utility.yul\":1944:1947   */\n      dup4\n        /* \"#utility.yul\":1885:1952   */\n      tag_47\n      jump\t// in\n    tag_71:\n        /* \"#utility.yul\":1878:1952   */\n      swap2\n      pop\n        /* \"#utility.yul\":1961:2054   */\n      tag_72\n        /* \"#utility.yul\":2050:2053   */\n      dup3\n        /* \"#utility.yul\":1961:2054   */\n      tag_48\n      jump\t// in\n    tag_72:\n        /* \"#utility.yul\":2079:2081   */\n      0x20\n        /* \"#utility.yul\":2074:2077   */\n      dup3\n        /* \"#utility.yul\":2070:2082   */\n      add\n        /* \"#utility.yul\":2063:2082   */\n      swap1\n      pop\n        /* \"#utility.yul\":1722:2088   */\n      swap2\n      swap1\n      pop\n      jump\t// out\n        /* \"#utility.yul\":2094:2513   */\n    tag_23:\n        /* \"#utility.yul\":2260:2264   */\n      0x00\n        /* \"#utility.yul\":2298:2300   */\n      0x20\n        /* \"#utility.yul\":2287:2296   */\n      dup3\n        /* \"#utility.yul\":2283:2301   */\n      add\n        /* \"#utility.yul\":2275:2301   */\n      swap1\n      pop\n        /* \"#utility.yul\":2347:2356   */\n      dup2\n        /* \"#utility.yul\":2341:2345   */\n      dup2\n        /* \"#utility.yul\":2337:2357   */\n      sub\n        /* \"#utility.yul\":2333:2334   */\n      0x00\n        /* \"#utility.yul\":2322:2331   */\n      dup4\n        /* \"#utility.yul\":2318:2335   */\n      add\n        /* \"#utility.yul\":2311:2358   */\n      mstore\n        /* \"#utility.yul\":2375:2506   */\n      tag_74\n        /* \"#utility.yul\":2501:2505   */\n      dup2\n        /* \"#utility.yul\":2375:2506   */\n      tag_49\n      jump\t// in\n    tag_74:\n        /* \"#utility.yul\":2367:2506   */\n      swap1\n      pop\n        /* \"#utility.yul\":2094:2513   */\n      swap2\n      swap1\n      pop\n      jump\t// out\n        /* \"#utility.yul\":2519:2699   */\n    tag_26:\n        /* \"#utility.yul\":2567:2644   */\n      0x4e487b7100000000000000000000000000000000000000000000000000000000\n        /* \"#utility.yul\":2564:2565   */\n      0x00\n        /* \"#utility.yul\":2557:2645   */\n      mstore\n        /* \"#utility.yul\":2664:2668   */\n      0x32\n        /* \"#utility.yul\":2661:2662   */\n      0x04\n        /* \"#utility.yul\":2654:2669   */\n      mstore\n        /* \"#utility.yul\":2688:2692   */\n      0x24\n        /* \"#utility.yul\":2685:2686   */\n      0x00\n        /* \"#utility.yul\":2678:2693   */\n      revert\n\n    auxdata: 0xa2646970667358221220c623f38a06f6e5d9f8baee6ad7c5f0af8f0d159ffd785e5c5817448ca96b04d364736f6c634300081a0033\n}\n",
				"bytecode": {
					"linkReferences": {},
					"object": "60806040526040518060800160405280600160ff168152602001600260ff168152602001600360ff168152602001600460ff168152505f90600460429291906052565b50348015604d575f80fd5b5060b6565b828054828255905f5260205f20908101928215608e579160200282015b82811115608d578251829060ff16905591602001919060010190606f565b5b50905060999190609d565b5090565b5b8082111560b2575f815f905550600101609e565b5090565b610328806100c35f395ff3fe608060405234801561000f575f80fd5b506004361061003f575f3560e01c80630b4745ec146100435780632815f68e1461005f57806338d941931461007d575b5f80fd5b61005d600480360381019061005891906101fa565b6100ad565b005b6100676100d5565b6040516100749190610234565b60405180910390f35b610097600480360381019061009291906101fa565b6101a4565b6040516100a49190610234565b60405180910390f35b5f81908060018154018082558091505060019003905f5260205f20015f909190919091505550565b5f805f805490501161011c576040517f08c379a0000000000000000000000000000000000000000000000000000000008152600401610113906102a7565b60405180910390fd5b5f805f815481106101305761012f6102c5565b5b905f5260205f20015490505f600190505b5f8054905081101561019c57815f8281548110610161576101606102c5565b5b905f5260205f200154111561018f575f8181548110610183576101826102c5565b5b905f5260205f20015491505b8080600101915050610141565b508091505090565b5f81815481106101b2575f80fd5b905f5260205f20015f915090505481565b5f80fd5b5f819050919050565b6101d9816101c7565b81146101e3575f80fd5b50565b5f813590506101f4816101d0565b92915050565b5f6020828403121561020f5761020e6101c3565b5b5f61021c848285016101e6565b91505092915050565b61022e816101c7565b82525050565b5f6020820190506102475f830184610225565b92915050565b5f82825260208201905092915050565b7f417272617920697320656d7074790000000000000000000000000000000000005f82015250565b5f610291600e8361024d565b915061029c8261025d565b602082019050919050565b5f6020820190508181035f8301526102be81610285565b9050919050565b7f4e487b71000000000000000000000000000000000000000000000000000000005f52603260045260245ffdfea2646970667358221220c623f38a06f6e5d9f8baee6ad7c5f0af8f0d159ffd785e5c5817448ca96b04d364736f6c634300081a0033",
					"opcodes": "PUSH1 0x80 PUSH1 0x40 MSTORE PUSH1 0x40 MLOAD DUP1 PUSH1 0x80 ADD PUSH1 0x40 MSTORE DUP1 PUSH1 0x1 PUSH1 0xFF AND DUP2 MSTORE PUSH1 0x20 ADD PUSH1 0x2 PUSH1 0xFF AND DUP2 MSTORE PUSH1 0x20 ADD PUSH1 0x3 PUSH1 0xFF AND DUP2 MSTORE PUSH1 0x20 ADD PUSH1 0x4 PUSH1 0xFF AND DUP2 MSTORE POP PUSH0 SWAP1 PUSH1 0x4 PUSH1 0x42 SWAP3 SWAP2 SWAP1 PUSH1 0x52 JUMP JUMPDEST POP CALLVALUE DUP1 ISZERO PUSH1 0x4D JUMPI PUSH0 DUP1 REVERT JUMPDEST POP PUSH1 0xB6 JUMP JUMPDEST DUP3 DUP1 SLOAD DUP3 DUP3 SSTORE SWAP1 PUSH0 MSTORE PUSH1 0x20 PUSH0 KECCAK256 SWAP1 DUP2 ADD SWAP3 DUP3 ISZERO PUSH1 0x8E JUMPI SWAP2 PUSH1 0x20 MUL DUP3 ADD JUMPDEST DUP3 DUP2 GT ISZERO PUSH1 0x8D JUMPI DUP3 MLOAD DUP3 SWAP1 PUSH1 0xFF AND SWAP1 SSTORE SWAP2 PUSH1 0x20 ADD SWAP2 SWAP1 PUSH1 0x1 ADD SWAP1 PUSH1 0x6F JUMP JUMPDEST JUMPDEST POP SWAP1 POP PUSH1 0x99 SWAP2 SWAP1 PUSH1 0x9D JUMP JUMPDEST POP SWAP1 JUMP JUMPDEST JUMPDEST DUP1 DUP3 GT ISZERO PUSH1 0xB2 JUMPI PUSH0 DUP2 PUSH0 SWAP1 SSTORE POP PUSH1 0x1 ADD PUSH1 0x9E JUMP JUMPDEST POP SWAP1 JUMP JUMPDEST PUSH2 0x328 DUP1 PUSH2 0xC3 PUSH0 CODECOPY PUSH0 RETURN INVALID PUSH1 0x80 PUSH1 0x40 MSTORE CALLVALUE DUP1 ISZERO PUSH2 0xF JUMPI PUSH0 DUP1 REVERT JUMPDEST POP PUSH1 0x4 CALLDATASIZE LT PUSH2 0x3F JUMPI PUSH0 CALLDATALOAD PUSH1 0xE0 SHR DUP1 PUSH4 0xB4745EC EQ PUSH2 0x43 JUMPI DUP1 PUSH4 0x2815F68E EQ PUSH2 0x5F JUMPI DUP1 PUSH4 0x38D94193 EQ PUSH2 0x7D JUMPI JUMPDEST PUSH0 DUP1 REVERT JUMPDEST PUSH2 0x5D PUSH1 0x4 DUP1 CALLDATASIZE SUB DUP2 ADD SWAP1 PUSH2 0x58 SWAP2 SWAP1 PUSH2 0x1FA JUMP JUMPDEST PUSH2 0xAD JUMP JUMPDEST STOP JUMPDEST PUSH2 0x67 PUSH2 0xD5 JUMP JUMPDEST PUSH1 0x40 MLOAD PUSH2 0x74 SWAP2 SWAP1 PUSH2 0x234 JUMP JUMPDEST PUSH1 0x40 MLOAD DUP1 SWAP2 SUB SWAP1 RETURN JUMPDEST PUSH2 0x97 PUSH1 0x4 DUP1 CALLDATASIZE SUB DUP2 ADD SWAP1 PUSH2 0x92 SWAP2 SWAP1 PUSH2 0x1FA JUMP JUMPDEST PUSH2 0x1A4 JUMP JUMPDEST PUSH1 0x40 MLOAD PUSH2 0xA4 SWAP2 SWAP1 PUSH2 0x234 JUMP JUMPDEST PUSH1 0x40 MLOAD DUP1 SWAP2 SUB SWAP1 RETURN JUMPDEST PUSH0 DUP2 SWAP1 DUP1 PUSH1 0x1 DUP2 SLOAD ADD DUP1 DUP3 SSTORE DUP1 SWAP2 POP POP PUSH1 0x1 SWAP1 SUB SWAP1 PUSH0 MSTORE PUSH1 0x20 PUSH0 KECCAK256 ADD PUSH0 SWAP1 SWAP2 SWAP1 SWAP2 SWAP1 SWAP2 POP SSTORE POP JUMP JUMPDEST PUSH0 DUP1 PUSH0 DUP1 SLOAD SWAP1 POP GT PUSH2 0x11C JUMPI PUSH1 0x40 MLOAD PUSH32 0x8C379A000000000000000000000000000000000000000000000000000000000 DUP2 MSTORE PUSH1 0x4 ADD PUSH2 0x113 SWAP1 PUSH2 0x2A7 JUMP JUMPDEST PUSH1 0x40 MLOAD DUP1 SWAP2 SUB SWAP1 REVERT JUMPDEST PUSH0 DUP1 PUSH0 DUP2 SLOAD DUP2 LT PUSH2 0x130 JUMPI PUSH2 0x12F PUSH2 0x2C5 JUMP JUMPDEST JUMPDEST SWAP1 PUSH0 MSTORE PUSH1 0x20 PUSH0 KECCAK256 ADD SLOAD SWAP1 POP PUSH0 PUSH1 0x1 SWAP1 POP JUMPDEST PUSH0 DUP1 SLOAD SWAP1 POP DUP2 LT ISZERO PUSH2 0x19C JUMPI DUP2 PUSH0 DUP3 DUP2 SLOAD DUP2 LT PUSH2 0x161 JUMPI PUSH2 0x160 PUSH2 0x2C5 JUMP JUMPDEST JUMPDEST SWAP1 PUSH0 MSTORE PUSH1 0x20 PUSH0 KECCAK256 ADD SLOAD GT ISZERO PUSH2 0x18F JUMPI PUSH0 DUP2 DUP2 SLOAD DUP2 LT PUSH2 0x183 JUMPI PUSH2 0x182 PUSH2 0x2C5 JUMP JUMPDEST JUMPDEST SWAP1 PUSH0 MSTORE PUSH1 0x20 PUSH0 KECCAK256 ADD SLOAD SWAP2 POP JUMPDEST DUP1 DUP1 PUSH1 0x1 ADD SWAP2 POP POP PUSH2 0x141 JUMP JUMPDEST POP DUP1 SWAP2 POP POP SWAP1 JUMP JUMPDEST PUSH0 DUP2 DUP2 SLOAD DUP2 LT PUSH2 0x1B2 JUMPI PUSH0 DUP1 REVERT JUMPDEST SWAP1 PUSH0 MSTORE PUSH1 0x20 PUSH0 KECCAK256 ADD PUSH0 SWAP2 POP SWAP1 POP SLOAD DUP2 JUMP JUMPDEST PUSH0 DUP1 REVERT JUMPDEST PUSH0 DUP2 SWAP1 POP SWAP2 SWAP1 POP JUMP JUMPDEST PUSH2 0x1D9 DUP2 PUSH2 0x1C7 JUMP JUMPDEST DUP2 EQ PUSH2 0x1E3 JUMPI PUSH0 DUP1 REVERT JUMPDEST POP JUMP JUMPDEST PUSH0 DUP2 CALLDATALOAD SWAP1 POP PUSH2 0x1F4 DUP2 PUSH2 0x1D0 JUMP JUMPDEST SWAP3 SWAP2 POP POP JUMP JUMPDEST PUSH0 PUSH1 0x20 DUP3 DUP5 SUB SLT ISZERO PUSH2 0x20F JUMPI PUSH2 0x20E PUSH2 0x1C3 JUMP JUMPDEST JUMPDEST PUSH0 PUSH2 0x21C DUP5 DUP3 DUP6 ADD PUSH2 0x1E6 JUMP JUMPDEST SWAP2 POP POP SWAP3 SWAP2 POP POP JUMP JUMPDEST PUSH2 0x22E DUP2 PUSH2 0x1C7 JUMP JUMPDEST DUP3 MSTORE POP POP JUMP JUMPDEST PUSH0 PUSH1 0x20 DUP3 ADD SWAP1 POP PUSH2 0x247 PUSH0 DUP4 ADD DUP5 PUSH2 0x225 JUMP JUMPDEST SWAP3 SWAP2 POP POP JUMP JUMPDEST PUSH0 DUP3 DUP3 MSTORE PUSH1 0x20 DUP3 ADD SWAP1 POP SWAP3 SWAP2 POP POP JUMP JUMPDEST PUSH32 0x417272617920697320656D707479000000000000000000000000000000000000 PUSH0 DUP3 ADD MSTORE POP JUMP JUMPDEST PUSH0 PUSH2 0x291 PUSH1 0xE DUP4 PUSH2 0x24D JUMP JUMPDEST SWAP2 POP PUSH2 0x29C DUP3 PUSH2 0x25D JUMP JUMPDEST PUSH1 0x20 DUP3 ADD SWAP1 POP SWAP2 SWAP1 POP JUMP JUMPDEST PUSH0 PUSH1 0x20 DUP3 ADD SWAP1 POP DUP2 DUP2 SUB PUSH0 DUP4 ADD MSTORE PUSH2 0x2BE DUP2 PUSH2 0x285 JUMP JUMPDEST SWAP1 POP SWAP2 SWAP1 POP JUMP JUMPDEST PUSH32 0x4E487B7100000000000000000000000000000000000000000000000000000000 PUSH0 MSTORE PUSH1 0x32 PUSH1 0x4 MSTORE PUSH1 0x24 PUSH0 REVERT INVALID LOG2 PUSH5 0x6970667358 0x22 SLT KECCAK256 0xC6 0x23 RETURN DUP11 MOD 0xF6 0xE5 0xD9 0xF8 0xBA 0xEE PUSH11 0xD7C5F0AF8F0D159FFD785E TLOAD PC OR PREVRANDAO DUP13 0xA9 PUSH12 0x4D364736F6C634300081A00 CALLER "
				},
				"gasEstimates": {
					"creation": {
						"codeDepositCost": "161600",
						"executionCost": "infinite",
						"totalCost": "infinite"
					},
					"external": {
						"array(uint256)": "infinite",
						"getmax()": "infinite",
						"setvalue(uint256)": "46798"
					}
				},
				"methodIdentifiers": {
					"array(uint256)": "38d94193",
					"getmax()": "2815f68e",
					"setvalue(uint256)": "0b4745ec"
				}
			},
			"storageLayout": {
				"storage": [
					{
						"astId": 9,
						"contract": "max_nums.sol:ArrayMax",
						"label": "array",
						"offset": 0,
						"slot": "0",
						"type": "t_array(t_uint256)dyn_storage"
					}
				],
				"types": {
					"t_array(t_uint256)dyn_storage": {
						"base": "t_uint256",
						"encoding": "dynamic_array",
						"label": "uint256[]",
						"numberOfBytes": "32"
					},
					"t_uint256": {
						"encoding": "inplace",
						"label": "uint256",
						"numberOfBytes": "32"
					}
				}
			},
			"userdoc": {
				"kind": "user",
				"methods": {},
				"version": 1
			}
		}
	}
}