{
	"Task1_assign4.sol": {
		"TaskManager": {
			"abi": [
				{
					"inputs": [],
					"stateMutability": "nonpayable",
					"type": "constructor"
				},
				{
					"inputs": [
						{
							"internalType": "string",
							"name": "_task",
							"type": "string"
						}
					],
					"name": "addTask",
					"outputs": [],
					"stateMutability": "nonpayable",
					"type": "function"
				},
				{
					"inputs": [],
					"name": "admin",
					"outputs": [
						{
							"internalType": "address",
							"name": "",
							"type": "address"
						}
					],
					"stateMutability": "view",
					"type": "function"
				},
				{
					"inputs": [
						{
							"internalType": "uint256",
							"name": "index",
							"type": "uint256"
						}
					],
					"name": "deleteTask",
					"outputs": [],
					"stateMutability": "nonpayable",
					"type": "function"
				},
				{
					"inputs": [],
					"name": "getAllTasks",
					"outputs": [
						{
							"internalType": "string[]",
							"name": "",
							"type": "string[]"
						}
					],
					"stateMutability": "view",
					"type": "function"
				},
				{
					"inputs": [
						{
							"internalType": "uint256",
							"name": "",
							"type": "uint256"
						}
					],
					"name": "tasks",
					"outputs": [
						{
							"internalType": "string",
							"name": "",
							"type": "string"
						}
					],
					"stateMutability": "view",
					"type": "function"
				}
			],
			"devdoc": {
				"kind": "dev",
				"methods": {},
				"version": 1
			},
			"evm": {
				"assembly": "    /* \"Task1_assign4.sol\":60:779  contract TaskManager {... */\n  mstore(0x40, 0x80)\n    /* \"Task1_assign4.sol\":129:180  constructor() {... */\n  callvalue\n  dup1\n  iszero\n  tag_1\n  jumpi\n  0x00\n  dup1\n  revert\ntag_1:\n  pop\n    /* \"Task1_assign4.sol\":162:172  msg.sender */\n  caller\n    /* \"Task1_assign4.sol\":154:159  admin */\n  0x00\n  dup1\n    /* \"Task1_assign4.sol\":154:172  admin = msg.sender */\n  0x0100\n  exp\n  dup2\n  sload\n  dup2\n  0xffffffffffffffffffffffffffffffffffffffff\n  mul\n  not\n  and\n  swap1\n  dup4\n  0xffffffffffffffffffffffffffffffffffffffff\n  and\n  mul\n  or\n  swap1\n  sstore\n  pop\n    /* \"Task1_assign4.sol\":60:779  contract TaskManager {... */\n  dataSize(sub_0)\n  dup1\n  dataOffset(sub_0)\n  0x00\n  codecopy\n  0x00\n  return\nstop\n\nsub_0: assembly {\n        /* \"Task1_assign4.sol\":60:779  contract TaskManager {... */\n      mstore(0x40, 0x80)\n      callvalue\n      dup1\n      iszero\n      tag_1\n      jumpi\n      0x00\n      dup1\n      revert\n    tag_1:\n      pop\n      jumpi(tag_2, lt(calldatasize, 0x04))\n      shr(0xe0, calldataload(0x00))\n      dup1\n      0x560f3192\n      eq\n      tag_3\n      jumpi\n      dup1\n      0x67238562\n      eq\n      tag_4\n      jumpi\n      dup1\n      0x779900b4\n      eq\n      tag_5\n      jumpi\n      dup1\n      0x8d977672\n      eq\n      tag_6\n      jumpi\n      dup1\n      0xf851a440\n      eq\n      tag_7\n      jumpi\n    tag_2:\n      0x00\n      dup1\n      revert\n        /* \"Task1_assign4.sol\":467:670  function deleteTask(uint index) public onlyAdmin {... */\n    tag_3:\n      tag_8\n      0x04\n      dup1\n      calldatasize\n      sub\n      dup2\n      add\n      swap1\n      tag_9\n      swap2\n      swap1\n      tag_10\n      jump\t// in\n    tag_9:\n      tag_11\n      jump\t// in\n    tag_8:\n      stop\n        /* \"Task1_assign4.sol\":362:453  function addTask(string memory _task) public onlyAdmin {... */\n    tag_4:\n      tag_12\n      0x04\n      dup1\n      calldatasize\n      sub\n      dup2\n      add\n      swap1\n      tag_13\n      swap2\n      swap1\n      tag_14\n      jump\t// in\n    tag_13:\n      tag_15\n      jump\t// in\n    tag_12:\n      stop\n        /* \"Task1_assign4.sol\":684:776  function getAllTasks() public view returns (string[] memory) {... */\n    tag_5:\n      tag_16\n      tag_17\n      jump\t// in\n    tag_16:\n      mload(0x40)\n      tag_18\n      swap2\n      swap1\n      tag_19\n      jump\t// in\n    tag_18:\n      mload(0x40)\n      dup1\n      swap2\n      sub\n      swap1\n      return\n        /* \"Task1_assign4.sol\":326:347  string[] public tasks */\n    tag_6:\n      tag_20\n      0x04\n      dup1\n      calldatasize\n      sub\n      dup2\n      add\n      swap1\n      tag_21\n      swap2\n      swap1\n      tag_10\n      jump\t// in\n    tag_21:\n      tag_22\n      jump\t// in\n    tag_20:\n      mload(0x40)\n      tag_23\n      swap2\n      swap1\n      tag_24\n      jump\t// in\n    tag_23:\n      mload(0x40)\n      dup1\n      swap2\n      sub\n      swap1\n      return\n        /* \"Task1_assign4.sol\":94:114  address public admin */\n    tag_7:\n      tag_25\n      tag_26\n      jump\t// in\n    tag_25:\n      mload(0x40)\n      tag_27\n      swap2\n      swap1\n      tag_28\n      jump\t// in\n    tag_27:\n      mload(0x40)\n      dup1\n      swap2\n      sub\n      swap1\n      return\n        /* \"Task1_assign4.sol\":467:670  function deleteTask(uint index) public onlyAdmin {... */\n    tag_11:\n        /* \"Task1_assign4.sol\":248:253  admin */\n      0x00\n      dup1\n      sload\n      swap1\n      0x0100\n      exp\n      swap1\n      div\n      0xffffffffffffffffffffffffffffffffffffffff\n      and\n        /* \"Task1_assign4.sol\":234:253  msg.sender == admin */\n      0xffffffffffffffffffffffffffffffffffffffff\n      and\n        /* \"Task1_assign4.sol\":234:244  msg.sender */\n      caller\n        /* \"Task1_assign4.sol\":234:253  msg.sender == admin */\n      0xffffffffffffffffffffffffffffffffffffffff\n      and\n      eq\n        /* \"Task1_assign4.sol\":226:292  require(msg.sender == admin, \"Only admin can perform this action\") */\n      tag_30\n      jumpi\n      mload(0x40)\n      0x08c379a000000000000000000000000000000000000000000000000000000000\n      dup2\n      mstore\n      0x04\n      add\n      tag_31\n      swap1\n      tag_32\n      jump\t// in\n    tag_31:\n      mload(0x40)\n      dup1\n      swap2\n      sub\n      swap1\n      revert\n    tag_30:\n        /* \"Task1_assign4.sol\":543:548  tasks */\n      0x01\n        /* \"Task1_assign4.sol\":543:555  tasks.length */\n      dup1\n      sload\n      swap1\n      pop\n        /* \"Task1_assign4.sol\":535:540  index */\n      dup2\n        /* \"Task1_assign4.sol\":535:555  index < tasks.length */\n      lt\n        /* \"Task1_assign4.sol\":527:579  require(index < tasks.length, \"Index out of bounds\") */\n      tag_34\n      jumpi\n      mload(0x40)\n      0x08c379a000000000000000000000000000000000000000000000000000000000\n      dup2\n      mstore\n      0x04\n      add\n      tag_35\n      swap1\n      tag_36\n      jump\t// in\n    tag_35:\n      mload(0x40)\n      dup1\n      swap2\n      sub\n      swap1\n      revert\n    tag_34:\n        /* \"Task1_assign4.sol\":617:622  tasks */\n      0x01\n        /* \"Task1_assign4.sol\":638:639  1 */\n      dup1\n        /* \"Task1_assign4.sol\":623:628  tasks */\n      dup1\n        /* \"Task1_assign4.sol\":623:635  tasks.length */\n      dup1\n      sload\n      swap1\n      pop\n        /* \"Task1_assign4.sol\":623:639  tasks.length - 1 */\n      tag_37\n      swap2\n      swap1\n      tag_38\n      jump\t// in\n    tag_37:\n        /* \"Task1_assign4.sol\":617:640  tasks[tasks.length - 1] */\n      dup2\n      sload\n      dup2\n      lt\n      tag_39\n      jumpi\n      tag_40\n      tag_41\n      jump\t// in\n    tag_40:\n    tag_39:\n      swap1\n      0x00\n      mstore\n      keccak256(0x00, 0x20)\n      add\n        /* \"Task1_assign4.sol\":602:607  tasks */\n      0x01\n        /* \"Task1_assign4.sol\":608:613  index */\n      dup3\n        /* \"Task1_assign4.sol\":602:614  tasks[index] */\n      dup2\n      sload\n      dup2\n      lt\n      tag_43\n      jumpi\n      tag_44\n      tag_41\n      jump\t// in\n    tag_44:\n    tag_43:\n      swap1\n      0x00\n      mstore\n      keccak256(0x00, 0x20)\n      add\n        /* \"Task1_assign4.sol\":602:640  tasks[index] = tasks[tasks.length - 1] */\n      swap1\n      dup2\n      tag_46\n      swap2\n      swap1\n      tag_47\n      jump\t// in\n    tag_46:\n      pop\n        /* \"Task1_assign4.sol\":651:656  tasks */\n      0x01\n        /* \"Task1_assign4.sol\":651:662  tasks.pop() */\n      dup1\n      sload\n      dup1\n      tag_48\n      jumpi\n      tag_49\n      tag_50\n      jump\t// in\n    tag_49:\n    tag_48:\n      0x01\n      swap1\n      sub\n      dup2\n      dup2\n      swap1\n      0x00\n      mstore\n      keccak256(0x00, 0x20)\n      add\n      0x00\n      tag_52\n      swap2\n      swap1\n      tag_53\n      jump\t// in\n    tag_52:\n      swap1\n      sstore\n        /* \"Task1_assign4.sol\":467:670  function deleteTask(uint index) public onlyAdmin {... */\n      pop\n      jump\t// out\n        /* \"Task1_assign4.sol\":362:453  function addTask(string memory _task) public onlyAdmin {... */\n    tag_15:\n        /* \"Task1_assign4.sol\":248:253  admin */\n      0x00\n      dup1\n      sload\n      swap1\n      0x0100\n      exp\n      swap1\n      div\n      0xffffffffffffffffffffffffffffffffffffffff\n      and\n        /* \"Task1_assign4.sol\":234:253  msg.sender == admin */\n      0xffffffffffffffffffffffffffffffffffffffff\n      and\n        /* \"Task1_assign4.sol\":234:244  msg.sender */\n      caller\n        /* \"Task1_assign4.sol\":234:253  msg.sender == admin */\n      0xffffffffffffffffffffffffffffffffffffffff\n      and\n      eq\n        /* \"Task1_assign4.sol\":226:292  require(msg.sender == admin, \"Only admin can perform this action\") */\n      tag_55\n      jumpi\n      mload(0x40)\n      0x08c379a000000000000000000000000000000000000000000000000000000000\n      dup2\n      mstore\n      0x04\n      add\n      tag_56\n      swap1\n      tag_32\n      jump\t// in\n    tag_56:\n      mload(0x40)\n      dup1\n      swap2\n      sub\n      swap1\n      revert\n    tag_55:\n        /* \"Task1_assign4.sol\":428:433  tasks */\n      0x01\n        /* \"Task1_assign4.sol\":439:444  _task */\n      dup2\n        /* \"Task1_assign4.sol\":428:445  tasks.push(_task) */\n      swap1\n      dup1\n      0x01\n      dup2\n      sload\n      add\n      dup1\n      dup3\n      sstore\n      dup1\n      swap2\n      pop\n      pop\n      0x01\n      swap1\n      sub\n      swap1\n      0x00\n      mstore\n      keccak256(0x00, 0x20)\n      add\n      0x00\n      swap1\n      swap2\n      swap1\n      swap2\n      swap1\n      swap2\n      pop\n      swap1\n      dup2\n      tag_59\n      swap2\n      swap1\n      tag_60\n      jump\t// in\n    tag_59:\n      pop\n        /* \"Task1_assign4.sol\":362:453  function addTask(string memory _task) public onlyAdmin {... */\n      pop\n      jump\t// out\n        /* \"Task1_assign4.sol\":684:776  function getAllTasks() public view returns (string[] memory) {... */\n    tag_17:\n        /* \"Task1_assign4.sol\":728:743  string[] memory */\n      0x60\n        /* \"Task1_assign4.sol\":763:768  tasks */\n      0x01\n        /* \"Task1_assign4.sol\":756:768  return tasks */\n      dup1\n      sload\n      dup1\n      0x20\n      mul\n      0x20\n      add\n      mload(0x40)\n      swap1\n      dup2\n      add\n      0x40\n      mstore\n      dup1\n      swap3\n      swap2\n      swap1\n      dup2\n      dup2\n      mstore\n      0x20\n      add\n      0x00\n      swap1\n    tag_62:\n      dup3\n      dup3\n      lt\n      iszero\n      tag_63\n      jumpi\n      dup4\n      dup3\n      swap1\n      0x00\n      mstore\n      keccak256(0x00, 0x20)\n      add\n      dup1\n      sload\n      tag_65\n      swap1\n      tag_66\n      jump\t// in\n    tag_65:\n      dup1\n      0x1f\n      add\n      0x20\n      dup1\n      swap2\n      div\n      mul\n      0x20\n      add\n      mload(0x40)\n      swap1\n      dup2\n      add\n      0x40\n      mstore\n      dup1\n      swap3\n      swap2\n      swap1\n      dup2\n      dup2\n      mstore\n      0x20\n      add\n      dup3\n      dup1\n      sload\n      tag_67\n      swap1\n      tag_66\n      jump\t// in\n    tag_67:\n      dup1\n      iszero\n      tag_68\n      jumpi\n      dup1\n      0x1f\n      lt\n      tag_69\n      jumpi\n      0x0100\n      dup1\n      dup4\n      sload\n      div\n      mul\n      dup4\n      mstore\n      swap2\n      0x20\n      add\n      swap2\n      jump(tag_68)\n    tag_69:\n      dup3\n      add\n      swap2\n      swap1\n      0x00\n      mstore\n      keccak256(0x00, 0x20)\n      swap1\n    tag_70:\n      dup2\n      sload\n      dup2\n      mstore\n      swap1\n      0x01\n      add\n      swap1\n      0x20\n      add\n      dup1\n      dup4\n      gt\n      tag_70\n      jumpi\n      dup3\n      swap1\n      sub\n      0x1f\n      and\n      dup3\n      add\n      swap2\n    tag_68:\n      pop\n      pop\n      pop\n      pop\n      pop\n      dup2\n      mstore\n      0x20\n      add\n      swap1\n      0x01\n      add\n      swap1\n      jump(tag_62)\n    tag_63:\n      pop\n      pop\n      pop\n      pop\n      swap1\n      pop\n        /* \"Task1_assign4.sol\":684:776  function getAllTasks() public view returns (string[] memory) {... */\n      swap1\n      jump\t// out\n        /* \"Task1_assign4.sol\":326:347  string[] public tasks */\n    tag_22:\n      0x01\n      dup2\n      dup2\n      sload\n      dup2\n      lt\n      tag_71\n      jumpi\n      0x00\n      dup1\n      revert\n    tag_71:\n      swap1\n      0x00\n      mstore\n      keccak256(0x00, 0x20)\n      add\n      0x00\n      swap2\n      pop\n      swap1\n      pop\n      dup1\n      sload\n      tag_73\n      swap1\n      tag_66\n      jump\t// in\n    tag_73:\n      dup1\n      0x1f\n      add\n      0x20\n      dup1\n      swap2\n      div\n      mul\n      0x20\n      add\n      mload(0x40)\n      swap1\n      dup2\n      add\n      0x40\n      mstore\n      dup1\n      swap3\n      swap2\n      swap1\n      dup2\n      dup2\n      mstore\n      0x20\n      add\n      dup3\n      dup1\n      sload\n      tag_74\n      swap1\n      tag_66\n      jump\t// in\n    tag_74:\n      dup1\n      iszero\n      tag_75\n      jumpi\n      dup1\n      0x1f\n      lt\n      tag_76\n      jumpi\n      0x0100\n      dup1\n      dup4\n      sload\n      div\n      mul\n      dup4\n      mstore\n      swap2\n      0x20\n      add\n      swap2\n      jump(tag_75)\n    tag_76:\n      dup3\n      add\n      swap2\n      swap1\n      0x00\n      mstore\n      keccak256(0x00, 0x20)\n      swap1\n    tag_77:\n      dup2\n      sload\n      dup2\n      mstore\n      swap1\n      0x01\n      add\n      swap1\n      0x20\n      add\n      dup1\n      dup4\n      gt\n      tag_77\n      jumpi\n      dup3\n      swap1\n      sub\n      0x1f\n      and\n      dup3\n      add\n      swap2\n    tag_75:\n      pop\n      pop\n      pop\n      pop\n      pop\n      dup2\n      jump\t// out\n        /* \"Task1_assign4.sol\":94:114  address public admin */\n    tag_26:\n      0x00\n      dup1\n      sload\n      swap1\n      0x0100\n      exp\n      swap1\n      div\n      0xffffffffffffffffffffffffffffffffffffffff\n      and\n      dup2\n      jump\t// out\n    tag_53:\n      pop\n      dup1\n      sload\n      tag_78\n      swap1\n      tag_66\n      jump\t// in\n    tag_78:\n      0x00\n      dup3\n      sstore\n      dup1\n      0x1f\n      lt\n      tag_80\n      jumpi\n      pop\n      jump(tag_79)\n    tag_80:\n      0x1f\n      add\n      0x20\n      swap1\n      div\n      swap1\n      0x00\n      mstore\n      keccak256(0x00, 0x20)\n      swap1\n      dup2\n      add\n      swap1\n      tag_81\n      swap2\n      swap1\n      tag_82\n      jump\t// in\n    tag_81:\n    tag_79:\n      pop\n      jump\t// out\n    tag_82:\n    tag_83:\n      dup1\n      dup3\n      gt\n      iszero\n      tag_84\n      jumpi\n      0x00\n      dup2\n      0x00\n      swap1\n      sstore\n      pop\n      0x01\n      add\n      jump(tag_83)\n    tag_84:\n      pop\n      swap1\n      jump\t// out\n        /* \"#utility.yul\":7:82   */\n    tag_85:\n        /* \"#utility.yul\":40:46   */\n      0x00\n        /* \"#utility.yul\":73:75   */\n      0x40\n        /* \"#utility.yul\":67:76   */\n      mload\n        /* \"#utility.yul\":57:76   */\n      swap1\n      pop\n        /* \"#utility.yul\":7:82   */\n      swap1\n      jump\t// out\n        /* \"#utility.yul\":88:205   */\n    tag_86:\n        /* \"#utility.yul\":197:198   */\n      0x00\n        /* \"#utility.yul\":194:195   */\n      dup1\n        /* \"#utility.yul\":187:199   */\n      revert\n        /* \"#utility.yul\":211:328   */\n    tag_87:\n        /* \"#utility.yul\":320:321   */\n      0x00\n        /* \"#utility.yul\":317:318   */\n      dup1\n        /* \"#utility.yul\":310:322   */\n      revert\n        /* \"#utility.yul\":334:411   */\n    tag_88:\n        /* \"#utility.yul\":371:378   */\n      0x00\n        /* \"#utility.yul\":400:405   */\n      dup2\n        /* \"#utility.yul\":389:405   */\n      swap1\n      pop\n        /* \"#utility.yul\":334:411   */\n      swap2\n      swap1\n      pop\n      jump\t// out\n        /* \"#utility.yul\":417:539   */\n    tag_89:\n        /* \"#utility.yul\":490:514   */\n      tag_145\n        /* \"#utility.yul\":508:513   */\n      dup2\n        /* \"#utility.yul\":490:514   */\n      tag_88\n      jump\t// in\n    tag_145:\n        /* \"#utility.yul\":483:488   */\n      dup2\n        /* \"#utility.yul\":480:515   */\n      eq\n        /* \"#utility.yul\":470:533   */\n      tag_146\n      jumpi\n        /* \"#utility.yul\":529:530   */\n      0x00\n        /* \"#utility.yul\":526:527   */\n      dup1\n        /* \"#utility.yul\":519:531   */\n      revert\n        /* \"#utility.yul\":470:533   */\n    tag_146:\n        /* \"#utility.yul\":417:539   */\n      pop\n      jump\t// out\n        /* \"#utility.yul\":545:684   */\n    tag_90:\n        /* \"#utility.yul\":591:596   */\n      0x00\n        /* \"#utility.yul\":629:635   */\n      dup2\n        /* \"#utility.yul\":616:636   */\n      calldataload\n        /* \"#utility.yul\":607:636   */\n      swap1\n      pop\n        /* \"#utility.yul\":645:678   */\n      tag_148\n        /* \"#utility.yul\":672:677   */\n      dup2\n        /* \"#utility.yul\":645:678   */\n      tag_89\n      jump\t// in\n    tag_148:\n        /* \"#utility.yul\":545:684   */\n      swap3\n      swap2\n      pop\n      pop\n      jump\t// out\n        /* \"#utility.yul\":690:1019   */\n    tag_10:\n        /* \"#utility.yul\":749:755   */\n      0x00\n        /* \"#utility.yul\":798:800   */\n      0x20\n        /* \"#utility.yul\":786:795   */\n      dup3\n        /* \"#utility.yul\":777:784   */\n      dup5\n        /* \"#utility.yul\":773:796   */\n      sub\n        /* \"#utility.yul\":769:801   */\n      slt\n        /* \"#utility.yul\":766:885   */\n      iszero\n      tag_150\n      jumpi\n        /* \"#utility.yul\":804:883   */\n      tag_151\n      tag_86\n      jump\t// in\n    tag_151:\n        /* \"#utility.yul\":766:885   */\n    tag_150:\n        /* \"#utility.yul\":924:925   */\n      0x00\n        /* \"#utility.yul\":949:1002   */\n      tag_152\n        /* \"#utility.yul\":994:1001   */\n      dup5\n        /* \"#utility.yul\":985:991   */\n      dup3\n        /* \"#utility.yul\":974:983   */\n      dup6\n        /* \"#utility.yul\":970:992   */\n      add\n        /* \"#utility.yul\":949:1002   */\n      tag_90\n      jump\t// in\n    tag_152:\n        /* \"#utility.yul\":939:1002   */\n      swap2\n      pop\n        /* \"#utility.yul\":895:1012   */\n      pop\n        /* \"#utility.yul\":690:1019   */\n      swap3\n      swap2\n      pop\n      pop\n      jump\t// out\n        /* \"#utility.yul\":1025:1142   */\n    tag_91:\n        /* \"#utility.yul\":1134:1135   */\n      0x00\n        /* \"#utility.yul\":1131:1132   */\n      dup1\n        /* \"#utility.yul\":1124:1136   */\n      revert\n        /* \"#utility.yul\":1148:1265   */\n    tag_92:\n        /* \"#utility.yul\":1257:1258   */\n      0x00\n        /* \"#utility.yul\":1254:1255   */\n      dup1\n        /* \"#utility.yul\":1247:1259   */\n      revert\n        /* \"#utility.yul\":1271:1373   */\n    tag_93:\n        /* \"#utility.yul\":1312:1318   */\n      0x00\n        /* \"#utility.yul\":1363:1365   */\n      0x1f\n        /* \"#utility.yul\":1359:1366   */\n      not\n        /* \"#utility.yul\":1354:1356   */\n      0x1f\n        /* \"#utility.yul\":1347:1352   */\n      dup4\n        /* \"#utility.yul\":1343:1357   */\n      add\n        /* \"#utility.yul\":1339:1367   */\n      and\n        /* \"#utility.yul\":1329:1367   */\n      swap1\n      pop\n        /* \"#utility.yul\":1271:1373   */\n      swap2\n      swap1\n      pop\n      jump\t// out\n        /* \"#utility.yul\":1379:1559   */\n    tag_94:\n        /* \"#utility.yul\":1427:1504   */\n      0x4e487b7100000000000000000000000000000000000000000000000000000000\n        /* \"#utility.yul\":1424:1425   */\n      0x00\n        /* \"#utility.yul\":1417:1505   */\n      mstore\n        /* \"#utility.yul\":1524:1528   */\n      0x41\n        /* \"#utility.yul\":1521:1522   */\n      0x04\n        /* \"#utility.yul\":1514:1529   */\n      mstore\n        /* \"#utility.yul\":1548:1552   */\n      0x24\n        /* \"#utility.yul\":1545:1546   */\n      0x00\n        /* \"#utility.yul\":1538:1553   */\n      revert\n        /* \"#utility.yul\":1565:1846   */\n    tag_95:\n        /* \"#utility.yul\":1648:1675   */\n      tag_158\n        /* \"#utility.yul\":1670:1674   */\n      dup3\n        /* \"#utility.yul\":1648:1675   */\n      tag_93\n      jump\t// in\n    tag_158:\n        /* \"#utility.yul\":1640:1646   */\n      dup2\n        /* \"#utility.yul\":1636:1676   */\n      add\n        /* \"#utility.yul\":1778:1784   */\n      dup2\n        /* \"#utility.yul\":1766:1776   */\n      dup2\n        /* \"#utility.yul\":1763:1785   */\n      lt\n        /* \"#utility.yul\":1742:1760   */\n      0xffffffffffffffff\n        /* \"#utility.yul\":1730:1740   */\n      dup3\n        /* \"#utility.yul\":1727:1761   */\n      gt\n        /* \"#utility.yul\":1724:1786   */\n      or\n        /* \"#utility.yul\":1721:1809   */\n      iszero\n      tag_159\n      jumpi\n        /* \"#utility.yul\":1789:1807   */\n      tag_160\n      tag_94\n      jump\t// in\n    tag_160:\n        /* \"#utility.yul\":1721:1809   */\n    tag_159:\n        /* \"#utility.yul\":1829:1839   */\n      dup1\n        /* \"#utility.yul\":1825:1827   */\n      0x40\n        /* \"#utility.yul\":1818:1840   */\n      mstore\n        /* \"#utility.yul\":1608:1846   */\n      pop\n        /* \"#utility.yul\":1565:1846   */\n      pop\n      pop\n      jump\t// out\n        /* \"#utility.yul\":1852:1981   */\n    tag_96:\n        /* \"#utility.yul\":1886:1892   */\n      0x00\n        /* \"#utility.yul\":1913:1933   */\n      tag_162\n      tag_85\n      jump\t// in\n    tag_162:\n        /* \"#utility.yul\":1903:1933   */\n      swap1\n      pop\n        /* \"#utility.yul\":1942:1975   */\n      tag_163\n        /* \"#utility.yul\":1970:1974   */\n      dup3\n        /* \"#utility.yul\":1962:1968   */\n      dup3\n        /* \"#utility.yul\":1942:1975   */\n      tag_95\n      jump\t// in\n    tag_163:\n        /* \"#utility.yul\":1852:1981   */\n      swap2\n      swap1\n      pop\n      jump\t// out\n        /* \"#utility.yul\":1987:2295   */\n    tag_97:\n        /* \"#utility.yul\":2049:2053   */\n      0x00\n        /* \"#utility.yul\":2139:2157   */\n      0xffffffffffffffff\n        /* \"#utility.yul\":2131:2137   */\n      dup3\n        /* \"#utility.yul\":2128:2158   */\n      gt\n        /* \"#utility.yul\":2125:2181   */\n      iszero\n      tag_165\n      jumpi\n        /* \"#utility.yul\":2161:2179   */\n      tag_166\n      tag_94\n      jump\t// in\n    tag_166:\n        /* \"#utility.yul\":2125:2181   */\n    tag_165:\n        /* \"#utility.yul\":2199:2228   */\n      tag_167\n        /* \"#utility.yul\":2221:2227   */\n      dup3\n        /* \"#utility.yul\":2199:2228   */\n      tag_93\n      jump\t// in\n    tag_167:\n        /* \"#utility.yul\":2191:2228   */\n      swap1\n      pop\n        /* \"#utility.yul\":2283:2287   */\n      0x20\n        /* \"#utility.yul\":2277:2281   */\n      dup2\n        /* \"#utility.yul\":2273:2288   */\n      add\n        /* \"#utility.yul\":2265:2288   */\n      swap1\n      pop\n        /* \"#utility.yul\":1987:2295   */\n      swap2\n      swap1\n      pop\n      jump\t// out\n        /* \"#utility.yul\":2301:2449   */\n    tag_98:\n        /* \"#utility.yul\":2399:2405   */\n      dup3\n        /* \"#utility.yul\":2394:2397   */\n      dup2\n        /* \"#utility.yul\":2389:2392   */\n      dup4\n        /* \"#utility.yul\":2376:2406   */\n      calldatacopy\n        /* \"#utility.yul\":2440:2441   */\n      0x00\n        /* \"#utility.yul\":2431:2437   */\n      dup4\n        /* \"#utility.yul\":2426:2429   */\n      dup4\n        /* \"#utility.yul\":2422:2438   */\n      add\n        /* \"#utility.yul\":2415:2442   */\n      mstore\n        /* \"#utility.yul\":2301:2449   */\n      pop\n      pop\n      pop\n      jump\t// out\n        /* \"#utility.yul\":2455:2880   */\n    tag_99:\n        /* \"#utility.yul\":2533:2538   */\n      0x00\n        /* \"#utility.yul\":2558:2624   */\n      tag_170\n        /* \"#utility.yul\":2574:2623   */\n      tag_171\n        /* \"#utility.yul\":2616:2622   */\n      dup5\n        /* \"#utility.yul\":2574:2623   */\n      tag_97\n      jump\t// in\n    tag_171:\n        /* \"#utility.yul\":2558:2624   */\n      tag_96\n      jump\t// in\n    tag_170:\n        /* \"#utility.yul\":2549:2624   */\n      swap1\n      pop\n        /* \"#utility.yul\":2647:2653   */\n      dup3\n        /* \"#utility.yul\":2640:2645   */\n      dup2\n        /* \"#utility.yul\":2633:2654   */\n      mstore\n        /* \"#utility.yul\":2685:2689   */\n      0x20\n        /* \"#utility.yul\":2678:2683   */\n      dup2\n        /* \"#utility.yul\":2674:2690   */\n      add\n        /* \"#utility.yul\":2723:2726   */\n      dup5\n        /* \"#utility.yul\":2714:2720   */\n      dup5\n        /* \"#utility.yul\":2709:2712   */\n      dup5\n        /* \"#utility.yul\":2705:2721   */\n      add\n        /* \"#utility.yul\":2702:2727   */\n      gt\n        /* \"#utility.yul\":2699:2811   */\n      iszero\n      tag_172\n      jumpi\n        /* \"#utility.yul\":2730:2809   */\n      tag_173\n      tag_92\n      jump\t// in\n    tag_173:\n        /* \"#utility.yul\":2699:2811   */\n    tag_172:\n        /* \"#utility.yul\":2820:2874   */\n      tag_174\n        /* \"#utility.yul\":2867:2873   */\n      dup5\n        /* \"#utility.yul\":2862:2865   */\n      dup3\n        /* \"#utility.yul\":2857:2860   */\n      dup6\n        /* \"#utility.yul\":2820:2874   */\n      tag_98\n      jump\t// in\n    tag_174:\n        /* \"#utility.yul\":2539:2880   */\n      pop\n        /* \"#utility.yul\":2455:2880   */\n      swap4\n      swap3\n      pop\n      pop\n      pop\n      jump\t// out\n        /* \"#utility.yul\":2900:3240   */\n    tag_100:\n        /* \"#utility.yul\":2956:2961   */\n      0x00\n        /* \"#utility.yul\":3005:3008   */\n      dup3\n        /* \"#utility.yul\":2998:3002   */\n      0x1f\n        /* \"#utility.yul\":2990:2996   */\n      dup4\n        /* \"#utility.yul\":2986:3003   */\n      add\n        /* \"#utility.yul\":2982:3009   */\n      slt\n        /* \"#utility.yul\":2972:3094   */\n      tag_176\n      jumpi\n        /* \"#utility.yul\":3013:3092   */\n      tag_177\n      tag_91\n      jump\t// in\n    tag_177:\n        /* \"#utility.yul\":2972:3094   */\n    tag_176:\n        /* \"#utility.yul\":3130:3136   */\n      dup2\n        /* \"#utility.yul\":3117:3137   */\n      calldataload\n        /* \"#utility.yul\":3155:3234   */\n      tag_178\n        /* \"#utility.yul\":3230:3233   */\n      dup5\n        /* \"#utility.yul\":3222:3228   */\n      dup3\n        /* \"#utility.yul\":3215:3219   */\n      0x20\n        /* \"#utility.yul\":3207:3213   */\n      dup7\n        /* \"#utility.yul\":3203:3220   */\n      add\n        /* \"#utility.yul\":3155:3234   */\n      tag_99\n      jump\t// in\n    tag_178:\n        /* \"#utility.yul\":3146:3234   */\n      swap2\n      pop\n        /* \"#utility.yul\":2962:3240   */\n      pop\n        /* \"#utility.yul\":2900:3240   */\n      swap3\n      swap2\n      pop\n      pop\n      jump\t// out\n        /* \"#utility.yul\":3246:3755   */\n    tag_14:\n        /* \"#utility.yul\":3315:3321   */\n      0x00\n        /* \"#utility.yul\":3364:3366   */\n      0x20\n        /* \"#utility.yul\":3352:3361   */\n      dup3\n        /* \"#utility.yul\":3343:3350   */\n      dup5\n        /* \"#utility.yul\":3339:3362   */\n      sub\n        /* \"#utility.yul\":3335:3367   */\n      slt\n        /* \"#utility.yul\":3332:3451   */\n      iszero\n      tag_180\n      jumpi\n        /* \"#utility.yul\":3370:3449   */\n      tag_181\n      tag_86\n      jump\t// in\n    tag_181:\n        /* \"#utility.yul\":3332:3451   */\n    tag_180:\n        /* \"#utility.yul\":3518:3519   */\n      0x00\n        /* \"#utility.yul\":3507:3516   */\n      dup3\n        /* \"#utility.yul\":3503:3520   */\n      add\n        /* \"#utility.yul\":3490:3521   */\n      calldataload\n        /* \"#utility.yul\":3548:3566   */\n      0xffffffffffffffff\n        /* \"#utility.yul\":3540:3546   */\n      dup2\n        /* \"#utility.yul\":3537:3567   */\n      gt\n        /* \"#utility.yul\":3534:3651   */\n      iszero\n      tag_182\n      jumpi\n        /* \"#utility.yul\":3570:3649   */\n      tag_183\n      tag_87\n      jump\t// in\n    tag_183:\n        /* \"#utility.yul\":3534:3651   */\n    tag_182:\n        /* \"#utility.yul\":3675:3738   */\n      tag_184\n        /* \"#utility.yul\":3730:3737   */\n      dup5\n        /* \"#utility.yul\":3721:3727   */\n      dup3\n        /* \"#utility.yul\":3710:3719   */\n      dup6\n        /* \"#utility.yul\":3706:3728   */\n      add\n        /* \"#utility.yul\":3675:3738   */\n      tag_100\n      jump\t// in\n    tag_184:\n        /* \"#utility.yul\":3665:3738   */\n      swap2\n      pop\n        /* \"#utility.yul\":3461:3748   */\n      pop\n        /* \"#utility.yul\":3246:3755   */\n      swap3\n      swap2\n      pop\n      pop\n      jump\t// out\n        /* \"#utility.yul\":3761:3885   */\n    tag_101:\n        /* \"#utility.yul\":3838:3844   */\n      0x00\n        /* \"#utility.yul\":3872:3877   */\n      dup2\n        /* \"#utility.yul\":3866:3878   */\n      mload\n        /* \"#utility.yul\":3856:3878   */\n      swap1\n      pop\n        /* \"#utility.yul\":3761:3885   */\n      swap2\n      swap1\n      pop\n      jump\t// out\n        /* \"#utility.yul\":3891:4085   */\n    tag_102:\n        /* \"#utility.yul\":4000:4011   */\n      0x00\n        /* \"#utility.yul\":4034:4040   */\n      dup3\n        /* \"#utility.yul\":4029:4032   */\n      dup3\n        /* \"#utility.yul\":4022:4041   */\n      mstore\n        /* \"#utility.yul\":4074:4078   */\n      0x20\n        /* \"#utility.yul\":4069:4072   */\n      dup3\n        /* \"#utility.yul\":4065:4079   */\n      add\n        /* \"#utility.yul\":4050:4079   */\n      swap1\n      pop\n        /* \"#utility.yul\":3891:4085   */\n      swap3\n      swap2\n      pop\n      pop\n      jump\t// out\n        /* \"#utility.yul\":4091:4233   */\n    tag_103:\n        /* \"#utility.yul\":4168:4172   */\n      0x00\n        /* \"#utility.yul\":4191:4194   */\n      dup2\n        /* \"#utility.yul\":4183:4194   */\n      swap1\n      pop\n        /* \"#utility.yul\":4221:4225   */\n      0x20\n        /* \"#utility.yul\":4216:4219   */\n      dup3\n        /* \"#utility.yul\":4212:4226   */\n      add\n        /* \"#utility.yul\":4204:4226   */\n      swap1\n      pop\n        /* \"#utility.yul\":4091:4233   */\n      swap2\n      swap1\n      pop\n      jump\t// out\n        /* \"#utility.yul\":4239:4338   */\n    tag_104:\n        /* \"#utility.yul\":4291:4297   */\n      0x00\n        /* \"#utility.yul\":4325:4330   */\n      dup2\n        /* \"#utility.yul\":4319:4331   */\n      mload\n        /* \"#utility.yul\":4309:4331   */\n      swap1\n      pop\n        /* \"#utility.yul\":4239:4338   */\n      swap2\n      swap1\n      pop\n      jump\t// out\n        /* \"#utility.yul\":4344:4503   */\n    tag_105:\n        /* \"#utility.yul\":4418:4429   */\n      0x00\n        /* \"#utility.yul\":4452:4458   */\n      dup3\n        /* \"#utility.yul\":4447:4450   */\n      dup3\n        /* \"#utility.yul\":4440:4459   */\n      mstore\n        /* \"#utility.yul\":4492:4496   */\n      0x20\n        /* \"#utility.yul\":4487:4490   */\n      dup3\n        /* \"#utility.yul\":4483:4497   */\n      add\n        /* \"#utility.yul\":4468:4497   */\n      swap1\n      pop\n        /* \"#utility.yul\":4344:4503   */\n      swap3\n      swap2\n      pop\n      pop\n      jump\t// out\n        /* \"#utility.yul\":4509:4648   */\n    tag_106:\n        /* \"#utility.yul\":4598:4604   */\n      dup3\n        /* \"#utility.yul\":4593:4596   */\n      dup2\n        /* \"#utility.yul\":4588:4591   */\n      dup4\n        /* \"#utility.yul\":4582:4605   */\n      mcopy\n        /* \"#utility.yul\":4639:4640   */\n      0x00\n        /* \"#utility.yul\":4630:4636   */\n      dup4\n        /* \"#utility.yul\":4625:4628   */\n      dup4\n        /* \"#utility.yul\":4621:4637   */\n      add\n        /* \"#utility.yul\":4614:4641   */\n      mstore\n        /* \"#utility.yul\":4509:4648   */\n      pop\n      pop\n      pop\n      jump\t// out\n        /* \"#utility.yul\":4654:5011   */\n    tag_107:\n        /* \"#utility.yul\":4732:4735   */\n      0x00\n        /* \"#utility.yul\":4760:4799   */\n      tag_192\n        /* \"#utility.yul\":4793:4798   */\n      dup3\n        /* \"#utility.yul\":4760:4799   */\n      tag_104\n      jump\t// in\n    tag_192:\n        /* \"#utility.yul\":4815:4876   */\n      tag_193\n        /* \"#utility.yul\":4869:4875   */\n      dup2\n        /* \"#utility.yul\":4864:4867   */\n      dup6\n        /* \"#utility.yul\":4815:4876   */\n      tag_105\n      jump\t// in\n    tag_193:\n        /* \"#utility.yul\":4808:4876   */\n      swap4\n      pop\n        /* \"#utility.yul\":4885:4950   */\n      tag_194\n        /* \"#utility.yul\":4943:4949   */\n      dup2\n        /* \"#utility.yul\":4938:4941   */\n      dup6\n        /* \"#utility.yul\":4931:4935   */\n      0x20\n        /* \"#utility.yul\":4924:4929   */\n      dup7\n        /* \"#utility.yul\":4920:4936   */\n      add\n        /* \"#utility.yul\":4885:4950   */\n      tag_106\n      jump\t// in\n    tag_194:\n        /* \"#utility.yul\":4975:5004   */\n      tag_195\n        /* \"#utility.yul\":4997:5003   */\n      dup2\n        /* \"#utility.yul\":4975:5004   */\n      tag_93\n      jump\t// in\n    tag_195:\n        /* \"#utility.yul\":4970:4973   */\n      dup5\n        /* \"#utility.yul\":4966:5005   */\n      add\n        /* \"#utility.yul\":4959:5005   */\n      swap2\n      pop\n        /* \"#utility.yul\":4736:5011   */\n      pop\n        /* \"#utility.yul\":4654:5011   */\n      swap3\n      swap2\n      pop\n      pop\n      jump\t// out\n        /* \"#utility.yul\":5017:5213   */\n    tag_108:\n        /* \"#utility.yul\":5106:5116   */\n      0x00\n        /* \"#utility.yul\":5141:5207   */\n      tag_197\n        /* \"#utility.yul\":5203:5206   */\n      dup4\n        /* \"#utility.yul\":5195:5201   */\n      dup4\n        /* \"#utility.yul\":5141:5207   */\n      tag_107\n      jump\t// in\n    tag_197:\n        /* \"#utility.yul\":5127:5207   */\n      swap1\n      pop\n        /* \"#utility.yul\":5017:5213   */\n      swap3\n      swap2\n      pop\n      pop\n      jump\t// out\n        /* \"#utility.yul\":5219:5342   */\n    tag_109:\n        /* \"#utility.yul\":5299:5303   */\n      0x00\n        /* \"#utility.yul\":5331:5335   */\n      0x20\n        /* \"#utility.yul\":5326:5329   */\n      dup3\n        /* \"#utility.yul\":5322:5336   */\n      add\n        /* \"#utility.yul\":5314:5336   */\n      swap1\n      pop\n        /* \"#utility.yul\":5219:5342   */\n      swap2\n      swap1\n      pop\n      jump\t// out\n        /* \"#utility.yul\":5376:6367   */\n    tag_110:\n        /* \"#utility.yul\":5515:5518   */\n      0x00\n        /* \"#utility.yul\":5544:5608   */\n      tag_200\n        /* \"#utility.yul\":5602:5607   */\n      dup3\n        /* \"#utility.yul\":5544:5608   */\n      tag_101\n      jump\t// in\n    tag_200:\n        /* \"#utility.yul\":5624:5720   */\n      tag_201\n        /* \"#utility.yul\":5713:5719   */\n      dup2\n        /* \"#utility.yul\":5708:5711   */\n      dup6\n        /* \"#utility.yul\":5624:5720   */\n      tag_102\n      jump\t// in\n    tag_201:\n        /* \"#utility.yul\":5617:5720   */\n      swap4\n      pop\n        /* \"#utility.yul\":5746:5749   */\n      dup4\n        /* \"#utility.yul\":5791:5795   */\n      0x20\n        /* \"#utility.yul\":5783:5789   */\n      dup3\n        /* \"#utility.yul\":5779:5796   */\n      mul\n        /* \"#utility.yul\":5774:5777   */\n      dup6\n        /* \"#utility.yul\":5770:5797   */\n      add\n        /* \"#utility.yul\":5821:5887   */\n      tag_202\n        /* \"#utility.yul\":5881:5886   */\n      dup6\n        /* \"#utility.yul\":5821:5887   */\n      tag_103\n      jump\t// in\n    tag_202:\n        /* \"#utility.yul\":5910:5917   */\n      dup1\n        /* \"#utility.yul\":5941:5942   */\n      0x00\n        /* \"#utility.yul\":5926:6322   */\n    tag_203:\n        /* \"#utility.yul\":5951:5957   */\n      dup6\n        /* \"#utility.yul\":5948:5949   */\n      dup2\n        /* \"#utility.yul\":5945:5958   */\n      lt\n        /* \"#utility.yul\":5926:6322   */\n      iszero\n      tag_205\n      jumpi\n        /* \"#utility.yul\":6022:6031   */\n      dup5\n        /* \"#utility.yul\":6016:6020   */\n      dup5\n        /* \"#utility.yul\":6012:6032   */\n      sub\n        /* \"#utility.yul\":6007:6010   */\n      dup10\n        /* \"#utility.yul\":6000:6033   */\n      mstore\n        /* \"#utility.yul\":6073:6079   */\n      dup2\n        /* \"#utility.yul\":6067:6080   */\n      mload\n        /* \"#utility.yul\":6101:6185   */\n      tag_206\n        /* \"#utility.yul\":6180:6184   */\n      dup6\n        /* \"#utility.yul\":6165:6178   */\n      dup3\n        /* \"#utility.yul\":6101:6185   */\n      tag_108\n      jump\t// in\n    tag_206:\n        /* \"#utility.yul\":6093:6185   */\n      swap5\n      pop\n        /* \"#utility.yul\":6208:6278   */\n      tag_207\n        /* \"#utility.yul\":6271:6277   */\n      dup4\n        /* \"#utility.yul\":6208:6278   */\n      tag_109\n      jump\t// in\n    tag_207:\n        /* \"#utility.yul\":6198:6278   */\n      swap3\n      pop\n        /* \"#utility.yul\":6307:6311   */\n      0x20\n        /* \"#utility.yul\":6302:6305   */\n      dup11\n        /* \"#utility.yul\":6298:6312   */\n      add\n        /* \"#utility.yul\":6291:6312   */\n      swap10\n      pop\n        /* \"#utility.yul\":5986:6322   */\n      pop\n        /* \"#utility.yul\":5973:5974   */\n      0x01\n        /* \"#utility.yul\":5970:5971   */\n      dup2\n        /* \"#utility.yul\":5966:5975   */\n      add\n        /* \"#utility.yul\":5961:5975   */\n      swap1\n      pop\n        /* \"#utility.yul\":5926:6322   */\n      jump(tag_203)\n    tag_205:\n        /* \"#utility.yul\":5930:5944   */\n      pop\n        /* \"#utility.yul\":6338:6342   */\n      dup3\n        /* \"#utility.yul\":6331:6342   */\n      swap8\n      pop\n        /* \"#utility.yul\":6358:6361   */\n      dup8\n        /* \"#utility.yul\":6351:6361   */\n      swap6\n      pop\n        /* \"#utility.yul\":5520:6367   */\n      pop\n      pop\n      pop\n      pop\n      pop\n        /* \"#utility.yul\":5376:6367   */\n      swap3\n      swap2\n      pop\n      pop\n      jump\t// out\n        /* \"#utility.yul\":6373:6786   */\n    tag_19:\n        /* \"#utility.yul\":6536:6540   */\n      0x00\n        /* \"#utility.yul\":6574:6576   */\n      0x20\n        /* \"#utility.yul\":6563:6572   */\n      dup3\n        /* \"#utility.yul\":6559:6577   */\n      add\n        /* \"#utility.yul\":6551:6577   */\n      swap1\n      pop\n        /* \"#utility.yul\":6623:6632   */\n      dup2\n        /* \"#utility.yul\":6617:6621   */\n      dup2\n        /* \"#utility.yul\":6613:6633   */\n      sub\n        /* \"#utility.yul\":6609:6610   */\n      0x00\n        /* \"#utility.yul\":6598:6607   */\n      dup4\n        /* \"#utility.yul\":6594:6611   */\n      add\n        /* \"#utility.yul\":6587:6634   */\n      mstore\n        /* \"#utility.yul\":6651:6779   */\n      tag_209\n        /* \"#utility.yul\":6774:6778   */\n      dup2\n        /* \"#utility.yul\":6765:6771   */\n      dup5\n        /* \"#utility.yul\":6651:6779   */\n      tag_110\n      jump\t// in\n    tag_209:\n        /* \"#utility.yul\":6643:6779   */\n      swap1\n      pop\n        /* \"#utility.yul\":6373:6786   */\n      swap3\n      swap2\n      pop\n      pop\n      jump\t// out\n        /* \"#utility.yul\":6792:6961   */\n    tag_111:\n        /* \"#utility.yul\":6876:6887   */\n      0x00\n        /* \"#utility.yul\":6910:6916   */\n      dup3\n        /* \"#utility.yul\":6905:6908   */\n      dup3\n        /* \"#utility.yul\":6898:6917   */\n      mstore\n        /* \"#utility.yul\":6950:6954   */\n      0x20\n        /* \"#utility.yul\":6945:6948   */\n      dup3\n        /* \"#utility.yul\":6941:6955   */\n      add\n        /* \"#utility.yul\":6926:6955   */\n      swap1\n      pop\n        /* \"#utility.yul\":6792:6961   */\n      swap3\n      swap2\n      pop\n      pop\n      jump\t// out\n        /* \"#utility.yul\":6967:7344   */\n    tag_112:\n        /* \"#utility.yul\":7055:7058   */\n      0x00\n        /* \"#utility.yul\":7083:7122   */\n      tag_212\n        /* \"#utility.yul\":7116:7121   */\n      dup3\n        /* \"#utility.yul\":7083:7122   */\n      tag_104\n      jump\t// in\n    tag_212:\n        /* \"#utility.yul\":7138:7209   */\n      tag_213\n        /* \"#utility.yul\":7202:7208   */\n      dup2\n        /* \"#utility.yul\":7197:7200   */\n      dup6\n        /* \"#utility.yul\":7138:7209   */\n      tag_111\n      jump\t// in\n    tag_213:\n        /* \"#utility.yul\":7131:7209   */\n      swap4\n      pop\n        /* \"#utility.yul\":7218:7283   */\n      tag_214\n        /* \"#utility.yul\":7276:7282   */\n      dup2\n        /* \"#utility.yul\":7271:7274   */\n      dup6\n        /* \"#utility.yul\":7264:7268   */\n      0x20\n        /* \"#utility.yul\":7257:7262   */\n      dup7\n        /* \"#utility.yul\":7253:7269   */\n      add\n        /* \"#utility.yul\":7218:7283   */\n      tag_106\n      jump\t// in\n    tag_214:\n        /* \"#utility.yul\":7308:7337   */\n      tag_215\n        /* \"#utility.yul\":7330:7336   */\n      dup2\n        /* \"#utility.yul\":7308:7337   */\n      tag_93\n      jump\t// in\n    tag_215:\n        /* \"#utility.yul\":7303:7306   */\n      dup5\n        /* \"#utility.yul\":7299:7338   */\n      add\n        /* \"#utility.yul\":7292:7338   */\n      swap2\n      pop\n        /* \"#utility.yul\":7059:7344   */\n      pop\n        /* \"#utility.yul\":6967:7344   */\n      swap3\n      swap2\n      pop\n      pop\n      jump\t// out\n        /* \"#utility.yul\":7350:7663   */\n    tag_24:\n        /* \"#utility.yul\":7463:7467   */\n      0x00\n        /* \"#utility.yul\":7501:7503   */\n      0x20\n        /* \"#utility.yul\":7490:7499   */\n      dup3\n        /* \"#utility.yul\":7486:7504   */\n      add\n        /* \"#utility.yul\":7478:7504   */\n      swap1\n      pop\n        /* \"#utility.yul\":7550:7559   */\n      dup2\n        /* \"#utility.yul\":7544:7548   */\n      dup2\n        /* \"#utility.yul\":7540:7560   */\n      sub\n        /* \"#utility.yul\":7536:7537   */\n      0x00\n        /* \"#utility.yul\":7525:7534   */\n      dup4\n        /* \"#utility.yul\":7521:7538   */\n      add\n        /* \"#utility.yul\":7514:7561   */\n      mstore\n        /* \"#utility.yul\":7578:7656   */\n      tag_217\n        /* \"#utility.yul\":7651:7655   */\n      dup2\n        /* \"#utility.yul\":7642:7648   */\n      dup5\n        /* \"#utility.yul\":7578:7656   */\n      tag_112\n      jump\t// in\n    tag_217:\n        /* \"#utility.yul\":7570:7656   */\n      swap1\n      pop\n        /* \"#utility.yul\":7350:7663   */\n      swap3\n      swap2\n      pop\n      pop\n      jump\t// out\n        /* \"#utility.yul\":7669:7795   */\n    tag_113:\n        /* \"#utility.yul\":7706:7713   */\n      0x00\n        /* \"#utility.yul\":7746:7788   */\n      0xffffffffffffffffffffffffffffffffffffffff\n        /* \"#utility.yul\":7739:7744   */\n      dup3\n        /* \"#utility.yul\":7735:7789   */\n      and\n        /* \"#utility.yul\":7724:7789   */\n      swap1\n      pop\n        /* \"#utility.yul\":7669:7795   */\n      swap2\n      swap1\n      pop\n      jump\t// out\n        /* \"#utility.yul\":7801:7897   */\n    tag_114:\n        /* \"#utility.yul\":7838:7845   */\n      0x00\n        /* \"#utility.yul\":7867:7891   */\n      tag_220\n        /* \"#utility.yul\":7885:7890   */\n      dup3\n        /* \"#utility.yul\":7867:7891   */\n      tag_113\n      jump\t// in\n    tag_220:\n        /* \"#utility.yul\":7856:7891   */\n      swap1\n      pop\n        /* \"#utility.yul\":7801:7897   */\n      swap2\n      swap1\n      pop\n      jump\t// out\n        /* \"#utility.yul\":7903:8021   */\n    tag_115:\n        /* \"#utility.yul\":7990:8014   */\n      tag_222\n        /* \"#utility.yul\":8008:8013   */\n      dup2\n        /* \"#utility.yul\":7990:8014   */\n      tag_114\n      jump\t// in\n    tag_222:\n        /* \"#utility.yul\":7985:7988   */\n      dup3\n        /* \"#utility.yul\":7978:8015   */\n      mstore\n        /* \"#utility.yul\":7903:8021   */\n      pop\n      pop\n      jump\t// out\n        /* \"#utility.yul\":8027:8249   */\n    tag_28:\n        /* \"#utility.yul\":8120:8124   */\n      0x00\n        /* \"#utility.yul\":8158:8160   */\n      0x20\n        /* \"#utility.yul\":8147:8156   */\n      dup3\n        /* \"#utility.yul\":8143:8161   */\n      add\n        /* \"#utility.yul\":8135:8161   */\n      swap1\n      pop\n        /* \"#utility.yul\":8171:8242   */\n      tag_224\n        /* \"#utility.yul\":8239:8240   */\n      0x00\n        /* \"#utility.yul\":8228:8237   */\n      dup4\n        /* \"#utility.yul\":8224:8241   */\n      add\n        /* \"#utility.yul\":8215:8221   */\n      dup5\n        /* \"#utility.yul\":8171:8242   */\n      tag_115\n      jump\t// in\n    tag_224:\n        /* \"#utility.yul\":8027:8249   */\n      swap3\n      swap2\n      pop\n      pop\n      jump\t// out\n        /* \"#utility.yul\":8255:8476   */\n    tag_116:\n        /* \"#utility.yul\":8395:8429   */\n      0x4f6e6c792061646d696e2063616e20706572666f726d20746869732061637469\n        /* \"#utility.yul\":8391:8392   */\n      0x00\n        /* \"#utility.yul\":8383:8389   */\n      dup3\n        /* \"#utility.yul\":8379:8393   */\n      add\n        /* \"#utility.yul\":8372:8430   */\n      mstore\n        /* \"#utility.yul\":8464:8468   */\n      0x6f6e000000000000000000000000000000000000000000000000000000000000\n        /* \"#utility.yul\":8459:8461   */\n      0x20\n        /* \"#utility.yul\":8451:8457   */\n      dup3\n        /* \"#utility.yul\":8447:8462   */\n      add\n        /* \"#utility.yul\":8440:8469   */\n      mstore\n        /* \"#utility.yul\":8255:8476   */\n      pop\n      jump\t// out\n        /* \"#utility.yul\":8482:8848   */\n    tag_117:\n        /* \"#utility.yul\":8624:8627   */\n      0x00\n        /* \"#utility.yul\":8645:8712   */\n      tag_227\n        /* \"#utility.yul\":8709:8711   */\n      0x22\n        /* \"#utility.yul\":8704:8707   */\n      dup4\n        /* \"#utility.yul\":8645:8712   */\n      tag_111\n      jump\t// in\n    tag_227:\n        /* \"#utility.yul\":8638:8712   */\n      swap2\n      pop\n        /* \"#utility.yul\":8721:8814   */\n      tag_228\n        /* \"#utility.yul\":8810:8813   */\n      dup3\n        /* \"#utility.yul\":8721:8814   */\n      tag_116\n      jump\t// in\n    tag_228:\n        /* \"#utility.yul\":8839:8841   */\n      0x40\n        /* \"#utility.yul\":8834:8837   */\n      dup3\n        /* \"#utility.yul\":8830:8842   */\n      add\n        /* \"#utility.yul\":8823:8842   */\n      swap1\n      pop\n        /* \"#utility.yul\":8482:8848   */\n      swap2\n      swap1\n      pop\n      jump\t// out\n        /* \"#utility.yul\":8854:9273   */\n    tag_32:\n        /* \"#utility.yul\":9020:9024   */\n      0x00\n        /* \"#utility.yul\":9058:9060   */\n      0x20\n        /* \"#utility.yul\":9047:9056   */\n      dup3\n        /* \"#utility.yul\":9043:9061   */\n      add\n        /* \"#utility.yul\":9035:9061   */\n      swap1\n      pop\n        /* \"#utility.yul\":9107:9116   */\n      dup2\n        /* \"#utility.yul\":9101:9105   */\n      dup2\n        /* \"#utility.yul\":9097:9117   */\n      sub\n        /* \"#utility.yul\":9093:9094   */\n      0x00\n        /* \"#utility.yul\":9082:9091   */\n      dup4\n        /* \"#utility.yul\":9078:9095   */\n      add\n        /* \"#utility.yul\":9071:9118   */\n      mstore\n        /* \"#utility.yul\":9135:9266   */\n      tag_230\n        /* \"#utility.yul\":9261:9265   */\n      dup2\n        /* \"#utility.yul\":9135:9266   */\n      tag_117\n      jump\t// in\n    tag_230:\n        /* \"#utility.yul\":9127:9266   */\n      swap1\n      pop\n        /* \"#utility.yul\":8854:9273   */\n      swap2\n      swap1\n      pop\n      jump\t// out\n        /* \"#utility.yul\":9279:9448   */\n    tag_118:\n        /* \"#utility.yul\":9419:9440   */\n      0x496e646578206f7574206f6620626f756e647300000000000000000000000000\n        /* \"#utility.yul\":9415:9416   */\n      0x00\n        /* \"#utility.yul\":9407:9413   */\n      dup3\n        /* \"#utility.yul\":9403:9417   */\n      add\n        /* \"#utility.yul\":9396:9441   */\n      mstore\n        /* \"#utility.yul\":9279:9448   */\n      pop\n      jump\t// out\n        /* \"#utility.yul\":9454:9820   */\n    tag_119:\n        /* \"#utility.yul\":9596:9599   */\n      0x00\n        /* \"#utility.yul\":9617:9684   */\n      tag_233\n        /* \"#utility.yul\":9681:9683   */\n      0x13\n        /* \"#utility.yul\":9676:9679   */\n      dup4\n        /* \"#utility.yul\":9617:9684   */\n      tag_111\n      jump\t// in\n    tag_233:\n        /* \"#utility.yul\":9610:9684   */\n      swap2\n      pop\n        /* \"#utility.yul\":9693:9786   */\n      tag_234\n        /* \"#utility.yul\":9782:9785   */\n      dup3\n        /* \"#utility.yul\":9693:9786   */\n      tag_118\n      jump\t// in\n    tag_234:\n        /* \"#utility.yul\":9811:9813   */\n      0x20\n        /* \"#utility.yul\":9806:9809   */\n      dup3\n        /* \"#utility.yul\":9802:9814   */\n      add\n        /* \"#utility.yul\":9795:9814   */\n      swap1\n      pop\n        /* \"#utility.yul\":9454:9820   */\n      swap2\n      swap1\n      pop\n      jump\t// out\n        /* \"#utility.yul\":9826:10245   */\n    tag_36:\n        /* \"#utility.yul\":9992:9996   */\n      0x00\n        /* \"#utility.yul\":10030:10032   */\n      0x20\n        /* \"#utility.yul\":10019:10028   */\n      dup3\n        /* \"#utility.yul\":10015:10033   */\n      add\n        /* \"#utility.yul\":10007:10033   */\n      swap1\n      pop\n        /* \"#utility.yul\":10079:10088   */\n      dup2\n        /* \"#utility.yul\":10073:10077   */\n      dup2\n        /* \"#utility.yul\":10069:10089   */\n      sub\n        /* \"#utility.yul\":10065:10066   */\n      0x00\n        /* \"#utility.yul\":10054:10063   */\n      dup4\n        /* \"#utility.yul\":10050:10067   */\n      add\n        /* \"#utility.yul\":10043:10090   */\n      mstore\n        /* \"#utility.yul\":10107:10238   */\n      tag_236\n        /* \"#utility.yul\":10233:10237   */\n      dup2\n        /* \"#utility.yul\":10107:10238   */\n      tag_119\n      jump\t// in\n    tag_236:\n        /* \"#utility.yul\":10099:10238   */\n      swap1\n      pop\n        /* \"#utility.yul\":9826:10245   */\n      swap2\n      swap1\n      pop\n      jump\t// out\n        /* \"#utility.yul\":10251:10431   */\n    tag_120:\n        /* \"#utility.yul\":10299:10376   */\n      0x4e487b7100000000000000000000000000000000000000000000000000000000\n        /* \"#utility.yul\":10296:10297   */\n      0x00\n        /* \"#utility.yul\":10289:10377   */\n      mstore\n        /* \"#utility.yul\":10396:10400   */\n      0x11\n        /* \"#utility.yul\":10393:10394   */\n      0x04\n        /* \"#utility.yul\":10386:10401   */\n      mstore\n        /* \"#utility.yul\":10420:10424   */\n      0x24\n        /* \"#utility.yul\":10417:10418   */\n      0x00\n        /* \"#utility.yul\":10410:10425   */\n      revert\n        /* \"#utility.yul\":10437:10631   */\n    tag_38:\n        /* \"#utility.yul\":10477:10481   */\n      0x00\n        /* \"#utility.yul\":10497:10517   */\n      tag_239\n        /* \"#utility.yul\":10515:10516   */\n      dup3\n        /* \"#utility.yul\":10497:10517   */\n      tag_88\n      jump\t// in\n    tag_239:\n        /* \"#utility.yul\":10492:10517   */\n      swap2\n      pop\n        /* \"#utility.yul\":10531:10551   */\n      tag_240\n        /* \"#utility.yul\":10549:10550   */\n      dup4\n        /* \"#utility.yul\":10531:10551   */\n      tag_88\n      jump\t// in\n    tag_240:\n        /* \"#utility.yul\":10526:10551   */\n      swap3\n      pop\n        /* \"#utility.yul\":10575:10576   */\n      dup3\n        /* \"#utility.yul\":10572:10573   */\n      dup3\n        /* \"#utility.yul\":10568:10577   */\n      sub\n        /* \"#utility.yul\":10560:10577   */\n      swap1\n      pop\n        /* \"#utility.yul\":10599:10600   */\n      dup2\n        /* \"#utility.yul\":10593:10597   */\n      dup2\n        /* \"#utility.yul\":10590:10601   */\n      gt\n        /* \"#utility.yul\":10587:10624   */\n      iszero\n      tag_241\n      jumpi\n        /* \"#utility.yul\":10604:10622   */\n      tag_242\n      tag_120\n      jump\t// in\n    tag_242:\n        /* \"#utility.yul\":10587:10624   */\n    tag_241:\n        /* \"#utility.yul\":10437:10631   */\n      swap3\n      swap2\n      pop\n      pop\n      jump\t// out\n        /* \"#utility.yul\":10637:10817   */\n    tag_41:\n        /* \"#utility.yul\":10685:10762   */\n      0x4e487b7100000000000000000000000000000000000000000000000000000000\n        /* \"#utility.yul\":10682:10683   */\n      0x00\n        /* \"#utility.yul\":10675:10763   */\n      mstore\n        /* \"#utility.yul\":10782:10786   */\n      0x32\n        /* \"#utility.yul\":10779:10780   */\n      0x04\n        /* \"#utility.yul\":10772:10787   */\n      mstore\n        /* \"#utility.yul\":10806:10810   */\n      0x24\n        /* \"#utility.yul\":10803:10804   */\n      0x00\n        /* \"#utility.yul\":10796:10811   */\n      revert\n        /* \"#utility.yul\":10823:11003   */\n    tag_121:\n        /* \"#utility.yul\":10871:10948   */\n      0x4e487b7100000000000000000000000000000000000000000000000000000000\n        /* \"#utility.yul\":10868:10869   */\n      0x00\n        /* \"#utility.yul\":10861:10949   */\n      mstore\n        /* \"#utility.yul\":10968:10972   */\n      0x22\n        /* \"#utility.yul\":10965:10966   */\n      0x04\n        /* \"#utility.yul\":10958:10973   */\n      mstore\n        /* \"#utility.yul\":10992:10996   */\n      0x24\n        /* \"#utility.yul\":10989:10990   */\n      0x00\n        /* \"#utility.yul\":10982:10997   */\n      revert\n        /* \"#utility.yul\":11009:11329   */\n    tag_66:\n        /* \"#utility.yul\":11053:11059   */\n      0x00\n        /* \"#utility.yul\":11090:11091   */\n      0x02\n        /* \"#utility.yul\":11084:11088   */\n      dup3\n        /* \"#utility.yul\":11080:11092   */\n      div\n        /* \"#utility.yul\":11070:11092   */\n      swap1\n      pop\n        /* \"#utility.yul\":11137:11138   */\n      0x01\n        /* \"#utility.yul\":11131:11135   */\n      dup3\n        /* \"#utility.yul\":11127:11139   */\n      and\n        /* \"#utility.yul\":11158:11176   */\n      dup1\n        /* \"#utility.yul\":11148:11229   */\n      tag_246\n      jumpi\n        /* \"#utility.yul\":11214:11218   */\n      0x7f\n        /* \"#utility.yul\":11206:11212   */\n      dup3\n        /* \"#utility.yul\":11202:11219   */\n      and\n        /* \"#utility.yul\":11192:11219   */\n      swap2\n      pop\n        /* \"#utility.yul\":11148:11229   */\n    tag_246:\n        /* \"#utility.yul\":11276:11278   */\n      0x20\n        /* \"#utility.yul\":11268:11274   */\n      dup3\n        /* \"#utility.yul\":11265:11279   */\n      lt\n        /* \"#utility.yul\":11245:11263   */\n      dup2\n        /* \"#utility.yul\":11242:11280   */\n      sub\n        /* \"#utility.yul\":11239:11323   */\n      tag_247\n      jumpi\n        /* \"#utility.yul\":11295:11313   */\n      tag_248\n      tag_121\n      jump\t// in\n    tag_248:\n        /* \"#utility.yul\":11239:11323   */\n    tag_247:\n        /* \"#utility.yul\":11060:11329   */\n      pop\n        /* \"#utility.yul\":11009:11329   */\n      swap2\n      swap1\n      pop\n      jump\t// out\n        /* \"#utility.yul\":11335:11488   */\n    tag_122:\n        /* \"#utility.yul\":11388:11394   */\n      0x00\n        /* \"#utility.yul\":11422:11427   */\n      dup2\n        /* \"#utility.yul\":11416:11428   */\n      sload\n        /* \"#utility.yul\":11406:11428   */\n      swap1\n      pop\n        /* \"#utility.yul\":11448:11481   */\n      tag_250\n        /* \"#utility.yul\":11474:11480   */\n      dup2\n        /* \"#utility.yul\":11448:11481   */\n      tag_66\n      jump\t// in\n    tag_250:\n        /* \"#utility.yul\":11438:11481   */\n      swap1\n      pop\n        /* \"#utility.yul\":11335:11488   */\n      swap2\n      swap1\n      pop\n      jump\t// out\n        /* \"#utility.yul\":11494:11635   */\n    tag_123:\n        /* \"#utility.yul\":11543:11547   */\n      0x00\n        /* \"#utility.yul\":11566:11569   */\n      dup2\n        /* \"#utility.yul\":11558:11569   */\n      swap1\n      pop\n        /* \"#utility.yul\":11589:11592   */\n      dup2\n        /* \"#utility.yul\":11586:11587   */\n      0x00\n        /* \"#utility.yul\":11579:11593   */\n      mstore\n        /* \"#utility.yul\":11623:11627   */\n      0x20\n        /* \"#utility.yul\":11620:11621   */\n      0x00\n        /* \"#utility.yul\":11610:11628   */\n      keccak256\n        /* \"#utility.yul\":11602:11628   */\n      swap1\n      pop\n        /* \"#utility.yul\":11494:11635   */\n      swap2\n      swap1\n      pop\n      jump\t// out\n        /* \"#utility.yul\":11641:11786   */\n    tag_124:\n        /* \"#utility.yul\":11694:11698   */\n      0x00\n        /* \"#utility.yul\":11717:11720   */\n      dup2\n        /* \"#utility.yul\":11709:11720   */\n      swap1\n      pop\n        /* \"#utility.yul\":11740:11743   */\n      dup2\n        /* \"#utility.yul\":11737:11738   */\n      0x00\n        /* \"#utility.yul\":11730:11744   */\n      mstore\n        /* \"#utility.yul\":11774:11778   */\n      0x20\n        /* \"#utility.yul\":11771:11772   */\n      0x00\n        /* \"#utility.yul\":11761:11779   */\n      keccak256\n        /* \"#utility.yul\":11753:11779   */\n      swap1\n      pop\n        /* \"#utility.yul\":11641:11786   */\n      swap2\n      swap1\n      pop\n      jump\t// out\n        /* \"#utility.yul\":11792:11885   */\n    tag_125:\n        /* \"#utility.yul\":11829:11835   */\n      0x00\n        /* \"#utility.yul\":11876:11878   */\n      0x20\n        /* \"#utility.yul\":11871:11873   */\n      0x1f\n        /* \"#utility.yul\":11864:11869   */\n      dup4\n        /* \"#utility.yul\":11860:11874   */\n      add\n        /* \"#utility.yul\":11856:11879   */\n      div\n        /* \"#utility.yul\":11846:11879   */\n      swap1\n      pop\n        /* \"#utility.yul\":11792:11885   */\n      swap2\n      swap1\n      pop\n      jump\t// out\n        /* \"#utility.yul\":11891:11998   */\n    tag_126:\n        /* \"#utility.yul\":11935:11943   */\n      0x00\n        /* \"#utility.yul\":11985:11990   */\n      dup3\n        /* \"#utility.yul\":11979:11983   */\n      dup3\n        /* \"#utility.yul\":11975:11991   */\n      shl\n        /* \"#utility.yul\":11954:11991   */\n      swap1\n      pop\n        /* \"#utility.yul\":11891:11998   */\n      swap3\n      swap2\n      pop\n      pop\n      jump\t// out\n        /* \"#utility.yul\":12004:12397   */\n    tag_127:\n        /* \"#utility.yul\":12073:12079   */\n      0x00\n        /* \"#utility.yul\":12123:12124   */\n      0x08\n        /* \"#utility.yul\":12111:12121   */\n      dup4\n        /* \"#utility.yul\":12107:12125   */\n      mul\n        /* \"#utility.yul\":12146:12243   */\n      tag_256\n        /* \"#utility.yul\":12176:12242   */\n      0xffffffffffffffffffffffffffffffffffffffffffffffffffffffffffffffff\n        /* \"#utility.yul\":12165:12174   */\n      dup3\n        /* \"#utility.yul\":12146:12243   */\n      tag_126\n      jump\t// in\n    tag_256:\n        /* \"#utility.yul\":12264:12303   */\n      tag_257\n        /* \"#utility.yul\":12294:12302   */\n      dup7\n        /* \"#utility.yul\":12283:12292   */\n      dup4\n        /* \"#utility.yul\":12264:12303   */\n      tag_126\n      jump\t// in\n    tag_257:\n        /* \"#utility.yul\":12252:12303   */\n      swap6\n      pop\n        /* \"#utility.yul\":12336:12340   */\n      dup1\n        /* \"#utility.yul\":12332:12341   */\n      not\n        /* \"#utility.yul\":12325:12330   */\n      dup5\n        /* \"#utility.yul\":12321:12342   */\n      and\n        /* \"#utility.yul\":12312:12342   */\n      swap4\n      pop\n        /* \"#utility.yul\":12385:12389   */\n      dup1\n        /* \"#utility.yul\":12375:12383   */\n      dup7\n        /* \"#utility.yul\":12371:12390   */\n      and\n        /* \"#utility.yul\":12364:12369   */\n      dup5\n        /* \"#utility.yul\":12361:12391   */\n      or\n        /* \"#utility.yul\":12351:12391   */\n      swap3\n      pop\n        /* \"#utility.yul\":12080:12397   */\n      pop\n      pop\n        /* \"#utility.yul\":12004:12397   */\n      swap4\n      swap3\n      pop\n      pop\n      pop\n      jump\t// out\n        /* \"#utility.yul\":12403:12463   */\n    tag_128:\n        /* \"#utility.yul\":12431:12434   */\n      0x00\n        /* \"#utility.yul\":12452:12457   */\n      dup2\n        /* \"#utility.yul\":12445:12457   */\n      swap1\n      pop\n        /* \"#utility.yul\":12403:12463   */\n      swap2\n      swap1\n      pop\n      jump\t// out\n        /* \"#utility.yul\":12469:12611   */\n    tag_129:\n        /* \"#utility.yul\":12519:12528   */\n      0x00\n        /* \"#utility.yul\":12552:12605   */\n      tag_260\n        /* \"#utility.yul\":12570:12604   */\n      tag_261\n        /* \"#utility.yul\":12579:12603   */\n      tag_262\n        /* \"#utility.yul\":12597:12602   */\n      dup5\n        /* \"#utility.yul\":12579:12603   */\n      tag_88\n      jump\t// in\n    tag_262:\n        /* \"#utility.yul\":12570:12604   */\n      tag_128\n      jump\t// in\n    tag_261:\n        /* \"#utility.yul\":12552:12605   */\n      tag_88\n      jump\t// in\n    tag_260:\n        /* \"#utility.yul\":12539:12605   */\n      swap1\n      pop\n        /* \"#utility.yul\":12469:12611   */\n      swap2\n      swap1\n      pop\n      jump\t// out\n        /* \"#utility.yul\":12617:12692   */\n    tag_130:\n        /* \"#utility.yul\":12660:12663   */\n      0x00\n        /* \"#utility.yul\":12681:12686   */\n      dup2\n        /* \"#utility.yul\":12674:12686   */\n      swap1\n      pop\n        /* \"#utility.yul\":12617:12692   */\n      swap2\n      swap1\n      pop\n      jump\t// out\n        /* \"#utility.yul\":12698:12967   */\n    tag_131:\n        /* \"#utility.yul\":12808:12847   */\n      tag_265\n        /* \"#utility.yul\":12839:12846   */\n      dup4\n        /* \"#utility.yul\":12808:12847   */\n      tag_129\n      jump\t// in\n    tag_265:\n        /* \"#utility.yul\":12869:12960   */\n      tag_266\n        /* \"#utility.yul\":12918:12959   */\n      tag_267\n        /* \"#utility.yul\":12942:12958   */\n      dup3\n        /* \"#utility.yul\":12918:12959   */\n      tag_130\n      jump\t// in\n    tag_267:\n        /* \"#utility.yul\":12910:12916   */\n      dup5\n        /* \"#utility.yul\":12903:12907   */\n      dup5\n        /* \"#utility.yul\":12897:12908   */\n      sload\n        /* \"#utility.yul\":12869:12960   */\n      tag_127\n      jump\t// in\n    tag_266:\n        /* \"#utility.yul\":12863:12867   */\n      dup3\n        /* \"#utility.yul\":12856:12961   */\n      sstore\n        /* \"#utility.yul\":12774:12967   */\n      pop\n        /* \"#utility.yul\":12698:12967   */\n      pop\n      pop\n      pop\n      jump\t// out\n        /* \"#utility.yul\":12973:13046   */\n    tag_132:\n        /* \"#utility.yul\":13018:13021   */\n      0x00\n        /* \"#utility.yul\":12973:13046   */\n      swap1\n      jump\t// out\n        /* \"#utility.yul\":13052:13241   */\n    tag_133:\n        /* \"#utility.yul\":13129:13161   */\n      tag_270\n      tag_132\n      jump\t// in\n    tag_270:\n        /* \"#utility.yul\":13170:13235   */\n      tag_271\n        /* \"#utility.yul\":13228:13234   */\n      dup2\n        /* \"#utility.yul\":13220:13226   */\n      dup5\n        /* \"#utility.yul\":13214:13218   */\n      dup5\n        /* \"#utility.yul\":13170:13235   */\n      tag_131\n      jump\t// in\n    tag_271:\n        /* \"#utility.yul\":13105:13241   */\n      pop\n        /* \"#utility.yul\":13052:13241   */\n      pop\n      pop\n      jump\t// out\n        /* \"#utility.yul\":13247:13433   */\n    tag_134:\n        /* \"#utility.yul\":13307:13427   */\n    tag_273:\n        /* \"#utility.yul\":13324:13327   */\n      dup2\n        /* \"#utility.yul\":13317:13322   */\n      dup2\n        /* \"#utility.yul\":13314:13328   */\n      lt\n        /* \"#utility.yul\":13307:13427   */\n      iszero\n      tag_275\n      jumpi\n        /* \"#utility.yul\":13378:13417   */\n      tag_276\n        /* \"#utility.yul\":13415:13416   */\n      0x00\n        /* \"#utility.yul\":13408:13413   */\n      dup3\n        /* \"#utility.yul\":13378:13417   */\n      tag_133\n      jump\t// in\n    tag_276:\n        /* \"#utility.yul\":13351:13352   */\n      0x01\n        /* \"#utility.yul\":13344:13349   */\n      dup2\n        /* \"#utility.yul\":13340:13353   */\n      add\n        /* \"#utility.yul\":13331:13353   */\n      swap1\n      pop\n        /* \"#utility.yul\":13307:13427   */\n      jump(tag_273)\n    tag_275:\n        /* \"#utility.yul\":13247:13433   */\n      pop\n      pop\n      jump\t// out\n        /* \"#utility.yul\":13439:13982   */\n    tag_135:\n        /* \"#utility.yul\":13540:13542   */\n      0x1f\n        /* \"#utility.yul\":13535:13538   */\n      dup3\n        /* \"#utility.yul\":13532:13543   */\n      gt\n        /* \"#utility.yul\":13529:13975   */\n      iszero\n      tag_278\n      jumpi\n        /* \"#utility.yul\":13574:13612   */\n      tag_279\n        /* \"#utility.yul\":13606:13611   */\n      dup2\n        /* \"#utility.yul\":13574:13612   */\n      tag_123\n      jump\t// in\n    tag_279:\n        /* \"#utility.yul\":13658:13687   */\n      tag_280\n        /* \"#utility.yul\":13676:13686   */\n      dup5\n        /* \"#utility.yul\":13658:13687   */\n      tag_125\n      jump\t// in\n    tag_280:\n        /* \"#utility.yul\":13648:13656   */\n      dup2\n        /* \"#utility.yul\":13644:13688   */\n      add\n        /* \"#utility.yul\":13841:13843   */\n      0x20\n        /* \"#utility.yul\":13829:13839   */\n      dup6\n        /* \"#utility.yul\":13826:13844   */\n      lt\n        /* \"#utility.yul\":13823:13872   */\n      iszero\n      tag_281\n      jumpi\n        /* \"#utility.yul\":13862:13870   */\n      dup2\n        /* \"#utility.yul\":13847:13870   */\n      swap1\n      pop\n        /* \"#utility.yul\":13823:13872   */\n    tag_281:\n        /* \"#utility.yul\":13885:13965   */\n      tag_282\n        /* \"#utility.yul\":13941:13963   */\n      tag_283\n        /* \"#utility.yul\":13959:13962   */\n      dup6\n        /* \"#utility.yul\":13941:13963   */\n      tag_125\n      jump\t// in\n    tag_283:\n        /* \"#utility.yul\":13931:13939   */\n      dup4\n        /* \"#utility.yul\":13927:13964   */\n      add\n        /* \"#utility.yul\":13914:13925   */\n      dup3\n        /* \"#utility.yul\":13885:13965   */\n      tag_134\n      jump\t// in\n    tag_282:\n        /* \"#utility.yul\":13544:13975   */\n      pop\n      pop\n        /* \"#utility.yul\":13529:13975   */\n    tag_278:\n        /* \"#utility.yul\":13439:13982   */\n      pop\n      pop\n      pop\n      jump\t// out\n        /* \"#utility.yul\":13988:14105   */\n    tag_136:\n        /* \"#utility.yul\":14042:14050   */\n      0x00\n        /* \"#utility.yul\":14092:14097   */\n      dup3\n        /* \"#utility.yul\":14086:14090   */\n      dup3\n        /* \"#utility.yul\":14082:14098   */\n      shr\n        /* \"#utility.yul\":14061:14098   */\n      swap1\n      pop\n        /* \"#utility.yul\":13988:14105   */\n      swap3\n      swap2\n      pop\n      pop\n      jump\t// out\n        /* \"#utility.yul\":14111:14280   */\n    tag_137:\n        /* \"#utility.yul\":14155:14161   */\n      0x00\n        /* \"#utility.yul\":14188:14239   */\n      tag_286\n        /* \"#utility.yul\":14236:14237   */\n      0x00\n        /* \"#utility.yul\":14232:14238   */\n      not\n        /* \"#utility.yul\":14224:14229   */\n      dup5\n        /* \"#utility.yul\":14221:14222   */\n      0x08\n        /* \"#utility.yul\":14217:14230   */\n      mul\n        /* \"#utility.yul\":14188:14239   */\n      tag_136\n      jump\t// in\n    tag_286:\n        /* \"#utility.yul\":14184:14240   */\n      not\n        /* \"#utility.yul\":14269:14273   */\n      dup1\n        /* \"#utility.yul\":14263:14267   */\n      dup4\n        /* \"#utility.yul\":14259:14274   */\n      and\n        /* \"#utility.yul\":14249:14274   */\n      swap2\n      pop\n        /* \"#utility.yul\":14162:14280   */\n      pop\n        /* \"#utility.yul\":14111:14280   */\n      swap3\n      swap2\n      pop\n      pop\n      jump\t// out\n        /* \"#utility.yul\":14285:14580   */\n    tag_138:\n        /* \"#utility.yul\":14361:14365   */\n      0x00\n        /* \"#utility.yul\":14507:14536   */\n      tag_288\n        /* \"#utility.yul\":14532:14535   */\n      dup4\n        /* \"#utility.yul\":14526:14530   */\n      dup4\n        /* \"#utility.yul\":14507:14536   */\n      tag_137\n      jump\t// in\n    tag_288:\n        /* \"#utility.yul\":14499:14536   */\n      swap2\n      pop\n        /* \"#utility.yul\":14569:14572   */\n      dup3\n        /* \"#utility.yul\":14566:14567   */\n      0x02\n        /* \"#utility.yul\":14562:14573   */\n      mul\n        /* \"#utility.yul\":14556:14560   */\n      dup3\n        /* \"#utility.yul\":14553:14574   */\n      or\n        /* \"#utility.yul\":14545:14574   */\n      swap1\n      pop\n        /* \"#utility.yul\":14285:14580   */\n      swap3\n      swap2\n      pop\n      pop\n      jump\t// out\n        /* \"#utility.yul\":14585:16048   */\n    tag_47:\n        /* \"#utility.yul\":14700:14703   */\n      dup2\n        /* \"#utility.yul\":14694:14698   */\n      dup2\n        /* \"#utility.yul\":14691:14704   */\n      sub\n        /* \"#utility.yul\":14688:14714   */\n      tag_290\n      jumpi\n        /* \"#utility.yul\":14707:14712   */\n      pop\n      pop\n      jump(tag_289)\n        /* \"#utility.yul\":14688:14714   */\n    tag_290:\n        /* \"#utility.yul\":14738:14776   */\n      tag_291\n        /* \"#utility.yul\":14772:14775   */\n      dup3\n        /* \"#utility.yul\":14738:14776   */\n      tag_122\n      jump\t// in\n    tag_291:\n        /* \"#utility.yul\":14841:14859   */\n      0xffffffffffffffff\n        /* \"#utility.yul\":14833:14839   */\n      dup2\n        /* \"#utility.yul\":14830:14860   */\n      gt\n        /* \"#utility.yul\":14827:14883   */\n      iszero\n      tag_292\n      jumpi\n        /* \"#utility.yul\":14863:14881   */\n      tag_293\n      tag_94\n      jump\t// in\n    tag_293:\n        /* \"#utility.yul\":14827:14883   */\n    tag_292:\n        /* \"#utility.yul\":14907:14945   */\n      tag_294\n        /* \"#utility.yul\":14939:14943   */\n      dup3\n        /* \"#utility.yul\":14933:14944   */\n      sload\n        /* \"#utility.yul\":14907:14945   */\n      tag_66\n      jump\t// in\n    tag_294:\n        /* \"#utility.yul\":14992:15059   */\n      tag_295\n        /* \"#utility.yul\":15052:15058   */\n      dup3\n        /* \"#utility.yul\":15044:15050   */\n      dup3\n        /* \"#utility.yul\":15038:15042   */\n      dup6\n        /* \"#utility.yul\":14992:15059   */\n      tag_135\n      jump\t// in\n    tag_295:\n        /* \"#utility.yul\":15086:15087   */\n      0x00\n        /* \"#utility.yul\":15115:15117   */\n      0x1f\n        /* \"#utility.yul\":15107:15113   */\n      dup4\n        /* \"#utility.yul\":15104:15118   */\n      gt\n        /* \"#utility.yul\":15132:15133   */\n      0x01\n        /* \"#utility.yul\":15127:15803   */\n      dup2\n      eq\n      tag_297\n      jumpi\n        /* \"#utility.yul\":15847:15848   */\n      0x00\n        /* \"#utility.yul\":15864:15870   */\n      dup5\n        /* \"#utility.yul\":15861:15938   */\n      iszero\n      tag_298\n      jumpi\n        /* \"#utility.yul\":15913:15922   */\n      dup3\n        /* \"#utility.yul\":15908:15911   */\n      dup8\n        /* \"#utility.yul\":15904:15923   */\n      add\n        /* \"#utility.yul\":15898:15924   */\n      sload\n        /* \"#utility.yul\":15889:15924   */\n      swap1\n      pop\n        /* \"#utility.yul\":15861:15938   */\n    tag_298:\n        /* \"#utility.yul\":15964:16031   */\n      tag_299\n        /* \"#utility.yul\":16024:16030   */\n      dup6\n        /* \"#utility.yul\":16017:16022   */\n      dup3\n        /* \"#utility.yul\":15964:16031   */\n      tag_138\n      jump\t// in\n    tag_299:\n        /* \"#utility.yul\":15958:15962   */\n      dup7\n        /* \"#utility.yul\":15951:16032   */\n      sstore\n        /* \"#utility.yul\":15820:16042   */\n      pop\n        /* \"#utility.yul\":15097:16042   */\n      jump(tag_296)\n        /* \"#utility.yul\":15127:15803   */\n    tag_297:\n        /* \"#utility.yul\":15179:15183   */\n      0x1f\n        /* \"#utility.yul\":15175:15184   */\n      not\n        /* \"#utility.yul\":15167:15173   */\n      dup5\n        /* \"#utility.yul\":15163:15185   */\n      and\n        /* \"#utility.yul\":15205:15245   */\n      tag_300\n        /* \"#utility.yul\":15241:15244   */\n      dup8\n        /* \"#utility.yul\":15205:15245   */\n      tag_124\n      jump\t// in\n    tag_300:\n        /* \"#utility.yul\":15198:15245   */\n      swap7\n      pop\n        /* \"#utility.yul\":15272:15309   */\n      tag_301\n        /* \"#utility.yul\":15304:15308   */\n      dup7\n        /* \"#utility.yul\":15272:15309   */\n      tag_123\n      jump\t// in\n    tag_301:\n        /* \"#utility.yul\":15331:15332   */\n      0x00\n        /* \"#utility.yul\":15345:15552   */\n    tag_302:\n        /* \"#utility.yul\":15359:15366   */\n      dup3\n        /* \"#utility.yul\":15356:15357   */\n      dup2\n        /* \"#utility.yul\":15353:15367   */\n      lt\n        /* \"#utility.yul\":15345:15552   */\n      iszero\n      tag_304\n      jumpi\n        /* \"#utility.yul\":15438:15447   */\n      dup5\n        /* \"#utility.yul\":15433:15436   */\n      dup10\n        /* \"#utility.yul\":15429:15448   */\n      add\n        /* \"#utility.yul\":15423:15449   */\n      sload\n        /* \"#utility.yul\":15415:15421   */\n      dup3\n        /* \"#utility.yul\":15408:15450   */\n      sstore\n        /* \"#utility.yul\":15489:15490   */\n      0x01\n        /* \"#utility.yul\":15481:15487   */\n      dup3\n        /* \"#utility.yul\":15477:15491   */\n      add\n        /* \"#utility.yul\":15467:15491   */\n      swap2\n      pop\n        /* \"#utility.yul\":15536:15537   */\n      0x01\n        /* \"#utility.yul\":15525:15534   */\n      dup6\n        /* \"#utility.yul\":15521:15538   */\n      add\n        /* \"#utility.yul\":15508:15538   */\n      swap5\n      pop\n        /* \"#utility.yul\":15382:15386   */\n      0x20\n        /* \"#utility.yul\":15379:15380   */\n      dup2\n        /* \"#utility.yul\":15375:15387   */\n      add\n        /* \"#utility.yul\":15370:15387   */\n      swap1\n      pop\n        /* \"#utility.yul\":15345:15552   */\n      jump(tag_302)\n    tag_304:\n        /* \"#utility.yul\":15580:15586   */\n      dup7\n        /* \"#utility.yul\":15571:15578   */\n      dup4\n        /* \"#utility.yul\":15568:15587   */\n      lt\n        /* \"#utility.yul\":15565:15744   */\n      iszero\n      tag_305\n      jumpi\n        /* \"#utility.yul\":15638:15647   */\n      dup5\n        /* \"#utility.yul\":15633:15636   */\n      dup10\n        /* \"#utility.yul\":15629:15648   */\n      add\n        /* \"#utility.yul\":15623:15649   */\n      sload\n        /* \"#utility.yul\":15681:15729   */\n      tag_306\n        /* \"#utility.yul\":15723:15727   */\n      0x1f\n        /* \"#utility.yul\":15715:15721   */\n      dup10\n        /* \"#utility.yul\":15711:15728   */\n      and\n        /* \"#utility.yul\":15700:15709   */\n      dup3\n        /* \"#utility.yul\":15681:15729   */\n      tag_137\n      jump\t// in\n    tag_306:\n        /* \"#utility.yul\":15673:15679   */\n      dup4\n        /* \"#utility.yul\":15666:15730   */\n      sstore\n        /* \"#utility.yul\":15588:15744   */\n      pop\n        /* \"#utility.yul\":15565:15744   */\n    tag_305:\n        /* \"#utility.yul\":15790:15791   */\n      0x01\n        /* \"#utility.yul\":15786:15787   */\n      0x02\n        /* \"#utility.yul\":15778:15784   */\n      dup9\n        /* \"#utility.yul\":15774:15788   */\n      mul\n        /* \"#utility.yul\":15770:15792   */\n      add\n        /* \"#utility.yul\":15764:15768   */\n      dup9\n        /* \"#utility.yul\":15757:15793   */\n      sstore\n        /* \"#utility.yul\":15134:15803   */\n      pop\n      pop\n      pop\n        /* \"#utility.yul\":15097:16042   */\n    tag_296:\n      pop\n        /* \"#utility.yul\":14678:16048   */\n      pop\n      pop\n      pop\n        /* \"#utility.yul\":14585:16048   */\n      pop\n      pop\n    tag_289:\n      jump\t// out\n        /* \"#utility.yul\":16054:16234   */\n    tag_50:\n        /* \"#utility.yul\":16102:16179   */\n      0x4e487b7100000000000000000000000000000000000000000000000000000000\n        /* \"#utility.yul\":16099:16100   */\n      0x00\n        /* \"#utility.yul\":16092:16180   */\n      mstore\n        /* \"#utility.yul\":16199:16203   */\n      0x31\n        /* \"#utility.yul\":16196:16197   */\n      0x04\n        /* \"#utility.yul\":16189:16204   */\n      mstore\n        /* \"#utility.yul\":16223:16227   */\n      0x24\n        /* \"#utility.yul\":16220:16221   */\n      0x00\n        /* \"#utility.yul\":16213:16228   */\n      revert\n        /* \"#utility.yul\":16240:17635   */\n    tag_60:\n        /* \"#utility.yul\":16357:16394   */\n      tag_309\n        /* \"#utility.yul\":16390:16393   */\n      dup3\n        /* \"#utility.yul\":16357:16394   */\n      tag_104\n      jump\t// in\n    tag_309:\n        /* \"#utility.yul\":16459:16477   */\n      0xffffffffffffffff\n        /* \"#utility.yul\":16451:16457   */\n      dup2\n        /* \"#utility.yul\":16448:16478   */\n      gt\n        /* \"#utility.yul\":16445:16501   */\n      iszero\n      tag_310\n      jumpi\n        /* \"#utility.yul\":16481:16499   */\n      tag_311\n      tag_94\n      jump\t// in\n    tag_311:\n        /* \"#utility.yul\":16445:16501   */\n    tag_310:\n        /* \"#utility.yul\":16525:16563   */\n      tag_312\n        /* \"#utility.yul\":16557:16561   */\n      dup3\n        /* \"#utility.yul\":16551:16562   */\n      sload\n        /* \"#utility.yul\":16525:16563   */\n      tag_66\n      jump\t// in\n    tag_312:\n        /* \"#utility.yul\":16610:16677   */\n      tag_313\n        /* \"#utility.yul\":16670:16676   */\n      dup3\n        /* \"#utility.yul\":16662:16668   */\n      dup3\n        /* \"#utility.yul\":16656:16660   */\n      dup6\n        /* \"#utility.yul\":16610:16677   */\n      tag_135\n      jump\t// in\n    tag_313:\n        /* \"#utility.yul\":16704:16705   */\n      0x00\n        /* \"#utility.yul\":16728:16732   */\n      0x20\n        /* \"#utility.yul\":16715:16732   */\n      swap1\n      pop\n        /* \"#utility.yul\":16760:16762   */\n      0x1f\n        /* \"#utility.yul\":16752:16758   */\n      dup4\n        /* \"#utility.yul\":16749:16763   */\n      gt\n        /* \"#utility.yul\":16777:16778   */\n      0x01\n        /* \"#utility.yul\":16772:17390   */\n      dup2\n      eq\n      tag_315\n      jumpi\n        /* \"#utility.yul\":17434:17435   */\n      0x00\n        /* \"#utility.yul\":17451:17457   */\n      dup5\n        /* \"#utility.yul\":17448:17525   */\n      iszero\n      tag_316\n      jumpi\n        /* \"#utility.yul\":17500:17509   */\n      dup3\n        /* \"#utility.yul\":17495:17498   */\n      dup8\n        /* \"#utility.yul\":17491:17510   */\n      add\n        /* \"#utility.yul\":17485:17511   */\n      mload\n        /* \"#utility.yul\":17476:17511   */\n      swap1\n      pop\n        /* \"#utility.yul\":17448:17525   */\n    tag_316:\n        /* \"#utility.yul\":17551:17618   */\n      tag_317\n        /* \"#utility.yul\":17611:17617   */\n      dup6\n        /* \"#utility.yul\":17604:17609   */\n      dup3\n        /* \"#utility.yul\":17551:17618   */\n      tag_138\n      jump\t// in\n    tag_317:\n        /* \"#utility.yul\":17545:17549   */\n      dup7\n        /* \"#utility.yul\":17538:17619   */\n      sstore\n        /* \"#utility.yul\":17407:17629   */\n      pop\n        /* \"#utility.yul\":16742:17629   */\n      jump(tag_314)\n        /* \"#utility.yul\":16772:17390   */\n    tag_315:\n        /* \"#utility.yul\":16824:16828   */\n      0x1f\n        /* \"#utility.yul\":16820:16829   */\n      not\n        /* \"#utility.yul\":16812:16818   */\n      dup5\n        /* \"#utility.yul\":16808:16830   */\n      and\n        /* \"#utility.yul\":16858:16895   */\n      tag_318\n        /* \"#utility.yul\":16890:16894   */\n      dup7\n        /* \"#utility.yul\":16858:16895   */\n      tag_123\n      jump\t// in\n    tag_318:\n        /* \"#utility.yul\":16917:16918   */\n      0x00\n        /* \"#utility.yul\":16931:17139   */\n    tag_319:\n        /* \"#utility.yul\":16945:16952   */\n      dup3\n        /* \"#utility.yul\":16942:16943   */\n      dup2\n        /* \"#utility.yul\":16939:16953   */\n      lt\n        /* \"#utility.yul\":16931:17139   */\n      iszero\n      tag_321\n      jumpi\n        /* \"#utility.yul\":17024:17033   */\n      dup5\n        /* \"#utility.yul\":17019:17022   */\n      dup10\n        /* \"#utility.yul\":17015:17034   */\n      add\n        /* \"#utility.yul\":17009:17035   */\n      mload\n        /* \"#utility.yul\":17001:17007   */\n      dup3\n        /* \"#utility.yul\":16994:17036   */\n      sstore\n        /* \"#utility.yul\":17075:17076   */\n      0x01\n        /* \"#utility.yul\":17067:17073   */\n      dup3\n        /* \"#utility.yul\":17063:17077   */\n      add\n        /* \"#utility.yul\":17053:17077   */\n      swap2\n      pop\n        /* \"#utility.yul\":17122:17124   */\n      0x20\n        /* \"#utility.yul\":17111:17120   */\n      dup6\n        /* \"#utility.yul\":17107:17125   */\n      add\n        /* \"#utility.yul\":17094:17125   */\n      swap5\n      pop\n        /* \"#utility.yul\":16968:16972   */\n      0x20\n        /* \"#utility.yul\":16965:16966   */\n      dup2\n        /* \"#utility.yul\":16961:16973   */\n      add\n        /* \"#utility.yul\":16956:16973   */\n      swap1\n      pop\n        /* \"#utility.yul\":16931:17139   */\n      jump(tag_319)\n    tag_321:\n        /* \"#utility.yul\":17167:17173   */\n      dup7\n        /* \"#utility.yul\":17158:17165   */\n      dup4\n        /* \"#utility.yul\":17155:17174   */\n      lt\n        /* \"#utility.yul\":17152:17331   */\n      iszero\n      tag_322\n      jumpi\n        /* \"#utility.yul\":17225:17234   */\n      dup5\n        /* \"#utility.yul\":17220:17223   */\n      dup10\n        /* \"#utility.yul\":17216:17235   */\n      add\n        /* \"#utility.yul\":17210:17236   */\n      mload\n        /* \"#utility.yul\":17268:17316   */\n      tag_323\n        /* \"#utility.yul\":17310:17314   */\n      0x1f\n        /* \"#utility.yul\":17302:17308   */\n      dup10\n        /* \"#utility.yul\":17298:17315   */\n      and\n        /* \"#utility.yul\":17287:17296   */\n      dup3\n        /* \"#utility.yul\":17268:17316   */\n      tag_137\n      jump\t// in\n    tag_323:\n        /* \"#utility.yul\":17260:17266   */\n      dup4\n        /* \"#utility.yul\":17253:17317   */\n      sstore\n        /* \"#utility.yul\":17175:17331   */\n      pop\n        /* \"#utility.yul\":17152:17331   */\n    tag_322:\n        /* \"#utility.yul\":17377:17378   */\n      0x01\n        /* \"#utility.yul\":17373:17374   */\n      0x02\n        /* \"#utility.yul\":17365:17371   */\n      dup9\n        /* \"#utility.yul\":17361:17375   */\n      mul\n        /* \"#utility.yul\":17357:17379   */\n      add\n        /* \"#utility.yul\":17351:17355   */\n      dup9\n        /* \"#utility.yul\":17344:17380   */\n      sstore\n        /* \"#utility.yul\":16779:17390   */\n      pop\n      pop\n      pop\n        /* \"#utility.yul\":16742:17629   */\n    tag_314:\n      pop\n        /* \"#utility.yul\":16332:17635   */\n      pop\n      pop\n      pop\n        /* \"#utility.yul\":16240:17635   */\n      pop\n      pop\n      jump\t// out\n\n    auxdata: 0xa264697066735822122083fada8891ec2a1399469fabf11c11936e9eaffcc03b614e827a4c02153a0b3664736f6c634300081a0033\n}\n",
				"bytecode": {
					"linkReferences": {},
					"object": "6080604052348015600e575f80fd5b50335f806101000a81548173ffffffffffffffffffffffffffffffffffffffff021916908373ffffffffffffffffffffffffffffffffffffffff160217905550610eb48061005b5f395ff3fe608060405234801561000f575f80fd5b5060043610610055575f3560e01c8063560f3192146100595780636723856214610075578063779900b4146100915780638d977672146100af578063f851a440146100df575b5f80fd5b610073600480360381019061006e9190610550565b6100fd565b005b61008f600480360381019061008a91906106b7565b610255565b005b610099610317565b6040516100a69190610819565b60405180910390f35b6100c960048036038101906100c49190610550565b6103eb565b6040516100d69190610881565b60405180910390f35b6100e7610491565b6040516100f491906108e0565b60405180910390f35b5f8054906101000a900473ffffffffffffffffffffffffffffffffffffffff1673ffffffffffffffffffffffffffffffffffffffff163373ffffffffffffffffffffffffffffffffffffffff161461018a576040517f08c379a000000000000000000000000000000000000000000000000000000000815260040161018190610969565b60405180910390fd5b60018054905081106101d1576040517f08c379a00000000000000000000000000000000000000000000000000000000081526004016101c8906109d1565b60405180910390fd5b60018080805490506101e39190610a1c565b815481106101f4576101f3610a4f565b5b905f5260205f2001600182815481106102105761020f610a4f565b5b905f5260205f200190816102249190610c9d565b50600180548061023757610236610d82565b5b600190038181905f5260205f20015f61025091906104b4565b905550565b5f8054906101000a900473ffffffffffffffffffffffffffffffffffffffff1673ffffffffffffffffffffffffffffffffffffffff163373ffffffffffffffffffffffffffffffffffffffff16146102e2576040517f08c379a00000000000000000000000000000000000000000000000000000000081526004016102d990610969565b60405180910390fd5b600181908060018154018082558091505060019003905f5260205f20015f9091909190915090816103139190610daf565b5050565b60606001805480602002602001604051908101604052809291908181526020015f905b828210156103e2578382905f5260205f2001805461035790610aa9565b80601f016020809104026020016040519081016040528092919081815260200182805461038390610aa9565b80156103ce5780601f106103a5576101008083540402835291602001916103ce565b820191905f5260205f20905b8154815290600101906020018083116103b157829003601f168201915b50505050508152602001906001019061033a565b50505050905090565b600181815481106103fa575f80fd5b905f5260205f20015f91509050805461041290610aa9565b80601f016020809104026020016040519081016040528092919081815260200182805461043e90610aa9565b80156104895780601f1061046057610100808354040283529160200191610489565b820191905f5260205f20905b81548152906001019060200180831161046c57829003601f168201915b505050505081565b5f8054906101000a900473ffffffffffffffffffffffffffffffffffffffff1681565b5080546104c090610aa9565b5f825580601f106104d157506104ee565b601f0160209004905f5260205f20908101906104ed91906104f1565b5b50565b5b80821115610508575f815f9055506001016104f2565b5090565b5f604051905090565b5f80fd5b5f80fd5b5f819050919050565b61052f8161051d565b8114610539575f80fd5b50565b5f8135905061054a81610526565b92915050565b5f6020828403121561056557610564610515565b5b5f6105728482850161053c565b91505092915050565b5f80fd5b5f80fd5b5f601f19601f8301169050919050565b7f4e487b71000000000000000000000000000000000000000000000000000000005f52604160045260245ffd5b6105c982610583565b810181811067ffffffffffffffff821117156105e8576105e7610593565b5b80604052505050565b5f6105fa61050c565b905061060682826105c0565b919050565b5f67ffffffffffffffff82111561062557610624610593565b5b61062e82610583565b9050602081019050919050565b828183375f83830152505050565b5f61065b6106568461060b565b6105f1565b9050828152602081018484840111156106775761067661057f565b5b61068284828561063b565b509392505050565b5f82601f83011261069e5761069d61057b565b5b81356106ae848260208601610649565b91505092915050565b5f602082840312156106cc576106cb610515565b5b5f82013567ffffffffffffffff8111156106e9576106e8610519565b5b6106f58482850161068a565b91505092915050565b5f81519050919050565b5f82825260208201905092915050565b5f819050602082019050919050565b5f81519050919050565b5f82825260208201905092915050565b8281835e5f83830152505050565b5f61075982610727565b6107638185610731565b9350610773818560208601610741565b61077c81610583565b840191505092915050565b5f610792838361074f565b905092915050565b5f602082019050919050565b5f6107b0826106fe565b6107ba8185610708565b9350836020820285016107cc85610718565b805f5b8581101561080757848403895281516107e88582610787565b94506107f38361079a565b925060208a019950506001810190506107cf565b50829750879550505050505092915050565b5f6020820190508181035f83015261083181846107a6565b905092915050565b5f82825260208201905092915050565b5f61085382610727565b61085d8185610839565b935061086d818560208601610741565b61087681610583565b840191505092915050565b5f6020820190508181035f8301526108998184610849565b905092915050565b5f73ffffffffffffffffffffffffffffffffffffffff82169050919050565b5f6108ca826108a1565b9050919050565b6108da816108c0565b82525050565b5f6020820190506108f35f8301846108d1565b92915050565b7f4f6e6c792061646d696e2063616e20706572666f726d207468697320616374695f8201527f6f6e000000000000000000000000000000000000000000000000000000000000602082015250565b5f610953602283610839565b915061095e826108f9565b604082019050919050565b5f6020820190508181035f83015261098081610947565b9050919050565b7f496e646578206f7574206f6620626f756e6473000000000000000000000000005f82015250565b5f6109bb601383610839565b91506109c682610987565b602082019050919050565b5f6020820190508181035f8301526109e8816109af565b9050919050565b7f4e487b71000000000000000000000000000000000000000000000000000000005f52601160045260245ffd5b5f610a268261051d565b9150610a318361051d565b9250828203905081811115610a4957610a486109ef565b5b92915050565b7f4e487b71000000000000000000000000000000000000000000000000000000005f52603260045260245ffd5b7f4e487b71000000000000000000000000000000000000000000000000000000005f52602260045260245ffd5b5f6002820490506001821680610ac057607f821691505b602082108103610ad357610ad2610a7c565b5b50919050565b5f81549050610ae781610aa9565b9050919050565b5f819050815f5260205f209050919050565b5f819050815f5260205f209050919050565b5f6020601f8301049050919050565b5f82821b905092915050565b5f60088302610b5c7fffffffffffffffffffffffffffffffffffffffffffffffffffffffffffffffff82610b21565b610b668683610b21565b95508019841693508086168417925050509392505050565b5f819050919050565b5f610ba1610b9c610b978461051d565b610b7e565b61051d565b9050919050565b5f819050919050565b610bba83610b87565b610bce610bc682610ba8565b848454610b2d565b825550505050565b5f90565b610be2610bd6565b610bed818484610bb1565b505050565b5b81811015610c1057610c055f82610bda565b600181019050610bf3565b5050565b601f821115610c5557610c2681610aee565b610c2f84610b12565b81016020851015610c3e578190505b610c52610c4a85610b12565b830182610bf2565b50505b505050565b5f82821c905092915050565b5f610c755f1984600802610c5a565b1980831691505092915050565b5f610c8d8383610c66565b9150826002028217905092915050565b818103610cab575050610d80565b610cb482610ad9565b67ffffffffffffffff811115610ccd57610ccc610593565b5b610cd78254610aa9565b610ce2828285610c14565b5f601f831160018114610d0f575f8415610cfd578287015490505b610d078582610c82565b865550610d79565b601f198416610d1d87610b00565b9650610d2886610aee565b5f5b82811015610d4f57848901548255600182019150600185019450602081019050610d2a565b86831015610d6c5784890154610d68601f891682610c66565b8355505b6001600288020188555050505b5050505050505b565b7f4e487b71000000000000000000000000000000000000000000000000000000005f52603160045260245ffd5b610db882610727565b67ffffffffffffffff811115610dd157610dd0610593565b5b610ddb8254610aa9565b610de6828285610c14565b5f60209050601f831160018114610e17575f8415610e05578287015190505b610e0f8582610c82565b865550610e76565b601f198416610e2586610aee565b5f5b82811015610e4c57848901518255600182019150602085019450602081019050610e27565b86831015610e695784890151610e65601f891682610c66565b8355505b6001600288020188555050505b50505050505056fea264697066735822122083fada8891ec2a1399469fabf11c11936e9eaffcc03b614e827a4c02153a0b3664736f6c634300081a0033",
					"opcodes": "PUSH1 0x80 PUSH1 0x40 MSTORE CALLVALUE DUP1 ISZERO PUSH1 0xE JUMPI PUSH0 DUP1 REVERT JUMPDEST POP CALLER PUSH0 DUP1 PUSH2 0x100 EXP DUP2 SLOAD DUP2 PUSH20 0xFFFFFFFFFFFFFFFFFFFFFFFFFFFFFFFFFFFFFFFF MUL NOT AND SWAP1 DUP4 PUSH20 0xFFFFFFFFFFFFFFFFFFFFFFFFFFFFFFFFFFFFFFFF AND MUL OR SWAP1 SSTORE POP PUSH2 0xEB4 DUP1 PUSH2 0x5B PUSH0 CODECOPY PUSH0 RETURN INVALID PUSH1 0x80 PUSH1 0x40 MSTORE CALLVALUE DUP1 ISZERO PUSH2 0xF JUMPI PUSH0 DUP1 REVERT JUMPDEST POP PUSH1 0x4 CALLDATASIZE LT PUSH2 0x55 JUMPI PUSH0 CALLDATALOAD PUSH1 0xE0 SHR DUP1 PUSH4 0x560F3192 EQ PUSH2 0x59 JUMPI DUP1 PUSH4 0x67238562 EQ PUSH2 0x75 JUMPI DUP1 PUSH4 0x779900B4 EQ PUSH2 0x91 JUMPI DUP1 PUSH4 0x8D977672 EQ PUSH2 0xAF JUMPI DUP1 PUSH4 0xF851A440 EQ PUSH2 0xDF JUMPI JUMPDEST PUSH0 DUP1 REVERT JUMPDEST PUSH2 0x73 PUSH1 0x4 DUP1 CALLDATASIZE SUB DUP2 ADD SWAP1 PUSH2 0x6E SWAP2 SWAP1 PUSH2 0x550 JUMP JUMPDEST PUSH2 0xFD JUMP JUMPDEST STOP JUMPDEST PUSH2 0x8F PUSH1 0x4 DUP1 CALLDATASIZE SUB DUP2 ADD SWAP1 PUSH2 0x8A SWAP2 SWAP1 PUSH2 0x6B7 JUMP JUMPDEST PUSH2 0x255 JUMP JUMPDEST STOP JUMPDEST PUSH2 0x99 PUSH2 0x317 JUMP JUMPDEST PUSH1 0x40 MLOAD PUSH2 0xA6 SWAP2 SWAP1 PUSH2 0x819 JUMP JUMPDEST PUSH1 0x40 MLOAD DUP1 SWAP2 SUB SWAP1 RETURN JUMPDEST PUSH2 0xC9 PUSH1 0x4 DUP1 CALLDATASIZE SUB DUP2 ADD SWAP1 PUSH2 0xC4 SWAP2 SWAP1 PUSH2 0x550 JUMP JUMPDEST PUSH2 0x3EB JUMP JUMPDEST PUSH1 0x40 MLOAD PUSH2 0xD6 SWAP2 SWAP1 PUSH2 0x881 JUMP JUMPDEST PUSH1 0x40 MLOAD DUP1 SWAP2 SUB SWAP1 RETURN JUMPDEST PUSH2 0xE7 PUSH2 0x491 JUMP JUMPDEST PUSH1 0x40 MLOAD PUSH2 0xF4 SWAP2 SWAP1 PUSH2 0x8E0 JUMP JUMPDEST PUSH1 0x40 MLOAD DUP1 SWAP2 SUB SWAP1 RETURN JUMPDEST PUSH0 DUP1 SLOAD SWAP1 PUSH2 0x100 EXP SWAP1 DIV PUSH20 0xFFFFFFFFFFFFFFFFFFFFFFFFFFFFFFFFFFFFFFFF AND PUSH20 0xFFFFFFFFFFFFFFFFFFFFFFFFFFFFFFFFFFFFFFFF AND CALLER PUSH20 0xFFFFFFFFFFFFFFFFFFFFFFFFFFFFFFFFFFFFFFFF AND EQ PUSH2 0x18A JUMPI PUSH1 0x40 MLOAD PUSH32 0x8C379A000000000000000000000000000000000000000000000000000000000 DUP2 MSTORE PUSH1 0x4 ADD PUSH2 0x181 SWAP1 PUSH2 0x969 JUMP JUMPDEST PUSH1 0x40 MLOAD DUP1 SWAP2 SUB SWAP1 REVERT JUMPDEST PUSH1 0x1 DUP1 SLOAD SWAP1 POP DUP2 LT PUSH2 0x1D1 JUMPI PUSH1 0x40 MLOAD PUSH32 0x8C379A000000000000000000000000000000000000000000000000000000000 DUP2 MSTORE PUSH1 0x4 ADD PUSH2 0x1C8 SWAP1 PUSH2 0x9D1 JUMP JUMPDEST PUSH1 0x40 MLOAD DUP1 SWAP2 SUB SWAP1 REVERT JUMPDEST PUSH1 0x1 DUP1 DUP1 DUP1 SLOAD SWAP1 POP PUSH2 0x1E3 SWAP2 SWAP1 PUSH2 0xA1C JUMP JUMPDEST DUP2 SLOAD DUP2 LT PUSH2 0x1F4 JUMPI PUSH2 0x1F3 PUSH2 0xA4F JUMP JUMPDEST JUMPDEST SWAP1 PUSH0 MSTORE PUSH1 0x20 PUSH0 KECCAK256 ADD PUSH1 0x1 DUP3 DUP2 SLOAD DUP2 LT PUSH2 0x210 JUMPI PUSH2 0x20F PUSH2 0xA4F JUMP JUMPDEST JUMPDEST SWAP1 PUSH0 MSTORE PUSH1 0x20 PUSH0 KECCAK256 ADD SWAP1 DUP2 PUSH2 0x224 SWAP2 SWAP1 PUSH2 0xC9D JUMP JUMPDEST POP PUSH1 0x1 DUP1 SLOAD DUP1 PUSH2 0x237 JUMPI PUSH2 0x236 PUSH2 0xD82 JUMP JUMPDEST JUMPDEST PUSH1 0x1 SWAP1 SUB DUP2 DUP2 SWAP1 PUSH0 MSTORE PUSH1 0x20 PUSH0 KECCAK256 ADD PUSH0 PUSH2 0x250 SWAP2 SWAP1 PUSH2 0x4B4 JUMP JUMPDEST SWAP1 SSTORE POP JUMP JUMPDEST PUSH0 DUP1 SLOAD SWAP1 PUSH2 0x100 EXP SWAP1 DIV PUSH20 0xFFFFFFFFFFFFFFFFFFFFFFFFFFFFFFFFFFFFFFFF AND PUSH20 0xFFFFFFFFFFFFFFFFFFFFFFFFFFFFFFFFFFFFFFFF AND CALLER PUSH20 0xFFFFFFFFFFFFFFFFFFFFFFFFFFFFFFFFFFFFFFFF AND EQ PUSH2 0x2E2 JUMPI PUSH1 0x40 MLOAD PUSH32 0x8C379A000000000000000000000000000000000000000000000000000000000 DUP2 MSTORE PUSH1 0x4 ADD PUSH2 0x2D9 SWAP1 PUSH2 0x969 JUMP JUMPDEST PUSH1 0x40 MLOAD DUP1 SWAP2 SUB SWAP1 REVERT JUMPDEST PUSH1 0x1 DUP2 SWAP1 DUP1 PUSH1 0x1 DUP2 SLOAD ADD DUP1 DUP3 SSTORE DUP1 SWAP2 POP POP PUSH1 0x1 SWAP1 SUB SWAP1 PUSH0 MSTORE PUSH1 0x20 PUSH0 KECCAK256 ADD PUSH0 SWAP1 SWAP2 SWAP1 SWAP2 SWAP1 SWAP2 POP SWAP1 DUP2 PUSH2 0x313 SWAP2 SWAP1 PUSH2 0xDAF JUMP JUMPDEST POP POP JUMP JUMPDEST PUSH1 0x60 PUSH1 0x1 DUP1 SLOAD DUP1 PUSH1 0x20 MUL PUSH1 0x20 ADD PUSH1 0x40 MLOAD SWAP1 DUP2 ADD PUSH1 0x40 MSTORE DUP1 SWAP3 SWAP2 SWAP1 DUP2 DUP2 MSTORE PUSH1 0x20 ADD PUSH0 SWAP1 JUMPDEST DUP3 DUP3 LT ISZERO PUSH2 0x3E2 JUMPI DUP4 DUP3 SWAP1 PUSH0 MSTORE PUSH1 0x20 PUSH0 KECCAK256 ADD DUP1 SLOAD PUSH2 0x357 SWAP1 PUSH2 0xAA9 JUMP JUMPDEST DUP1 PUSH1 0x1F ADD PUSH1 0x20 DUP1 SWAP2 DIV MUL PUSH1 0x20 ADD PUSH1 0x40 MLOAD SWAP1 DUP2 ADD PUSH1 0x40 MSTORE DUP1 SWAP3 SWAP2 SWAP1 DUP2 DUP2 MSTORE PUSH1 0x20 ADD DUP3 DUP1 SLOAD PUSH2 0x383 SWAP1 PUSH2 0xAA9 JUMP JUMPDEST DUP1 ISZERO PUSH2 0x3CE JUMPI DUP1 PUSH1 0x1F LT PUSH2 0x3A5 JUMPI PUSH2 0x100 DUP1 DUP4 SLOAD DIV MUL DUP4 MSTORE SWAP2 PUSH1 0x20 ADD SWAP2 PUSH2 0x3CE JUMP JUMPDEST DUP3 ADD SWAP2 SWAP1 PUSH0 MSTORE PUSH1 0x20 PUSH0 KECCAK256 SWAP1 JUMPDEST DUP2 SLOAD DUP2 MSTORE SWAP1 PUSH1 0x1 ADD SWAP1 PUSH1 0x20 ADD DUP1 DUP4 GT PUSH2 0x3B1 JUMPI DUP3 SWAP1 SUB PUSH1 0x1F AND DUP3 ADD SWAP2 JUMPDEST POP POP POP POP POP DUP2 MSTORE PUSH1 0x20 ADD SWAP1 PUSH1 0x1 ADD SWAP1 PUSH2 0x33A JUMP JUMPDEST POP POP POP POP SWAP1 POP SWAP1 JUMP JUMPDEST PUSH1 0x1 DUP2 DUP2 SLOAD DUP2 LT PUSH2 0x3FA JUMPI PUSH0 DUP1 REVERT JUMPDEST SWAP1 PUSH0 MSTORE PUSH1 0x20 PUSH0 KECCAK256 ADD PUSH0 SWAP2 POP SWAP1 POP DUP1 SLOAD PUSH2 0x412 SWAP1 PUSH2 0xAA9 JUMP JUMPDEST DUP1 PUSH1 0x1F ADD PUSH1 0x20 DUP1 SWAP2 DIV MUL PUSH1 0x20 ADD PUSH1 0x40 MLOAD SWAP1 DUP2 ADD PUSH1 0x40 MSTORE DUP1 SWAP3 SWAP2 SWAP1 DUP2 DUP2 MSTORE PUSH1 0x20 ADD DUP3 DUP1 SLOAD PUSH2 0x43E SWAP1 PUSH2 0xAA9 JUMP JUMPDEST DUP1 ISZERO PUSH2 0x489 JUMPI DUP1 PUSH1 0x1F LT PUSH2 0x460 JUMPI PUSH2 0x100 DUP1 DUP4 SLOAD DIV MUL DUP4 MSTORE SWAP2 PUSH1 0x20 ADD SWAP2 PUSH2 0x489 JUMP JUMPDEST DUP3 ADD SWAP2 SWAP1 PUSH0 MSTORE PUSH1 0x20 PUSH0 KECCAK256 SWAP1 JUMPDEST DUP2 SLOAD DUP2 MSTORE SWAP1 PUSH1 0x1 ADD SWAP1 PUSH1 0x20 ADD DUP1 DUP4 GT PUSH2 0x46C JUMPI DUP3 SWAP1 SUB PUSH1 0x1F AND DUP3 ADD SWAP2 JUMPDEST POP POP POP POP POP DUP2 JUMP JUMPDEST PUSH0 DUP1 SLOAD SWAP1 PUSH2 0x100 EXP SWAP1 DIV PUSH20 0xFFFFFFFFFFFFFFFFFFFFFFFFFFFFFFFFFFFFFFFF AND DUP2 JUMP JUMPDEST POP DUP1 SLOAD PUSH2 0x4C0 SWAP1 PUSH2 0xAA9 JUMP JUMPDEST PUSH0 DUP3 SSTORE DUP1 PUSH1 0x1F LT PUSH2 0x4D1 JUMPI POP PUSH2 0x4EE JUMP JUMPDEST PUSH1 0x1F ADD PUSH1 0x20 SWAP1 DIV SWAP1 PUSH0 MSTORE PUSH1 0x20 PUSH0 KECCAK256 SWAP1 DUP2 ADD SWAP1 PUSH2 0x4ED SWAP2 SWAP1 PUSH2 0x4F1 JUMP JUMPDEST JUMPDEST POP JUMP JUMPDEST JUMPDEST DUP1 DUP3 GT ISZERO PUSH2 0x508 JUMPI PUSH0 DUP2 PUSH0 SWAP1 SSTORE POP PUSH1 0x1 ADD PUSH2 0x4F2 JUMP JUMPDEST POP SWAP1 JUMP JUMPDEST PUSH0 PUSH1 0x40 MLOAD SWAP1 POP SWAP1 JUMP JUMPDEST PUSH0 DUP1 REVERT JUMPDEST PUSH0 DUP1 REVERT JUMPDEST PUSH0 DUP2 SWAP1 POP SWAP2 SWAP1 POP JUMP JUMPDEST PUSH2 0x52F DUP2 PUSH2 0x51D JUMP JUMPDEST DUP2 EQ PUSH2 0x539 JUMPI PUSH0 DUP1 REVERT JUMPDEST POP JUMP JUMPDEST PUSH0 DUP2 CALLDATALOAD SWAP1 POP PUSH2 0x54A DUP2 PUSH2 0x526 JUMP JUMPDEST SWAP3 SWAP2 POP POP JUMP JUMPDEST PUSH0 PUSH1 0x20 DUP3 DUP5 SUB SLT ISZERO PUSH2 0x565 JUMPI PUSH2 0x564 PUSH2 0x515 JUMP JUMPDEST JUMPDEST PUSH0 PUSH2 0x572 DUP5 DUP3 DUP6 ADD PUSH2 0x53C JUMP JUMPDEST SWAP2 POP POP SWAP3 SWAP2 POP POP JUMP JUMPDEST PUSH0 DUP1 REVERT JUMPDEST PUSH0 DUP1 REVERT JUMPDEST PUSH0 PUSH1 0x1F NOT PUSH1 0x1F DUP4 ADD AND SWAP1 POP SWAP2 SWAP1 POP JUMP JUMPDEST PUSH32 0x4E487B7100000000000000000000000000000000000000000000000000000000 PUSH0 MSTORE PUSH1 0x41 PUSH1 0x4 MSTORE PUSH1 0x24 PUSH0 REVERT JUMPDEST PUSH2 0x5C9 DUP3 PUSH2 0x583 JUMP JUMPDEST DUP2 ADD DUP2 DUP2 LT PUSH8 0xFFFFFFFFFFFFFFFF DUP3 GT OR ISZERO PUSH2 0x5E8 JUMPI PUSH2 0x5E7 PUSH2 0x593 JUMP JUMPDEST JUMPDEST DUP1 PUSH1 0x40 MSTORE POP POP POP JUMP JUMPDEST PUSH0 PUSH2 0x5FA PUSH2 0x50C JUMP JUMPDEST SWAP1 POP PUSH2 0x606 DUP3 DUP3 PUSH2 0x5C0 JUMP JUMPDEST SWAP2 SWAP1 POP JUMP JUMPDEST PUSH0 PUSH8 0xFFFFFFFFFFFFFFFF DUP3 GT ISZERO PUSH2 0x625 JUMPI PUSH2 0x624 PUSH2 0x593 JUMP JUMPDEST JUMPDEST PUSH2 0x62E DUP3 PUSH2 0x583 JUMP JUMPDEST SWAP1 POP PUSH1 0x20 DUP2 ADD SWAP1 POP SWAP2 SWAP1 POP JUMP JUMPDEST DUP3 DUP2 DUP4 CALLDATACOPY PUSH0 DUP4 DUP4 ADD MSTORE POP POP POP JUMP JUMPDEST PUSH0 PUSH2 0x65B PUSH2 0x656 DUP5 PUSH2 0x60B JUMP JUMPDEST PUSH2 0x5F1 JUMP JUMPDEST SWAP1 POP DUP3 DUP2 MSTORE PUSH1 0x20 DUP2 ADD DUP5 DUP5 DUP5 ADD GT ISZERO PUSH2 0x677 JUMPI PUSH2 0x676 PUSH2 0x57F JUMP JUMPDEST JUMPDEST PUSH2 0x682 DUP5 DUP3 DUP6 PUSH2 0x63B JUMP JUMPDEST POP SWAP4 SWAP3 POP POP POP JUMP JUMPDEST PUSH0 DUP3 PUSH1 0x1F DUP4 ADD SLT PUSH2 0x69E JUMPI PUSH2 0x69D PUSH2 0x57B JUMP JUMPDEST JUMPDEST DUP2 CALLDATALOAD PUSH2 0x6AE DUP5 DUP3 PUSH1 0x20 DUP7 ADD PUSH2 0x649 JUMP JUMPDEST SWAP2 POP POP SWAP3 SWAP2 POP POP JUMP JUMPDEST PUSH0 PUSH1 0x20 DUP3 DUP5 SUB SLT ISZERO PUSH2 0x6CC JUMPI PUSH2 0x6CB PUSH2 0x515 JUMP JUMPDEST JUMPDEST PUSH0 DUP3 ADD CALLDATALOAD PUSH8 0xFFFFFFFFFFFFFFFF DUP2 GT ISZERO PUSH2 0x6E9 JUMPI PUSH2 0x6E8 PUSH2 0x519 JUMP JUMPDEST JUMPDEST PUSH2 0x6F5 DUP5 DUP3 DUP6 ADD PUSH2 0x68A JUMP JUMPDEST SWAP2 POP POP SWAP3 SWAP2 POP POP JUMP JUMPDEST PUSH0 DUP2 MLOAD SWAP1 POP SWAP2 SWAP1 POP JUMP JUMPDEST PUSH0 DUP3 DUP3 MSTORE PUSH1 0x20 DUP3 ADD SWAP1 POP SWAP3 SWAP2 POP POP JUMP JUMPDEST PUSH0 DUP2 SWAP1 POP PUSH1 0x20 DUP3 ADD SWAP1 POP SWAP2 SWAP1 POP JUMP JUMPDEST PUSH0 DUP2 MLOAD SWAP1 POP SWAP2 SWAP1 POP JUMP JUMPDEST PUSH0 DUP3 DUP3 MSTORE PUSH1 0x20 DUP3 ADD SWAP1 POP SWAP3 SWAP2 POP POP JUMP JUMPDEST DUP3 DUP2 DUP4 MCOPY PUSH0 DUP4 DUP4 ADD MSTORE POP POP POP JUMP JUMPDEST PUSH0 PUSH2 0x759 DUP3 PUSH2 0x727 JUMP JUMPDEST PUSH2 0x763 DUP2 DUP6 PUSH2 0x731 JUMP JUMPDEST SWAP4 POP PUSH2 0x773 DUP2 DUP6 PUSH1 0x20 DUP7 ADD PUSH2 0x741 JUMP JUMPDEST PUSH2 0x77C DUP2 PUSH2 0x583 JUMP JUMPDEST DUP5 ADD SWAP2 POP POP SWAP3 SWAP2 POP POP JUMP JUMPDEST PUSH0 PUSH2 0x792 DUP4 DUP4 PUSH2 0x74F JUMP JUMPDEST SWAP1 POP SWAP3 SWAP2 POP POP JUMP JUMPDEST PUSH0 PUSH1 0x20 DUP3 ADD SWAP1 POP SWAP2 SWAP1 POP JUMP JUMPDEST PUSH0 PUSH2 0x7B0 DUP3 PUSH2 0x6FE JUMP JUMPDEST PUSH2 0x7BA DUP2 DUP6 PUSH2 0x708 JUMP JUMPDEST SWAP4 POP DUP4 PUSH1 0x20 DUP3 MUL DUP6 ADD PUSH2 0x7CC DUP6 PUSH2 0x718 JUMP JUMPDEST DUP1 PUSH0 JUMPDEST DUP6 DUP2 LT ISZERO PUSH2 0x807 JUMPI DUP5 DUP5 SUB DUP10 MSTORE DUP2 MLOAD PUSH2 0x7E8 DUP6 DUP3 PUSH2 0x787 JUMP JUMPDEST SWAP5 POP PUSH2 0x7F3 DUP4 PUSH2 0x79A JUMP JUMPDEST SWAP3 POP PUSH1 0x20 DUP11 ADD SWAP10 POP POP PUSH1 0x1 DUP2 ADD SWAP1 POP PUSH2 0x7CF JUMP JUMPDEST POP DUP3 SWAP8 POP DUP8 SWAP6 POP POP POP POP POP POP SWAP3 SWAP2 POP POP JUMP JUMPDEST PUSH0 PUSH1 0x20 DUP3 ADD SWAP1 POP DUP2 DUP2 SUB PUSH0 DUP4 ADD MSTORE PUSH2 0x831 DUP2 DUP5 PUSH2 0x7A6 JUMP JUMPDEST SWAP1 POP SWAP3 SWAP2 POP POP JUMP JUMPDEST PUSH0 DUP3 DUP3 MSTORE PUSH1 0x20 DUP3 ADD SWAP1 POP SWAP3 SWAP2 POP POP JUMP JUMPDEST PUSH0 PUSH2 0x853 DUP3 PUSH2 0x727 JUMP JUMPDEST PUSH2 0x85D DUP2 DUP6 PUSH2 0x839 JUMP JUMPDEST SWAP4 POP PUSH2 0x86D DUP2 DUP6 PUSH1 0x20 DUP7 ADD PUSH2 0x741 JUMP JUMPDEST PUSH2 0x876 DUP2 PUSH2 0x583 JUMP JUMPDEST DUP5 ADD SWAP2 POP POP SWAP3 SWAP2 POP POP JUMP JUMPDEST PUSH0 PUSH1 0x20 DUP3 ADD SWAP1 POP DUP2 DUP2 SUB PUSH0 DUP4 ADD MSTORE PUSH2 0x899 DUP2 DUP5 PUSH2 0x849 JUMP JUMPDEST SWAP1 POP SWAP3 SWAP2 POP POP JUMP JUMPDEST PUSH0 PUSH20 0xFFFFFFFFFFFFFFFFFFFFFFFFFFFFFFFFFFFFFFFF DUP3 AND SWAP1 POP SWAP2 SWAP1 POP JUMP JUMPDEST PUSH0 PUSH2 0x8CA DUP3 PUSH2 0x8A1 JUMP JUMPDEST SWAP1 POP SWAP2 SWAP1 POP JUMP JUMPDEST PUSH2 0x8DA DUP2 PUSH2 0x8C0 JUMP JUMPDEST DUP3 MSTORE POP POP JUMP JUMPDEST PUSH0 PUSH1 0x20 DUP3 ADD SWAP1 POP PUSH2 0x8F3 PUSH0 DUP4 ADD DUP5 PUSH2 0x8D1 JUMP JUMPDEST SWAP3 SWAP2 POP POP JUMP JUMPDEST PUSH32 0x4F6E6C792061646D696E2063616E20706572666F726D20746869732061637469 PUSH0 DUP3 ADD MSTORE PUSH32 0x6F6E000000000000000000000000000000000000000000000000000000000000 PUSH1 0x20 DUP3 ADD MSTORE POP JUMP JUMPDEST PUSH0 PUSH2 0x953 PUSH1 0x22 DUP4 PUSH2 0x839 JUMP JUMPDEST SWAP2 POP PUSH2 0x95E DUP3 PUSH2 0x8F9 JUMP JUMPDEST PUSH1 0x40 DUP3 ADD SWAP1 POP SWAP2 SWAP1 POP JUMP JUMPDEST PUSH0 PUSH1 0x20 DUP3 ADD SWAP1 POP DUP2 DUP2 SUB PUSH0 DUP4 ADD MSTORE PUSH2 0x980 DUP2 PUSH2 0x947 JUMP JUMPDEST SWAP1 POP SWAP2 SWAP1 POP JUMP JUMPDEST PUSH32 0x496E646578206F7574206F6620626F756E647300000000000000000000000000 PUSH0 DUP3 ADD MSTORE POP JUMP JUMPDEST PUSH0 PUSH2 0x9BB PUSH1 0x13 DUP4 PUSH2 0x839 JUMP JUMPDEST SWAP2 POP PUSH2 0x9C6 DUP3 PUSH2 0x987 JUMP JUMPDEST PUSH1 0x20 DUP3 ADD SWAP1 POP SWAP2 SWAP1 POP JUMP JUMPDEST PUSH0 PUSH1 0x20 DUP3 ADD SWAP1 POP DUP2 DUP2 SUB PUSH0 DUP4 ADD MSTORE PUSH2 0x9E8 DUP2 PUSH2 0x9AF JUMP JUMPDEST SWAP1 POP SWAP2 SWAP1 POP JUMP JUMPDEST PUSH32 0x4E487B7100000000000000000000000000000000000000000000000000000000 PUSH0 MSTORE PUSH1 0x11 PUSH1 0x4 MSTORE PUSH1 0x24 PUSH0 REVERT JUMPDEST PUSH0 PUSH2 0xA26 DUP3 PUSH2 0x51D JUMP JUMPDEST SWAP2 POP PUSH2 0xA31 DUP4 PUSH2 0x51D JUMP JUMPDEST SWAP3 POP DUP3 DUP3 SUB SWAP1 POP DUP2 DUP2 GT ISZERO PUSH2 0xA49 JUMPI PUSH2 0xA48 PUSH2 0x9EF JUMP JUMPDEST JUMPDEST SWAP3 SWAP2 POP POP JUMP JUMPDEST PUSH32 0x4E487B7100000000000000000000000000000000000000000000000000000000 PUSH0 MSTORE PUSH1 0x32 PUSH1 0x4 MSTORE PUSH1 0x24 PUSH0 REVERT JUMPDEST PUSH32 0x4E487B7100000000000000000000000000000000000000000000000000000000 PUSH0 MSTORE PUSH1 0x22 PUSH1 0x4 MSTORE PUSH1 0x24 PUSH0 REVERT JUMPDEST PUSH0 PUSH1 0x2 DUP3 DIV SWAP1 POP PUSH1 0x1 DUP3 AND DUP1 PUSH2 0xAC0 JUMPI PUSH1 0x7F DUP3 AND SWAP2 POP JUMPDEST PUSH1 0x20 DUP3 LT DUP2 SUB PUSH2 0xAD3 JUMPI PUSH2 0xAD2 PUSH2 0xA7C JUMP JUMPDEST JUMPDEST POP SWAP2 SWAP1 POP JUMP JUMPDEST PUSH0 DUP2 SLOAD SWAP1 POP PUSH2 0xAE7 DUP2 PUSH2 0xAA9 JUMP JUMPDEST SWAP1 POP SWAP2 SWAP1 POP JUMP JUMPDEST PUSH0 DUP2 SWAP1 POP DUP2 PUSH0 MSTORE PUSH1 0x20 PUSH0 KECCAK256 SWAP1 POP SWAP2 SWAP1 POP JUMP JUMPDEST PUSH0 DUP2 SWAP1 POP DUP2 PUSH0 MSTORE PUSH1 0x20 PUSH0 KECCAK256 SWAP1 POP SWAP2 SWAP1 POP JUMP JUMPDEST PUSH0 PUSH1 0x20 PUSH1 0x1F DUP4 ADD DIV SWAP1 POP SWAP2 SWAP1 POP JUMP JUMPDEST PUSH0 DUP3 DUP3 SHL SWAP1 POP SWAP3 SWAP2 POP POP JUMP JUMPDEST PUSH0 PUSH1 0x8 DUP4 MUL PUSH2 0xB5C PUSH32 0xFFFFFFFFFFFFFFFFFFFFFFFFFFFFFFFFFFFFFFFFFFFFFFFFFFFFFFFFFFFFFFFF DUP3 PUSH2 0xB21 JUMP JUMPDEST PUSH2 0xB66 DUP7 DUP4 PUSH2 0xB21 JUMP JUMPDEST SWAP6 POP DUP1 NOT DUP5 AND SWAP4 POP DUP1 DUP7 AND DUP5 OR SWAP3 POP POP POP SWAP4 SWAP3 POP POP POP JUMP JUMPDEST PUSH0 DUP2 SWAP1 POP SWAP2 SWAP1 POP JUMP JUMPDEST PUSH0 PUSH2 0xBA1 PUSH2 0xB9C PUSH2 0xB97 DUP5 PUSH2 0x51D JUMP JUMPDEST PUSH2 0xB7E JUMP JUMPDEST PUSH2 0x51D JUMP JUMPDEST SWAP1 POP SWAP2 SWAP1 POP JUMP JUMPDEST PUSH0 DUP2 SWAP1 POP SWAP2 SWAP1 POP JUMP JUMPDEST PUSH2 0xBBA DUP4 PUSH2 0xB87 JUMP JUMPDEST PUSH2 0xBCE PUSH2 0xBC6 DUP3 PUSH2 0xBA8 JUMP JUMPDEST DUP5 DUP5 SLOAD PUSH2 0xB2D JUMP JUMPDEST DUP3 SSTORE POP POP POP POP JUMP JUMPDEST PUSH0 SWAP1 JUMP JUMPDEST PUSH2 0xBE2 PUSH2 0xBD6 JUMP JUMPDEST PUSH2 0xBED DUP2 DUP5 DUP5 PUSH2 0xBB1 JUMP JUMPDEST POP POP POP JUMP JUMPDEST JUMPDEST DUP2 DUP2 LT ISZERO PUSH2 0xC10 JUMPI PUSH2 0xC05 PUSH0 DUP3 PUSH2 0xBDA JUMP JUMPDEST PUSH1 0x1 DUP2 ADD SWAP1 POP PUSH2 0xBF3 JUMP JUMPDEST POP POP JUMP JUMPDEST PUSH1 0x1F DUP3 GT ISZERO PUSH2 0xC55 JUMPI PUSH2 0xC26 DUP2 PUSH2 0xAEE JUMP JUMPDEST PUSH2 0xC2F DUP5 PUSH2 0xB12 JUMP JUMPDEST DUP2 ADD PUSH1 0x20 DUP6 LT ISZERO PUSH2 0xC3E JUMPI DUP2 SWAP1 POP JUMPDEST PUSH2 0xC52 PUSH2 0xC4A DUP6 PUSH2 0xB12 JUMP JUMPDEST DUP4 ADD DUP3 PUSH2 0xBF2 JUMP JUMPDEST POP POP JUMPDEST POP POP POP JUMP JUMPDEST PUSH0 DUP3 DUP3 SHR SWAP1 POP SWAP3 SWAP2 POP POP JUMP JUMPDEST PUSH0 PUSH2 0xC75 PUSH0 NOT DUP5 PUSH1 0x8 MUL PUSH2 0xC5A JUMP JUMPDEST NOT DUP1 DUP4 AND SWAP2 POP POP SWAP3 SWAP2 POP POP JUMP JUMPDEST PUSH0 PUSH2 0xC8D DUP4 DUP4 PUSH2 0xC66 JUMP JUMPDEST SWAP2 POP DUP3 PUSH1 0x2 MUL DUP3 OR SWAP1 POP SWAP3 SWAP2 POP POP JUMP JUMPDEST DUP2 DUP2 SUB PUSH2 0xCAB JUMPI POP POP PUSH2 0xD80 JUMP JUMPDEST PUSH2 0xCB4 DUP3 PUSH2 0xAD9 JUMP JUMPDEST PUSH8 0xFFFFFFFFFFFFFFFF DUP2 GT ISZERO PUSH2 0xCCD JUMPI PUSH2 0xCCC PUSH2 0x593 JUMP JUMPDEST JUMPDEST PUSH2 0xCD7 DUP3 SLOAD PUSH2 0xAA9 JUMP JUMPDEST PUSH2 0xCE2 DUP3 DUP3 DUP6 PUSH2 0xC14 JUMP JUMPDEST PUSH0 PUSH1 0x1F DUP4 GT PUSH1 0x1 DUP2 EQ PUSH2 0xD0F JUMPI PUSH0 DUP5 ISZERO PUSH2 0xCFD JUMPI DUP3 DUP8 ADD SLOAD SWAP1 POP JUMPDEST PUSH2 0xD07 DUP6 DUP3 PUSH2 0xC82 JUMP JUMPDEST DUP7 SSTORE POP PUSH2 0xD79 JUMP JUMPDEST PUSH1 0x1F NOT DUP5 AND PUSH2 0xD1D DUP8 PUSH2 0xB00 JUMP JUMPDEST SWAP7 POP PUSH2 0xD28 DUP7 PUSH2 0xAEE JUMP JUMPDEST PUSH0 JUMPDEST DUP3 DUP2 LT ISZERO PUSH2 0xD4F JUMPI DUP5 DUP10 ADD SLOAD DUP3 SSTORE PUSH1 0x1 DUP3 ADD SWAP2 POP PUSH1 0x1 DUP6 ADD SWAP5 POP PUSH1 0x20 DUP2 ADD SWAP1 POP PUSH2 0xD2A JUMP JUMPDEST DUP7 DUP4 LT ISZERO PUSH2 0xD6C JUMPI DUP5 DUP10 ADD SLOAD PUSH2 0xD68 PUSH1 0x1F DUP10 AND DUP3 PUSH2 0xC66 JUMP JUMPDEST DUP4 SSTORE POP JUMPDEST PUSH1 0x1 PUSH1 0x2 DUP9 MUL ADD DUP9 SSTORE POP POP POP JUMPDEST POP POP POP POP POP POP JUMPDEST JUMP JUMPDEST PUSH32 0x4E487B7100000000000000000000000000000000000000000000000000000000 PUSH0 MSTORE PUSH1 0x31 PUSH1 0x4 MSTORE PUSH1 0x24 PUSH0 REVERT JUMPDEST PUSH2 0xDB8 DUP3 PUSH2 0x727 JUMP JUMPDEST PUSH8 0xFFFFFFFFFFFFFFFF DUP2 GT ISZERO PUSH2 0xDD1 JUMPI PUSH2 0xDD0 PUSH2 0x593 JUMP JUMPDEST JUMPDEST PUSH2 0xDDB DUP3 SLOAD PUSH2 0xAA9 JUMP JUMPDEST PUSH2 0xDE6 DUP3 DUP3 DUP6 PUSH2 0xC14 JUMP JUMPDEST PUSH0 PUSH1 0x20 SWAP1 POP PUSH1 0x1F DUP4 GT PUSH1 0x1 DUP2 EQ PUSH2 0xE17 JUMPI PUSH0 DUP5 ISZERO PUSH2 0xE05 JUMPI DUP3 DUP8 ADD MLOAD SWAP1 POP JUMPDEST PUSH2 0xE0F DUP6 DUP3 PUSH2 0xC82 JUMP JUMPDEST DUP7 SSTORE POP PUSH2 0xE76 JUMP JUMPDEST PUSH1 0x1F NOT DUP5 AND PUSH2 0xE25 DUP7 PUSH2 0xAEE JUMP JUMPDEST PUSH0 JUMPDEST DUP3 DUP2 LT ISZERO PUSH2 0xE4C JUMPI DUP5 DUP10 ADD MLOAD DUP3 SSTORE PUSH1 0x1 DUP3 ADD SWAP2 POP PUSH1 0x20 DUP6 ADD SWAP5 POP PUSH1 0x20 DUP2 ADD SWAP1 POP PUSH2 0xE27 JUMP JUMPDEST DUP7 DUP4 LT ISZERO PUSH2 0xE69 JUMPI DUP5 DUP10 ADD MLOAD PUSH2 0xE65 PUSH1 0x1F DUP10 AND DUP3 PUSH2 0xC66 JUMP JUMPDEST DUP4 SSTORE POP JUMPDEST PUSH1 0x1 PUSH1 0x2 DUP9 MUL ADD DUP9 SSTORE POP POP POP JUMPDEST POP POP POP POP POP POP JUMP INVALID LOG2 PUSH5 0x6970667358 0x22 SLT KECCAK256 DUP4 STATICCALL 0xDA DUP9 SWAP2 0xEC 0x2A SGT SWAP10 CHAINID SWAP16 0xAB CALL SHR GT SWAP4 PUSH15 0x9EAFFCC03B614E827A4C02153A0B36 PUSH5 0x736F6C6343 STOP ADDMOD BYTE STOP CALLER "
				},
				"gasEstimates": {
					"creation": {
						"codeDepositCost": "752800",
						"executionCost": "25049",
						"totalCost": "777849"
					},
					"external": {
						"addTask(string)": "infinite",
						"admin()": "2571",
						"deleteTask(uint256)": "infinite",
						"getAllTasks()": "infinite",
						"tasks(uint256)": "infinite"
					}
				},
				"methodIdentifiers": {
					"addTask(string)": "67238562",
					"admin()": "f851a440",
					"deleteTask(uint256)": "560f3192",
					"getAllTasks()": "779900b4",
					"tasks(uint256)": "8d977672"
				}
			},
			"storageLayout": {
				"storage": [
					{
						"astId": 3,
						"contract": "Task1_assign4.sol:TaskManager",
						"label": "admin",
						"offset": 0,
						"slot": "0",
						"type": "t_address"
					},
					{
						"astId": 27,
						"contract": "Task1_assign4.sol:TaskManager",
						"label": "tasks",
						"offset": 0,
						"slot": "1",
						"type": "t_array(t_string_storage)dyn_storage"
					}
				],
				"types": {
					"t_address": {
						"encoding": "inplace",
						"label": "address",
						"numberOfBytes": "20"
					},
					"t_array(t_string_storage)dyn_storage": {
						"base": "t_string_storage",
						"encoding": "dynamic_array",
						"label": "string[]",
						"numberOfBytes": "32"
					},
					"t_string_storage": {
						"encoding": "bytes",
						"label": "string",
						"numberOfBytes": "32"
					}
				}
			},
			"userdoc": {
				"kind": "user",
				"methods": {},
				"version": 1
			}
		}
	}
}