{
	"task3_lab5.sol": {
		"D": {
			"abi": [
				{
					"inputs": [],
					"name": "readData",
					"outputs": [
						{
							"internalType": "uint256",
							"name": "",
							"type": "uint256"
						}
					],
					"stateMutability": "nonpayable",
					"type": "function"
				}
			],
			"devdoc": {
				"kind": "dev",
				"methods": {},
				"version": 1
			},
			"evm": {
				"assembly": "    /* \"task3_lab5.sol\":601:747  contract D {... */\n  mstore(0x40, 0x80)\n  callvalue\n  dup1\n  iszero\n  tag_1\n  jumpi\n  0x00\n  dup1\n  revert\ntag_1:\n  pop\n  dataSize(sub_0)\n  dup1\n  dataOffset(sub_0)\n  0x00\n  codecopy\n  0x00\n  return\nstop\n\nsub_0: assembly {\n        /* \"task3_lab5.sol\":601:747  contract D {... */\n      mstore(0x40, 0x80)\n      callvalue\n      dup1\n      iszero\n      tag_1\n      jumpi\n      0x00\n      dup1\n      revert\n    tag_1:\n      pop\n      jumpi(tag_2, lt(calldatasize, 0x04))\n      shr(0xe0, calldataload(0x00))\n      dup1\n      0xbef55ef3\n      eq\n      tag_3\n      jumpi\n    tag_2:\n      0x00\n      dup1\n      revert\n        /* \"task3_lab5.sol\":618:744  function readData() public returns(uint) {... */\n    tag_3:\n      tag_4\n      tag_5\n      jump\t// in\n    tag_4:\n      mload(0x40)\n      tag_6\n      swap2\n      swap1\n      tag_7\n      jump\t// in\n    tag_6:\n      mload(0x40)\n      dup1\n      swap2\n      sub\n      swap1\n      return\n    tag_5:\n        /* \"task3_lab5.sol\":653:657  uint */\n      0x00\n        /* \"task3_lab5.sol\":668:671  C c */\n      dup1\n        /* \"task3_lab5.sol\":674:681  new C() */\n      mload(0x40)\n      tag_9\n      swap1\n      tag_10\n      jump\t// in\n    tag_9:\n      mload(0x40)\n      dup1\n      swap2\n      sub\n      swap1\n      0x00\n      create\n      dup1\n      iszero\n      dup1\n      iszero\n      tag_11\n      jumpi\n      returndatasize\n      0x00\n      dup1\n      returndatacopy\n      revert(0x00, returndatasize)\n    tag_11:\n      pop\n        /* \"task3_lab5.sol\":668:681  C c = new C() */\n      swap1\n      pop\n        /* \"task3_lab5.sol\":690:691  c */\n      dup1\n        /* \"task3_lab5.sol\":690:702  c.updateData */\n      0xffffffffffffffffffffffffffffffffffffffff\n      and\n      0x09e96008\n        /* \"task3_lab5.sol\":703:704  7 */\n      0x07\n        /* \"task3_lab5.sol\":690:705  c.updateData(7) */\n      mload(0x40)\n      dup3\n      0xffffffff\n      and\n      0xe0\n      shl\n      dup2\n      mstore\n      0x04\n      add\n      tag_12\n      swap2\n      swap1\n      tag_13\n      jump\t// in\n    tag_12:\n      0x00\n      mload(0x40)\n      dup1\n      dup4\n      sub\n      dup2\n      0x00\n      dup8\n      dup1\n      extcodesize\n      iszero\n      dup1\n      iszero\n      tag_14\n      jumpi\n      0x00\n      dup1\n      revert\n    tag_14:\n      pop\n      gas\n      call\n      iszero\n      dup1\n      iszero\n      tag_16\n      jumpi\n      returndatasize\n      0x00\n      dup1\n      returndatacopy\n      revert(0x00, returndatasize)\n    tag_16:\n      pop\n      pop\n      pop\n      pop\n        /* \"task3_lab5.sol\":726:727  c */\n      dup1\n        /* \"task3_lab5.sol\":726:735  c.getData */\n      0xffffffffffffffffffffffffffffffffffffffff\n      and\n      0x3bc5de30\n        /* \"task3_lab5.sol\":726:737  c.getData() */\n      mload(0x40)\n      dup2\n      0xffffffff\n      and\n      0xe0\n      shl\n      dup2\n      mstore\n      0x04\n      add\n      0x20\n      mload(0x40)\n      dup1\n      dup4\n      sub\n      dup2\n      dup7\n      gas\n      staticcall\n      iszero\n      dup1\n      iszero\n      tag_18\n      jumpi\n      returndatasize\n      0x00\n      dup1\n      returndatacopy\n      revert(0x00, returndatasize)\n    tag_18:\n      pop\n      pop\n      pop\n      pop\n      mload(0x40)\n      returndatasize\n      not(0x1f)\n      0x1f\n      dup3\n      add\n      and\n      dup3\n      add\n      dup1\n      0x40\n      mstore\n      pop\n      dup2\n      add\n      swap1\n      tag_19\n      swap2\n      swap1\n      tag_20\n      jump\t// in\n    tag_19:\n        /* \"task3_lab5.sol\":719:737  return c.getData() */\n      swap2\n      pop\n      pop\n        /* \"task3_lab5.sol\":618:744  function readData() public returns(uint) {... */\n      swap1\n      jump\t// out\n    tag_10:\n      dataSize(sub_0)\n      dup1\n      dataOffset(sub_0)\n      dup4\n      codecopy\n      add\n      swap1\n      jump\t// out\n        /* \"#utility.yul\":7:84   */\n    tag_21:\n        /* \"#utility.yul\":44:51   */\n      0x00\n        /* \"#utility.yul\":73:78   */\n      dup2\n        /* \"#utility.yul\":62:78   */\n      swap1\n      pop\n        /* \"#utility.yul\":7:84   */\n      swap2\n      swap1\n      pop\n      jump\t// out\n        /* \"#utility.yul\":90:208   */\n    tag_22:\n        /* \"#utility.yul\":177:201   */\n      tag_35\n        /* \"#utility.yul\":195:200   */\n      dup2\n        /* \"#utility.yul\":177:201   */\n      tag_21\n      jump\t// in\n    tag_35:\n        /* \"#utility.yul\":172:175   */\n      dup3\n        /* \"#utility.yul\":165:202   */\n      mstore\n        /* \"#utility.yul\":90:208   */\n      pop\n      pop\n      jump\t// out\n        /* \"#utility.yul\":214:436   */\n    tag_7:\n        /* \"#utility.yul\":307:311   */\n      0x00\n        /* \"#utility.yul\":345:347   */\n      0x20\n        /* \"#utility.yul\":334:343   */\n      dup3\n        /* \"#utility.yul\":330:348   */\n      add\n        /* \"#utility.yul\":322:348   */\n      swap1\n      pop\n        /* \"#utility.yul\":358:429   */\n      tag_37\n        /* \"#utility.yul\":426:427   */\n      0x00\n        /* \"#utility.yul\":415:424   */\n      dup4\n        /* \"#utility.yul\":411:428   */\n      add\n        /* \"#utility.yul\":402:408   */\n      dup5\n        /* \"#utility.yul\":358:429   */\n      tag_22\n      jump\t// in\n    tag_37:\n        /* \"#utility.yul\":214:436   */\n      swap3\n      swap2\n      pop\n      pop\n      jump\t// out\n        /* \"#utility.yul\":442:527   */\n    tag_23:\n        /* \"#utility.yul\":487:494   */\n      0x00\n        /* \"#utility.yul\":516:521   */\n      dup2\n        /* \"#utility.yul\":505:521   */\n      swap1\n      pop\n        /* \"#utility.yul\":442:527   */\n      swap2\n      swap1\n      pop\n      jump\t// out\n        /* \"#utility.yul\":533:593   */\n    tag_24:\n        /* \"#utility.yul\":561:564   */\n      0x00\n        /* \"#utility.yul\":582:587   */\n      dup2\n        /* \"#utility.yul\":575:587   */\n      swap1\n      pop\n        /* \"#utility.yul\":533:593   */\n      swap2\n      swap1\n      pop\n      jump\t// out\n        /* \"#utility.yul\":599:757   */\n    tag_25:\n        /* \"#utility.yul\":657:666   */\n      0x00\n        /* \"#utility.yul\":690:751   */\n      tag_41\n        /* \"#utility.yul\":708:750   */\n      tag_42\n        /* \"#utility.yul\":717:749   */\n      tag_43\n        /* \"#utility.yul\":743:748   */\n      dup5\n        /* \"#utility.yul\":717:749   */\n      tag_23\n      jump\t// in\n    tag_43:\n        /* \"#utility.yul\":708:750   */\n      tag_24\n      jump\t// in\n    tag_42:\n        /* \"#utility.yul\":690:751   */\n      tag_21\n      jump\t// in\n    tag_41:\n        /* \"#utility.yul\":677:751   */\n      swap1\n      pop\n        /* \"#utility.yul\":599:757   */\n      swap2\n      swap1\n      pop\n      jump\t// out\n        /* \"#utility.yul\":763:910   */\n    tag_26:\n        /* \"#utility.yul\":858:903   */\n      tag_45\n        /* \"#utility.yul\":897:902   */\n      dup2\n        /* \"#utility.yul\":858:903   */\n      tag_25\n      jump\t// in\n    tag_45:\n        /* \"#utility.yul\":853:856   */\n      dup3\n        /* \"#utility.yul\":846:904   */\n      mstore\n        /* \"#utility.yul\":763:910   */\n      pop\n      pop\n      jump\t// out\n        /* \"#utility.yul\":916:1154   */\n    tag_13:\n        /* \"#utility.yul\":1017:1021   */\n      0x00\n        /* \"#utility.yul\":1055:1057   */\n      0x20\n        /* \"#utility.yul\":1044:1053   */\n      dup3\n        /* \"#utility.yul\":1040:1058   */\n      add\n        /* \"#utility.yul\":1032:1058   */\n      swap1\n      pop\n        /* \"#utility.yul\":1068:1147   */\n      tag_47\n        /* \"#utility.yul\":1144:1145   */\n      0x00\n        /* \"#utility.yul\":1133:1142   */\n      dup4\n        /* \"#utility.yul\":1129:1146   */\n      add\n        /* \"#utility.yul\":1120:1126   */\n      dup5\n        /* \"#utility.yul\":1068:1147   */\n      tag_26\n      jump\t// in\n    tag_47:\n        /* \"#utility.yul\":916:1154   */\n      swap3\n      swap2\n      pop\n      pop\n      jump\t// out\n        /* \"#utility.yul\":1241:1358   */\n    tag_28:\n        /* \"#utility.yul\":1350:1351   */\n      0x00\n        /* \"#utility.yul\":1347:1348   */\n      dup1\n        /* \"#utility.yul\":1340:1352   */\n      revert\n        /* \"#utility.yul\":1487:1609   */\n    tag_30:\n        /* \"#utility.yul\":1560:1584   */\n      tag_52\n        /* \"#utility.yul\":1578:1583   */\n      dup2\n        /* \"#utility.yul\":1560:1584   */\n      tag_21\n      jump\t// in\n    tag_52:\n        /* \"#utility.yul\":1553:1558   */\n      dup2\n        /* \"#utility.yul\":1550:1585   */\n      eq\n        /* \"#utility.yul\":1540:1603   */\n      tag_53\n      jumpi\n        /* \"#utility.yul\":1599:1600   */\n      0x00\n        /* \"#utility.yul\":1596:1597   */\n      dup1\n        /* \"#utility.yul\":1589:1601   */\n      revert\n        /* \"#utility.yul\":1540:1603   */\n    tag_53:\n        /* \"#utility.yul\":1487:1609   */\n      pop\n      jump\t// out\n        /* \"#utility.yul\":1615:1758   */\n    tag_31:\n        /* \"#utility.yul\":1672:1677   */\n      0x00\n        /* \"#utility.yul\":1703:1709   */\n      dup2\n        /* \"#utility.yul\":1697:1710   */\n      mload\n        /* \"#utility.yul\":1688:1710   */\n      swap1\n      pop\n        /* \"#utility.yul\":1719:1752   */\n      tag_55\n        /* \"#utility.yul\":1746:1751   */\n      dup2\n        /* \"#utility.yul\":1719:1752   */\n      tag_30\n      jump\t// in\n    tag_55:\n        /* \"#utility.yul\":1615:1758   */\n      swap3\n      swap2\n      pop\n      pop\n      jump\t// out\n        /* \"#utility.yul\":1764:2115   */\n    tag_20:\n        /* \"#utility.yul\":1834:1840   */\n      0x00\n        /* \"#utility.yul\":1883:1885   */\n      0x20\n        /* \"#utility.yul\":1871:1880   */\n      dup3\n        /* \"#utility.yul\":1862:1869   */\n      dup5\n        /* \"#utility.yul\":1858:1881   */\n      sub\n        /* \"#utility.yul\":1854:1886   */\n      slt\n        /* \"#utility.yul\":1851:1970   */\n      iszero\n      tag_57\n      jumpi\n        /* \"#utility.yul\":1889:1968   */\n      tag_58\n      tag_28\n      jump\t// in\n    tag_58:\n        /* \"#utility.yul\":1851:1970   */\n    tag_57:\n        /* \"#utility.yul\":2009:2010   */\n      0x00\n        /* \"#utility.yul\":2034:2098   */\n      tag_59\n        /* \"#utility.yul\":2090:2097   */\n      dup5\n        /* \"#utility.yul\":2081:2087   */\n      dup3\n        /* \"#utility.yul\":2070:2079   */\n      dup6\n        /* \"#utility.yul\":2066:2088   */\n      add\n        /* \"#utility.yul\":2034:2098   */\n      tag_31\n      jump\t// in\n    tag_59:\n        /* \"#utility.yul\":2024:2098   */\n      swap2\n      pop\n        /* \"#utility.yul\":1980:2108   */\n      pop\n        /* \"#utility.yul\":1764:2115   */\n      swap3\n      swap2\n      pop\n      pop\n      jump\t// out\n    stop\n\n    sub_0: assembly {\n            /* \"task3_lab5.sol\":62:578  contract C {... */\n          mstore(0x40, 0x80)\n            /* \"task3_lab5.sol\":208:248  constructor()  {... */\n          callvalue\n          dup1\n          iszero\n          tag_1\n          jumpi\n          0x00\n          dup1\n          revert\n        tag_1:\n          pop\n            /* \"task3_lab5.sol\":239:241  10 */\n          0x0a\n            /* \"task3_lab5.sol\":232:236  info */\n          0x01\n            /* \"task3_lab5.sol\":232:241  info = 10 */\n          dup2\n          swap1\n          sstore\n          pop\n            /* \"task3_lab5.sol\":62:578  contract C {... */\n          dataSize(sub_0)\n          dup1\n          dataOffset(sub_0)\n          0x00\n          codecopy\n          0x00\n          return\n        stop\n\n        sub_0: assembly {\n                /* \"task3_lab5.sol\":62:578  contract C {... */\n              mstore(0x40, 0x80)\n              callvalue\n              dup1\n              iszero\n              tag_1\n              jumpi\n              0x00\n              dup1\n              revert\n            tag_1:\n              pop\n              jumpi(tag_2, lt(calldatasize, 0x04))\n              shr(0xe0, calldataload(0x00))\n              dup1\n              0x09e96008\n              eq\n              tag_3\n              jumpi\n              dup1\n              0x370158ea\n              eq\n              tag_4\n              jumpi\n              dup1\n              0x3bc5de30\n              eq\n              tag_5\n              jumpi\n              dup1\n              0x7a85644b\n              eq\n              tag_6\n              jumpi\n            tag_2:\n              0x00\n              dup1\n              revert\n                /* \"task3_lab5.sol\":379:427  function updateData(uint a) public { data = a; } */\n            tag_3:\n              tag_7\n              0x04\n              dup1\n              calldatasize\n              sub\n              dup2\n              add\n              swap1\n              tag_8\n              swap2\n              swap1\n              tag_9\n              jump\t// in\n            tag_8:\n              tag_10\n              jump\t// in\n            tag_7:\n              stop\n                /* \"task3_lab5.sol\":164:180  uint public info */\n            tag_4:\n              tag_11\n              tag_12\n              jump\t// in\n            tag_11:\n              mload(0x40)\n              tag_13\n              swap2\n              swap1\n              tag_14\n              jump\t// in\n            tag_13:\n              mload(0x40)\n              dup1\n              swap2\n              sub\n              swap1\n              return\n                /* \"task3_lab5.sol\":432:493  function getData() public view returns(uint) { return data; } */\n            tag_5:\n              tag_15\n              tag_16\n              jump\t// in\n            tag_15:\n              mload(0x40)\n              tag_17\n              swap2\n              swap1\n              tag_14\n              jump\t// in\n            tag_17:\n              mload(0x40)\n              dup1\n              swap2\n              sub\n              swap1\n              return\n                /* \"task3_lab5.sol\":498:575  function compute(uint a, uint b) public pure returns (uint) { return a + b; } */\n            tag_6:\n              tag_18\n              0x04\n              dup1\n              calldatasize\n              sub\n              dup2\n              add\n              swap1\n              tag_19\n              swap2\n              swap1\n              tag_20\n              jump\t// in\n            tag_19:\n              tag_21\n              jump\t// in\n            tag_18:\n              mload(0x40)\n              tag_22\n              swap2\n              swap1\n              tag_14\n              jump\t// in\n            tag_22:\n              mload(0x40)\n              dup1\n              swap2\n              sub\n              swap1\n              return\n                /* \"task3_lab5.sol\":379:427  function updateData(uint a) public { data = a; } */\n            tag_10:\n                /* \"task3_lab5.sol\":423:424  a */\n              dup1\n                /* \"task3_lab5.sol\":416:420  data */\n              0x00\n                /* \"task3_lab5.sol\":416:424  data = a */\n              dup2\n              swap1\n              sstore\n              pop\n                /* \"task3_lab5.sol\":379:427  function updateData(uint a) public { data = a; } */\n              pop\n              jump\t// out\n                /* \"task3_lab5.sol\":164:180  uint public info */\n            tag_12:\n              sload(0x01)\n              dup2\n              jump\t// out\n                /* \"task3_lab5.sol\":432:493  function getData() public view returns(uint) { return data; } */\n            tag_16:\n                /* \"task3_lab5.sol\":471:475  uint */\n              0x00\n                /* \"task3_lab5.sol\":486:490  data */\n              dup1\n              sload\n                /* \"task3_lab5.sol\":479:490  return data */\n              swap1\n              pop\n                /* \"task3_lab5.sol\":432:493  function getData() public view returns(uint) { return data; } */\n              swap1\n              jump\t// out\n                /* \"task3_lab5.sol\":498:575  function compute(uint a, uint b) public pure returns (uint) { return a + b; } */\n            tag_21:\n                /* \"task3_lab5.sol\":552:556  uint */\n              0x00\n                /* \"task3_lab5.sol\":571:572  b */\n              dup2\n                /* \"task3_lab5.sol\":567:568  a */\n              dup4\n                /* \"task3_lab5.sol\":567:572  a + b */\n              tag_26\n              swap2\n              swap1\n              tag_27\n              jump\t// in\n            tag_26:\n                /* \"task3_lab5.sol\":560:572  return a + b */\n              swap1\n              pop\n                /* \"task3_lab5.sol\":498:575  function compute(uint a, uint b) public pure returns (uint) { return a + b; } */\n              swap3\n              swap2\n              pop\n              pop\n              jump\t// out\n                /* \"#utility.yul\":88:205   */\n            tag_29:\n                /* \"#utility.yul\":197:198   */\n              0x00\n                /* \"#utility.yul\":194:195   */\n              dup1\n                /* \"#utility.yul\":187:199   */\n              revert\n                /* \"#utility.yul\":334:411   */\n            tag_31:\n                /* \"#utility.yul\":371:378   */\n              0x00\n                /* \"#utility.yul\":400:405   */\n              dup2\n                /* \"#utility.yul\":389:405   */\n              swap1\n              pop\n                /* \"#utility.yul\":334:411   */\n              swap2\n              swap1\n              pop\n              jump\t// out\n                /* \"#utility.yul\":417:539   */\n            tag_32:\n                /* \"#utility.yul\":490:514   */\n              tag_42\n                /* \"#utility.yul\":508:513   */\n              dup2\n                /* \"#utility.yul\":490:514   */\n              tag_31\n              jump\t// in\n            tag_42:\n                /* \"#utility.yul\":483:488   */\n              dup2\n                /* \"#utility.yul\":480:515   */\n              eq\n                /* \"#utility.yul\":470:533   */\n              tag_43\n              jumpi\n                /* \"#utility.yul\":529:530   */\n              0x00\n                /* \"#utility.yul\":526:527   */\n              dup1\n                /* \"#utility.yul\":519:531   */\n              revert\n                /* \"#utility.yul\":470:533   */\n            tag_43:\n                /* \"#utility.yul\":417:539   */\n              pop\n              jump\t// out\n                /* \"#utility.yul\":545:684   */\n            tag_33:\n                /* \"#utility.yul\":591:596   */\n              0x00\n                /* \"#utility.yul\":629:635   */\n              dup2\n                /* \"#utility.yul\":616:636   */\n              calldataload\n                /* \"#utility.yul\":607:636   */\n              swap1\n              pop\n                /* \"#utility.yul\":645:678   */\n              tag_45\n                /* \"#utility.yul\":672:677   */\n              dup2\n                /* \"#utility.yul\":645:678   */\n              tag_32\n              jump\t// in\n            tag_45:\n                /* \"#utility.yul\":545:684   */\n              swap3\n              swap2\n              pop\n              pop\n              jump\t// out\n                /* \"#utility.yul\":690:1019   */\n            tag_9:\n                /* \"#utility.yul\":749:755   */\n              0x00\n                /* \"#utility.yul\":798:800   */\n              0x20\n                /* \"#utility.yul\":786:795   */\n              dup3\n                /* \"#utility.yul\":777:784   */\n              dup5\n                /* \"#utility.yul\":773:796   */\n              sub\n                /* \"#utility.yul\":769:801   */\n              slt\n                /* \"#utility.yul\":766:885   */\n              iszero\n              tag_47\n              jumpi\n                /* \"#utility.yul\":804:883   */\n              tag_48\n              tag_29\n              jump\t// in\n            tag_48:\n                /* \"#utility.yul\":766:885   */\n            tag_47:\n                /* \"#utility.yul\":924:925   */\n              0x00\n                /* \"#utility.yul\":949:1002   */\n              tag_49\n                /* \"#utility.yul\":994:1001   */\n              dup5\n                /* \"#utility.yul\":985:991   */\n              dup3\n                /* \"#utility.yul\":974:983   */\n              dup6\n                /* \"#utility.yul\":970:992   */\n              add\n                /* \"#utility.yul\":949:1002   */\n              tag_33\n              jump\t// in\n            tag_49:\n                /* \"#utility.yul\":939:1002   */\n              swap2\n              pop\n                /* \"#utility.yul\":895:1012   */\n              pop\n                /* \"#utility.yul\":690:1019   */\n              swap3\n              swap2\n              pop\n              pop\n              jump\t// out\n                /* \"#utility.yul\":1025:1143   */\n            tag_34:\n                /* \"#utility.yul\":1112:1136   */\n              tag_51\n                /* \"#utility.yul\":1130:1135   */\n              dup2\n                /* \"#utility.yul\":1112:1136   */\n              tag_31\n              jump\t// in\n            tag_51:\n                /* \"#utility.yul\":1107:1110   */\n              dup3\n                /* \"#utility.yul\":1100:1137   */\n              mstore\n                /* \"#utility.yul\":1025:1143   */\n              pop\n              pop\n              jump\t// out\n                /* \"#utility.yul\":1149:1371   */\n            tag_14:\n                /* \"#utility.yul\":1242:1246   */\n              0x00\n                /* \"#utility.yul\":1280:1282   */\n              0x20\n                /* \"#utility.yul\":1269:1278   */\n              dup3\n                /* \"#utility.yul\":1265:1283   */\n              add\n                /* \"#utility.yul\":1257:1283   */\n              swap1\n              pop\n                /* \"#utility.yul\":1293:1364   */\n              tag_53\n                /* \"#utility.yul\":1361:1362   */\n              0x00\n                /* \"#utility.yul\":1350:1359   */\n              dup4\n                /* \"#utility.yul\":1346:1363   */\n              add\n                /* \"#utility.yul\":1337:1343   */\n              dup5\n                /* \"#utility.yul\":1293:1364   */\n              tag_34\n              jump\t// in\n            tag_53:\n                /* \"#utility.yul\":1149:1371   */\n              swap3\n              swap2\n              pop\n              pop\n              jump\t// out\n                /* \"#utility.yul\":1377:1851   */\n            tag_20:\n                /* \"#utility.yul\":1445:1451   */\n              0x00\n                /* \"#utility.yul\":1453:1459   */\n              dup1\n                /* \"#utility.yul\":1502:1504   */\n              0x40\n                /* \"#utility.yul\":1490:1499   */\n              dup4\n                /* \"#utility.yul\":1481:1488   */\n              dup6\n                /* \"#utility.yul\":1477:1500   */\n              sub\n                /* \"#utility.yul\":1473:1505   */\n              slt\n                /* \"#utility.yul\":1470:1589   */\n              iszero\n              tag_55\n              jumpi\n                /* \"#utility.yul\":1508:1587   */\n              tag_56\n              tag_29\n              jump\t// in\n            tag_56:\n                /* \"#utility.yul\":1470:1589   */\n            tag_55:\n                /* \"#utility.yul\":1628:1629   */\n              0x00\n                /* \"#utility.yul\":1653:1706   */\n              tag_57\n                /* \"#utility.yul\":1698:1705   */\n              dup6\n                /* \"#utility.yul\":1689:1695   */\n              dup3\n                /* \"#utility.yul\":1678:1687   */\n              dup7\n                /* \"#utility.yul\":1674:1696   */\n              add\n                /* \"#utility.yul\":1653:1706   */\n              tag_33\n              jump\t// in\n            tag_57:\n                /* \"#utility.yul\":1643:1706   */\n              swap3\n              pop\n                /* \"#utility.yul\":1599:1716   */\n              pop\n                /* \"#utility.yul\":1755:1757   */\n              0x20\n                /* \"#utility.yul\":1781:1834   */\n              tag_58\n                /* \"#utility.yul\":1826:1833   */\n              dup6\n                /* \"#utility.yul\":1817:1823   */\n              dup3\n                /* \"#utility.yul\":1806:1815   */\n              dup7\n                /* \"#utility.yul\":1802:1824   */\n              add\n                /* \"#utility.yul\":1781:1834   */\n              tag_33\n              jump\t// in\n            tag_58:\n                /* \"#utility.yul\":1771:1834   */\n              swap2\n              pop\n                /* \"#utility.yul\":1726:1844   */\n              pop\n                /* \"#utility.yul\":1377:1851   */\n              swap3\n              pop\n              swap3\n              swap1\n              pop\n              jump\t// out\n                /* \"#utility.yul\":1857:2037   */\n            tag_35:\n                /* \"#utility.yul\":1905:1982   */\n              0x4e487b7100000000000000000000000000000000000000000000000000000000\n                /* \"#utility.yul\":1902:1903   */\n              0x00\n                /* \"#utility.yul\":1895:1983   */\n              mstore\n                /* \"#utility.yul\":2002:2006   */\n              0x11\n                /* \"#utility.yul\":1999:2000   */\n              0x04\n                /* \"#utility.yul\":1992:2007   */\n              mstore\n                /* \"#utility.yul\":2026:2030   */\n              0x24\n                /* \"#utility.yul\":2023:2024   */\n              0x00\n                /* \"#utility.yul\":2016:2031   */\n              revert\n                /* \"#utility.yul\":2043:2234   */\n            tag_27:\n                /* \"#utility.yul\":2083:2086   */\n              0x00\n                /* \"#utility.yul\":2102:2122   */\n              tag_61\n                /* \"#utility.yul\":2120:2121   */\n              dup3\n                /* \"#utility.yul\":2102:2122   */\n              tag_31\n              jump\t// in\n            tag_61:\n                /* \"#utility.yul\":2097:2122   */\n              swap2\n              pop\n                /* \"#utility.yul\":2136:2156   */\n              tag_62\n                /* \"#utility.yul\":2154:2155   */\n              dup4\n                /* \"#utility.yul\":2136:2156   */\n              tag_31\n              jump\t// in\n            tag_62:\n                /* \"#utility.yul\":2131:2156   */\n              swap3\n              pop\n                /* \"#utility.yul\":2179:2180   */\n              dup3\n                /* \"#utility.yul\":2176:2177   */\n              dup3\n                /* \"#utility.yul\":2172:2181   */\n              add\n                /* \"#utility.yul\":2165:2181   */\n              swap1\n              pop\n                /* \"#utility.yul\":2200:2203   */\n              dup1\n                /* \"#utility.yul\":2197:2198   */\n              dup3\n                /* \"#utility.yul\":2194:2204   */\n              gt\n                /* \"#utility.yul\":2191:2227   */\n              iszero\n              tag_63\n              jumpi\n                /* \"#utility.yul\":2207:2225   */\n              tag_64\n              tag_35\n              jump\t// in\n            tag_64:\n                /* \"#utility.yul\":2191:2227   */\n            tag_63:\n                /* \"#utility.yul\":2043:2234   */\n              swap3\n              swap2\n              pop\n              pop\n              jump\t// out\n\n            auxdata: 0xa26469706673582212201c98410a6b65b4e725e102229f927e83fd3c05f067c7163c408ab7f3c2b939f864736f6c634300081a0033\n        }\n    }\n\n    auxdata: 0xa2646970667358221220e6b9cbb076c2bb2e4a1372cd96f6150d1326d75b2e5dde2a8a9c788613d332d664736f6c634300081a0033\n}\n",
				"bytecode": {
					"linkReferences": {},
					"object": "6080604052348015600e575f80fd5b506104fb8061001c5f395ff3fe608060405234801561000f575f80fd5b5060043610610029575f3560e01c8063bef55ef31461002d575b5f80fd5b61003561004b565b6040516100429190610174565b60405180910390f35b5f806040516100599061014f565b604051809103905ff080158015610072573d5f803e3d5ffd5b5090508073ffffffffffffffffffffffffffffffffffffffff166309e9600860076040518263ffffffff1660e01b81526004016100af91906101cf565b5f604051808303815f87803b1580156100c6575f80fd5b505af11580156100d8573d5f803e3d5ffd5b505050508073ffffffffffffffffffffffffffffffffffffffff16633bc5de306040518163ffffffff1660e01b8152600401602060405180830381865afa158015610125573d5f803e3d5ffd5b505050506040513d601f19601f820116820180604052508101906101499190610216565b91505090565b6102848061024283390190565b5f819050919050565b61016e8161015c565b82525050565b5f6020820190506101875f830184610165565b92915050565b5f819050919050565b5f819050919050565b5f6101b96101b46101af8461018d565b610196565b61015c565b9050919050565b6101c98161019f565b82525050565b5f6020820190506101e25f8301846101c0565b92915050565b5f80fd5b6101f58161015c565b81146101ff575f80fd5b50565b5f81519050610210816101ec565b92915050565b5f6020828403121561022b5761022a6101e8565b5b5f61023884828501610202565b9150509291505056fe6080604052348015600e575f80fd5b50600a600181905550610260806100245f395ff3fe608060405234801561000f575f80fd5b506004361061004a575f3560e01c806309e960081461004e578063370158ea1461006a5780633bc5de30146100885780637a85644b146100a6575b5f80fd5b61006860048036038101906100639190610139565b6100d6565b005b6100726100df565b60405161007f9190610173565b60405180910390f35b6100906100e5565b60405161009d9190610173565b60405180910390f35b6100c060048036038101906100bb919061018c565b6100ed565b6040516100cd9190610173565b60405180910390f35b805f8190555050565b60015481565b5f8054905090565b5f81836100fa91906101f7565b905092915050565b5f80fd5b5f819050919050565b61011881610106565b8114610122575f80fd5b50565b5f813590506101338161010f565b92915050565b5f6020828403121561014e5761014d610102565b5b5f61015b84828501610125565b91505092915050565b61016d81610106565b82525050565b5f6020820190506101865f830184610164565b92915050565b5f80604083850312156101a2576101a1610102565b5b5f6101af85828601610125565b92505060206101c085828601610125565b9150509250929050565b7f4e487b71000000000000000000000000000000000000000000000000000000005f52601160045260245ffd5b5f61020182610106565b915061020c83610106565b9250828201905080821115610224576102236101ca565b5b9291505056fea26469706673582212201c98410a6b65b4e725e102229f927e83fd3c05f067c7163c408ab7f3c2b939f864736f6c634300081a0033a2646970667358221220e6b9cbb076c2bb2e4a1372cd96f6150d1326d75b2e5dde2a8a9c788613d332d664736f6c634300081a0033",
					"opcodes": "PUSH1 0x80 PUSH1 0x40 MSTORE CALLVALUE DUP1 ISZERO PUSH1 0xE JUMPI PUSH0 DUP1 REVERT JUMPDEST POP PUSH2 0x4FB DUP1 PUSH2 0x1C PUSH0 CODECOPY PUSH0 RETURN INVALID PUSH1 0x80 PUSH1 0x40 MSTORE CALLVALUE DUP1 ISZERO PUSH2 0xF JUMPI PUSH0 DUP1 REVERT JUMPDEST POP PUSH1 0x4 CALLDATASIZE LT PUSH2 0x29 JUMPI PUSH0 CALLDATALOAD PUSH1 0xE0 SHR DUP1 PUSH4 0xBEF55EF3 EQ PUSH2 0x2D JUMPI JUMPDEST PUSH0 DUP1 REVERT JUMPDEST PUSH2 0x35 PUSH2 0x4B JUMP JUMPDEST PUSH1 0x40 MLOAD PUSH2 0x42 SWAP2 SWAP1 PUSH2 0x174 JUMP JUMPDEST PUSH1 0x40 MLOAD DUP1 SWAP2 SUB SWAP1 RETURN JUMPDEST PUSH0 DUP1 PUSH1 0x40 MLOAD PUSH2 0x59 SWAP1 PUSH2 0x14F JUMP JUMPDEST PUSH1 0x40 MLOAD DUP1 SWAP2 SUB SWAP1 PUSH0 CREATE DUP1 ISZERO DUP1 ISZERO PUSH2 0x72 JUMPI RETURNDATASIZE PUSH0 DUP1 RETURNDATACOPY RETURNDATASIZE PUSH0 REVERT JUMPDEST POP SWAP1 POP DUP1 PUSH20 0xFFFFFFFFFFFFFFFFFFFFFFFFFFFFFFFFFFFFFFFF AND PUSH4 0x9E96008 PUSH1 0x7 PUSH1 0x40 MLOAD DUP3 PUSH4 0xFFFFFFFF AND PUSH1 0xE0 SHL DUP2 MSTORE PUSH1 0x4 ADD PUSH2 0xAF SWAP2 SWAP1 PUSH2 0x1CF JUMP JUMPDEST PUSH0 PUSH1 0x40 MLOAD DUP1 DUP4 SUB DUP2 PUSH0 DUP8 DUP1 EXTCODESIZE ISZERO DUP1 ISZERO PUSH2 0xC6 JUMPI PUSH0 DUP1 REVERT JUMPDEST POP GAS CALL ISZERO DUP1 ISZERO PUSH2 0xD8 JUMPI RETURNDATASIZE PUSH0 DUP1 RETURNDATACOPY RETURNDATASIZE PUSH0 REVERT JUMPDEST POP POP POP POP DUP1 PUSH20 0xFFFFFFFFFFFFFFFFFFFFFFFFFFFFFFFFFFFFFFFF AND PUSH4 0x3BC5DE30 PUSH1 0x40 MLOAD DUP2 PUSH4 0xFFFFFFFF AND PUSH1 0xE0 SHL DUP2 MSTORE PUSH1 0x4 ADD PUSH1 0x20 PUSH1 0x40 MLOAD DUP1 DUP4 SUB DUP2 DUP7 GAS STATICCALL ISZERO DUP1 ISZERO PUSH2 0x125 JUMPI RETURNDATASIZE PUSH0 DUP1 RETURNDATACOPY RETURNDATASIZE PUSH0 REVERT JUMPDEST POP POP POP POP PUSH1 0x40 MLOAD RETURNDATASIZE PUSH1 0x1F NOT PUSH1 0x1F DUP3 ADD AND DUP3 ADD DUP1 PUSH1 0x40 MSTORE POP DUP2 ADD SWAP1 PUSH2 0x149 SWAP2 SWAP1 PUSH2 0x216 JUMP JUMPDEST SWAP2 POP POP SWAP1 JUMP JUMPDEST PUSH2 0x284 DUP1 PUSH2 0x242 DUP4 CODECOPY ADD SWAP1 JUMP JUMPDEST PUSH0 DUP2 SWAP1 POP SWAP2 SWAP1 POP JUMP JUMPDEST PUSH2 0x16E DUP2 PUSH2 0x15C JUMP JUMPDEST DUP3 MSTORE POP POP JUMP JUMPDEST PUSH0 PUSH1 0x20 DUP3 ADD SWAP1 POP PUSH2 0x187 PUSH0 DUP4 ADD DUP5 PUSH2 0x165 JUMP JUMPDEST SWAP3 SWAP2 POP POP JUMP JUMPDEST PUSH0 DUP2 SWAP1 POP SWAP2 SWAP1 POP JUMP JUMPDEST PUSH0 DUP2 SWAP1 POP SWAP2 SWAP1 POP JUMP JUMPDEST PUSH0 PUSH2 0x1B9 PUSH2 0x1B4 PUSH2 0x1AF DUP5 PUSH2 0x18D JUMP JUMPDEST PUSH2 0x196 JUMP JUMPDEST PUSH2 0x15C JUMP JUMPDEST SWAP1 POP SWAP2 SWAP1 POP JUMP JUMPDEST PUSH2 0x1C9 DUP2 PUSH2 0x19F JUMP JUMPDEST DUP3 MSTORE POP POP JUMP JUMPDEST PUSH0 PUSH1 0x20 DUP3 ADD SWAP1 POP PUSH2 0x1E2 PUSH0 DUP4 ADD DUP5 PUSH2 0x1C0 JUMP JUMPDEST SWAP3 SWAP2 POP POP JUMP JUMPDEST PUSH0 DUP1 REVERT JUMPDEST PUSH2 0x1F5 DUP2 PUSH2 0x15C JUMP JUMPDEST DUP2 EQ PUSH2 0x1FF JUMPI PUSH0 DUP1 REVERT JUMPDEST POP JUMP JUMPDEST PUSH0 DUP2 MLOAD SWAP1 POP PUSH2 0x210 DUP2 PUSH2 0x1EC JUMP JUMPDEST SWAP3 SWAP2 POP POP JUMP JUMPDEST PUSH0 PUSH1 0x20 DUP3 DUP5 SUB SLT ISZERO PUSH2 0x22B JUMPI PUSH2 0x22A PUSH2 0x1E8 JUMP JUMPDEST JUMPDEST PUSH0 PUSH2 0x238 DUP5 DUP3 DUP6 ADD PUSH2 0x202 JUMP JUMPDEST SWAP2 POP POP SWAP3 SWAP2 POP POP JUMP INVALID PUSH1 0x80 PUSH1 0x40 MSTORE CALLVALUE DUP1 ISZERO PUSH1 0xE JUMPI PUSH0 DUP1 REVERT JUMPDEST POP PUSH1 0xA PUSH1 0x1 DUP2 SWAP1 SSTORE POP PUSH2 0x260 DUP1 PUSH2 0x24 PUSH0 CODECOPY PUSH0 RETURN INVALID PUSH1 0x80 PUSH1 0x40 MSTORE CALLVALUE DUP1 ISZERO PUSH2 0xF JUMPI PUSH0 DUP1 REVERT JUMPDEST POP PUSH1 0x4 CALLDATASIZE LT PUSH2 0x4A JUMPI PUSH0 CALLDATALOAD PUSH1 0xE0 SHR DUP1 PUSH4 0x9E96008 EQ PUSH2 0x4E JUMPI DUP1 PUSH4 0x370158EA EQ PUSH2 0x6A JUMPI DUP1 PUSH4 0x3BC5DE30 EQ PUSH2 0x88 JUMPI DUP1 PUSH4 0x7A85644B EQ PUSH2 0xA6 JUMPI JUMPDEST PUSH0 DUP1 REVERT JUMPDEST PUSH2 0x68 PUSH1 0x4 DUP1 CALLDATASIZE SUB DUP2 ADD SWAP1 PUSH2 0x63 SWAP2 SWAP1 PUSH2 0x139 JUMP JUMPDEST PUSH2 0xD6 JUMP JUMPDEST STOP JUMPDEST PUSH2 0x72 PUSH2 0xDF JUMP JUMPDEST PUSH1 0x40 MLOAD PUSH2 0x7F SWAP2 SWAP1 PUSH2 0x173 JUMP JUMPDEST PUSH1 0x40 MLOAD DUP1 SWAP2 SUB SWAP1 RETURN JUMPDEST PUSH2 0x90 PUSH2 0xE5 JUMP JUMPDEST PUSH1 0x40 MLOAD PUSH2 0x9D SWAP2 SWAP1 PUSH2 0x173 JUMP JUMPDEST PUSH1 0x40 MLOAD DUP1 SWAP2 SUB SWAP1 RETURN JUMPDEST PUSH2 0xC0 PUSH1 0x4 DUP1 CALLDATASIZE SUB DUP2 ADD SWAP1 PUSH2 0xBB SWAP2 SWAP1 PUSH2 0x18C JUMP JUMPDEST PUSH2 0xED JUMP JUMPDEST PUSH1 0x40 MLOAD PUSH2 0xCD SWAP2 SWAP1 PUSH2 0x173 JUMP JUMPDEST PUSH1 0x40 MLOAD DUP1 SWAP2 SUB SWAP1 RETURN JUMPDEST DUP1 PUSH0 DUP2 SWAP1 SSTORE POP POP JUMP JUMPDEST PUSH1 0x1 SLOAD DUP2 JUMP JUMPDEST PUSH0 DUP1 SLOAD SWAP1 POP SWAP1 JUMP JUMPDEST PUSH0 DUP2 DUP4 PUSH2 0xFA SWAP2 SWAP1 PUSH2 0x1F7 JUMP JUMPDEST SWAP1 POP SWAP3 SWAP2 POP POP JUMP JUMPDEST PUSH0 DUP1 REVERT JUMPDEST PUSH0 DUP2 SWAP1 POP SWAP2 SWAP1 POP JUMP JUMPDEST PUSH2 0x118 DUP2 PUSH2 0x106 JUMP JUMPDEST DUP2 EQ PUSH2 0x122 JUMPI PUSH0 DUP1 REVERT JUMPDEST POP JUMP JUMPDEST PUSH0 DUP2 CALLDATALOAD SWAP1 POP PUSH2 0x133 DUP2 PUSH2 0x10F JUMP JUMPDEST SWAP3 SWAP2 POP POP JUMP JUMPDEST PUSH0 PUSH1 0x20 DUP3 DUP5 SUB SLT ISZERO PUSH2 0x14E JUMPI PUSH2 0x14D PUSH2 0x102 JUMP JUMPDEST JUMPDEST PUSH0 PUSH2 0x15B DUP5 DUP3 DUP6 ADD PUSH2 0x125 JUMP JUMPDEST SWAP2 POP POP SWAP3 SWAP2 POP POP JUMP JUMPDEST PUSH2 0x16D DUP2 PUSH2 0x106 JUMP JUMPDEST DUP3 MSTORE POP POP JUMP JUMPDEST PUSH0 PUSH1 0x20 DUP3 ADD SWAP1 POP PUSH2 0x186 PUSH0 DUP4 ADD DUP5 PUSH2 0x164 JUMP JUMPDEST SWAP3 SWAP2 POP POP JUMP JUMPDEST PUSH0 DUP1 PUSH1 0x40 DUP4 DUP6 SUB SLT ISZERO PUSH2 0x1A2 JUMPI PUSH2 0x1A1 PUSH2 0x102 JUMP JUMPDEST JUMPDEST PUSH0 PUSH2 0x1AF DUP6 DUP3 DUP7 ADD PUSH2 0x125 JUMP JUMPDEST SWAP3 POP POP PUSH1 0x20 PUSH2 0x1C0 DUP6 DUP3 DUP7 ADD PUSH2 0x125 JUMP JUMPDEST SWAP2 POP POP SWAP3 POP SWAP3 SWAP1 POP JUMP JUMPDEST PUSH32 0x4E487B7100000000000000000000000000000000000000000000000000000000 PUSH0 MSTORE PUSH1 0x11 PUSH1 0x4 MSTORE PUSH1 0x24 PUSH0 REVERT JUMPDEST PUSH0 PUSH2 0x201 DUP3 PUSH2 0x106 JUMP JUMPDEST SWAP2 POP PUSH2 0x20C DUP4 PUSH2 0x106 JUMP JUMPDEST SWAP3 POP DUP3 DUP3 ADD SWAP1 POP DUP1 DUP3 GT ISZERO PUSH2 0x224 JUMPI PUSH2 0x223 PUSH2 0x1CA JUMP JUMPDEST JUMPDEST SWAP3 SWAP2 POP POP JUMP INVALID LOG2 PUSH5 0x6970667358 0x22 SLT KECCAK256 SHR SWAP9 COINBASE EXP PUSH12 0x65B4E725E102229F927E83FD EXTCODECOPY SDIV CREATE PUSH8 0xC7163C408AB7F3C2 0xB9 CODECOPY 0xF8 PUSH5 0x736F6C6343 STOP ADDMOD BYTE STOP CALLER LOG2 PUSH5 0x6970667358 0x22 SLT KECCAK256 0xE6 0xB9 0xCB 0xB0 PUSH23 0xC2BB2E4A1372CD96F6150D1326D75B2E5DDE2A8A9C7886 SGT 0xD3 ORIGIN 0xD6 PUSH5 0x736F6C6343 STOP ADDMOD BYTE STOP CALLER "
				},
				"gasEstimates": {
					"creation": {
						"codeDepositCost": "255000",
						"executionCost": "292",
						"totalCost": "255292"
					},
					"external": {
						"readData()": "infinite"
					}
				},
				"methodIdentifiers": {
					"readData()": "bef55ef3"
				}
			},
			"storageLayout": {
				"storage": [],
				"types": null
			},
			"userdoc": {
				"kind": "user",
				"methods": {},
				"version": 1
			}
		}
	}
}