{
	"task2_lab4.sol": {
		"RemainderCalculator": {
			"abi": [
				{
					"inputs": [
						{
							"internalType": "uint256",
							"name": "n",
							"type": "uint256"
						},
						{
							"internalType": "uint256",
							"name": "a",
							"type": "uint256"
						},
						{
							"internalType": "uint256",
							"name": "b",
							"type": "uint256"
						},
						{
							"internalType": "uint256",
							"name": "c",
							"type": "uint256"
						}
					],
					"name": "nthTerm",
					"outputs": [
						{
							"internalType": "uint256",
							"name": "",
							"type": "uint256"
						}
					],
					"stateMutability": "pure",
					"type": "function"
				}
			],
			"devdoc": {
				"kind": "dev",
				"methods": {},
				"version": 1
			},
			"evm": {
				"assembly": "    /* \"task2_lab4.sol\":60:676  contract RemainderCalculator {... */\n  mstore(0x40, 0x80)\n  callvalue\n  dup1\n  iszero\n  tag_1\n  jumpi\n  0x00\n  dup1\n  revert\ntag_1:\n  pop\n  dataSize(sub_0)\n  dup1\n  dataOffset(sub_0)\n  0x00\n  codecopy\n  0x00\n  return\nstop\n\nsub_0: assembly {\n        /* \"task2_lab4.sol\":60:676  contract RemainderCalculator {... */\n      mstore(0x40, 0x80)\n      callvalue\n      dup1\n      iszero\n      tag_1\n      jumpi\n      0x00\n      dup1\n      revert\n    tag_1:\n      pop\n      jumpi(tag_2, lt(calldatasize, 0x04))\n      shr(0xe0, calldataload(0x00))\n      dup1\n      0x274f8728\n      eq\n      tag_3\n      jumpi\n    tag_2:\n      0x00\n      dup1\n      revert\n        /* \"task2_lab4.sol\":102:673  function nthTerm(uint n, uint a, uint b, uint c) public pure returns (uint) {... */\n    tag_3:\n      tag_4\n      0x04\n      dup1\n      calldatasize\n      sub\n      dup2\n      add\n      swap1\n      tag_5\n      swap2\n      swap1\n      tag_6\n      jump\t// in\n    tag_5:\n      tag_7\n      jump\t// in\n    tag_4:\n      mload(0x40)\n      tag_8\n      swap2\n      swap1\n      tag_9\n      jump\t// in\n    tag_8:\n      mload(0x40)\n      dup1\n      swap2\n      sub\n      swap1\n      return\n    tag_7:\n        /* \"task2_lab4.sol\":172:176  uint */\n      0x00\n        /* \"task2_lab4.sol\":201:202  0 */\n      dup1\n        /* \"task2_lab4.sol\":197:198  n */\n      dup6\n        /* \"task2_lab4.sol\":197:202  n > 0 */\n      gt\n        /* \"task2_lab4.sol\":189:231  require(n > 0, \"n must be greater than 0\") */\n      tag_11\n      jumpi\n      mload(0x40)\n      0x08c379a000000000000000000000000000000000000000000000000000000000\n      dup2\n      mstore\n      0x04\n      add\n      tag_12\n      swap1\n      tag_13\n      jump\t// in\n    tag_12:\n      mload(0x40)\n      dup1\n      swap2\n      sub\n      swap1\n      revert\n    tag_11:\n        /* \"task2_lab4.sol\":251:252  1 */\n      0x01\n        /* \"task2_lab4.sol\":246:247  n */\n      dup6\n        /* \"task2_lab4.sol\":246:252  n == 1 */\n      sub\n        /* \"task2_lab4.sol\":242:262  if (n == 1) return a */\n      tag_14\n      jumpi\n        /* \"task2_lab4.sol\":261:262  a */\n      dup4\n        /* \"task2_lab4.sol\":254:262  return a */\n      swap1\n      pop\n      jump(tag_10)\n        /* \"task2_lab4.sol\":242:262  if (n == 1) return a */\n    tag_14:\n        /* \"task2_lab4.sol\":282:283  2 */\n      0x02\n        /* \"task2_lab4.sol\":277:278  n */\n      dup6\n        /* \"task2_lab4.sol\":277:283  n == 2 */\n      sub\n        /* \"task2_lab4.sol\":273:293  if (n == 2) return b */\n      tag_15\n      jumpi\n        /* \"task2_lab4.sol\":292:293  b */\n      dup3\n        /* \"task2_lab4.sol\":285:293  return b */\n      swap1\n      pop\n      jump(tag_10)\n        /* \"task2_lab4.sol\":273:293  if (n == 2) return b */\n    tag_15:\n        /* \"task2_lab4.sol\":313:314  3 */\n      0x03\n        /* \"task2_lab4.sol\":308:309  n */\n      dup6\n        /* \"task2_lab4.sol\":308:314  n == 3 */\n      sub\n        /* \"task2_lab4.sol\":304:324  if (n == 3) return c */\n      tag_16\n      jumpi\n        /* \"task2_lab4.sol\":323:324  c */\n      dup2\n        /* \"task2_lab4.sol\":316:324  return c */\n      swap1\n      pop\n      jump(tag_10)\n        /* \"task2_lab4.sol\":304:324  if (n == 3) return c */\n    tag_16:\n        /* \"task2_lab4.sol\":345:355  uint term1 */\n      0x00\n        /* \"task2_lab4.sol\":358:359  a */\n      dup5\n        /* \"task2_lab4.sol\":345:359  uint term1 = a */\n      swap1\n      pop\n        /* \"task2_lab4.sol\":370:380  uint term2 */\n      0x00\n        /* \"task2_lab4.sol\":383:384  b */\n      dup5\n        /* \"task2_lab4.sol\":370:384  uint term2 = b */\n      swap1\n      pop\n        /* \"task2_lab4.sol\":395:405  uint term3 */\n      0x00\n        /* \"task2_lab4.sol\":408:409  c */\n      dup5\n        /* \"task2_lab4.sol\":395:409  uint term3 = c */\n      swap1\n      pop\n        /* \"task2_lab4.sol\":420:433  uint nextTerm */\n      0x00\n        /* \"task2_lab4.sol\":459:465  uint i */\n      dup1\n        /* \"task2_lab4.sol\":468:469  4 */\n      0x04\n        /* \"task2_lab4.sol\":459:469  uint i = 4 */\n      swap1\n      pop\n        /* \"task2_lab4.sol\":454:630  for (uint i = 4; i <= n; i++) {... */\n    tag_17:\n        /* \"task2_lab4.sol\":476:477  n */\n      dup10\n        /* \"task2_lab4.sol\":471:472  i */\n      dup2\n        /* \"task2_lab4.sol\":471:477  i <= n */\n      gt\n        /* \"task2_lab4.sol\":454:630  for (uint i = 4; i <= n; i++) {... */\n      tag_18\n      jumpi\n        /* \"task2_lab4.sol\":526:531  term3 */\n      dup3\n        /* \"task2_lab4.sol\":518:523  term2 */\n      dup5\n        /* \"task2_lab4.sol\":510:515  term1 */\n      dup7\n        /* \"task2_lab4.sol\":510:523  term1 + term2 */\n      tag_20\n      swap2\n      swap1\n      tag_21\n      jump\t// in\n    tag_20:\n        /* \"task2_lab4.sol\":510:531  term1 + term2 + term3 */\n      tag_22\n      swap2\n      swap1\n      tag_21\n      jump\t// in\n    tag_22:\n        /* \"task2_lab4.sol\":499:531  nextTerm = term1 + term2 + term3 */\n      swap2\n      pop\n        /* \"task2_lab4.sol\":554:559  term2 */\n      dup4\n        /* \"task2_lab4.sol\":546:559  term1 = term2 */\n      swap5\n      pop\n        /* \"task2_lab4.sol\":582:587  term3 */\n      dup3\n        /* \"task2_lab4.sol\":574:587  term2 = term3 */\n      swap4\n      pop\n        /* \"task2_lab4.sol\":610:618  nextTerm */\n      dup2\n        /* \"task2_lab4.sol\":602:618  term3 = nextTerm */\n      swap3\n      pop\n        /* \"task2_lab4.sol\":479:482  i++ */\n      dup1\n      dup1\n      tag_23\n      swap1\n      tag_24\n      jump\t// in\n    tag_23:\n      swap2\n      pop\n      pop\n        /* \"task2_lab4.sol\":454:630  for (uint i = 4; i <= n; i++) {... */\n      jump(tag_17)\n    tag_18:\n      pop\n        /* \"task2_lab4.sol\":657:665  nextTerm */\n      dup1\n        /* \"task2_lab4.sol\":650:665  return nextTerm */\n      swap5\n      pop\n      pop\n      pop\n      pop\n      pop\n        /* \"task2_lab4.sol\":102:673  function nthTerm(uint n, uint a, uint b, uint c) public pure returns (uint) {... */\n    tag_10:\n      swap5\n      swap4\n      pop\n      pop\n      pop\n      pop\n      jump\t// out\n        /* \"#utility.yul\":88:205   */\n    tag_26:\n        /* \"#utility.yul\":197:198   */\n      0x00\n        /* \"#utility.yul\":194:195   */\n      dup1\n        /* \"#utility.yul\":187:199   */\n      revert\n        /* \"#utility.yul\":334:411   */\n    tag_28:\n        /* \"#utility.yul\":371:378   */\n      0x00\n        /* \"#utility.yul\":400:405   */\n      dup2\n        /* \"#utility.yul\":389:405   */\n      swap1\n      pop\n        /* \"#utility.yul\":334:411   */\n      swap2\n      swap1\n      pop\n      jump\t// out\n        /* \"#utility.yul\":417:539   */\n    tag_29:\n        /* \"#utility.yul\":490:514   */\n      tag_42\n        /* \"#utility.yul\":508:513   */\n      dup2\n        /* \"#utility.yul\":490:514   */\n      tag_28\n      jump\t// in\n    tag_42:\n        /* \"#utility.yul\":483:488   */\n      dup2\n        /* \"#utility.yul\":480:515   */\n      eq\n        /* \"#utility.yul\":470:533   */\n      tag_43\n      jumpi\n        /* \"#utility.yul\":529:530   */\n      0x00\n        /* \"#utility.yul\":526:527   */\n      dup1\n        /* \"#utility.yul\":519:531   */\n      revert\n        /* \"#utility.yul\":470:533   */\n    tag_43:\n        /* \"#utility.yul\":417:539   */\n      pop\n      jump\t// out\n        /* \"#utility.yul\":545:684   */\n    tag_30:\n        /* \"#utility.yul\":591:596   */\n      0x00\n        /* \"#utility.yul\":629:635   */\n      dup2\n        /* \"#utility.yul\":616:636   */\n      calldataload\n        /* \"#utility.yul\":607:636   */\n      swap1\n      pop\n        /* \"#utility.yul\":645:678   */\n      tag_45\n        /* \"#utility.yul\":672:677   */\n      dup2\n        /* \"#utility.yul\":645:678   */\n      tag_29\n      jump\t// in\n    tag_45:\n        /* \"#utility.yul\":545:684   */\n      swap3\n      swap2\n      pop\n      pop\n      jump\t// out\n        /* \"#utility.yul\":690:1455   */\n    tag_6:\n        /* \"#utility.yul\":776:782   */\n      0x00\n        /* \"#utility.yul\":784:790   */\n      dup1\n        /* \"#utility.yul\":792:798   */\n      0x00\n        /* \"#utility.yul\":800:806   */\n      dup1\n        /* \"#utility.yul\":849:852   */\n      0x80\n        /* \"#utility.yul\":837:846   */\n      dup6\n        /* \"#utility.yul\":828:835   */\n      dup8\n        /* \"#utility.yul\":824:847   */\n      sub\n        /* \"#utility.yul\":820:853   */\n      slt\n        /* \"#utility.yul\":817:937   */\n      iszero\n      tag_47\n      jumpi\n        /* \"#utility.yul\":856:935   */\n      tag_48\n      tag_26\n      jump\t// in\n    tag_48:\n        /* \"#utility.yul\":817:937   */\n    tag_47:\n        /* \"#utility.yul\":976:977   */\n      0x00\n        /* \"#utility.yul\":1001:1054   */\n      tag_49\n        /* \"#utility.yul\":1046:1053   */\n      dup8\n        /* \"#utility.yul\":1037:1043   */\n      dup3\n        /* \"#utility.yul\":1026:1035   */\n      dup9\n        /* \"#utility.yul\":1022:1044   */\n      add\n        /* \"#utility.yul\":1001:1054   */\n      tag_30\n      jump\t// in\n    tag_49:\n        /* \"#utility.yul\":991:1054   */\n      swap5\n      pop\n        /* \"#utility.yul\":947:1064   */\n      pop\n        /* \"#utility.yul\":1103:1105   */\n      0x20\n        /* \"#utility.yul\":1129:1182   */\n      tag_50\n        /* \"#utility.yul\":1174:1181   */\n      dup8\n        /* \"#utility.yul\":1165:1171   */\n      dup3\n        /* \"#utility.yul\":1154:1163   */\n      dup9\n        /* \"#utility.yul\":1150:1172   */\n      add\n        /* \"#utility.yul\":1129:1182   */\n      tag_30\n      jump\t// in\n    tag_50:\n        /* \"#utility.yul\":1119:1182   */\n      swap4\n      pop\n        /* \"#utility.yul\":1074:1192   */\n      pop\n        /* \"#utility.yul\":1231:1233   */\n      0x40\n        /* \"#utility.yul\":1257:1310   */\n      tag_51\n        /* \"#utility.yul\":1302:1309   */\n      dup8\n        /* \"#utility.yul\":1293:1299   */\n      dup3\n        /* \"#utility.yul\":1282:1291   */\n      dup9\n        /* \"#utility.yul\":1278:1300   */\n      add\n        /* \"#utility.yul\":1257:1310   */\n      tag_30\n      jump\t// in\n    tag_51:\n        /* \"#utility.yul\":1247:1310   */\n      swap3\n      pop\n        /* \"#utility.yul\":1202:1320   */\n      pop\n        /* \"#utility.yul\":1359:1361   */\n      0x60\n        /* \"#utility.yul\":1385:1438   */\n      tag_52\n        /* \"#utility.yul\":1430:1437   */\n      dup8\n        /* \"#utility.yul\":1421:1427   */\n      dup3\n        /* \"#utility.yul\":1410:1419   */\n      dup9\n        /* \"#utility.yul\":1406:1428   */\n      add\n        /* \"#utility.yul\":1385:1438   */\n      tag_30\n      jump\t// in\n    tag_52:\n        /* \"#utility.yul\":1375:1438   */\n      swap2\n      pop\n        /* \"#utility.yul\":1330:1448   */\n      pop\n        /* \"#utility.yul\":690:1455   */\n      swap3\n      swap6\n      swap2\n      swap5\n      pop\n      swap3\n      pop\n      jump\t// out\n        /* \"#utility.yul\":1461:1579   */\n    tag_31:\n        /* \"#utility.yul\":1548:1572   */\n      tag_54\n        /* \"#utility.yul\":1566:1571   */\n      dup2\n        /* \"#utility.yul\":1548:1572   */\n      tag_28\n      jump\t// in\n    tag_54:\n        /* \"#utility.yul\":1543:1546   */\n      dup3\n        /* \"#utility.yul\":1536:1573   */\n      mstore\n        /* \"#utility.yul\":1461:1579   */\n      pop\n      pop\n      jump\t// out\n        /* \"#utility.yul\":1585:1807   */\n    tag_9:\n        /* \"#utility.yul\":1678:1682   */\n      0x00\n        /* \"#utility.yul\":1716:1718   */\n      0x20\n        /* \"#utility.yul\":1705:1714   */\n      dup3\n        /* \"#utility.yul\":1701:1719   */\n      add\n        /* \"#utility.yul\":1693:1719   */\n      swap1\n      pop\n        /* \"#utility.yul\":1729:1800   */\n      tag_56\n        /* \"#utility.yul\":1797:1798   */\n      0x00\n        /* \"#utility.yul\":1786:1795   */\n      dup4\n        /* \"#utility.yul\":1782:1799   */\n      add\n        /* \"#utility.yul\":1773:1779   */\n      dup5\n        /* \"#utility.yul\":1729:1800   */\n      tag_31\n      jump\t// in\n    tag_56:\n        /* \"#utility.yul\":1585:1807   */\n      swap3\n      swap2\n      pop\n      pop\n      jump\t// out\n        /* \"#utility.yul\":1813:1982   */\n    tag_32:\n        /* \"#utility.yul\":1897:1908   */\n      0x00\n        /* \"#utility.yul\":1931:1937   */\n      dup3\n        /* \"#utility.yul\":1926:1929   */\n      dup3\n        /* \"#utility.yul\":1919:1938   */\n      mstore\n        /* \"#utility.yul\":1971:1975   */\n      0x20\n        /* \"#utility.yul\":1966:1969   */\n      dup3\n        /* \"#utility.yul\":1962:1976   */\n      add\n        /* \"#utility.yul\":1947:1976   */\n      swap1\n      pop\n        /* \"#utility.yul\":1813:1982   */\n      swap3\n      swap2\n      pop\n      pop\n      jump\t// out\n        /* \"#utility.yul\":1988:2162   */\n    tag_33:\n        /* \"#utility.yul\":2128:2154   */\n      0x6e206d7573742062652067726561746572207468616e20300000000000000000\n        /* \"#utility.yul\":2124:2125   */\n      0x00\n        /* \"#utility.yul\":2116:2122   */\n      dup3\n        /* \"#utility.yul\":2112:2126   */\n      add\n        /* \"#utility.yul\":2105:2155   */\n      mstore\n        /* \"#utility.yul\":1988:2162   */\n      pop\n      jump\t// out\n        /* \"#utility.yul\":2168:2534   */\n    tag_34:\n        /* \"#utility.yul\":2310:2313   */\n      0x00\n        /* \"#utility.yul\":2331:2398   */\n      tag_60\n        /* \"#utility.yul\":2395:2397   */\n      0x18\n        /* \"#utility.yul\":2390:2393   */\n      dup4\n        /* \"#utility.yul\":2331:2398   */\n      tag_32\n      jump\t// in\n    tag_60:\n        /* \"#utility.yul\":2324:2398   */\n      swap2\n      pop\n        /* \"#utility.yul\":2407:2500   */\n      tag_61\n        /* \"#utility.yul\":2496:2499   */\n      dup3\n        /* \"#utility.yul\":2407:2500   */\n      tag_33\n      jump\t// in\n    tag_61:\n        /* \"#utility.yul\":2525:2527   */\n      0x20\n        /* \"#utility.yul\":2520:2523   */\n      dup3\n        /* \"#utility.yul\":2516:2528   */\n      add\n        /* \"#utility.yul\":2509:2528   */\n      swap1\n      pop\n        /* \"#utility.yul\":2168:2534   */\n      swap2\n      swap1\n      pop\n      jump\t// out\n        /* \"#utility.yul\":2540:2959   */\n    tag_13:\n        /* \"#utility.yul\":2706:2710   */\n      0x00\n        /* \"#utility.yul\":2744:2746   */\n      0x20\n        /* \"#utility.yul\":2733:2742   */\n      dup3\n        /* \"#utility.yul\":2729:2747   */\n      add\n        /* \"#utility.yul\":2721:2747   */\n      swap1\n      pop\n        /* \"#utility.yul\":2793:2802   */\n      dup2\n        /* \"#utility.yul\":2787:2791   */\n      dup2\n        /* \"#utility.yul\":2783:2803   */\n      sub\n        /* \"#utility.yul\":2779:2780   */\n      0x00\n        /* \"#utility.yul\":2768:2777   */\n      dup4\n        /* \"#utility.yul\":2764:2781   */\n      add\n        /* \"#utility.yul\":2757:2804   */\n      mstore\n        /* \"#utility.yul\":2821:2952   */\n      tag_63\n        /* \"#utility.yul\":2947:2951   */\n      dup2\n        /* \"#utility.yul\":2821:2952   */\n      tag_34\n      jump\t// in\n    tag_63:\n        /* \"#utility.yul\":2813:2952   */\n      swap1\n      pop\n        /* \"#utility.yul\":2540:2959   */\n      swap2\n      swap1\n      pop\n      jump\t// out\n        /* \"#utility.yul\":2965:3145   */\n    tag_35:\n        /* \"#utility.yul\":3013:3090   */\n      0x4e487b7100000000000000000000000000000000000000000000000000000000\n        /* \"#utility.yul\":3010:3011   */\n      0x00\n        /* \"#utility.yul\":3003:3091   */\n      mstore\n        /* \"#utility.yul\":3110:3114   */\n      0x11\n        /* \"#utility.yul\":3107:3108   */\n      0x04\n        /* \"#utility.yul\":3100:3115   */\n      mstore\n        /* \"#utility.yul\":3134:3138   */\n      0x24\n        /* \"#utility.yul\":3131:3132   */\n      0x00\n        /* \"#utility.yul\":3124:3139   */\n      revert\n        /* \"#utility.yul\":3151:3342   */\n    tag_21:\n        /* \"#utility.yul\":3191:3194   */\n      0x00\n        /* \"#utility.yul\":3210:3230   */\n      tag_66\n        /* \"#utility.yul\":3228:3229   */\n      dup3\n        /* \"#utility.yul\":3210:3230   */\n      tag_28\n      jump\t// in\n    tag_66:\n        /* \"#utility.yul\":3205:3230   */\n      swap2\n      pop\n        /* \"#utility.yul\":3244:3264   */\n      tag_67\n        /* \"#utility.yul\":3262:3263   */\n      dup4\n        /* \"#utility.yul\":3244:3264   */\n      tag_28\n      jump\t// in\n    tag_67:\n        /* \"#utility.yul\":3239:3264   */\n      swap3\n      pop\n        /* \"#utility.yul\":3287:3288   */\n      dup3\n        /* \"#utility.yul\":3284:3285   */\n      dup3\n        /* \"#utility.yul\":3280:3289   */\n      add\n        /* \"#utility.yul\":3273:3289   */\n      swap1\n      pop\n        /* \"#utility.yul\":3308:3311   */\n      dup1\n        /* \"#utility.yul\":3305:3306   */\n      dup3\n        /* \"#utility.yul\":3302:3312   */\n      gt\n        /* \"#utility.yul\":3299:3335   */\n      iszero\n      tag_68\n      jumpi\n        /* \"#utility.yul\":3315:3333   */\n      tag_69\n      tag_35\n      jump\t// in\n    tag_69:\n        /* \"#utility.yul\":3299:3335   */\n    tag_68:\n        /* \"#utility.yul\":3151:3342   */\n      swap3\n      swap2\n      pop\n      pop\n      jump\t// out\n        /* \"#utility.yul\":3348:3581   */\n    tag_24:\n        /* \"#utility.yul\":3387:3390   */\n      0x00\n        /* \"#utility.yul\":3410:3434   */\n      tag_71\n        /* \"#utility.yul\":3428:3433   */\n      dup3\n        /* \"#utility.yul\":3410:3434   */\n      tag_28\n      jump\t// in\n    tag_71:\n        /* \"#utility.yul\":3401:3434   */\n      swap2\n      pop\n        /* \"#utility.yul\":3456:3522   */\n      0xffffffffffffffffffffffffffffffffffffffffffffffffffffffffffffffff\n        /* \"#utility.yul\":3449:3454   */\n      dup3\n        /* \"#utility.yul\":3446:3523   */\n      sub\n        /* \"#utility.yul\":3443:3546   */\n      tag_72\n      jumpi\n        /* \"#utility.yul\":3526:3544   */\n      tag_73\n      tag_35\n      jump\t// in\n    tag_73:\n        /* \"#utility.yul\":3443:3546   */\n    tag_72:\n        /* \"#utility.yul\":3573:3574   */\n      0x01\n        /* \"#utility.yul\":3566:3571   */\n      dup3\n        /* \"#utility.yul\":3562:3575   */\n      add\n        /* \"#utility.yul\":3555:3575   */\n      swap1\n      pop\n        /* \"#utility.yul\":3348:3581   */\n      swap2\n      swap1\n      pop\n      jump\t// out\n\n    auxdata: 0xa2646970667358221220977133625638d874b938270f04578b8a2c7a8b9cd3913c09dc6125673715f99a64736f6c634300081a0033\n}\n",
				"bytecode": {
					"linkReferences": {},
					"object": "6080604052348015600e575f80fd5b506103488061001c5f395ff3fe608060405234801561000f575f80fd5b5060043610610029575f3560e01c8063274f87281461002d575b5f80fd5b61004760048036038101906100429190610167565b61005d565b60405161005491906101da565b60405180910390f35b5f8085116100a0576040517f08c379a00000000000000000000000000000000000000000000000000000000081526004016100979061024d565b60405180910390fd5b600185036100b057839050610128565b600285036100c057829050610128565b600385036100d057819050610128565b5f8490505f8490505f8490505f80600490505b89811161011f578284866100f79190610298565b6101019190610298565b91508394508293508192508080610117906102cb565b9150506100e3565b50809450505050505b949350505050565b5f80fd5b5f819050919050565b61014681610134565b8114610150575f80fd5b50565b5f813590506101618161013d565b92915050565b5f805f806080858703121561017f5761017e610130565b5b5f61018c87828801610153565b945050602061019d87828801610153565b93505060406101ae87828801610153565b92505060606101bf87828801610153565b91505092959194509250565b6101d481610134565b82525050565b5f6020820190506101ed5f8301846101cb565b92915050565b5f82825260208201905092915050565b7f6e206d7573742062652067726561746572207468616e203000000000000000005f82015250565b5f6102376018836101f3565b915061024282610203565b602082019050919050565b5f6020820190508181035f8301526102648161022b565b9050919050565b7f4e487b71000000000000000000000000000000000000000000000000000000005f52601160045260245ffd5b5f6102a282610134565b91506102ad83610134565b92508282019050808211156102c5576102c461026b565b5b92915050565b5f6102d582610134565b91507fffffffffffffffffffffffffffffffffffffffffffffffffffffffffffffffff82036103075761030661026b565b5b60018201905091905056fea2646970667358221220977133625638d874b938270f04578b8a2c7a8b9cd3913c09dc6125673715f99a64736f6c634300081a0033",
					"opcodes": "PUSH1 0x80 PUSH1 0x40 MSTORE CALLVALUE DUP1 ISZERO PUSH1 0xE JUMPI PUSH0 DUP1 REVERT JUMPDEST POP PUSH2 0x348 DUP1 PUSH2 0x1C PUSH0 CODECOPY PUSH0 RETURN INVALID PUSH1 0x80 PUSH1 0x40 MSTORE CALLVALUE DUP1 ISZERO PUSH2 0xF JUMPI PUSH0 DUP1 REVERT JUMPDEST POP PUSH1 0x4 CALLDATASIZE LT PUSH2 0x29 JUMPI PUSH0 CALLDATALOAD PUSH1 0xE0 SHR DUP1 PUSH4 0x274F8728 EQ PUSH2 0x2D JUMPI JUMPDEST PUSH0 DUP1 REVERT JUMPDEST PUSH2 0x47 PUSH1 0x4 DUP1 CALLDATASIZE SUB DUP2 ADD SWAP1 PUSH2 0x42 SWAP2 SWAP1 PUSH2 0x167 JUMP JUMPDEST PUSH2 0x5D JUMP JUMPDEST PUSH1 0x40 MLOAD PUSH2 0x54 SWAP2 SWAP1 PUSH2 0x1DA JUMP JUMPDEST PUSH1 0x40 MLOAD DUP1 SWAP2 SUB SWAP1 RETURN JUMPDEST PUSH0 DUP1 DUP6 GT PUSH2 0xA0 JUMPI PUSH1 0x40 MLOAD PUSH32 0x8C379A000000000000000000000000000000000000000000000000000000000 DUP2 MSTORE PUSH1 0x4 ADD PUSH2 0x97 SWAP1 PUSH2 0x24D JUMP JUMPDEST PUSH1 0x40 MLOAD DUP1 SWAP2 SUB SWAP1 REVERT JUMPDEST PUSH1 0x1 DUP6 SUB PUSH2 0xB0 JUMPI DUP4 SWAP1 POP PUSH2 0x128 JUMP JUMPDEST PUSH1 0x2 DUP6 SUB PUSH2 0xC0 JUMPI DUP3 SWAP1 POP PUSH2 0x128 JUMP JUMPDEST PUSH1 0x3 DUP6 SUB PUSH2 0xD0 JUMPI DUP2 SWAP1 POP PUSH2 0x128 JUMP JUMPDEST PUSH0 DUP5 SWAP1 POP PUSH0 DUP5 SWAP1 POP PUSH0 DUP5 SWAP1 POP PUSH0 DUP1 PUSH1 0x4 SWAP1 POP JUMPDEST DUP10 DUP2 GT PUSH2 0x11F JUMPI DUP3 DUP5 DUP7 PUSH2 0xF7 SWAP2 SWAP1 PUSH2 0x298 JUMP JUMPDEST PUSH2 0x101 SWAP2 SWAP1 PUSH2 0x298 JUMP JUMPDEST SWAP2 POP DUP4 SWAP5 POP DUP3 SWAP4 POP DUP2 SWAP3 POP DUP1 DUP1 PUSH2 0x117 SWAP1 PUSH2 0x2CB JUMP JUMPDEST SWAP2 POP POP PUSH2 0xE3 JUMP JUMPDEST POP DUP1 SWAP5 POP POP POP POP POP JUMPDEST SWAP5 SWAP4 POP POP POP POP JUMP JUMPDEST PUSH0 DUP1 REVERT JUMPDEST PUSH0 DUP2 SWAP1 POP SWAP2 SWAP1 POP JUMP JUMPDEST PUSH2 0x146 DUP2 PUSH2 0x134 JUMP JUMPDEST DUP2 EQ PUSH2 0x150 JUMPI PUSH0 DUP1 REVERT JUMPDEST POP JUMP JUMPDEST PUSH0 DUP2 CALLDATALOAD SWAP1 POP PUSH2 0x161 DUP2 PUSH2 0x13D JUMP JUMPDEST SWAP3 SWAP2 POP POP JUMP JUMPDEST PUSH0 DUP1 PUSH0 DUP1 PUSH1 0x80 DUP6 DUP8 SUB SLT ISZERO PUSH2 0x17F JUMPI PUSH2 0x17E PUSH2 0x130 JUMP JUMPDEST JUMPDEST PUSH0 PUSH2 0x18C DUP8 DUP3 DUP9 ADD PUSH2 0x153 JUMP JUMPDEST SWAP5 POP POP PUSH1 0x20 PUSH2 0x19D DUP8 DUP3 DUP9 ADD PUSH2 0x153 JUMP JUMPDEST SWAP4 POP POP PUSH1 0x40 PUSH2 0x1AE DUP8 DUP3 DUP9 ADD PUSH2 0x153 JUMP JUMPDEST SWAP3 POP POP PUSH1 0x60 PUSH2 0x1BF DUP8 DUP3 DUP9 ADD PUSH2 0x153 JUMP JUMPDEST SWAP2 POP POP SWAP3 SWAP6 SWAP2 SWAP5 POP SWAP3 POP JUMP JUMPDEST PUSH2 0x1D4 DUP2 PUSH2 0x134 JUMP JUMPDEST DUP3 MSTORE POP POP JUMP JUMPDEST PUSH0 PUSH1 0x20 DUP3 ADD SWAP1 POP PUSH2 0x1ED PUSH0 DUP4 ADD DUP5 PUSH2 0x1CB JUMP JUMPDEST SWAP3 SWAP2 POP POP JUMP JUMPDEST PUSH0 DUP3 DUP3 MSTORE PUSH1 0x20 DUP3 ADD SWAP1 POP SWAP3 SWAP2 POP POP JUMP JUMPDEST PUSH32 0x6E206D7573742062652067726561746572207468616E20300000000000000000 PUSH0 DUP3 ADD MSTORE POP JUMP JUMPDEST PUSH0 PUSH2 0x237 PUSH1 0x18 DUP4 PUSH2 0x1F3 JUMP JUMPDEST SWAP2 POP PUSH2 0x242 DUP3 PUSH2 0x203 JUMP JUMPDEST PUSH1 0x20 DUP3 ADD SWAP1 POP SWAP2 SWAP1 POP JUMP JUMPDEST PUSH0 PUSH1 0x20 DUP3 ADD SWAP1 POP DUP2 DUP2 SUB PUSH0 DUP4 ADD MSTORE PUSH2 0x264 DUP2 PUSH2 0x22B JUMP JUMPDEST SWAP1 POP SWAP2 SWAP1 POP JUMP JUMPDEST PUSH32 0x4E487B7100000000000000000000000000000000000000000000000000000000 PUSH0 MSTORE PUSH1 0x11 PUSH1 0x4 MSTORE PUSH1 0x24 PUSH0 REVERT JUMPDEST PUSH0 PUSH2 0x2A2 DUP3 PUSH2 0x134 JUMP JUMPDEST SWAP2 POP PUSH2 0x2AD DUP4 PUSH2 0x134 JUMP JUMPDEST SWAP3 POP DUP3 DUP3 ADD SWAP1 POP DUP1 DUP3 GT ISZERO PUSH2 0x2C5 JUMPI PUSH2 0x2C4 PUSH2 0x26B JUMP JUMPDEST JUMPDEST SWAP3 SWAP2 POP POP JUMP JUMPDEST PUSH0 PUSH2 0x2D5 DUP3 PUSH2 0x134 JUMP JUMPDEST SWAP2 POP PUSH32 0xFFFFFFFFFFFFFFFFFFFFFFFFFFFFFFFFFFFFFFFFFFFFFFFFFFFFFFFFFFFFFFFF DUP3 SUB PUSH2 0x307 JUMPI PUSH2 0x306 PUSH2 0x26B JUMP JUMPDEST JUMPDEST PUSH1 0x1 DUP3 ADD SWAP1 POP SWAP2 SWAP1 POP JUMP INVALID LOG2 PUSH5 0x6970667358 0x22 SLT KECCAK256 SWAP8 PUSH18 0x33625638D874B938270F04578B8A2C7A8B9C 0xD3 SWAP2 EXTCODECOPY MULMOD 0xDC PUSH2 0x2567 CALLDATACOPY ISZERO 0xF9 SWAP11 PUSH5 0x736F6C6343 STOP ADDMOD BYTE STOP CALLER "
				},
				"gasEstimates": {
					"creation": {
						"codeDepositCost": "168000",
						"executionCost": "212",
						"totalCost": "168212"
					},
					"external": {
						"nthTerm(uint256,uint256,uint256,uint256)": "infinite"
					}
				},
				"methodIdentifiers": {
					"nthTerm(uint256,uint256,uint256,uint256)": "274f8728"
				}
			},
			"storageLayout": {
				"storage": [],
				"types": null
			},
			"userdoc": {
				"kind": "user",
				"methods": {},
				"version": 1
			}
		}
	}
}