{
	"task1_lab4.sol": {
		"RemainderCalculator": {
			"abi": [
				{
					"inputs": [
						{
							"internalType": "int256",
							"name": "a",
							"type": "int256"
						}
					],
					"name": "find",
					"outputs": [
						{
							"internalType": "int256",
							"name": "",
							"type": "int256"
						}
					],
					"stateMutability": "pure",
					"type": "function"
				}
			],
			"devdoc": {
				"kind": "dev",
				"methods": {},
				"version": 1
			},
			"evm": {
				"assembly": "    /* \"task1_lab4.sol\":60:230  contract RemainderCalculator {... */\n  mstore(0x40, 0x80)\n  callvalue\n  dup1\n  iszero\n  tag_1\n  jumpi\n  0x00\n  dup1\n  revert\ntag_1:\n  pop\n  dataSize(sub_0)\n  dup1\n  dataOffset(sub_0)\n  0x00\n  codecopy\n  0x00\n  return\nstop\n\nsub_0: assembly {\n        /* \"task1_lab4.sol\":60:230  contract RemainderCalculator {... */\n      mstore(0x40, 0x80)\n      callvalue\n      dup1\n      iszero\n      tag_1\n      jumpi\n      0x00\n      dup1\n      revert\n    tag_1:\n      pop\n      jumpi(tag_2, lt(calldatasize, 0x04))\n      shr(0xe0, calldataload(0x00))\n      dup1\n      0xf4440ea3\n      eq\n      tag_3\n      jumpi\n    tag_2:\n      0x00\n      dup1\n      revert\n        /* \"task1_lab4.sol\":96:227  function find(int a) public pure returns (int) {... */\n    tag_3:\n      tag_4\n      0x04\n      dup1\n      calldatasize\n      sub\n      dup2\n      add\n      swap1\n      tag_5\n      swap2\n      swap1\n      tag_6\n      jump\t// in\n    tag_5:\n      tag_7\n      jump\t// in\n    tag_4:\n      mload(0x40)\n      tag_8\n      swap2\n      swap1\n      tag_9\n      jump\t// in\n    tag_8:\n      mload(0x40)\n      dup1\n      swap2\n      sub\n      swap1\n      return\n    tag_7:\n        /* \"task1_lab4.sol\":138:141  int */\n      0x00\n        /* \"task1_lab4.sol\":166:167  0 */\n      dup1\n        /* \"task1_lab4.sol\":162:163  a */\n      dup3\n        /* \"task1_lab4.sol\":162:167  a > 0 */\n      sgt\n        /* \"task1_lab4.sol\":154:196  require(a > 0, \"a must be greater than 0\") */\n      tag_11\n      jumpi\n      mload(0x40)\n      0x08c379a000000000000000000000000000000000000000000000000000000000\n      dup2\n      mstore\n      0x04\n      add\n      tag_12\n      swap1\n      tag_13\n      jump\t// in\n    tag_12:\n      mload(0x40)\n      dup1\n      swap2\n      sub\n      swap1\n      revert\n    tag_11:\n        /* \"task1_lab4.sol\":218:219  3 */\n      0x03\n        /* \"task1_lab4.sol\":214:215  a */\n      dup3\n        /* \"task1_lab4.sol\":214:219  a % 3 */\n      tag_14\n      swap2\n      swap1\n      tag_15\n      jump\t// in\n    tag_14:\n        /* \"task1_lab4.sol\":207:219  return a % 3 */\n      swap1\n      pop\n        /* \"task1_lab4.sol\":96:227  function find(int a) public pure returns (int) {... */\n      swap2\n      swap1\n      pop\n      jump\t// out\n        /* \"#utility.yul\":88:205   */\n    tag_17:\n        /* \"#utility.yul\":197:198   */\n      0x00\n        /* \"#utility.yul\":194:195   */\n      dup1\n        /* \"#utility.yul\":187:199   */\n      revert\n        /* \"#utility.yul\":334:410   */\n    tag_19:\n        /* \"#utility.yul\":370:377   */\n      0x00\n        /* \"#utility.yul\":399:404   */\n      dup2\n        /* \"#utility.yul\":388:404   */\n      swap1\n      pop\n        /* \"#utility.yul\":334:410   */\n      swap2\n      swap1\n      pop\n      jump\t// out\n        /* \"#utility.yul\":416:536   */\n    tag_20:\n        /* \"#utility.yul\":488:511   */\n      tag_33\n        /* \"#utility.yul\":505:510   */\n      dup2\n        /* \"#utility.yul\":488:511   */\n      tag_19\n      jump\t// in\n    tag_33:\n        /* \"#utility.yul\":481:486   */\n      dup2\n        /* \"#utility.yul\":478:512   */\n      eq\n        /* \"#utility.yul\":468:530   */\n      tag_34\n      jumpi\n        /* \"#utility.yul\":526:527   */\n      0x00\n        /* \"#utility.yul\":523:524   */\n      dup1\n        /* \"#utility.yul\":516:528   */\n      revert\n        /* \"#utility.yul\":468:530   */\n    tag_34:\n        /* \"#utility.yul\":416:536   */\n      pop\n      jump\t// out\n        /* \"#utility.yul\":542:679   */\n    tag_21:\n        /* \"#utility.yul\":587:592   */\n      0x00\n        /* \"#utility.yul\":625:631   */\n      dup2\n        /* \"#utility.yul\":612:632   */\n      calldataload\n        /* \"#utility.yul\":603:632   */\n      swap1\n      pop\n        /* \"#utility.yul\":641:673   */\n      tag_36\n        /* \"#utility.yul\":667:672   */\n      dup2\n        /* \"#utility.yul\":641:673   */\n      tag_20\n      jump\t// in\n    tag_36:\n        /* \"#utility.yul\":542:679   */\n      swap3\n      swap2\n      pop\n      pop\n      jump\t// out\n        /* \"#utility.yul\":685:1012   */\n    tag_6:\n        /* \"#utility.yul\":743:749   */\n      0x00\n        /* \"#utility.yul\":792:794   */\n      0x20\n        /* \"#utility.yul\":780:789   */\n      dup3\n        /* \"#utility.yul\":771:778   */\n      dup5\n        /* \"#utility.yul\":767:790   */\n      sub\n        /* \"#utility.yul\":763:795   */\n      slt\n        /* \"#utility.yul\":760:879   */\n      iszero\n      tag_38\n      jumpi\n        /* \"#utility.yul\":798:877   */\n      tag_39\n      tag_17\n      jump\t// in\n    tag_39:\n        /* \"#utility.yul\":760:879   */\n    tag_38:\n        /* \"#utility.yul\":918:919   */\n      0x00\n        /* \"#utility.yul\":943:995   */\n      tag_40\n        /* \"#utility.yul\":987:994   */\n      dup5\n        /* \"#utility.yul\":978:984   */\n      dup3\n        /* \"#utility.yul\":967:976   */\n      dup6\n        /* \"#utility.yul\":963:985   */\n      add\n        /* \"#utility.yul\":943:995   */\n      tag_21\n      jump\t// in\n    tag_40:\n        /* \"#utility.yul\":933:995   */\n      swap2\n      pop\n        /* \"#utility.yul\":889:1005   */\n      pop\n        /* \"#utility.yul\":685:1012   */\n      swap3\n      swap2\n      pop\n      pop\n      jump\t// out\n        /* \"#utility.yul\":1018:1133   */\n    tag_22:\n        /* \"#utility.yul\":1103:1126   */\n      tag_42\n        /* \"#utility.yul\":1120:1125   */\n      dup2\n        /* \"#utility.yul\":1103:1126   */\n      tag_19\n      jump\t// in\n    tag_42:\n        /* \"#utility.yul\":1098:1101   */\n      dup3\n        /* \"#utility.yul\":1091:1127   */\n      mstore\n        /* \"#utility.yul\":1018:1133   */\n      pop\n      pop\n      jump\t// out\n        /* \"#utility.yul\":1139:1357   */\n    tag_9:\n        /* \"#utility.yul\":1230:1234   */\n      0x00\n        /* \"#utility.yul\":1268:1270   */\n      0x20\n        /* \"#utility.yul\":1257:1266   */\n      dup3\n        /* \"#utility.yul\":1253:1271   */\n      add\n        /* \"#utility.yul\":1245:1271   */\n      swap1\n      pop\n        /* \"#utility.yul\":1281:1350   */\n      tag_44\n        /* \"#utility.yul\":1347:1348   */\n      0x00\n        /* \"#utility.yul\":1336:1345   */\n      dup4\n        /* \"#utility.yul\":1332:1349   */\n      add\n        /* \"#utility.yul\":1323:1329   */\n      dup5\n        /* \"#utility.yul\":1281:1350   */\n      tag_22\n      jump\t// in\n    tag_44:\n        /* \"#utility.yul\":1139:1357   */\n      swap3\n      swap2\n      pop\n      pop\n      jump\t// out\n        /* \"#utility.yul\":1363:1532   */\n    tag_23:\n        /* \"#utility.yul\":1447:1458   */\n      0x00\n        /* \"#utility.yul\":1481:1487   */\n      dup3\n        /* \"#utility.yul\":1476:1479   */\n      dup3\n        /* \"#utility.yul\":1469:1488   */\n      mstore\n        /* \"#utility.yul\":1521:1525   */\n      0x20\n        /* \"#utility.yul\":1516:1519   */\n      dup3\n        /* \"#utility.yul\":1512:1526   */\n      add\n        /* \"#utility.yul\":1497:1526   */\n      swap1\n      pop\n        /* \"#utility.yul\":1363:1532   */\n      swap3\n      swap2\n      pop\n      pop\n      jump\t// out\n        /* \"#utility.yul\":1538:1712   */\n    tag_24:\n        /* \"#utility.yul\":1678:1704   */\n      0x61206d7573742062652067726561746572207468616e20300000000000000000\n        /* \"#utility.yul\":1674:1675   */\n      0x00\n        /* \"#utility.yul\":1666:1672   */\n      dup3\n        /* \"#utility.yul\":1662:1676   */\n      add\n        /* \"#utility.yul\":1655:1705   */\n      mstore\n        /* \"#utility.yul\":1538:1712   */\n      pop\n      jump\t// out\n        /* \"#utility.yul\":1718:2084   */\n    tag_25:\n        /* \"#utility.yul\":1860:1863   */\n      0x00\n        /* \"#utility.yul\":1881:1948   */\n      tag_48\n        /* \"#utility.yul\":1945:1947   */\n      0x18\n        /* \"#utility.yul\":1940:1943   */\n      dup4\n        /* \"#utility.yul\":1881:1948   */\n      tag_23\n      jump\t// in\n    tag_48:\n        /* \"#utility.yul\":1874:1948   */\n      swap2\n      pop\n        /* \"#utility.yul\":1957:2050   */\n      tag_49\n        /* \"#utility.yul\":2046:2049   */\n      dup3\n        /* \"#utility.yul\":1957:2050   */\n      tag_24\n      jump\t// in\n    tag_49:\n        /* \"#utility.yul\":2075:2077   */\n      0x20\n        /* \"#utility.yul\":2070:2073   */\n      dup3\n        /* \"#utility.yul\":2066:2078   */\n      add\n        /* \"#utility.yul\":2059:2078   */\n      swap1\n      pop\n        /* \"#utility.yul\":1718:2084   */\n      swap2\n      swap1\n      pop\n      jump\t// out\n        /* \"#utility.yul\":2090:2509   */\n    tag_13:\n        /* \"#utility.yul\":2256:2260   */\n      0x00\n        /* \"#utility.yul\":2294:2296   */\n      0x20\n        /* \"#utility.yul\":2283:2292   */\n      dup3\n        /* \"#utility.yul\":2279:2297   */\n      add\n        /* \"#utility.yul\":2271:2297   */\n      swap1\n      pop\n        /* \"#utility.yul\":2343:2352   */\n      dup2\n        /* \"#utility.yul\":2337:2341   */\n      dup2\n        /* \"#utility.yul\":2333:2353   */\n      sub\n        /* \"#utility.yul\":2329:2330   */\n      0x00\n        /* \"#utility.yul\":2318:2327   */\n      dup4\n        /* \"#utility.yul\":2314:2331   */\n      add\n        /* \"#utility.yul\":2307:2354   */\n      mstore\n        /* \"#utility.yul\":2371:2502   */\n      tag_51\n        /* \"#utility.yul\":2497:2501   */\n      dup2\n        /* \"#utility.yul\":2371:2502   */\n      tag_25\n      jump\t// in\n    tag_51:\n        /* \"#utility.yul\":2363:2502   */\n      swap1\n      pop\n        /* \"#utility.yul\":2090:2509   */\n      swap2\n      swap1\n      pop\n      jump\t// out\n        /* \"#utility.yul\":2515:2695   */\n    tag_26:\n        /* \"#utility.yul\":2563:2640   */\n      0x4e487b7100000000000000000000000000000000000000000000000000000000\n        /* \"#utility.yul\":2560:2561   */\n      0x00\n        /* \"#utility.yul\":2553:2641   */\n      mstore\n        /* \"#utility.yul\":2660:2664   */\n      0x12\n        /* \"#utility.yul\":2657:2658   */\n      0x04\n        /* \"#utility.yul\":2650:2665   */\n      mstore\n        /* \"#utility.yul\":2684:2688   */\n      0x24\n        /* \"#utility.yul\":2681:2682   */\n      0x00\n        /* \"#utility.yul\":2674:2689   */\n      revert\n        /* \"#utility.yul\":2701:2875   */\n    tag_15:\n        /* \"#utility.yul\":2732:2733   */\n      0x00\n        /* \"#utility.yul\":2749:2768   */\n      tag_54\n        /* \"#utility.yul\":2766:2767   */\n      dup3\n        /* \"#utility.yul\":2749:2768   */\n      tag_19\n      jump\t// in\n    tag_54:\n        /* \"#utility.yul\":2744:2768   */\n      swap2\n      pop\n        /* \"#utility.yul\":2782:2801   */\n      tag_55\n        /* \"#utility.yul\":2799:2800   */\n      dup4\n        /* \"#utility.yul\":2782:2801   */\n      tag_19\n      jump\t// in\n    tag_55:\n        /* \"#utility.yul\":2777:2801   */\n      swap3\n      pop\n        /* \"#utility.yul\":2820:2821   */\n      dup3\n        /* \"#utility.yul\":2810:2845   */\n      tag_56\n      jumpi\n        /* \"#utility.yul\":2825:2843   */\n      tag_57\n      tag_26\n      jump\t// in\n    tag_57:\n        /* \"#utility.yul\":2810:2845   */\n    tag_56:\n        /* \"#utility.yul\":2867:2868   */\n      dup3\n        /* \"#utility.yul\":2864:2865   */\n      dup3\n        /* \"#utility.yul\":2859:2869   */\n      smod\n        /* \"#utility.yul\":2854:2869   */\n      swap1\n      pop\n        /* \"#utility.yul\":2701:2875   */\n      swap3\n      swap2\n      pop\n      pop\n      jump\t// out\n\n    auxdata: 0xa26469706673582212201e1000061f8cfb543cf40bd476961b0a3ad03b8205a7fdfc22111f459e86136b64736f6c634300081a0033\n}\n",
				"bytecode": {
					"linkReferences": {},
					"object": "6080604052348015600e575f80fd5b506102498061001c5f395ff3fe608060405234801561000f575f80fd5b5060043610610029575f3560e01c8063f4440ea31461002d575b5f80fd5b610047600480360381019061004291906100eb565b61005d565b6040516100549190610125565b60405180910390f35b5f8082136100a0576040517f08c379a000000000000000000000000000000000000000000000000000000000815260040161009790610198565b60405180910390fd5b6003826100ad91906101e3565b9050919050565b5f80fd5b5f819050919050565b6100ca816100b8565b81146100d4575f80fd5b50565b5f813590506100e5816100c1565b92915050565b5f60208284031215610100576100ff6100b4565b5b5f61010d848285016100d7565b91505092915050565b61011f816100b8565b82525050565b5f6020820190506101385f830184610116565b92915050565b5f82825260208201905092915050565b7f61206d7573742062652067726561746572207468616e203000000000000000005f82015250565b5f61018260188361013e565b915061018d8261014e565b602082019050919050565b5f6020820190508181035f8301526101af81610176565b9050919050565b7f4e487b71000000000000000000000000000000000000000000000000000000005f52601260045260245ffd5b5f6101ed826100b8565b91506101f8836100b8565b925082610208576102076101b6565b5b82820790509291505056fea26469706673582212201e1000061f8cfb543cf40bd476961b0a3ad03b8205a7fdfc22111f459e86136b64736f6c634300081a0033",
					"opcodes": "PUSH1 0x80 PUSH1 0x40 MSTORE CALLVALUE DUP1 ISZERO PUSH1 0xE JUMPI PUSH0 DUP1 REVERT JUMPDEST POP PUSH2 0x249 DUP1 PUSH2 0x1C PUSH0 CODECOPY PUSH0 RETURN INVALID PUSH1 0x80 PUSH1 0x40 MSTORE CALLVALUE DUP1 ISZERO PUSH2 0xF JUMPI PUSH0 DUP1 REVERT JUMPDEST POP PUSH1 0x4 CALLDATASIZE LT PUSH2 0x29 JUMPI PUSH0 CALLDATALOAD PUSH1 0xE0 SHR DUP1 PUSH4 0xF4440EA3 EQ PUSH2 0x2D JUMPI JUMPDEST PUSH0 DUP1 REVERT JUMPDEST PUSH2 0x47 PUSH1 0x4 DUP1 CALLDATASIZE SUB DUP2 ADD SWAP1 PUSH2 0x42 SWAP2 SWAP1 PUSH2 0xEB JUMP JUMPDEST PUSH2 0x5D JUMP JUMPDEST PUSH1 0x40 MLOAD PUSH2 0x54 SWAP2 SWAP1 PUSH2 0x125 JUMP JUMPDEST PUSH1 0x40 MLOAD DUP1 SWAP2 SUB SWAP1 RETURN JUMPDEST PUSH0 DUP1 DUP3 SGT PUSH2 0xA0 JUMPI PUSH1 0x40 MLOAD PUSH32 0x8C379A000000000000000000000000000000000000000000000000000000000 DUP2 MSTORE PUSH1 0x4 ADD PUSH2 0x97 SWAP1 PUSH2 0x198 JUMP JUMPDEST PUSH1 0x40 MLOAD DUP1 SWAP2 SUB SWAP1 REVERT JUMPDEST PUSH1 0x3 DUP3 PUSH2 0xAD SWAP2 SWAP1 PUSH2 0x1E3 JUMP JUMPDEST SWAP1 POP SWAP2 SWAP1 POP JUMP JUMPDEST PUSH0 DUP1 REVERT JUMPDEST PUSH0 DUP2 SWAP1 POP SWAP2 SWAP1 POP JUMP JUMPDEST PUSH2 0xCA DUP2 PUSH2 0xB8 JUMP JUMPDEST DUP2 EQ PUSH2 0xD4 JUMPI PUSH0 DUP1 REVERT JUMPDEST POP JUMP JUMPDEST PUSH0 DUP2 CALLDATALOAD SWAP1 POP PUSH2 0xE5 DUP2 PUSH2 0xC1 JUMP JUMPDEST SWAP3 SWAP2 POP POP JUMP JUMPDEST PUSH0 PUSH1 0x20 DUP3 DUP5 SUB SLT ISZERO PUSH2 0x100 JUMPI PUSH2 0xFF PUSH2 0xB4 JUMP JUMPDEST JUMPDEST PUSH0 PUSH2 0x10D DUP5 DUP3 DUP6 ADD PUSH2 0xD7 JUMP JUMPDEST SWAP2 POP POP SWAP3 SWAP2 POP POP JUMP JUMPDEST PUSH2 0x11F DUP2 PUSH2 0xB8 JUMP JUMPDEST DUP3 MSTORE POP POP JUMP JUMPDEST PUSH0 PUSH1 0x20 DUP3 ADD SWAP1 POP PUSH2 0x138 PUSH0 DUP4 ADD DUP5 PUSH2 0x116 JUMP JUMPDEST SWAP3 SWAP2 POP POP JUMP JUMPDEST PUSH0 DUP3 DUP3 MSTORE PUSH1 0x20 DUP3 ADD SWAP1 POP SWAP3 SWAP2 POP POP JUMP JUMPDEST PUSH32 0x61206D7573742062652067726561746572207468616E20300000000000000000 PUSH0 DUP3 ADD MSTORE POP JUMP JUMPDEST PUSH0 PUSH2 0x182 PUSH1 0x18 DUP4 PUSH2 0x13E JUMP JUMPDEST SWAP2 POP PUSH2 0x18D DUP3 PUSH2 0x14E JUMP JUMPDEST PUSH1 0x20 DUP3 ADD SWAP1 POP SWAP2 SWAP1 POP JUMP JUMPDEST PUSH0 PUSH1 0x20 DUP3 ADD SWAP1 POP DUP2 DUP2 SUB PUSH0 DUP4 ADD MSTORE PUSH2 0x1AF DUP2 PUSH2 0x176 JUMP JUMPDEST SWAP1 POP SWAP2 SWAP1 POP JUMP JUMPDEST PUSH32 0x4E487B7100000000000000000000000000000000000000000000000000000000 PUSH0 MSTORE PUSH1 0x12 PUSH1 0x4 MSTORE PUSH1 0x24 PUSH0 REVERT JUMPDEST PUSH0 PUSH2 0x1ED DUP3 PUSH2 0xB8 JUMP JUMPDEST SWAP2 POP PUSH2 0x1F8 DUP4 PUSH2 0xB8 JUMP JUMPDEST SWAP3 POP DUP3 PUSH2 0x208 JUMPI PUSH2 0x207 PUSH2 0x1B6 JUMP JUMPDEST JUMPDEST DUP3 DUP3 SMOD SWAP1 POP SWAP3 SWAP2 POP POP JUMP INVALID LOG2 PUSH5 0x6970667358 0x22 SLT KECCAK256 0x1E LT STOP MOD 0x1F DUP13 0xFB SLOAD EXTCODECOPY DELEGATECALL SIGNEXTEND 0xD4 PUSH23 0x961B0A3AD03B8205A7FDFC22111F459E86136B64736F6C PUSH4 0x4300081A STOP CALLER "
				},
				"gasEstimates": {
					"creation": {
						"codeDepositCost": "117000",
						"executionCost": "163",
						"totalCost": "117163"
					},
					"external": {
						"find(int256)": "infinite"
					}
				},
				"methodIdentifiers": {
					"find(int256)": "f4440ea3"
				}
			},
			"storageLayout": {
				"storage": [],
				"types": null
			},
			"userdoc": {
				"kind": "user",
				"methods": {},
				"version": 1
			}
		}
	}
}