{
	"PES1UG22CS98_TASK5.sol": {
		"TicketReservation": {
			"abi": [
				{
					"inputs": [
						{
							"internalType": "uint256",
							"name": "_ticketPrice",
							"type": "uint256"
						},
						{
							"internalType": "uint256",
							"name": "_totalSupply",
							"type": "uint256"
						}
					],
					"stateMutability": "nonpayable",
					"type": "constructor"
				},
				{
					"inputs": [
						{
							"internalType": "address",
							"name": "user",
							"type": "address"
						}
					],
					"name": "getTicketsReserved",
					"outputs": [
						{
							"internalType": "uint256",
							"name": "",
							"type": "uint256"
						}
					],
					"stateMutability": "view",
					"type": "function"
				},
				{
					"inputs": [],
					"name": "owner",
					"outputs": [
						{
							"internalType": "address payable",
							"name": "",
							"type": "address"
						}
					],
					"stateMutability": "view",
					"type": "function"
				},
				{
					"inputs": [
						{
							"internalType": "uint256",
							"name": "numTickets",
							"type": "uint256"
						}
					],
					"name": "reserveTicket",
					"outputs": [],
					"stateMutability": "payable",
					"type": "function"
				},
				{
					"inputs": [
						{
							"internalType": "uint256",
							"name": "price",
							"type": "uint256"
						}
					],
					"name": "setTicketPrice",
					"outputs": [],
					"stateMutability": "nonpayable",
					"type": "function"
				},
				{
					"inputs": [],
					"name": "ticketPrice",
					"outputs": [
						{
							"internalType": "uint256",
							"name": "",
							"type": "uint256"
						}
					],
					"stateMutability": "view",
					"type": "function"
				},
				{
					"inputs": [
						{
							"internalType": "address",
							"name": "",
							"type": "address"
						}
					],
					"name": "ticketsReserved",
					"outputs": [
						{
							"internalType": "uint256",
							"name": "",
							"type": "uint256"
						}
					],
					"stateMutability": "view",
					"type": "function"
				},
				{
					"inputs": [],
					"name": "ticketsSold",
					"outputs": [
						{
							"internalType": "uint256",
							"name": "",
							"type": "uint256"
						}
					],
					"stateMutability": "view",
					"type": "function"
				},
				{
					"inputs": [],
					"name": "totalSupply",
					"outputs": [
						{
							"internalType": "uint256",
							"name": "",
							"type": "uint256"
						}
					],
					"stateMutability": "view",
					"type": "function"
				},
				{
					"inputs": [],
					"name": "withdrawFunds",
					"outputs": [],
					"stateMutability": "nonpayable",
					"type": "function"
				}
			],
			"devdoc": {
				"kind": "dev",
				"methods": {},
				"version": 1
			},
			"evm": {
				"assembly": "    /* \"PES1UG22CS98_TASK5.sol\":60:1832  contract TicketReservation {... */\n  mstore(0x40, 0x80)\n    /* \"PES1UG22CS98_TASK5.sol\":289:466  constructor(uint256 _ticketPrice, uint256 _totalSupply) {... */\n  callvalue\n  dup1\n  iszero\n  tag_1\n  jumpi\n  0x00\n  dup1\n  revert\ntag_1:\n  pop\n  mload(0x40)\n  sub(codesize, bytecodeSize)\n  dup1\n  bytecodeSize\n  dup4\n  codecopy\n  dup2\n  dup2\n  add\n  0x40\n  mstore\n  dup2\n  add\n  swap1\n  tag_2\n  swap2\n  swap1\n  tag_3\n  jump\t// in\ntag_2:\n    /* \"PES1UG22CS98_TASK5.sol\":372:382  msg.sender */\n  caller\n    /* \"PES1UG22CS98_TASK5.sol\":356:361  owner */\n  0x00\n  dup1\n    /* \"PES1UG22CS98_TASK5.sol\":356:383  owner = payable(msg.sender) */\n  0x0100\n  exp\n  dup2\n  sload\n  dup2\n  0xffffffffffffffffffffffffffffffffffffffff\n  mul\n  not\n  and\n  swap1\n  dup4\n  0xffffffffffffffffffffffffffffffffffffffff\n  and\n  mul\n  or\n  swap1\n  sstore\n  pop\n    /* \"PES1UG22CS98_TASK5.sol\":408:420  _ticketPrice */\n  dup2\n    /* \"PES1UG22CS98_TASK5.sol\":394:405  ticketPrice */\n  0x01\n    /* \"PES1UG22CS98_TASK5.sol\":394:420  ticketPrice = _ticketPrice */\n  dup2\n  swap1\n  sstore\n  pop\n    /* \"PES1UG22CS98_TASK5.sol\":445:457  _totalSupply */\n  dup1\n    /* \"PES1UG22CS98_TASK5.sol\":431:442  totalSupply */\n  0x02\n    /* \"PES1UG22CS98_TASK5.sol\":431:457  totalSupply = _totalSupply */\n  dup2\n  swap1\n  sstore\n  pop\n    /* \"PES1UG22CS98_TASK5.sol\":289:466  constructor(uint256 _ticketPrice, uint256 _totalSupply) {... */\n  pop\n  pop\n    /* \"PES1UG22CS98_TASK5.sol\":60:1832  contract TicketReservation {... */\n  jump(tag_6)\n    /* \"#utility.yul\":88:205   */\ntag_8:\n    /* \"#utility.yul\":197:198   */\n  0x00\n    /* \"#utility.yul\":194:195   */\n  dup1\n    /* \"#utility.yul\":187:199   */\n  revert\n    /* \"#utility.yul\":334:411   */\ntag_10:\n    /* \"#utility.yul\":371:378   */\n  0x00\n    /* \"#utility.yul\":400:405   */\n  dup2\n    /* \"#utility.yul\":389:405   */\n  swap1\n  pop\n    /* \"#utility.yul\":334:411   */\n  swap2\n  swap1\n  pop\n  jump\t// out\n    /* \"#utility.yul\":417:539   */\ntag_11:\n    /* \"#utility.yul\":490:514   */\n  tag_19\n    /* \"#utility.yul\":508:513   */\n  dup2\n    /* \"#utility.yul\":490:514   */\n  tag_10\n  jump\t// in\ntag_19:\n    /* \"#utility.yul\":483:488   */\n  dup2\n    /* \"#utility.yul\":480:515   */\n  eq\n    /* \"#utility.yul\":470:533   */\n  tag_20\n  jumpi\n    /* \"#utility.yul\":529:530   */\n  0x00\n    /* \"#utility.yul\":526:527   */\n  dup1\n    /* \"#utility.yul\":519:531   */\n  revert\n    /* \"#utility.yul\":470:533   */\ntag_20:\n    /* \"#utility.yul\":417:539   */\n  pop\n  jump\t// out\n    /* \"#utility.yul\":545:688   */\ntag_12:\n    /* \"#utility.yul\":602:607   */\n  0x00\n    /* \"#utility.yul\":633:639   */\n  dup2\n    /* \"#utility.yul\":627:640   */\n  mload\n    /* \"#utility.yul\":618:640   */\n  swap1\n  pop\n    /* \"#utility.yul\":649:682   */\n  tag_22\n    /* \"#utility.yul\":676:681   */\n  dup2\n    /* \"#utility.yul\":649:682   */\n  tag_11\n  jump\t// in\ntag_22:\n    /* \"#utility.yul\":545:688   */\n  swap3\n  swap2\n  pop\n  pop\n  jump\t// out\n    /* \"#utility.yul\":694:1201   */\ntag_3:\n    /* \"#utility.yul\":773:779   */\n  0x00\n    /* \"#utility.yul\":781:787   */\n  dup1\n    /* \"#utility.yul\":830:832   */\n  0x40\n    /* \"#utility.yul\":818:827   */\n  dup4\n    /* \"#utility.yul\":809:816   */\n  dup6\n    /* \"#utility.yul\":805:828   */\n  sub\n    /* \"#utility.yul\":801:833   */\n  slt\n    /* \"#utility.yul\":798:917   */\n  iszero\n  tag_24\n  jumpi\n    /* \"#utility.yul\":836:915   */\n  tag_25\n  tag_8\n  jump\t// in\ntag_25:\n    /* \"#utility.yul\":798:917   */\ntag_24:\n    /* \"#utility.yul\":956:957   */\n  0x00\n    /* \"#utility.yul\":981:1045   */\n  tag_26\n    /* \"#utility.yul\":1037:1044   */\n  dup6\n    /* \"#utility.yul\":1028:1034   */\n  dup3\n    /* \"#utility.yul\":1017:1026   */\n  dup7\n    /* \"#utility.yul\":1013:1035   */\n  add\n    /* \"#utility.yul\":981:1045   */\n  tag_12\n  jump\t// in\ntag_26:\n    /* \"#utility.yul\":971:1045   */\n  swap3\n  pop\n    /* \"#utility.yul\":927:1055   */\n  pop\n    /* \"#utility.yul\":1094:1096   */\n  0x20\n    /* \"#utility.yul\":1120:1184   */\n  tag_27\n    /* \"#utility.yul\":1176:1183   */\n  dup6\n    /* \"#utility.yul\":1167:1173   */\n  dup3\n    /* \"#utility.yul\":1156:1165   */\n  dup7\n    /* \"#utility.yul\":1152:1174   */\n  add\n    /* \"#utility.yul\":1120:1184   */\n  tag_12\n  jump\t// in\ntag_27:\n    /* \"#utility.yul\":1110:1184   */\n  swap2\n  pop\n    /* \"#utility.yul\":1065:1194   */\n  pop\n    /* \"#utility.yul\":694:1201   */\n  swap3\n  pop\n  swap3\n  swap1\n  pop\n  jump\t// out\n    /* \"PES1UG22CS98_TASK5.sol\":60:1832  contract TicketReservation {... */\ntag_6:\n  dataSize(sub_0)\n  dup1\n  dataOffset(sub_0)\n  0x00\n  codecopy\n  0x00\n  return\nstop\n\nsub_0: assembly {\n        /* \"PES1UG22CS98_TASK5.sol\":60:1832  contract TicketReservation {... */\n      mstore(0x40, 0x80)\n      jumpi(tag_1, lt(calldatasize, 0x04))\n      shr(0xe0, calldataload(0x00))\n      dup1\n      0x3c45a5d8\n      gt\n      tag_11\n      jumpi\n      dup1\n      0x3c45a5d8\n      eq\n      tag_6\n      jumpi\n      dup1\n      0x42cd0cf4\n      eq\n      tag_7\n      jumpi\n      dup1\n      0x8da5cb5b\n      eq\n      tag_8\n      jumpi\n      dup1\n      0x8f15024f\n      eq\n      tag_9\n      jumpi\n      dup1\n      0xc72f2e57\n      eq\n      tag_10\n      jumpi\n      jump(tag_1)\n    tag_11:\n      dup1\n      0x1209b1f6\n      eq\n      tag_2\n      jumpi\n      dup1\n      0x15981650\n      eq\n      tag_3\n      jumpi\n      dup1\n      0x18160ddd\n      eq\n      tag_4\n      jumpi\n      dup1\n      0x24600fc3\n      eq\n      tag_5\n      jumpi\n    tag_1:\n      0x00\n      dup1\n      revert\n        /* \"PES1UG22CS98_TASK5.sol\":129:155  uint256 public ticketPrice */\n    tag_2:\n      callvalue\n      dup1\n      iszero\n      tag_12\n      jumpi\n      0x00\n      dup1\n      revert\n    tag_12:\n      pop\n      tag_13\n      tag_14\n      jump\t// in\n    tag_13:\n      mload(0x40)\n      tag_15\n      swap2\n      swap1\n      tag_16\n      jump\t// in\n    tag_15:\n      mload(0x40)\n      dup1\n      swap2\n      sub\n      swap1\n      return\n        /* \"PES1UG22CS98_TASK5.sol\":1672:1829  function setTicketPrice(uint256 price) external onlyOwner {... */\n    tag_3:\n      callvalue\n      dup1\n      iszero\n      tag_17\n      jumpi\n      0x00\n      dup1\n      revert\n    tag_17:\n      pop\n      tag_18\n      0x04\n      dup1\n      calldatasize\n      sub\n      dup2\n      add\n      swap1\n      tag_19\n      swap2\n      swap1\n      tag_20\n      jump\t// in\n    tag_19:\n      tag_21\n      jump\t// in\n    tag_18:\n      stop\n        /* \"PES1UG22CS98_TASK5.sol\":162:188  uint256 public totalSupply */\n    tag_4:\n      callvalue\n      dup1\n      iszero\n      tag_22\n      jumpi\n      0x00\n      dup1\n      revert\n    tag_22:\n      pop\n      tag_23\n      tag_24\n      jump\t// in\n    tag_23:\n      mload(0x40)\n      tag_25\n      swap2\n      swap1\n      tag_16\n      jump\t// in\n    tag_25:\n      mload(0x40)\n      dup1\n      swap2\n      sub\n      swap1\n      return\n        /* \"PES1UG22CS98_TASK5.sol\":1445:1627  function withdrawFunds() external onlyOwner {... */\n    tag_5:\n      callvalue\n      dup1\n      iszero\n      tag_26\n      jumpi\n      0x00\n      dup1\n      revert\n    tag_26:\n      pop\n      tag_27\n      tag_28\n      jump\t// in\n    tag_27:\n      stop\n        /* \"PES1UG22CS98_TASK5.sol\":641:1296  function reserveTicket(uint256 numTickets) external payable {... */\n    tag_6:\n      tag_29\n      0x04\n      dup1\n      calldatasize\n      sub\n      dup2\n      add\n      swap1\n      tag_30\n      swap2\n      swap1\n      tag_20\n      jump\t// in\n    tag_30:\n      tag_31\n      jump\t// in\n    tag_29:\n      stop\n        /* \"PES1UG22CS98_TASK5.sol\":230:280  mapping(address => uint256) public ticketsReserved */\n    tag_7:\n      callvalue\n      dup1\n      iszero\n      tag_32\n      jumpi\n      0x00\n      dup1\n      revert\n    tag_32:\n      pop\n      tag_33\n      0x04\n      dup1\n      calldatasize\n      sub\n      dup2\n      add\n      swap1\n      tag_34\n      swap2\n      swap1\n      tag_35\n      jump\t// in\n    tag_34:\n      tag_36\n      jump\t// in\n    tag_33:\n      mload(0x40)\n      tag_37\n      swap2\n      swap1\n      tag_16\n      jump\t// in\n    tag_37:\n      mload(0x40)\n      dup1\n      swap2\n      sub\n      swap1\n      return\n        /* \"PES1UG22CS98_TASK5.sol\":94:122  address payable public owner */\n    tag_8:\n      callvalue\n      dup1\n      iszero\n      tag_38\n      jumpi\n      0x00\n      dup1\n      revert\n    tag_38:\n      pop\n      tag_39\n      tag_40\n      jump\t// in\n    tag_39:\n      mload(0x40)\n      tag_41\n      swap2\n      swap1\n      tag_42\n      jump\t// in\n    tag_41:\n      mload(0x40)\n      dup1\n      swap2\n      sub\n      swap1\n      return\n        /* \"PES1UG22CS98_TASK5.sol\":196:222  uint256 public ticketsSold */\n    tag_9:\n      callvalue\n      dup1\n      iszero\n      tag_43\n      jumpi\n      0x00\n      dup1\n      revert\n    tag_43:\n      pop\n      tag_44\n      tag_45\n      jump\t// in\n    tag_44:\n      mload(0x40)\n      tag_46\n      swap2\n      swap1\n      tag_16\n      jump\t// in\n    tag_46:\n      mload(0x40)\n      dup1\n      swap2\n      sub\n      swap1\n      return\n        /* \"PES1UG22CS98_TASK5.sol\":1310:1431  function getTicketsReserved(address user) external view returns (uint256) {... */\n    tag_10:\n      callvalue\n      dup1\n      iszero\n      tag_47\n      jumpi\n      0x00\n      dup1\n      revert\n    tag_47:\n      pop\n      tag_48\n      0x04\n      dup1\n      calldatasize\n      sub\n      dup2\n      add\n      swap1\n      tag_49\n      swap2\n      swap1\n      tag_35\n      jump\t// in\n    tag_49:\n      tag_50\n      jump\t// in\n    tag_48:\n      mload(0x40)\n      tag_51\n      swap2\n      swap1\n      tag_16\n      jump\t// in\n    tag_51:\n      mload(0x40)\n      dup1\n      swap2\n      sub\n      swap1\n      return\n        /* \"PES1UG22CS98_TASK5.sol\":129:155  uint256 public ticketPrice */\n    tag_14:\n      sload(0x01)\n      dup2\n      jump\t// out\n        /* \"PES1UG22CS98_TASK5.sol\":1672:1829  function setTicketPrice(uint256 price) external onlyOwner {... */\n    tag_21:\n        /* \"PES1UG22CS98_TASK5.sol\":534:539  owner */\n      0x00\n      dup1\n      sload\n      swap1\n      0x0100\n      exp\n      swap1\n      div\n      0xffffffffffffffffffffffffffffffffffffffff\n      and\n        /* \"PES1UG22CS98_TASK5.sol\":520:539  msg.sender == owner */\n      0xffffffffffffffffffffffffffffffffffffffff\n      and\n        /* \"PES1UG22CS98_TASK5.sol\":520:530  msg.sender */\n      caller\n        /* \"PES1UG22CS98_TASK5.sol\":520:539  msg.sender == owner */\n      0xffffffffffffffffffffffffffffffffffffffff\n      and\n      eq\n        /* \"PES1UG22CS98_TASK5.sol\":512:577  require(msg.sender == owner, \"Only owner can call this function\") */\n      tag_53\n      jumpi\n      mload(0x40)\n      0x08c379a000000000000000000000000000000000000000000000000000000000\n      dup2\n      mstore\n      0x04\n      add\n      tag_54\n      swap1\n      tag_55\n      jump\t// in\n    tag_54:\n      mload(0x40)\n      dup1\n      swap2\n      sub\n      swap1\n      revert\n    tag_53:\n        /* \"PES1UG22CS98_TASK5.sol\":1757:1758  0 */\n      0x00\n        /* \"PES1UG22CS98_TASK5.sol\":1749:1754  price */\n      dup2\n        /* \"PES1UG22CS98_TASK5.sol\":1749:1758  price > 0 */\n      gt\n        /* \"PES1UG22CS98_TASK5.sol\":1741:1791  require(price > 0, \"Price must be greater than 0\") */\n      tag_57\n      jumpi\n      mload(0x40)\n      0x08c379a000000000000000000000000000000000000000000000000000000000\n      dup2\n      mstore\n      0x04\n      add\n      tag_58\n      swap1\n      tag_59\n      jump\t// in\n    tag_58:\n      mload(0x40)\n      dup1\n      swap2\n      sub\n      swap1\n      revert\n    tag_57:\n        /* \"PES1UG22CS98_TASK5.sol\":1816:1821  price */\n      dup1\n        /* \"PES1UG22CS98_TASK5.sol\":1802:1813  ticketPrice */\n      0x01\n        /* \"PES1UG22CS98_TASK5.sol\":1802:1821  ticketPrice = price */\n      dup2\n      swap1\n      sstore\n      pop\n        /* \"PES1UG22CS98_TASK5.sol\":1672:1829  function setTicketPrice(uint256 price) external onlyOwner {... */\n      pop\n      jump\t// out\n        /* \"PES1UG22CS98_TASK5.sol\":162:188  uint256 public totalSupply */\n    tag_24:\n      sload(0x02)\n      dup2\n      jump\t// out\n        /* \"PES1UG22CS98_TASK5.sol\":1445:1627  function withdrawFunds() external onlyOwner {... */\n    tag_28:\n        /* \"PES1UG22CS98_TASK5.sol\":534:539  owner */\n      0x00\n      dup1\n      sload\n      swap1\n      0x0100\n      exp\n      swap1\n      div\n      0xffffffffffffffffffffffffffffffffffffffff\n      and\n        /* \"PES1UG22CS98_TASK5.sol\":520:539  msg.sender == owner */\n      0xffffffffffffffffffffffffffffffffffffffff\n      and\n        /* \"PES1UG22CS98_TASK5.sol\":520:530  msg.sender */\n      caller\n        /* \"PES1UG22CS98_TASK5.sol\":520:539  msg.sender == owner */\n      0xffffffffffffffffffffffffffffffffffffffff\n      and\n      eq\n        /* \"PES1UG22CS98_TASK5.sol\":512:577  require(msg.sender == owner, \"Only owner can call this function\") */\n      tag_61\n      jumpi\n      mload(0x40)\n      0x08c379a000000000000000000000000000000000000000000000000000000000\n      dup2\n      mstore\n      0x04\n      add\n      tag_62\n      swap1\n      tag_55\n      jump\t// in\n    tag_62:\n      mload(0x40)\n      dup1\n      swap2\n      sub\n      swap1\n      revert\n    tag_61:\n        /* \"PES1UG22CS98_TASK5.sol\":1532:1533  0 */\n      0x00\n        /* \"PES1UG22CS98_TASK5.sol\":1508:1529  address(this).balance */\n      selfbalance\n        /* \"PES1UG22CS98_TASK5.sol\":1508:1533  address(this).balance > 0 */\n      gt\n        /* \"PES1UG22CS98_TASK5.sol\":1500:1571  require(address(this).balance > 0, \"No funds available for withdrawal\") */\n      tag_64\n      jumpi\n      mload(0x40)\n      0x08c379a000000000000000000000000000000000000000000000000000000000\n      dup2\n      mstore\n      0x04\n      add\n      tag_65\n      swap1\n      tag_66\n      jump\t// in\n    tag_65:\n      mload(0x40)\n      dup1\n      swap2\n      sub\n      swap1\n      revert\n    tag_64:\n        /* \"PES1UG22CS98_TASK5.sol\":1582:1587  owner */\n      0x00\n      dup1\n      sload\n      swap1\n      0x0100\n      exp\n      swap1\n      div\n      0xffffffffffffffffffffffffffffffffffffffff\n      and\n        /* \"PES1UG22CS98_TASK5.sol\":1582:1596  owner.transfer */\n      0xffffffffffffffffffffffffffffffffffffffff\n      and\n        /* \"PES1UG22CS98_TASK5.sol\":1582:1619  owner.transfer(address(this).balance) */\n      0x08fc\n        /* \"PES1UG22CS98_TASK5.sol\":1597:1618  address(this).balance */\n      selfbalance\n        /* \"PES1UG22CS98_TASK5.sol\":1582:1619  owner.transfer(address(this).balance) */\n      swap1\n      dup2\n      iszero\n      mul\n      swap1\n      mload(0x40)\n      0x00\n      mload(0x40)\n      dup1\n      dup4\n      sub\n      dup2\n      dup6\n      dup9\n      dup9\n      call\n      swap4\n      pop\n      pop\n      pop\n      pop\n      iszero\n      dup1\n      iszero\n      tag_68\n      jumpi\n      returndatasize\n      0x00\n      dup1\n      returndatacopy\n      revert(0x00, returndatasize)\n    tag_68:\n      pop\n        /* \"PES1UG22CS98_TASK5.sol\":1445:1627  function withdrawFunds() external onlyOwner {... */\n      jump\t// out\n        /* \"PES1UG22CS98_TASK5.sol\":641:1296  function reserveTicket(uint256 numTickets) external payable {... */\n    tag_31:\n        /* \"PES1UG22CS98_TASK5.sol\":733:734  0 */\n      0x00\n        /* \"PES1UG22CS98_TASK5.sol\":720:730  numTickets */\n      dup2\n        /* \"PES1UG22CS98_TASK5.sol\":720:734  numTickets > 0 */\n      gt\n        /* \"PES1UG22CS98_TASK5.sol\":712:779  require(numTickets > 0, \"Number of tickets must be greater than 0\") */\n      tag_70\n      jumpi\n      mload(0x40)\n      0x08c379a000000000000000000000000000000000000000000000000000000000\n      dup2\n      mstore\n      0x04\n      add\n      tag_71\n      swap1\n      tag_72\n      jump\t// in\n    tag_71:\n      mload(0x40)\n      dup1\n      swap2\n      sub\n      swap1\n      revert\n    tag_70:\n        /* \"PES1UG22CS98_TASK5.sol\":826:837  totalSupply */\n      sload(0x02)\n        /* \"PES1UG22CS98_TASK5.sol\":812:822  numTickets */\n      dup2\n        /* \"PES1UG22CS98_TASK5.sol\":798:809  ticketsSold */\n      sload(0x03)\n        /* \"PES1UG22CS98_TASK5.sol\":798:822  ticketsSold + numTickets */\n      tag_73\n      swap2\n      swap1\n      tag_74\n      jump\t// in\n    tag_73:\n        /* \"PES1UG22CS98_TASK5.sol\":798:837  ticketsSold + numTickets <= totalSupply */\n      gt\n      iszero\n        /* \"PES1UG22CS98_TASK5.sol\":790:865  require(ticketsSold + numTickets <= totalSupply, \"Not enough tickets left\") */\n      tag_75\n      jumpi\n      mload(0x40)\n      0x08c379a000000000000000000000000000000000000000000000000000000000\n      dup2\n      mstore\n      0x04\n      add\n      tag_76\n      swap1\n      tag_77\n      jump\t// in\n    tag_76:\n      mload(0x40)\n      dup1\n      swap2\n      sub\n      swap1\n      revert\n    tag_75:\n        /* \"PES1UG22CS98_TASK5.sol\":939:949  numTickets */\n      dup1\n        /* \"PES1UG22CS98_TASK5.sol\":925:936  ticketPrice */\n      sload(0x01)\n        /* \"PES1UG22CS98_TASK5.sol\":925:949  ticketPrice * numTickets */\n      mul\n        /* \"PES1UG22CS98_TASK5.sol\":912:921  msg.value */\n      callvalue\n        /* \"PES1UG22CS98_TASK5.sol\":912:949  msg.value >= ticketPrice * numTickets */\n      lt\n      iszero\n        /* \"PES1UG22CS98_TASK5.sol\":904:977  require(msg.value >= ticketPrice * numTickets, \"Insufficient funds sent\") */\n      tag_78\n      jumpi\n      mload(0x40)\n      0x08c379a000000000000000000000000000000000000000000000000000000000\n      dup2\n      mstore\n      0x04\n      add\n      tag_79\n      swap1\n      tag_80\n      jump\t// in\n    tag_79:\n      mload(0x40)\n      dup1\n      swap2\n      sub\n      swap1\n      revert\n    tag_78:\n        /* \"PES1UG22CS98_TASK5.sol\":1033:1043  numTickets */\n      dup1\n        /* \"PES1UG22CS98_TASK5.sol\":1002:1017  ticketsReserved */\n      0x04\n        /* \"PES1UG22CS98_TASK5.sol\":1002:1029  ticketsReserved[msg.sender] */\n      0x00\n        /* \"PES1UG22CS98_TASK5.sol\":1018:1028  msg.sender */\n      caller\n        /* \"PES1UG22CS98_TASK5.sol\":1002:1029  ticketsReserved[msg.sender] */\n      0xffffffffffffffffffffffffffffffffffffffff\n      and\n      0xffffffffffffffffffffffffffffffffffffffff\n      and\n      dup2\n      mstore\n      0x20\n      add\n      swap1\n      dup2\n      mstore\n      0x20\n      add\n      0x00\n      keccak256\n      0x00\n        /* \"PES1UG22CS98_TASK5.sol\":1002:1043  ticketsReserved[msg.sender] += numTickets */\n      dup3\n      dup3\n      sload\n      tag_81\n      swap2\n      swap1\n      tag_74\n      jump\t// in\n    tag_81:\n      swap3\n      pop\n      pop\n      dup2\n      swap1\n      sstore\n      pop\n        /* \"PES1UG22CS98_TASK5.sol\":1069:1079  numTickets */\n      dup1\n        /* \"PES1UG22CS98_TASK5.sol\":1054:1065  ticketsSold */\n      0x03\n      0x00\n        /* \"PES1UG22CS98_TASK5.sol\":1054:1079  ticketsSold += numTickets */\n      dup3\n      dup3\n      sload\n      tag_82\n      swap2\n      swap1\n      tag_74\n      jump\t// in\n    tag_82:\n      swap3\n      pop\n      pop\n      dup2\n      swap1\n      sstore\n      pop\n        /* \"PES1UG22CS98_TASK5.sol\":1129:1146  uint256 totalCost */\n      0x00\n        /* \"PES1UG22CS98_TASK5.sol\":1163:1173  numTickets */\n      dup2\n        /* \"PES1UG22CS98_TASK5.sol\":1149:1160  ticketPrice */\n      sload(0x01)\n        /* \"PES1UG22CS98_TASK5.sol\":1149:1173  ticketPrice * numTickets */\n      tag_83\n      swap2\n      swap1\n      tag_84\n      jump\t// in\n    tag_83:\n        /* \"PES1UG22CS98_TASK5.sol\":1129:1173  uint256 totalCost = ticketPrice * numTickets */\n      swap1\n      pop\n        /* \"PES1UG22CS98_TASK5.sol\":1200:1209  totalCost */\n      dup1\n        /* \"PES1UG22CS98_TASK5.sol\":1188:1197  msg.value */\n      callvalue\n        /* \"PES1UG22CS98_TASK5.sol\":1188:1209  msg.value > totalCost */\n      gt\n        /* \"PES1UG22CS98_TASK5.sol\":1184:1289  if (msg.value > totalCost) {... */\n      iszero\n      tag_85\n      jumpi\n        /* \"PES1UG22CS98_TASK5.sol\":1234:1244  msg.sender */\n      caller\n        /* \"PES1UG22CS98_TASK5.sol\":1226:1254  payable(msg.sender).transfer */\n      0xffffffffffffffffffffffffffffffffffffffff\n      and\n        /* \"PES1UG22CS98_TASK5.sol\":1226:1277  payable(msg.sender).transfer(msg.value - totalCost) */\n      0x08fc\n        /* \"PES1UG22CS98_TASK5.sol\":1267:1276  totalCost */\n      dup3\n        /* \"PES1UG22CS98_TASK5.sol\":1255:1264  msg.value */\n      callvalue\n        /* \"PES1UG22CS98_TASK5.sol\":1255:1276  msg.value - totalCost */\n      tag_86\n      swap2\n      swap1\n      tag_87\n      jump\t// in\n    tag_86:\n        /* \"PES1UG22CS98_TASK5.sol\":1226:1277  payable(msg.sender).transfer(msg.value - totalCost) */\n      swap1\n      dup2\n      iszero\n      mul\n      swap1\n      mload(0x40)\n      0x00\n      mload(0x40)\n      dup1\n      dup4\n      sub\n      dup2\n      dup6\n      dup9\n      dup9\n      call\n      swap4\n      pop\n      pop\n      pop\n      pop\n      iszero\n      dup1\n      iszero\n      tag_89\n      jumpi\n      returndatasize\n      0x00\n      dup1\n      returndatacopy\n      revert(0x00, returndatasize)\n    tag_89:\n      pop\n        /* \"PES1UG22CS98_TASK5.sol\":1184:1289  if (msg.value > totalCost) {... */\n    tag_85:\n        /* \"PES1UG22CS98_TASK5.sol\":701:1296  {... */\n      pop\n        /* \"PES1UG22CS98_TASK5.sol\":641:1296  function reserveTicket(uint256 numTickets) external payable {... */\n      pop\n      jump\t// out\n        /* \"PES1UG22CS98_TASK5.sol\":230:280  mapping(address => uint256) public ticketsReserved */\n    tag_36:\n      mstore(0x20, 0x04)\n      dup1\n      0x00\n      mstore\n      keccak256(0x00, 0x40)\n      0x00\n      swap2\n      pop\n      swap1\n      pop\n      sload\n      dup2\n      jump\t// out\n        /* \"PES1UG22CS98_TASK5.sol\":94:122  address payable public owner */\n    tag_40:\n      0x00\n      dup1\n      sload\n      swap1\n      0x0100\n      exp\n      swap1\n      div\n      0xffffffffffffffffffffffffffffffffffffffff\n      and\n      dup2\n      jump\t// out\n        /* \"PES1UG22CS98_TASK5.sol\":196:222  uint256 public ticketsSold */\n    tag_45:\n      sload(0x03)\n      dup2\n      jump\t// out\n        /* \"PES1UG22CS98_TASK5.sol\":1310:1431  function getTicketsReserved(address user) external view returns (uint256) {... */\n    tag_50:\n        /* \"PES1UG22CS98_TASK5.sol\":1375:1382  uint256 */\n      0x00\n        /* \"PES1UG22CS98_TASK5.sol\":1402:1417  ticketsReserved */\n      0x04\n        /* \"PES1UG22CS98_TASK5.sol\":1402:1423  ticketsReserved[user] */\n      0x00\n        /* \"PES1UG22CS98_TASK5.sol\":1418:1422  user */\n      dup4\n        /* \"PES1UG22CS98_TASK5.sol\":1402:1423  ticketsReserved[user] */\n      0xffffffffffffffffffffffffffffffffffffffff\n      and\n      0xffffffffffffffffffffffffffffffffffffffff\n      and\n      dup2\n      mstore\n      0x20\n      add\n      swap1\n      dup2\n      mstore\n      0x20\n      add\n      0x00\n      keccak256\n      sload\n        /* \"PES1UG22CS98_TASK5.sol\":1395:1423  return ticketsReserved[user] */\n      swap1\n      pop\n        /* \"PES1UG22CS98_TASK5.sol\":1310:1431  function getTicketsReserved(address user) external view returns (uint256) {... */\n      swap2\n      swap1\n      pop\n      jump\t// out\n        /* \"#utility.yul\":7:84   */\n    tag_91:\n        /* \"#utility.yul\":44:51   */\n      0x00\n        /* \"#utility.yul\":73:78   */\n      dup2\n        /* \"#utility.yul\":62:78   */\n      swap1\n      pop\n        /* \"#utility.yul\":7:84   */\n      swap2\n      swap1\n      pop\n      jump\t// out\n        /* \"#utility.yul\":90:208   */\n    tag_92:\n        /* \"#utility.yul\":177:201   */\n      tag_121\n        /* \"#utility.yul\":195:200   */\n      dup2\n        /* \"#utility.yul\":177:201   */\n      tag_91\n      jump\t// in\n    tag_121:\n        /* \"#utility.yul\":172:175   */\n      dup3\n        /* \"#utility.yul\":165:202   */\n      mstore\n        /* \"#utility.yul\":90:208   */\n      pop\n      pop\n      jump\t// out\n        /* \"#utility.yul\":214:436   */\n    tag_16:\n        /* \"#utility.yul\":307:311   */\n      0x00\n        /* \"#utility.yul\":345:347   */\n      0x20\n        /* \"#utility.yul\":334:343   */\n      dup3\n        /* \"#utility.yul\":330:348   */\n      add\n        /* \"#utility.yul\":322:348   */\n      swap1\n      pop\n        /* \"#utility.yul\":358:429   */\n      tag_123\n        /* \"#utility.yul\":426:427   */\n      0x00\n        /* \"#utility.yul\":415:424   */\n      dup4\n        /* \"#utility.yul\":411:428   */\n      add\n        /* \"#utility.yul\":402:408   */\n      dup5\n        /* \"#utility.yul\":358:429   */\n      tag_92\n      jump\t// in\n    tag_123:\n        /* \"#utility.yul\":214:436   */\n      swap3\n      swap2\n      pop\n      pop\n      jump\t// out\n        /* \"#utility.yul\":523:640   */\n    tag_94:\n        /* \"#utility.yul\":632:633   */\n      0x00\n        /* \"#utility.yul\":629:630   */\n      dup1\n        /* \"#utility.yul\":622:634   */\n      revert\n        /* \"#utility.yul\":769:891   */\n    tag_96:\n        /* \"#utility.yul\":842:866   */\n      tag_128\n        /* \"#utility.yul\":860:865   */\n      dup2\n        /* \"#utility.yul\":842:866   */\n      tag_91\n      jump\t// in\n    tag_128:\n        /* \"#utility.yul\":835:840   */\n      dup2\n        /* \"#utility.yul\":832:867   */\n      eq\n        /* \"#utility.yul\":822:885   */\n      tag_129\n      jumpi\n        /* \"#utility.yul\":881:882   */\n      0x00\n        /* \"#utility.yul\":878:879   */\n      dup1\n        /* \"#utility.yul\":871:883   */\n      revert\n        /* \"#utility.yul\":822:885   */\n    tag_129:\n        /* \"#utility.yul\":769:891   */\n      pop\n      jump\t// out\n        /* \"#utility.yul\":897:1036   */\n    tag_97:\n        /* \"#utility.yul\":943:948   */\n      0x00\n        /* \"#utility.yul\":981:987   */\n      dup2\n        /* \"#utility.yul\":968:988   */\n      calldataload\n        /* \"#utility.yul\":959:988   */\n      swap1\n      pop\n        /* \"#utility.yul\":997:1030   */\n      tag_131\n        /* \"#utility.yul\":1024:1029   */\n      dup2\n        /* \"#utility.yul\":997:1030   */\n      tag_96\n      jump\t// in\n    tag_131:\n        /* \"#utility.yul\":897:1036   */\n      swap3\n      swap2\n      pop\n      pop\n      jump\t// out\n        /* \"#utility.yul\":1042:1371   */\n    tag_20:\n        /* \"#utility.yul\":1101:1107   */\n      0x00\n        /* \"#utility.yul\":1150:1152   */\n      0x20\n        /* \"#utility.yul\":1138:1147   */\n      dup3\n        /* \"#utility.yul\":1129:1136   */\n      dup5\n        /* \"#utility.yul\":1125:1148   */\n      sub\n        /* \"#utility.yul\":1121:1153   */\n      slt\n        /* \"#utility.yul\":1118:1237   */\n      iszero\n      tag_133\n      jumpi\n        /* \"#utility.yul\":1156:1235   */\n      tag_134\n      tag_94\n      jump\t// in\n    tag_134:\n        /* \"#utility.yul\":1118:1237   */\n    tag_133:\n        /* \"#utility.yul\":1276:1277   */\n      0x00\n        /* \"#utility.yul\":1301:1354   */\n      tag_135\n        /* \"#utility.yul\":1346:1353   */\n      dup5\n        /* \"#utility.yul\":1337:1343   */\n      dup3\n        /* \"#utility.yul\":1326:1335   */\n      dup6\n        /* \"#utility.yul\":1322:1344   */\n      add\n        /* \"#utility.yul\":1301:1354   */\n      tag_97\n      jump\t// in\n    tag_135:\n        /* \"#utility.yul\":1291:1354   */\n      swap2\n      pop\n        /* \"#utility.yul\":1247:1364   */\n      pop\n        /* \"#utility.yul\":1042:1371   */\n      swap3\n      swap2\n      pop\n      pop\n      jump\t// out\n        /* \"#utility.yul\":1377:1503   */\n    tag_98:\n        /* \"#utility.yul\":1414:1421   */\n      0x00\n        /* \"#utility.yul\":1454:1496   */\n      0xffffffffffffffffffffffffffffffffffffffff\n        /* \"#utility.yul\":1447:1452   */\n      dup3\n        /* \"#utility.yul\":1443:1497   */\n      and\n        /* \"#utility.yul\":1432:1497   */\n      swap1\n      pop\n        /* \"#utility.yul\":1377:1503   */\n      swap2\n      swap1\n      pop\n      jump\t// out\n        /* \"#utility.yul\":1509:1605   */\n    tag_99:\n        /* \"#utility.yul\":1546:1553   */\n      0x00\n        /* \"#utility.yul\":1575:1599   */\n      tag_138\n        /* \"#utility.yul\":1593:1598   */\n      dup3\n        /* \"#utility.yul\":1575:1599   */\n      tag_98\n      jump\t// in\n    tag_138:\n        /* \"#utility.yul\":1564:1599   */\n      swap1\n      pop\n        /* \"#utility.yul\":1509:1605   */\n      swap2\n      swap1\n      pop\n      jump\t// out\n        /* \"#utility.yul\":1611:1733   */\n    tag_100:\n        /* \"#utility.yul\":1684:1708   */\n      tag_140\n        /* \"#utility.yul\":1702:1707   */\n      dup2\n        /* \"#utility.yul\":1684:1708   */\n      tag_99\n      jump\t// in\n    tag_140:\n        /* \"#utility.yul\":1677:1682   */\n      dup2\n        /* \"#utility.yul\":1674:1709   */\n      eq\n        /* \"#utility.yul\":1664:1727   */\n      tag_141\n      jumpi\n        /* \"#utility.yul\":1723:1724   */\n      0x00\n        /* \"#utility.yul\":1720:1721   */\n      dup1\n        /* \"#utility.yul\":1713:1725   */\n      revert\n        /* \"#utility.yul\":1664:1727   */\n    tag_141:\n        /* \"#utility.yul\":1611:1733   */\n      pop\n      jump\t// out\n        /* \"#utility.yul\":1739:1878   */\n    tag_101:\n        /* \"#utility.yul\":1785:1790   */\n      0x00\n        /* \"#utility.yul\":1823:1829   */\n      dup2\n        /* \"#utility.yul\":1810:1830   */\n      calldataload\n        /* \"#utility.yul\":1801:1830   */\n      swap1\n      pop\n        /* \"#utility.yul\":1839:1872   */\n      tag_143\n        /* \"#utility.yul\":1866:1871   */\n      dup2\n        /* \"#utility.yul\":1839:1872   */\n      tag_100\n      jump\t// in\n    tag_143:\n        /* \"#utility.yul\":1739:1878   */\n      swap3\n      swap2\n      pop\n      pop\n      jump\t// out\n        /* \"#utility.yul\":1884:2213   */\n    tag_35:\n        /* \"#utility.yul\":1943:1949   */\n      0x00\n        /* \"#utility.yul\":1992:1994   */\n      0x20\n        /* \"#utility.yul\":1980:1989   */\n      dup3\n        /* \"#utility.yul\":1971:1978   */\n      dup5\n        /* \"#utility.yul\":1967:1990   */\n      sub\n        /* \"#utility.yul\":1963:1995   */\n      slt\n        /* \"#utility.yul\":1960:2079   */\n      iszero\n      tag_145\n      jumpi\n        /* \"#utility.yul\":1998:2077   */\n      tag_146\n      tag_94\n      jump\t// in\n    tag_146:\n        /* \"#utility.yul\":1960:2079   */\n    tag_145:\n        /* \"#utility.yul\":2118:2119   */\n      0x00\n        /* \"#utility.yul\":2143:2196   */\n      tag_147\n        /* \"#utility.yul\":2188:2195   */\n      dup5\n        /* \"#utility.yul\":2179:2185   */\n      dup3\n        /* \"#utility.yul\":2168:2177   */\n      dup6\n        /* \"#utility.yul\":2164:2186   */\n      add\n        /* \"#utility.yul\":2143:2196   */\n      tag_101\n      jump\t// in\n    tag_147:\n        /* \"#utility.yul\":2133:2196   */\n      swap2\n      pop\n        /* \"#utility.yul\":2089:2206   */\n      pop\n        /* \"#utility.yul\":1884:2213   */\n      swap3\n      swap2\n      pop\n      pop\n      jump\t// out\n        /* \"#utility.yul\":2219:2323   */\n    tag_102:\n        /* \"#utility.yul\":2264:2271   */\n      0x00\n        /* \"#utility.yul\":2293:2317   */\n      tag_149\n        /* \"#utility.yul\":2311:2316   */\n      dup3\n        /* \"#utility.yul\":2293:2317   */\n      tag_98\n      jump\t// in\n    tag_149:\n        /* \"#utility.yul\":2282:2317   */\n      swap1\n      pop\n        /* \"#utility.yul\":2219:2323   */\n      swap2\n      swap1\n      pop\n      jump\t// out\n        /* \"#utility.yul\":2329:2471   */\n    tag_103:\n        /* \"#utility.yul\":2432:2464   */\n      tag_151\n        /* \"#utility.yul\":2458:2463   */\n      dup2\n        /* \"#utility.yul\":2432:2464   */\n      tag_102\n      jump\t// in\n    tag_151:\n        /* \"#utility.yul\":2427:2430   */\n      dup3\n        /* \"#utility.yul\":2420:2465   */\n      mstore\n        /* \"#utility.yul\":2329:2471   */\n      pop\n      pop\n      jump\t// out\n        /* \"#utility.yul\":2477:2731   */\n    tag_42:\n        /* \"#utility.yul\":2586:2590   */\n      0x00\n        /* \"#utility.yul\":2624:2626   */\n      0x20\n        /* \"#utility.yul\":2613:2622   */\n      dup3\n        /* \"#utility.yul\":2609:2627   */\n      add\n        /* \"#utility.yul\":2601:2627   */\n      swap1\n      pop\n        /* \"#utility.yul\":2637:2724   */\n      tag_153\n        /* \"#utility.yul\":2721:2722   */\n      0x00\n        /* \"#utility.yul\":2710:2719   */\n      dup4\n        /* \"#utility.yul\":2706:2723   */\n      add\n        /* \"#utility.yul\":2697:2703   */\n      dup5\n        /* \"#utility.yul\":2637:2724   */\n      tag_103\n      jump\t// in\n    tag_153:\n        /* \"#utility.yul\":2477:2731   */\n      swap3\n      swap2\n      pop\n      pop\n      jump\t// out\n        /* \"#utility.yul\":2737:2906   */\n    tag_104:\n        /* \"#utility.yul\":2821:2832   */\n      0x00\n        /* \"#utility.yul\":2855:2861   */\n      dup3\n        /* \"#utility.yul\":2850:2853   */\n      dup3\n        /* \"#utility.yul\":2843:2862   */\n      mstore\n        /* \"#utility.yul\":2895:2899   */\n      0x20\n        /* \"#utility.yul\":2890:2893   */\n      dup3\n        /* \"#utility.yul\":2886:2900   */\n      add\n        /* \"#utility.yul\":2871:2900   */\n      swap1\n      pop\n        /* \"#utility.yul\":2737:2906   */\n      swap3\n      swap2\n      pop\n      pop\n      jump\t// out\n        /* \"#utility.yul\":2912:3132   */\n    tag_105:\n        /* \"#utility.yul\":3052:3086   */\n      0x4f6e6c79206f776e65722063616e2063616c6c20746869732066756e6374696f\n        /* \"#utility.yul\":3048:3049   */\n      0x00\n        /* \"#utility.yul\":3040:3046   */\n      dup3\n        /* \"#utility.yul\":3036:3050   */\n      add\n        /* \"#utility.yul\":3029:3087   */\n      mstore\n        /* \"#utility.yul\":3121:3124   */\n      0x6e00000000000000000000000000000000000000000000000000000000000000\n        /* \"#utility.yul\":3116:3118   */\n      0x20\n        /* \"#utility.yul\":3108:3114   */\n      dup3\n        /* \"#utility.yul\":3104:3119   */\n      add\n        /* \"#utility.yul\":3097:3125   */\n      mstore\n        /* \"#utility.yul\":2912:3132   */\n      pop\n      jump\t// out\n        /* \"#utility.yul\":3138:3504   */\n    tag_106:\n        /* \"#utility.yul\":3280:3283   */\n      0x00\n        /* \"#utility.yul\":3301:3368   */\n      tag_157\n        /* \"#utility.yul\":3365:3367   */\n      0x21\n        /* \"#utility.yul\":3360:3363   */\n      dup4\n        /* \"#utility.yul\":3301:3368   */\n      tag_104\n      jump\t// in\n    tag_157:\n        /* \"#utility.yul\":3294:3368   */\n      swap2\n      pop\n        /* \"#utility.yul\":3377:3470   */\n      tag_158\n        /* \"#utility.yul\":3466:3469   */\n      dup3\n        /* \"#utility.yul\":3377:3470   */\n      tag_105\n      jump\t// in\n    tag_158:\n        /* \"#utility.yul\":3495:3497   */\n      0x40\n        /* \"#utility.yul\":3490:3493   */\n      dup3\n        /* \"#utility.yul\":3486:3498   */\n      add\n        /* \"#utility.yul\":3479:3498   */\n      swap1\n      pop\n        /* \"#utility.yul\":3138:3504   */\n      swap2\n      swap1\n      pop\n      jump\t// out\n        /* \"#utility.yul\":3510:3929   */\n    tag_55:\n        /* \"#utility.yul\":3676:3680   */\n      0x00\n        /* \"#utility.yul\":3714:3716   */\n      0x20\n        /* \"#utility.yul\":3703:3712   */\n      dup3\n        /* \"#utility.yul\":3699:3717   */\n      add\n        /* \"#utility.yul\":3691:3717   */\n      swap1\n      pop\n        /* \"#utility.yul\":3763:3772   */\n      dup2\n        /* \"#utility.yul\":3757:3761   */\n      dup2\n        /* \"#utility.yul\":3753:3773   */\n      sub\n        /* \"#utility.yul\":3749:3750   */\n      0x00\n        /* \"#utility.yul\":3738:3747   */\n      dup4\n        /* \"#utility.yul\":3734:3751   */\n      add\n        /* \"#utility.yul\":3727:3774   */\n      mstore\n        /* \"#utility.yul\":3791:3922   */\n      tag_160\n        /* \"#utility.yul\":3917:3921   */\n      dup2\n        /* \"#utility.yul\":3791:3922   */\n      tag_106\n      jump\t// in\n    tag_160:\n        /* \"#utility.yul\":3783:3922   */\n      swap1\n      pop\n        /* \"#utility.yul\":3510:3929   */\n      swap2\n      swap1\n      pop\n      jump\t// out\n        /* \"#utility.yul\":3935:4113   */\n    tag_107:\n        /* \"#utility.yul\":4075:4105   */\n      0x5072696365206d7573742062652067726561746572207468616e203000000000\n        /* \"#utility.yul\":4071:4072   */\n      0x00\n        /* \"#utility.yul\":4063:4069   */\n      dup3\n        /* \"#utility.yul\":4059:4073   */\n      add\n        /* \"#utility.yul\":4052:4106   */\n      mstore\n        /* \"#utility.yul\":3935:4113   */\n      pop\n      jump\t// out\n        /* \"#utility.yul\":4119:4485   */\n    tag_108:\n        /* \"#utility.yul\":4261:4264   */\n      0x00\n        /* \"#utility.yul\":4282:4349   */\n      tag_163\n        /* \"#utility.yul\":4346:4348   */\n      0x1c\n        /* \"#utility.yul\":4341:4344   */\n      dup4\n        /* \"#utility.yul\":4282:4349   */\n      tag_104\n      jump\t// in\n    tag_163:\n        /* \"#utility.yul\":4275:4349   */\n      swap2\n      pop\n        /* \"#utility.yul\":4358:4451   */\n      tag_164\n        /* \"#utility.yul\":4447:4450   */\n      dup3\n        /* \"#utility.yul\":4358:4451   */\n      tag_107\n      jump\t// in\n    tag_164:\n        /* \"#utility.yul\":4476:4478   */\n      0x20\n        /* \"#utility.yul\":4471:4474   */\n      dup3\n        /* \"#utility.yul\":4467:4479   */\n      add\n        /* \"#utility.yul\":4460:4479   */\n      swap1\n      pop\n        /* \"#utility.yul\":4119:4485   */\n      swap2\n      swap1\n      pop\n      jump\t// out\n        /* \"#utility.yul\":4491:4910   */\n    tag_59:\n        /* \"#utility.yul\":4657:4661   */\n      0x00\n        /* \"#utility.yul\":4695:4697   */\n      0x20\n        /* \"#utility.yul\":4684:4693   */\n      dup3\n        /* \"#utility.yul\":4680:4698   */\n      add\n        /* \"#utility.yul\":4672:4698   */\n      swap1\n      pop\n        /* \"#utility.yul\":4744:4753   */\n      dup2\n        /* \"#utility.yul\":4738:4742   */\n      dup2\n        /* \"#utility.yul\":4734:4754   */\n      sub\n        /* \"#utility.yul\":4730:4731   */\n      0x00\n        /* \"#utility.yul\":4719:4728   */\n      dup4\n        /* \"#utility.yul\":4715:4732   */\n      add\n        /* \"#utility.yul\":4708:4755   */\n      mstore\n        /* \"#utility.yul\":4772:4903   */\n      tag_166\n        /* \"#utility.yul\":4898:4902   */\n      dup2\n        /* \"#utility.yul\":4772:4903   */\n      tag_108\n      jump\t// in\n    tag_166:\n        /* \"#utility.yul\":4764:4903   */\n      swap1\n      pop\n        /* \"#utility.yul\":4491:4910   */\n      swap2\n      swap1\n      pop\n      jump\t// out\n        /* \"#utility.yul\":4916:5136   */\n    tag_109:\n        /* \"#utility.yul\":5056:5090   */\n      0x4e6f2066756e647320617661696c61626c6520666f7220776974686472617761\n        /* \"#utility.yul\":5052:5053   */\n      0x00\n        /* \"#utility.yul\":5044:5050   */\n      dup3\n        /* \"#utility.yul\":5040:5054   */\n      add\n        /* \"#utility.yul\":5033:5091   */\n      mstore\n        /* \"#utility.yul\":5125:5128   */\n      0x6c00000000000000000000000000000000000000000000000000000000000000\n        /* \"#utility.yul\":5120:5122   */\n      0x20\n        /* \"#utility.yul\":5112:5118   */\n      dup3\n        /* \"#utility.yul\":5108:5123   */\n      add\n        /* \"#utility.yul\":5101:5129   */\n      mstore\n        /* \"#utility.yul\":4916:5136   */\n      pop\n      jump\t// out\n        /* \"#utility.yul\":5142:5508   */\n    tag_110:\n        /* \"#utility.yul\":5284:5287   */\n      0x00\n        /* \"#utility.yul\":5305:5372   */\n      tag_169\n        /* \"#utility.yul\":5369:5371   */\n      0x21\n        /* \"#utility.yul\":5364:5367   */\n      dup4\n        /* \"#utility.yul\":5305:5372   */\n      tag_104\n      jump\t// in\n    tag_169:\n        /* \"#utility.yul\":5298:5372   */\n      swap2\n      pop\n        /* \"#utility.yul\":5381:5474   */\n      tag_170\n        /* \"#utility.yul\":5470:5473   */\n      dup3\n        /* \"#utility.yul\":5381:5474   */\n      tag_109\n      jump\t// in\n    tag_170:\n        /* \"#utility.yul\":5499:5501   */\n      0x40\n        /* \"#utility.yul\":5494:5497   */\n      dup3\n        /* \"#utility.yul\":5490:5502   */\n      add\n        /* \"#utility.yul\":5483:5502   */\n      swap1\n      pop\n        /* \"#utility.yul\":5142:5508   */\n      swap2\n      swap1\n      pop\n      jump\t// out\n        /* \"#utility.yul\":5514:5933   */\n    tag_66:\n        /* \"#utility.yul\":5680:5684   */\n      0x00\n        /* \"#utility.yul\":5718:5720   */\n      0x20\n        /* \"#utility.yul\":5707:5716   */\n      dup3\n        /* \"#utility.yul\":5703:5721   */\n      add\n        /* \"#utility.yul\":5695:5721   */\n      swap1\n      pop\n        /* \"#utility.yul\":5767:5776   */\n      dup2\n        /* \"#utility.yul\":5761:5765   */\n      dup2\n        /* \"#utility.yul\":5757:5777   */\n      sub\n        /* \"#utility.yul\":5753:5754   */\n      0x00\n        /* \"#utility.yul\":5742:5751   */\n      dup4\n        /* \"#utility.yul\":5738:5755   */\n      add\n        /* \"#utility.yul\":5731:5778   */\n      mstore\n        /* \"#utility.yul\":5795:5926   */\n      tag_172\n        /* \"#utility.yul\":5921:5925   */\n      dup2\n        /* \"#utility.yul\":5795:5926   */\n      tag_110\n      jump\t// in\n    tag_172:\n        /* \"#utility.yul\":5787:5926   */\n      swap1\n      pop\n        /* \"#utility.yul\":5514:5933   */\n      swap2\n      swap1\n      pop\n      jump\t// out\n        /* \"#utility.yul\":5939:6166   */\n    tag_111:\n        /* \"#utility.yul\":6079:6113   */\n      0x4e756d626572206f66207469636b657473206d75737420626520677265617465\n        /* \"#utility.yul\":6075:6076   */\n      0x00\n        /* \"#utility.yul\":6067:6073   */\n      dup3\n        /* \"#utility.yul\":6063:6077   */\n      add\n        /* \"#utility.yul\":6056:6114   */\n      mstore\n        /* \"#utility.yul\":6148:6158   */\n      0x72207468616e2030000000000000000000000000000000000000000000000000\n        /* \"#utility.yul\":6143:6145   */\n      0x20\n        /* \"#utility.yul\":6135:6141   */\n      dup3\n        /* \"#utility.yul\":6131:6146   */\n      add\n        /* \"#utility.yul\":6124:6159   */\n      mstore\n        /* \"#utility.yul\":5939:6166   */\n      pop\n      jump\t// out\n        /* \"#utility.yul\":6172:6538   */\n    tag_112:\n        /* \"#utility.yul\":6314:6317   */\n      0x00\n        /* \"#utility.yul\":6335:6402   */\n      tag_175\n        /* \"#utility.yul\":6399:6401   */\n      0x28\n        /* \"#utility.yul\":6394:6397   */\n      dup4\n        /* \"#utility.yul\":6335:6402   */\n      tag_104\n      jump\t// in\n    tag_175:\n        /* \"#utility.yul\":6328:6402   */\n      swap2\n      pop\n        /* \"#utility.yul\":6411:6504   */\n      tag_176\n        /* \"#utility.yul\":6500:6503   */\n      dup3\n        /* \"#utility.yul\":6411:6504   */\n      tag_111\n      jump\t// in\n    tag_176:\n        /* \"#utility.yul\":6529:6531   */\n      0x40\n        /* \"#utility.yul\":6524:6527   */\n      dup3\n        /* \"#utility.yul\":6520:6532   */\n      add\n        /* \"#utility.yul\":6513:6532   */\n      swap1\n      pop\n        /* \"#utility.yul\":6172:6538   */\n      swap2\n      swap1\n      pop\n      jump\t// out\n        /* \"#utility.yul\":6544:6963   */\n    tag_72:\n        /* \"#utility.yul\":6710:6714   */\n      0x00\n        /* \"#utility.yul\":6748:6750   */\n      0x20\n        /* \"#utility.yul\":6737:6746   */\n      dup3\n        /* \"#utility.yul\":6733:6751   */\n      add\n        /* \"#utility.yul\":6725:6751   */\n      swap1\n      pop\n        /* \"#utility.yul\":6797:6806   */\n      dup2\n        /* \"#utility.yul\":6791:6795   */\n      dup2\n        /* \"#utility.yul\":6787:6807   */\n      sub\n        /* \"#utility.yul\":6783:6784   */\n      0x00\n        /* \"#utility.yul\":6772:6781   */\n      dup4\n        /* \"#utility.yul\":6768:6785   */\n      add\n        /* \"#utility.yul\":6761:6808   */\n      mstore\n        /* \"#utility.yul\":6825:6956   */\n      tag_178\n        /* \"#utility.yul\":6951:6955   */\n      dup2\n        /* \"#utility.yul\":6825:6956   */\n      tag_112\n      jump\t// in\n    tag_178:\n        /* \"#utility.yul\":6817:6956   */\n      swap1\n      pop\n        /* \"#utility.yul\":6544:6963   */\n      swap2\n      swap1\n      pop\n      jump\t// out\n        /* \"#utility.yul\":6969:7149   */\n    tag_113:\n        /* \"#utility.yul\":7017:7094   */\n      0x4e487b7100000000000000000000000000000000000000000000000000000000\n        /* \"#utility.yul\":7014:7015   */\n      0x00\n        /* \"#utility.yul\":7007:7095   */\n      mstore\n        /* \"#utility.yul\":7114:7118   */\n      0x11\n        /* \"#utility.yul\":7111:7112   */\n      0x04\n        /* \"#utility.yul\":7104:7119   */\n      mstore\n        /* \"#utility.yul\":7138:7142   */\n      0x24\n        /* \"#utility.yul\":7135:7136   */\n      0x00\n        /* \"#utility.yul\":7128:7143   */\n      revert\n        /* \"#utility.yul\":7155:7346   */\n    tag_74:\n        /* \"#utility.yul\":7195:7198   */\n      0x00\n        /* \"#utility.yul\":7214:7234   */\n      tag_181\n        /* \"#utility.yul\":7232:7233   */\n      dup3\n        /* \"#utility.yul\":7214:7234   */\n      tag_91\n      jump\t// in\n    tag_181:\n        /* \"#utility.yul\":7209:7234   */\n      swap2\n      pop\n        /* \"#utility.yul\":7248:7268   */\n      tag_182\n        /* \"#utility.yul\":7266:7267   */\n      dup4\n        /* \"#utility.yul\":7248:7268   */\n      tag_91\n      jump\t// in\n    tag_182:\n        /* \"#utility.yul\":7243:7268   */\n      swap3\n      pop\n        /* \"#utility.yul\":7291:7292   */\n      dup3\n        /* \"#utility.yul\":7288:7289   */\n      dup3\n        /* \"#utility.yul\":7284:7293   */\n      add\n        /* \"#utility.yul\":7277:7293   */\n      swap1\n      pop\n        /* \"#utility.yul\":7312:7315   */\n      dup1\n        /* \"#utility.yul\":7309:7310   */\n      dup3\n        /* \"#utility.yul\":7306:7316   */\n      gt\n        /* \"#utility.yul\":7303:7339   */\n      iszero\n      tag_183\n      jumpi\n        /* \"#utility.yul\":7319:7337   */\n      tag_184\n      tag_113\n      jump\t// in\n    tag_184:\n        /* \"#utility.yul\":7303:7339   */\n    tag_183:\n        /* \"#utility.yul\":7155:7346   */\n      swap3\n      swap2\n      pop\n      pop\n      jump\t// out\n        /* \"#utility.yul\":7352:7525   */\n    tag_114:\n        /* \"#utility.yul\":7492:7517   */\n      0x4e6f7420656e6f756768207469636b657473206c656674000000000000000000\n        /* \"#utility.yul\":7488:7489   */\n      0x00\n        /* \"#utility.yul\":7480:7486   */\n      dup3\n        /* \"#utility.yul\":7476:7490   */\n      add\n        /* \"#utility.yul\":7469:7518   */\n      mstore\n        /* \"#utility.yul\":7352:7525   */\n      pop\n      jump\t// out\n        /* \"#utility.yul\":7531:7897   */\n    tag_115:\n        /* \"#utility.yul\":7673:7676   */\n      0x00\n        /* \"#utility.yul\":7694:7761   */\n      tag_187\n        /* \"#utility.yul\":7758:7760   */\n      0x17\n        /* \"#utility.yul\":7753:7756   */\n      dup4\n        /* \"#utility.yul\":7694:7761   */\n      tag_104\n      jump\t// in\n    tag_187:\n        /* \"#utility.yul\":7687:7761   */\n      swap2\n      pop\n        /* \"#utility.yul\":7770:7863   */\n      tag_188\n        /* \"#utility.yul\":7859:7862   */\n      dup3\n        /* \"#utility.yul\":7770:7863   */\n      tag_114\n      jump\t// in\n    tag_188:\n        /* \"#utility.yul\":7888:7890   */\n      0x20\n        /* \"#utility.yul\":7883:7886   */\n      dup3\n        /* \"#utility.yul\":7879:7891   */\n      add\n        /* \"#utility.yul\":7872:7891   */\n      swap1\n      pop\n        /* \"#utility.yul\":7531:7897   */\n      swap2\n      swap1\n      pop\n      jump\t// out\n        /* \"#utility.yul\":7903:8322   */\n    tag_77:\n        /* \"#utility.yul\":8069:8073   */\n      0x00\n        /* \"#utility.yul\":8107:8109   */\n      0x20\n        /* \"#utility.yul\":8096:8105   */\n      dup3\n        /* \"#utility.yul\":8092:8110   */\n      add\n        /* \"#utility.yul\":8084:8110   */\n      swap1\n      pop\n        /* \"#utility.yul\":8156:8165   */\n      dup2\n        /* \"#utility.yul\":8150:8154   */\n      dup2\n        /* \"#utility.yul\":8146:8166   */\n      sub\n        /* \"#utility.yul\":8142:8143   */\n      0x00\n        /* \"#utility.yul\":8131:8140   */\n      dup4\n        /* \"#utility.yul\":8127:8144   */\n      add\n        /* \"#utility.yul\":8120:8167   */\n      mstore\n        /* \"#utility.yul\":8184:8315   */\n      tag_190\n        /* \"#utility.yul\":8310:8314   */\n      dup2\n        /* \"#utility.yul\":8184:8315   */\n      tag_115\n      jump\t// in\n    tag_190:\n        /* \"#utility.yul\":8176:8315   */\n      swap1\n      pop\n        /* \"#utility.yul\":7903:8322   */\n      swap2\n      swap1\n      pop\n      jump\t// out\n        /* \"#utility.yul\":8328:8501   */\n    tag_116:\n        /* \"#utility.yul\":8468:8493   */\n      0x496e73756666696369656e742066756e64732073656e74000000000000000000\n        /* \"#utility.yul\":8464:8465   */\n      0x00\n        /* \"#utility.yul\":8456:8462   */\n      dup3\n        /* \"#utility.yul\":8452:8466   */\n      add\n        /* \"#utility.yul\":8445:8494   */\n      mstore\n        /* \"#utility.yul\":8328:8501   */\n      pop\n      jump\t// out\n        /* \"#utility.yul\":8507:8873   */\n    tag_117:\n        /* \"#utility.yul\":8649:8652   */\n      0x00\n        /* \"#utility.yul\":8670:8737   */\n      tag_193\n        /* \"#utility.yul\":8734:8736   */\n      0x17\n        /* \"#utility.yul\":8729:8732   */\n      dup4\n        /* \"#utility.yul\":8670:8737   */\n      tag_104\n      jump\t// in\n    tag_193:\n        /* \"#utility.yul\":8663:8737   */\n      swap2\n      pop\n        /* \"#utility.yul\":8746:8839   */\n      tag_194\n        /* \"#utility.yul\":8835:8838   */\n      dup3\n        /* \"#utility.yul\":8746:8839   */\n      tag_116\n      jump\t// in\n    tag_194:\n        /* \"#utility.yul\":8864:8866   */\n      0x20\n        /* \"#utility.yul\":8859:8862   */\n      dup3\n        /* \"#utility.yul\":8855:8867   */\n      add\n        /* \"#utility.yul\":8848:8867   */\n      swap1\n      pop\n        /* \"#utility.yul\":8507:8873   */\n      swap2\n      swap1\n      pop\n      jump\t// out\n        /* \"#utility.yul\":8879:9298   */\n    tag_80:\n        /* \"#utility.yul\":9045:9049   */\n      0x00\n        /* \"#utility.yul\":9083:9085   */\n      0x20\n        /* \"#utility.yul\":9072:9081   */\n      dup3\n        /* \"#utility.yul\":9068:9086   */\n      add\n        /* \"#utility.yul\":9060:9086   */\n      swap1\n      pop\n        /* \"#utility.yul\":9132:9141   */\n      dup2\n        /* \"#utility.yul\":9126:9130   */\n      dup2\n        /* \"#utility.yul\":9122:9142   */\n      sub\n        /* \"#utility.yul\":9118:9119   */\n      0x00\n        /* \"#utility.yul\":9107:9116   */\n      dup4\n        /* \"#utility.yul\":9103:9120   */\n      add\n        /* \"#utility.yul\":9096:9143   */\n      mstore\n        /* \"#utility.yul\":9160:9291   */\n      tag_196\n        /* \"#utility.yul\":9286:9290   */\n      dup2\n        /* \"#utility.yul\":9160:9291   */\n      tag_117\n      jump\t// in\n    tag_196:\n        /* \"#utility.yul\":9152:9291   */\n      swap1\n      pop\n        /* \"#utility.yul\":8879:9298   */\n      swap2\n      swap1\n      pop\n      jump\t// out\n        /* \"#utility.yul\":9304:9714   */\n    tag_84:\n        /* \"#utility.yul\":9344:9351   */\n      0x00\n        /* \"#utility.yul\":9367:9387   */\n      tag_198\n        /* \"#utility.yul\":9385:9386   */\n      dup3\n        /* \"#utility.yul\":9367:9387   */\n      tag_91\n      jump\t// in\n    tag_198:\n        /* \"#utility.yul\":9362:9387   */\n      swap2\n      pop\n        /* \"#utility.yul\":9401:9421   */\n      tag_199\n        /* \"#utility.yul\":9419:9420   */\n      dup4\n        /* \"#utility.yul\":9401:9421   */\n      tag_91\n      jump\t// in\n    tag_199:\n        /* \"#utility.yul\":9396:9421   */\n      swap3\n      pop\n        /* \"#utility.yul\":9456:9457   */\n      dup3\n        /* \"#utility.yul\":9453:9454   */\n      dup3\n        /* \"#utility.yul\":9449:9458   */\n      mul\n        /* \"#utility.yul\":9478:9508   */\n      tag_200\n        /* \"#utility.yul\":9496:9507   */\n      dup2\n        /* \"#utility.yul\":9478:9508   */\n      tag_91\n      jump\t// in\n    tag_200:\n        /* \"#utility.yul\":9467:9508   */\n      swap2\n      pop\n        /* \"#utility.yul\":9657:9658   */\n      dup3\n        /* \"#utility.yul\":9648:9655   */\n      dup3\n        /* \"#utility.yul\":9644:9659   */\n      div\n        /* \"#utility.yul\":9641:9642   */\n      dup5\n        /* \"#utility.yul\":9638:9660   */\n      eq\n        /* \"#utility.yul\":9618:9619   */\n      dup4\n        /* \"#utility.yul\":9611:9620   */\n      iszero\n        /* \"#utility.yul\":9591:9674   */\n      or\n        /* \"#utility.yul\":9568:9707   */\n      tag_201\n      jumpi\n        /* \"#utility.yul\":9687:9705   */\n      tag_202\n      tag_113\n      jump\t// in\n    tag_202:\n        /* \"#utility.yul\":9568:9707   */\n    tag_201:\n        /* \"#utility.yul\":9352:9714   */\n      pop\n        /* \"#utility.yul\":9304:9714   */\n      swap3\n      swap2\n      pop\n      pop\n      jump\t// out\n        /* \"#utility.yul\":9720:9914   */\n    tag_87:\n        /* \"#utility.yul\":9760:9764   */\n      0x00\n        /* \"#utility.yul\":9780:9800   */\n      tag_204\n        /* \"#utility.yul\":9798:9799   */\n      dup3\n        /* \"#utility.yul\":9780:9800   */\n      tag_91\n      jump\t// in\n    tag_204:\n        /* \"#utility.yul\":9775:9800   */\n      swap2\n      pop\n        /* \"#utility.yul\":9814:9834   */\n      tag_205\n        /* \"#utility.yul\":9832:9833   */\n      dup4\n        /* \"#utility.yul\":9814:9834   */\n      tag_91\n      jump\t// in\n    tag_205:\n        /* \"#utility.yul\":9809:9834   */\n      swap3\n      pop\n        /* \"#utility.yul\":9858:9859   */\n      dup3\n        /* \"#utility.yul\":9855:9856   */\n      dup3\n        /* \"#utility.yul\":9851:9860   */\n      sub\n        /* \"#utility.yul\":9843:9860   */\n      swap1\n      pop\n        /* \"#utility.yul\":9882:9883   */\n      dup2\n        /* \"#utility.yul\":9876:9880   */\n      dup2\n        /* \"#utility.yul\":9873:9884   */\n      gt\n        /* \"#utility.yul\":9870:9907   */\n      iszero\n      tag_206\n      jumpi\n        /* \"#utility.yul\":9887:9905   */\n      tag_207\n      tag_113\n      jump\t// in\n    tag_207:\n        /* \"#utility.yul\":9870:9907   */\n    tag_206:\n        /* \"#utility.yul\":9720:9914   */\n      swap3\n      swap2\n      pop\n      pop\n      jump\t// out\n\n    auxdata: 0xa264697066735822122021256c12e0d016c785648945f8b5813b19399a959bfa4f6f180589f250ecc57164736f6c634300081a0033\n}\n",
				"bytecode": {
					"linkReferences": {},
					"object": "608060405234801561000f575f80fd5b50604051610c9e380380610c9e833981810160405281019061003191906100bc565b335f806101000a81548173ffffffffffffffffffffffffffffffffffffffff021916908373ffffffffffffffffffffffffffffffffffffffff160217905550816001819055508060028190555050506100fa565b5f80fd5b5f819050919050565b61009b81610089565b81146100a5575f80fd5b50565b5f815190506100b681610092565b92915050565b5f80604083850312156100d2576100d1610085565b5b5f6100df858286016100a8565b92505060206100f0858286016100a8565b9150509250929050565b610b97806101075f395ff3fe608060405260043610610085575f3560e01c80633c45a5d8116100585780633c45a5d81461011b57806342cd0cf4146101375780638da5cb5b146101735780638f15024f1461019d578063c72f2e57146101c757610085565b80631209b1f61461008957806315981650146100b357806318160ddd146100db57806324600fc314610105575b5f80fd5b348015610094575f80fd5b5061009d610203565b6040516100aa919061066b565b60405180910390f35b3480156100be575f80fd5b506100d960048036038101906100d491906106b2565b610209565b005b3480156100e6575f80fd5b506100ef6102e2565b6040516100fc919061066b565b60405180910390f35b348015610110575f80fd5b506101196102e8565b005b610135600480360381019061013091906106b2565b61041c565b005b348015610142575f80fd5b5061015d60048036038101906101589190610737565b6105cf565b60405161016a919061066b565b60405180910390f35b34801561017e575f80fd5b506101876105e4565b6040516101949190610782565b60405180910390f35b3480156101a8575f80fd5b506101b1610607565b6040516101be919061066b565b60405180910390f35b3480156101d2575f80fd5b506101ed60048036038101906101e89190610737565b61060d565b6040516101fa919061066b565b60405180910390f35b60015481565b5f8054906101000a900473ffffffffffffffffffffffffffffffffffffffff1673ffffffffffffffffffffffffffffffffffffffff163373ffffffffffffffffffffffffffffffffffffffff1614610296576040517f08c379a000000000000000000000000000000000000000000000000000000000815260040161028d9061081b565b60405180910390fd5b5f81116102d8576040517f08c379a00000000000000000000000000000000000000000000000000000000081526004016102cf90610883565b60405180910390fd5b8060018190555050565b60025481565b5f8054906101000a900473ffffffffffffffffffffffffffffffffffffffff1673ffffffffffffffffffffffffffffffffffffffff163373ffffffffffffffffffffffffffffffffffffffff1614610375576040517f08c379a000000000000000000000000000000000000000000000000000000000815260040161036c9061081b565b60405180910390fd5b5f47116103b7576040517f08c379a00000000000000000000000000000000000000000000000000000000081526004016103ae90610911565b60405180910390fd5b5f8054906101000a900473ffffffffffffffffffffffffffffffffffffffff1673ffffffffffffffffffffffffffffffffffffffff166108fc4790811502906040515f60405180830381858888f19350505050158015610419573d5f803e3d5ffd5b50565b5f811161045e576040517f08c379a00000000000000000000000000000000000000000000000000000000081526004016104559061099f565b60405180910390fd5b6002548160035461046f91906109ea565b11156104b0576040517f08c379a00000000000000000000000000000000000000000000000000000000081526004016104a790610a67565b60405180910390fd5b80600154023410156104f7576040517f08c379a00000000000000000000000000000000000000000000000000000000081526004016104ee90610acf565b60405180910390fd5b8060045f3373ffffffffffffffffffffffffffffffffffffffff1673ffffffffffffffffffffffffffffffffffffffff1681526020019081526020015f205f82825461054391906109ea565b925050819055508060035f82825461055b91906109ea565b925050819055505f816001546105719190610aed565b9050803411156105cb573373ffffffffffffffffffffffffffffffffffffffff166108fc82346105a19190610b2e565b90811502906040515f60405180830381858888f193505050501580156105c9573d5f803e3d5ffd5b505b5050565b6004602052805f5260405f205f915090505481565b5f8054906101000a900473ffffffffffffffffffffffffffffffffffffffff1681565b60035481565b5f60045f8373ffffffffffffffffffffffffffffffffffffffff1673ffffffffffffffffffffffffffffffffffffffff1681526020019081526020015f20549050919050565b5f819050919050565b61066581610653565b82525050565b5f60208201905061067e5f83018461065c565b92915050565b5f80fd5b61069181610653565b811461069b575f80fd5b50565b5f813590506106ac81610688565b92915050565b5f602082840312156106c7576106c6610684565b5b5f6106d48482850161069e565b91505092915050565b5f73ffffffffffffffffffffffffffffffffffffffff82169050919050565b5f610706826106dd565b9050919050565b610716816106fc565b8114610720575f80fd5b50565b5f813590506107318161070d565b92915050565b5f6020828403121561074c5761074b610684565b5b5f61075984828501610723565b91505092915050565b5f61076c826106dd565b9050919050565b61077c81610762565b82525050565b5f6020820190506107955f830184610773565b92915050565b5f82825260208201905092915050565b7f4f6e6c79206f776e65722063616e2063616c6c20746869732066756e6374696f5f8201527f6e00000000000000000000000000000000000000000000000000000000000000602082015250565b5f61080560218361079b565b9150610810826107ab565b604082019050919050565b5f6020820190508181035f830152610832816107f9565b9050919050565b7f5072696365206d7573742062652067726561746572207468616e2030000000005f82015250565b5f61086d601c8361079b565b915061087882610839565b602082019050919050565b5f6020820190508181035f83015261089a81610861565b9050919050565b7f4e6f2066756e647320617661696c61626c6520666f72207769746864726177615f8201527f6c00000000000000000000000000000000000000000000000000000000000000602082015250565b5f6108fb60218361079b565b9150610906826108a1565b604082019050919050565b5f6020820190508181035f830152610928816108ef565b9050919050565b7f4e756d626572206f66207469636b657473206d757374206265206772656174655f8201527f72207468616e2030000000000000000000000000000000000000000000000000602082015250565b5f61098960288361079b565b91506109948261092f565b604082019050919050565b5f6020820190508181035f8301526109b68161097d565b9050919050565b7f4e487b71000000000000000000000000000000000000000000000000000000005f52601160045260245ffd5b5f6109f482610653565b91506109ff83610653565b9250828201905080821115610a1757610a166109bd565b5b92915050565b7f4e6f7420656e6f756768207469636b657473206c6566740000000000000000005f82015250565b5f610a5160178361079b565b9150610a5c82610a1d565b602082019050919050565b5f6020820190508181035f830152610a7e81610a45565b9050919050565b7f496e73756666696369656e742066756e64732073656e740000000000000000005f82015250565b5f610ab960178361079b565b9150610ac482610a85565b602082019050919050565b5f6020820190508181035f830152610ae681610aad565b9050919050565b5f610af782610653565b9150610b0283610653565b9250828202610b1081610653565b91508282048414831517610b2757610b266109bd565b5b5092915050565b5f610b3882610653565b9150610b4383610653565b9250828203905081811115610b5b57610b5a6109bd565b5b9291505056fea264697066735822122021256c12e0d016c785648945f8b5813b19399a959bfa4f6f180589f250ecc57164736f6c634300081a0033",
					"opcodes": "PUSH1 0x80 PUSH1 0x40 MSTORE CALLVALUE DUP1 ISZERO PUSH2 0xF JUMPI PUSH0 DUP1 REVERT JUMPDEST POP PUSH1 0x40 MLOAD PUSH2 0xC9E CODESIZE SUB DUP1 PUSH2 0xC9E DUP4 CODECOPY DUP2 DUP2 ADD PUSH1 0x40 MSTORE DUP2 ADD SWAP1 PUSH2 0x31 SWAP2 SWAP1 PUSH2 0xBC JUMP JUMPDEST CALLER PUSH0 DUP1 PUSH2 0x100 EXP DUP2 SLOAD DUP2 PUSH20 0xFFFFFFFFFFFFFFFFFFFFFFFFFFFFFFFFFFFFFFFF MUL NOT AND SWAP1 DUP4 PUSH20 0xFFFFFFFFFFFFFFFFFFFFFFFFFFFFFFFFFFFFFFFF AND MUL OR SWAP1 SSTORE POP DUP2 PUSH1 0x1 DUP2 SWAP1 SSTORE POP DUP1 PUSH1 0x2 DUP2 SWAP1 SSTORE POP POP POP PUSH2 0xFA JUMP JUMPDEST PUSH0 DUP1 REVERT JUMPDEST PUSH0 DUP2 SWAP1 POP SWAP2 SWAP1 POP JUMP JUMPDEST PUSH2 0x9B DUP2 PUSH2 0x89 JUMP JUMPDEST DUP2 EQ PUSH2 0xA5 JUMPI PUSH0 DUP1 REVERT JUMPDEST POP JUMP JUMPDEST PUSH0 DUP2 MLOAD SWAP1 POP PUSH2 0xB6 DUP2 PUSH2 0x92 JUMP JUMPDEST SWAP3 SWAP2 POP POP JUMP JUMPDEST PUSH0 DUP1 PUSH1 0x40 DUP4 DUP6 SUB SLT ISZERO PUSH2 0xD2 JUMPI PUSH2 0xD1 PUSH2 0x85 JUMP JUMPDEST JUMPDEST PUSH0 PUSH2 0xDF DUP6 DUP3 DUP7 ADD PUSH2 0xA8 JUMP JUMPDEST SWAP3 POP POP PUSH1 0x20 PUSH2 0xF0 DUP6 DUP3 DUP7 ADD PUSH2 0xA8 JUMP JUMPDEST SWAP2 POP POP SWAP3 POP SWAP3 SWAP1 POP JUMP JUMPDEST PUSH2 0xB97 DUP1 PUSH2 0x107 PUSH0 CODECOPY PUSH0 RETURN INVALID PUSH1 0x80 PUSH1 0x40 MSTORE PUSH1 0x4 CALLDATASIZE LT PUSH2 0x85 JUMPI PUSH0 CALLDATALOAD PUSH1 0xE0 SHR DUP1 PUSH4 0x3C45A5D8 GT PUSH2 0x58 JUMPI DUP1 PUSH4 0x3C45A5D8 EQ PUSH2 0x11B JUMPI DUP1 PUSH4 0x42CD0CF4 EQ PUSH2 0x137 JUMPI DUP1 PUSH4 0x8DA5CB5B EQ PUSH2 0x173 JUMPI DUP1 PUSH4 0x8F15024F EQ PUSH2 0x19D JUMPI DUP1 PUSH4 0xC72F2E57 EQ PUSH2 0x1C7 JUMPI PUSH2 0x85 JUMP JUMPDEST DUP1 PUSH4 0x1209B1F6 EQ PUSH2 0x89 JUMPI DUP1 PUSH4 0x15981650 EQ PUSH2 0xB3 JUMPI DUP1 PUSH4 0x18160DDD EQ PUSH2 0xDB JUMPI DUP1 PUSH4 0x24600FC3 EQ PUSH2 0x105 JUMPI JUMPDEST PUSH0 DUP1 REVERT JUMPDEST CALLVALUE DUP1 ISZERO PUSH2 0x94 JUMPI PUSH0 DUP1 REVERT JUMPDEST POP PUSH2 0x9D PUSH2 0x203 JUMP JUMPDEST PUSH1 0x40 MLOAD PUSH2 0xAA SWAP2 SWAP1 PUSH2 0x66B JUMP JUMPDEST PUSH1 0x40 MLOAD DUP1 SWAP2 SUB SWAP1 RETURN JUMPDEST CALLVALUE DUP1 ISZERO PUSH2 0xBE JUMPI PUSH0 DUP1 REVERT JUMPDEST POP PUSH2 0xD9 PUSH1 0x4 DUP1 CALLDATASIZE SUB DUP2 ADD SWAP1 PUSH2 0xD4 SWAP2 SWAP1 PUSH2 0x6B2 JUMP JUMPDEST PUSH2 0x209 JUMP JUMPDEST STOP JUMPDEST CALLVALUE DUP1 ISZERO PUSH2 0xE6 JUMPI PUSH0 DUP1 REVERT JUMPDEST POP PUSH2 0xEF PUSH2 0x2E2 JUMP JUMPDEST PUSH1 0x40 MLOAD PUSH2 0xFC SWAP2 SWAP1 PUSH2 0x66B JUMP JUMPDEST PUSH1 0x40 MLOAD DUP1 SWAP2 SUB SWAP1 RETURN JUMPDEST CALLVALUE DUP1 ISZERO PUSH2 0x110 JUMPI PUSH0 DUP1 REVERT JUMPDEST POP PUSH2 0x119 PUSH2 0x2E8 JUMP JUMPDEST STOP JUMPDEST PUSH2 0x135 PUSH1 0x4 DUP1 CALLDATASIZE SUB DUP2 ADD SWAP1 PUSH2 0x130 SWAP2 SWAP1 PUSH2 0x6B2 JUMP JUMPDEST PUSH2 0x41C JUMP JUMPDEST STOP JUMPDEST CALLVALUE DUP1 ISZERO PUSH2 0x142 JUMPI PUSH0 DUP1 REVERT JUMPDEST POP PUSH2 0x15D PUSH1 0x4 DUP1 CALLDATASIZE SUB DUP2 ADD SWAP1 PUSH2 0x158 SWAP2 SWAP1 PUSH2 0x737 JUMP JUMPDEST PUSH2 0x5CF JUMP JUMPDEST PUSH1 0x40 MLOAD PUSH2 0x16A SWAP2 SWAP1 PUSH2 0x66B JUMP JUMPDEST PUSH1 0x40 MLOAD DUP1 SWAP2 SUB SWAP1 RETURN JUMPDEST CALLVALUE DUP1 ISZERO PUSH2 0x17E JUMPI PUSH0 DUP1 REVERT JUMPDEST POP PUSH2 0x187 PUSH2 0x5E4 JUMP JUMPDEST PUSH1 0x40 MLOAD PUSH2 0x194 SWAP2 SWAP1 PUSH2 0x782 JUMP JUMPDEST PUSH1 0x40 MLOAD DUP1 SWAP2 SUB SWAP1 RETURN JUMPDEST CALLVALUE DUP1 ISZERO PUSH2 0x1A8 JUMPI PUSH0 DUP1 REVERT JUMPDEST POP PUSH2 0x1B1 PUSH2 0x607 JUMP JUMPDEST PUSH1 0x40 MLOAD PUSH2 0x1BE SWAP2 SWAP1 PUSH2 0x66B JUMP JUMPDEST PUSH1 0x40 MLOAD DUP1 SWAP2 SUB SWAP1 RETURN JUMPDEST CALLVALUE DUP1 ISZERO PUSH2 0x1D2 JUMPI PUSH0 DUP1 REVERT JUMPDEST POP PUSH2 0x1ED PUSH1 0x4 DUP1 CALLDATASIZE SUB DUP2 ADD SWAP1 PUSH2 0x1E8 SWAP2 SWAP1 PUSH2 0x737 JUMP JUMPDEST PUSH2 0x60D JUMP JUMPDEST PUSH1 0x40 MLOAD PUSH2 0x1FA SWAP2 SWAP1 PUSH2 0x66B JUMP JUMPDEST PUSH1 0x40 MLOAD DUP1 SWAP2 SUB SWAP1 RETURN JUMPDEST PUSH1 0x1 SLOAD DUP2 JUMP JUMPDEST PUSH0 DUP1 SLOAD SWAP1 PUSH2 0x100 EXP SWAP1 DIV PUSH20 0xFFFFFFFFFFFFFFFFFFFFFFFFFFFFFFFFFFFFFFFF AND PUSH20 0xFFFFFFFFFFFFFFFFFFFFFFFFFFFFFFFFFFFFFFFF AND CALLER PUSH20 0xFFFFFFFFFFFFFFFFFFFFFFFFFFFFFFFFFFFFFFFF AND EQ PUSH2 0x296 JUMPI PUSH1 0x40 MLOAD PUSH32 0x8C379A000000000000000000000000000000000000000000000000000000000 DUP2 MSTORE PUSH1 0x4 ADD PUSH2 0x28D SWAP1 PUSH2 0x81B JUMP JUMPDEST PUSH1 0x40 MLOAD DUP1 SWAP2 SUB SWAP1 REVERT JUMPDEST PUSH0 DUP2 GT PUSH2 0x2D8 JUMPI PUSH1 0x40 MLOAD PUSH32 0x8C379A000000000000000000000000000000000000000000000000000000000 DUP2 MSTORE PUSH1 0x4 ADD PUSH2 0x2CF SWAP1 PUSH2 0x883 JUMP JUMPDEST PUSH1 0x40 MLOAD DUP1 SWAP2 SUB SWAP1 REVERT JUMPDEST DUP1 PUSH1 0x1 DUP2 SWAP1 SSTORE POP POP JUMP JUMPDEST PUSH1 0x2 SLOAD DUP2 JUMP JUMPDEST PUSH0 DUP1 SLOAD SWAP1 PUSH2 0x100 EXP SWAP1 DIV PUSH20 0xFFFFFFFFFFFFFFFFFFFFFFFFFFFFFFFFFFFFFFFF AND PUSH20 0xFFFFFFFFFFFFFFFFFFFFFFFFFFFFFFFFFFFFFFFF AND CALLER PUSH20 0xFFFFFFFFFFFFFFFFFFFFFFFFFFFFFFFFFFFFFFFF AND EQ PUSH2 0x375 JUMPI PUSH1 0x40 MLOAD PUSH32 0x8C379A000000000000000000000000000000000000000000000000000000000 DUP2 MSTORE PUSH1 0x4 ADD PUSH2 0x36C SWAP1 PUSH2 0x81B JUMP JUMPDEST PUSH1 0x40 MLOAD DUP1 SWAP2 SUB SWAP1 REVERT JUMPDEST PUSH0 SELFBALANCE GT PUSH2 0x3B7 JUMPI PUSH1 0x40 MLOAD PUSH32 0x8C379A000000000000000000000000000000000000000000000000000000000 DUP2 MSTORE PUSH1 0x4 ADD PUSH2 0x3AE SWAP1 PUSH2 0x911 JUMP JUMPDEST PUSH1 0x40 MLOAD DUP1 SWAP2 SUB SWAP1 REVERT JUMPDEST PUSH0 DUP1 SLOAD SWAP1 PUSH2 0x100 EXP SWAP1 DIV PUSH20 0xFFFFFFFFFFFFFFFFFFFFFFFFFFFFFFFFFFFFFFFF AND PUSH20 0xFFFFFFFFFFFFFFFFFFFFFFFFFFFFFFFFFFFFFFFF AND PUSH2 0x8FC SELFBALANCE SWAP1 DUP2 ISZERO MUL SWAP1 PUSH1 0x40 MLOAD PUSH0 PUSH1 0x40 MLOAD DUP1 DUP4 SUB DUP2 DUP6 DUP9 DUP9 CALL SWAP4 POP POP POP POP ISZERO DUP1 ISZERO PUSH2 0x419 JUMPI RETURNDATASIZE PUSH0 DUP1 RETURNDATACOPY RETURNDATASIZE PUSH0 REVERT JUMPDEST POP JUMP JUMPDEST PUSH0 DUP2 GT PUSH2 0x45E JUMPI PUSH1 0x40 MLOAD PUSH32 0x8C379A000000000000000000000000000000000000000000000000000000000 DUP2 MSTORE PUSH1 0x4 ADD PUSH2 0x455 SWAP1 PUSH2 0x99F JUMP JUMPDEST PUSH1 0x40 MLOAD DUP1 SWAP2 SUB SWAP1 REVERT JUMPDEST PUSH1 0x2 SLOAD DUP2 PUSH1 0x3 SLOAD PUSH2 0x46F SWAP2 SWAP1 PUSH2 0x9EA JUMP JUMPDEST GT ISZERO PUSH2 0x4B0 JUMPI PUSH1 0x40 MLOAD PUSH32 0x8C379A000000000000000000000000000000000000000000000000000000000 DUP2 MSTORE PUSH1 0x4 ADD PUSH2 0x4A7 SWAP1 PUSH2 0xA67 JUMP JUMPDEST PUSH1 0x40 MLOAD DUP1 SWAP2 SUB SWAP1 REVERT JUMPDEST DUP1 PUSH1 0x1 SLOAD MUL CALLVALUE LT ISZERO PUSH2 0x4F7 JUMPI PUSH1 0x40 MLOAD PUSH32 0x8C379A000000000000000000000000000000000000000000000000000000000 DUP2 MSTORE PUSH1 0x4 ADD PUSH2 0x4EE SWAP1 PUSH2 0xACF JUMP JUMPDEST PUSH1 0x40 MLOAD DUP1 SWAP2 SUB SWAP1 REVERT JUMPDEST DUP1 PUSH1 0x4 PUSH0 CALLER PUSH20 0xFFFFFFFFFFFFFFFFFFFFFFFFFFFFFFFFFFFFFFFF AND PUSH20 0xFFFFFFFFFFFFFFFFFFFFFFFFFFFFFFFFFFFFFFFF AND DUP2 MSTORE PUSH1 0x20 ADD SWAP1 DUP2 MSTORE PUSH1 0x20 ADD PUSH0 KECCAK256 PUSH0 DUP3 DUP3 SLOAD PUSH2 0x543 SWAP2 SWAP1 PUSH2 0x9EA JUMP JUMPDEST SWAP3 POP POP DUP2 SWAP1 SSTORE POP DUP1 PUSH1 0x3 PUSH0 DUP3 DUP3 SLOAD PUSH2 0x55B SWAP2 SWAP1 PUSH2 0x9EA JUMP JUMPDEST SWAP3 POP POP DUP2 SWAP1 SSTORE POP PUSH0 DUP2 PUSH1 0x1 SLOAD PUSH2 0x571 SWAP2 SWAP1 PUSH2 0xAED JUMP JUMPDEST SWAP1 POP DUP1 CALLVALUE GT ISZERO PUSH2 0x5CB JUMPI CALLER PUSH20 0xFFFFFFFFFFFFFFFFFFFFFFFFFFFFFFFFFFFFFFFF AND PUSH2 0x8FC DUP3 CALLVALUE PUSH2 0x5A1 SWAP2 SWAP1 PUSH2 0xB2E JUMP JUMPDEST SWAP1 DUP2 ISZERO MUL SWAP1 PUSH1 0x40 MLOAD PUSH0 PUSH1 0x40 MLOAD DUP1 DUP4 SUB DUP2 DUP6 DUP9 DUP9 CALL SWAP4 POP POP POP POP ISZERO DUP1 ISZERO PUSH2 0x5C9 JUMPI RETURNDATASIZE PUSH0 DUP1 RETURNDATACOPY RETURNDATASIZE PUSH0 REVERT JUMPDEST POP JUMPDEST POP POP JUMP JUMPDEST PUSH1 0x4 PUSH1 0x20 MSTORE DUP1 PUSH0 MSTORE PUSH1 0x40 PUSH0 KECCAK256 PUSH0 SWAP2 POP SWAP1 POP SLOAD DUP2 JUMP JUMPDEST PUSH0 DUP1 SLOAD SWAP1 PUSH2 0x100 EXP SWAP1 DIV PUSH20 0xFFFFFFFFFFFFFFFFFFFFFFFFFFFFFFFFFFFFFFFF AND DUP2 JUMP JUMPDEST PUSH1 0x3 SLOAD DUP2 JUMP JUMPDEST PUSH0 PUSH1 0x4 PUSH0 DUP4 PUSH20 0xFFFFFFFFFFFFFFFFFFFFFFFFFFFFFFFFFFFFFFFF AND PUSH20 0xFFFFFFFFFFFFFFFFFFFFFFFFFFFFFFFFFFFFFFFF AND DUP2 MSTORE PUSH1 0x20 ADD SWAP1 DUP2 MSTORE PUSH1 0x20 ADD PUSH0 KECCAK256 SLOAD SWAP1 POP SWAP2 SWAP1 POP JUMP JUMPDEST PUSH0 DUP2 SWAP1 POP SWAP2 SWAP1 POP JUMP JUMPDEST PUSH2 0x665 DUP2 PUSH2 0x653 JUMP JUMPDEST DUP3 MSTORE POP POP JUMP JUMPDEST PUSH0 PUSH1 0x20 DUP3 ADD SWAP1 POP PUSH2 0x67E PUSH0 DUP4 ADD DUP5 PUSH2 0x65C JUMP JUMPDEST SWAP3 SWAP2 POP POP JUMP JUMPDEST PUSH0 DUP1 REVERT JUMPDEST PUSH2 0x691 DUP2 PUSH2 0x653 JUMP JUMPDEST DUP2 EQ PUSH2 0x69B JUMPI PUSH0 DUP1 REVERT JUMPDEST POP JUMP JUMPDEST PUSH0 DUP2 CALLDATALOAD SWAP1 POP PUSH2 0x6AC DUP2 PUSH2 0x688 JUMP JUMPDEST SWAP3 SWAP2 POP POP JUMP JUMPDEST PUSH0 PUSH1 0x20 DUP3 DUP5 SUB SLT ISZERO PUSH2 0x6C7 JUMPI PUSH2 0x6C6 PUSH2 0x684 JUMP JUMPDEST JUMPDEST PUSH0 PUSH2 0x6D4 DUP5 DUP3 DUP6 ADD PUSH2 0x69E JUMP JUMPDEST SWAP2 POP POP SWAP3 SWAP2 POP POP JUMP JUMPDEST PUSH0 PUSH20 0xFFFFFFFFFFFFFFFFFFFFFFFFFFFFFFFFFFFFFFFF DUP3 AND SWAP1 POP SWAP2 SWAP1 POP JUMP JUMPDEST PUSH0 PUSH2 0x706 DUP3 PUSH2 0x6DD JUMP JUMPDEST SWAP1 POP SWAP2 SWAP1 POP JUMP JUMPDEST PUSH2 0x716 DUP2 PUSH2 0x6FC JUMP JUMPDEST DUP2 EQ PUSH2 0x720 JUMPI PUSH0 DUP1 REVERT JUMPDEST POP JUMP JUMPDEST PUSH0 DUP2 CALLDATALOAD SWAP1 POP PUSH2 0x731 DUP2 PUSH2 0x70D JUMP JUMPDEST SWAP3 SWAP2 POP POP JUMP JUMPDEST PUSH0 PUSH1 0x20 DUP3 DUP5 SUB SLT ISZERO PUSH2 0x74C JUMPI PUSH2 0x74B PUSH2 0x684 JUMP JUMPDEST JUMPDEST PUSH0 PUSH2 0x759 DUP5 DUP3 DUP6 ADD PUSH2 0x723 JUMP JUMPDEST SWAP2 POP POP SWAP3 SWAP2 POP POP JUMP JUMPDEST PUSH0 PUSH2 0x76C DUP3 PUSH2 0x6DD JUMP JUMPDEST SWAP1 POP SWAP2 SWAP1 POP JUMP JUMPDEST PUSH2 0x77C DUP2 PUSH2 0x762 JUMP JUMPDEST DUP3 MSTORE POP POP JUMP JUMPDEST PUSH0 PUSH1 0x20 DUP3 ADD SWAP1 POP PUSH2 0x795 PUSH0 DUP4 ADD DUP5 PUSH2 0x773 JUMP JUMPDEST SWAP3 SWAP2 POP POP JUMP JUMPDEST PUSH0 DUP3 DUP3 MSTORE PUSH1 0x20 DUP3 ADD SWAP1 POP SWAP3 SWAP2 POP POP JUMP JUMPDEST PUSH32 0x4F6E6C79206F776E65722063616E2063616C6C20746869732066756E6374696F PUSH0 DUP3 ADD MSTORE PUSH32 0x6E00000000000000000000000000000000000000000000000000000000000000 PUSH1 0x20 DUP3 ADD MSTORE POP JUMP JUMPDEST PUSH0 PUSH2 0x805 PUSH1 0x21 DUP4 PUSH2 0x79B JUMP JUMPDEST SWAP2 POP PUSH2 0x810 DUP3 PUSH2 0x7AB JUMP JUMPDEST PUSH1 0x40 DUP3 ADD SWAP1 POP SWAP2 SWAP1 POP JUMP JUMPDEST PUSH0 PUSH1 0x20 DUP3 ADD SWAP1 POP DUP2 DUP2 SUB PUSH0 DUP4 ADD MSTORE PUSH2 0x832 DUP2 PUSH2 0x7F9 JUMP JUMPDEST SWAP1 POP SWAP2 SWAP1 POP JUMP JUMPDEST PUSH32 0x5072696365206D7573742062652067726561746572207468616E203000000000 PUSH0 DUP3 ADD MSTORE POP JUMP JUMPDEST PUSH0 PUSH2 0x86D PUSH1 0x1C DUP4 PUSH2 0x79B JUMP JUMPDEST SWAP2 POP PUSH2 0x878 DUP3 PUSH2 0x839 JUMP JUMPDEST PUSH1 0x20 DUP3 ADD SWAP1 POP SWAP2 SWAP1 POP JUMP JUMPDEST PUSH0 PUSH1 0x20 DUP3 ADD SWAP1 POP DUP2 DUP2 SUB PUSH0 DUP4 ADD MSTORE PUSH2 0x89A DUP2 PUSH2 0x861 JUMP JUMPDEST SWAP1 POP SWAP2 SWAP1 POP JUMP JUMPDEST PUSH32 0x4E6F2066756E647320617661696C61626C6520666F7220776974686472617761 PUSH0 DUP3 ADD MSTORE PUSH32 0x6C00000000000000000000000000000000000000000000000000000000000000 PUSH1 0x20 DUP3 ADD MSTORE POP JUMP JUMPDEST PUSH0 PUSH2 0x8FB PUSH1 0x21 DUP4 PUSH2 0x79B JUMP JUMPDEST SWAP2 POP PUSH2 0x906 DUP3 PUSH2 0x8A1 JUMP JUMPDEST PUSH1 0x40 DUP3 ADD SWAP1 POP SWAP2 SWAP1 POP JUMP JUMPDEST PUSH0 PUSH1 0x20 DUP3 ADD SWAP1 POP DUP2 DUP2 SUB PUSH0 DUP4 ADD MSTORE PUSH2 0x928 DUP2 PUSH2 0x8EF JUMP JUMPDEST SWAP1 POP SWAP2 SWAP1 POP JUMP JUMPDEST PUSH32 0x4E756D626572206F66207469636B657473206D75737420626520677265617465 PUSH0 DUP3 ADD MSTORE PUSH32 0x72207468616E2030000000000000000000000000000000000000000000000000 PUSH1 0x20 DUP3 ADD MSTORE POP JUMP JUMPDEST PUSH0 PUSH2 0x989 PUSH1 0x28 DUP4 PUSH2 0x79B JUMP JUMPDEST SWAP2 POP PUSH2 0x994 DUP3 PUSH2 0x92F JUMP JUMPDEST PUSH1 0x40 DUP3 ADD SWAP1 POP SWAP2 SWAP1 POP JUMP JUMPDEST PUSH0 PUSH1 0x20 DUP3 ADD SWAP1 POP DUP2 DUP2 SUB PUSH0 DUP4 ADD MSTORE PUSH2 0x9B6 DUP2 PUSH2 0x97D JUMP JUMPDEST SWAP1 POP SWAP2 SWAP1 POP JUMP JUMPDEST PUSH32 0x4E487B7100000000000000000000000000000000000000000000000000000000 PUSH0 MSTORE PUSH1 0x11 PUSH1 0x4 MSTORE PUSH1 0x24 PUSH0 REVERT JUMPDEST PUSH0 PUSH2 0x9F4 DUP3 PUSH2 0x653 JUMP JUMPDEST SWAP2 POP PUSH2 0x9FF DUP4 PUSH2 0x653 JUMP JUMPDEST SWAP3 POP DUP3 DUP3 ADD SWAP1 POP DUP1 DUP3 GT ISZERO PUSH2 0xA17 JUMPI PUSH2 0xA16 PUSH2 0x9BD JUMP JUMPDEST JUMPDEST SWAP3 SWAP2 POP POP JUMP JUMPDEST PUSH32 0x4E6F7420656E6F756768207469636B657473206C656674000000000000000000 PUSH0 DUP3 ADD MSTORE POP JUMP JUMPDEST PUSH0 PUSH2 0xA51 PUSH1 0x17 DUP4 PUSH2 0x79B JUMP JUMPDEST SWAP2 POP PUSH2 0xA5C DUP3 PUSH2 0xA1D JUMP JUMPDEST PUSH1 0x20 DUP3 ADD SWAP1 POP SWAP2 SWAP1 POP JUMP JUMPDEST PUSH0 PUSH1 0x20 DUP3 ADD SWAP1 POP DUP2 DUP2 SUB PUSH0 DUP4 ADD MSTORE PUSH2 0xA7E DUP2 PUSH2 0xA45 JUMP JUMPDEST SWAP1 POP SWAP2 SWAP1 POP JUMP JUMPDEST PUSH32 0x496E73756666696369656E742066756E64732073656E74000000000000000000 PUSH0 DUP3 ADD MSTORE POP JUMP JUMPDEST PUSH0 PUSH2 0xAB9 PUSH1 0x17 DUP4 PUSH2 0x79B JUMP JUMPDEST SWAP2 POP PUSH2 0xAC4 DUP3 PUSH2 0xA85 JUMP JUMPDEST PUSH1 0x20 DUP3 ADD SWAP1 POP SWAP2 SWAP1 POP JUMP JUMPDEST PUSH0 PUSH1 0x20 DUP3 ADD SWAP1 POP DUP2 DUP2 SUB PUSH0 DUP4 ADD MSTORE PUSH2 0xAE6 DUP2 PUSH2 0xAAD JUMP JUMPDEST SWAP1 POP SWAP2 SWAP1 POP JUMP JUMPDEST PUSH0 PUSH2 0xAF7 DUP3 PUSH2 0x653 JUMP JUMPDEST SWAP2 POP PUSH2 0xB02 DUP4 PUSH2 0x653 JUMP JUMPDEST SWAP3 POP DUP3 DUP3 MUL PUSH2 0xB10 DUP2 PUSH2 0x653 JUMP JUMPDEST SWAP2 POP DUP3 DUP3 DIV DUP5 EQ DUP4 ISZERO OR PUSH2 0xB27 JUMPI PUSH2 0xB26 PUSH2 0x9BD JUMP JUMPDEST JUMPDEST POP SWAP3 SWAP2 POP POP JUMP JUMPDEST PUSH0 PUSH2 0xB38 DUP3 PUSH2 0x653 JUMP JUMPDEST SWAP2 POP PUSH2 0xB43 DUP4 PUSH2 0x653 JUMP JUMPDEST SWAP3 POP DUP3 DUP3 SUB SWAP1 POP DUP2 DUP2 GT ISZERO PUSH2 0xB5B JUMPI PUSH2 0xB5A PUSH2 0x9BD JUMP JUMPDEST JUMPDEST SWAP3 SWAP2 POP POP JUMP INVALID LOG2 PUSH5 0x6970667358 0x22 SLT KECCAK256 0x21 0x25 PUSH13 0x12E0D016C785648945F8B5813B NOT CODECOPY SWAP11 SWAP6 SWAP12 STATICCALL 0x4F PUSH16 0x180589F250ECC57164736F6C63430008 BYTE STOP CALLER "
				},
				"gasEstimates": {
					"creation": {
						"codeDepositCost": "593400",
						"executionCost": "infinite",
						"totalCost": "infinite"
					},
					"external": {
						"getTicketsReserved(address)": "2917",
						"owner()": "2549",
						"reserveTicket(uint256)": "infinite",
						"setTicketPrice(uint256)": "24726",
						"ticketPrice()": "2426",
						"ticketsReserved(address)": "2824",
						"ticketsSold()": "2491",
						"totalSupply()": "2470",
						"withdrawFunds()": "infinite"
					}
				},
				"methodIdentifiers": {
					"getTicketsReserved(address)": "c72f2e57",
					"owner()": "8da5cb5b",
					"reserveTicket(uint256)": "3c45a5d8",
					"setTicketPrice(uint256)": "15981650",
					"ticketPrice()": "1209b1f6",
					"ticketsReserved(address)": "42cd0cf4",
					"ticketsSold()": "8f15024f",
					"totalSupply()": "18160ddd",
					"withdrawFunds()": "24600fc3"
				}
			},
			"storageLayout": {
				"storage": [
					{
						"astId": 3,
						"contract": "PES1UG22CS98_TASK5.sol:TicketReservation",
						"label": "owner",
						"offset": 0,
						"slot": "0",
						"type": "t_address_payable"
					},
					{
						"astId": 5,
						"contract": "PES1UG22CS98_TASK5.sol:TicketReservation",
						"label": "ticketPrice",
						"offset": 0,
						"slot": "1",
						"type": "t_uint256"
					},
					{
						"astId": 7,
						"contract": "PES1UG22CS98_TASK5.sol:TicketReservation",
						"label": "totalSupply",
						"offset": 0,
						"slot": "2",
						"type": "t_uint256"
					},
					{
						"astId": 9,
						"contract": "PES1UG22CS98_TASK5.sol:TicketReservation",
						"label": "ticketsSold",
						"offset": 0,
						"slot": "3",
						"type": "t_uint256"
					},
					{
						"astId": 13,
						"contract": "PES1UG22CS98_TASK5.sol:TicketReservation",
						"label": "ticketsReserved",
						"offset": 0,
						"slot": "4",
						"type": "t_mapping(t_address,t_uint256)"
					}
				],
				"types": {
					"t_address": {
						"encoding": "inplace",
						"label": "address",
						"numberOfBytes": "20"
					},
					"t_address_payable": {
						"encoding": "inplace",
						"label": "address payable",
						"numberOfBytes": "20"
					},
					"t_mapping(t_address,t_uint256)": {
						"encoding": "mapping",
						"key": "t_address",
						"label": "mapping(address => uint256)",
						"numberOfBytes": "32",
						"value": "t_uint256"
					},
					"t_uint256": {
						"encoding": "inplace",
						"label": "uint256",
						"numberOfBytes": "32"
					}
				}
			},
			"userdoc": {
				"kind": "user",
				"methods": {},
				"version": 1
			}
		}
	}
}