{
	"task2_lab5.sol": {
		"FallbackDonation": {
			"abi": [
				{
					"inputs": [
						{
							"internalType": "string",
							"name": "_purpose",
							"type": "string"
						}
					],
					"stateMutability": "nonpayable",
					"type": "constructor"
				},
				{
					"anonymous": false,
					"inputs": [
						{
							"indexed": true,
							"internalType": "address",
							"name": "donor",
							"type": "address"
						},
						{
							"indexed": false,
							"internalType": "uint256",
							"name": "amount",
							"type": "uint256"
						}
					],
					"name": "DonationReceived",
					"type": "event"
				},
				{
					"anonymous": false,
					"inputs": [
						{
							"indexed": false,
							"internalType": "address",
							"name": "sender",
							"type": "address"
						},
						{
							"indexed": false,
							"internalType": "uint256",
							"name": "value",
							"type": "uint256"
						},
						{
							"indexed": false,
							"internalType": "bytes",
							"name": "data",
							"type": "bytes"
						}
					],
					"name": "FallbackTriggered",
					"type": "event"
				},
				{
					"stateMutability": "payable",
					"type": "fallback"
				},
				{
					"inputs": [
						{
							"internalType": "address",
							"name": "",
							"type": "address"
						}
					],
					"name": "balances",
					"outputs": [
						{
							"internalType": "uint256",
							"name": "",
							"type": "uint256"
						}
					],
					"stateMutability": "view",
					"type": "function"
				},
				{
					"inputs": [],
					"name": "donate",
					"outputs": [],
					"stateMutability": "payable",
					"type": "function"
				},
				{
					"inputs": [],
					"name": "owner",
					"outputs": [
						{
							"internalType": "address",
							"name": "",
							"type": "address"
						}
					],
					"stateMutability": "view",
					"type": "function"
				},
				{
					"inputs": [],
					"name": "purpose",
					"outputs": [
						{
							"internalType": "string",
							"name": "",
							"type": "string"
						}
					],
					"stateMutability": "view",
					"type": "function"
				},
				{
					"inputs": [
						{
							"internalType": "string",
							"name": "_newPurpose",
							"type": "string"
						}
					],
					"name": "updatePurpose",
					"outputs": [],
					"stateMutability": "nonpayable",
					"type": "function"
				},
				{
					"stateMutability": "payable",
					"type": "receive"
				}
			],
			"devdoc": {
				"kind": "dev",
				"methods": {},
				"version": 1
			},
			"evm": {
				"assembly": "    /* \"task2_lab5.sol\":819:1262  contract FallbackDonation is DonationTracker {... */\n  mstore(0x40, 0x80)\n    /* \"task2_lab5.sol\":943:1007  constructor(string memory _purpose) DonationTracker(_purpose) {} */\n  callvalue\n  dup1\n  iszero\n  tag_1\n  jumpi\n  0x00\n  dup1\n  revert\ntag_1:\n  pop\n  mload(0x40)\n  sub(codesize, bytecodeSize)\n  dup1\n  bytecodeSize\n  dup4\n  codecopy\n  dup2\n  dup2\n  add\n  0x40\n  mstore\n  dup2\n  add\n  swap1\n  tag_2\n  swap2\n  swap1\n  tag_3\n  jump\t// in\ntag_2:\n    /* \"task2_lab5.sol\":995:1003  _purpose */\n  dup1\n    /* \"task2_lab5.sol\":434:444  msg.sender */\n  caller\n    /* \"task2_lab5.sol\":426:431  owner */\n  0x00\n  dup1\n    /* \"task2_lab5.sol\":426:444  owner = msg.sender */\n  0x0100\n  exp\n  dup2\n  sload\n  dup2\n  0xffffffffffffffffffffffffffffffffffffffff\n  mul\n  not\n  and\n  swap1\n  dup4\n  0xffffffffffffffffffffffffffffffffffffffff\n  and\n  mul\n  or\n  swap1\n  sstore\n  pop\n    /* \"task2_lab5.sol\":465:473  _purpose */\n  dup1\n    /* \"task2_lab5.sol\":455:462  purpose */\n  0x01\n    /* \"task2_lab5.sol\":455:473  purpose = _purpose */\n  swap1\n  dup2\n  tag_7\n  swap2\n  swap1\n  tag_8\n  jump\t// in\ntag_7:\n  pop\n    /* \"task2_lab5.sol\":379:481  constructor(string memory _purpose) {... */\n  pop\n    /* \"task2_lab5.sol\":943:1007  constructor(string memory _purpose) DonationTracker(_purpose) {} */\n  pop\n    /* \"task2_lab5.sol\":819:1262  contract FallbackDonation is DonationTracker {... */\n  jump(tag_10)\n    /* \"#utility.yul\":7:82   */\ntag_11:\n    /* \"#utility.yul\":40:46   */\n  0x00\n    /* \"#utility.yul\":73:75   */\n  0x40\n    /* \"#utility.yul\":67:76   */\n  mload\n    /* \"#utility.yul\":57:76   */\n  swap1\n  pop\n    /* \"#utility.yul\":7:82   */\n  swap1\n  jump\t// out\n    /* \"#utility.yul\":88:205   */\ntag_12:\n    /* \"#utility.yul\":197:198   */\n  0x00\n    /* \"#utility.yul\":194:195   */\n  dup1\n    /* \"#utility.yul\":187:199   */\n  revert\n    /* \"#utility.yul\":211:328   */\ntag_13:\n    /* \"#utility.yul\":320:321   */\n  0x00\n    /* \"#utility.yul\":317:318   */\n  dup1\n    /* \"#utility.yul\":310:322   */\n  revert\n    /* \"#utility.yul\":334:451   */\ntag_14:\n    /* \"#utility.yul\":443:444   */\n  0x00\n    /* \"#utility.yul\":440:441   */\n  dup1\n    /* \"#utility.yul\":433:445   */\n  revert\n    /* \"#utility.yul\":457:574   */\ntag_15:\n    /* \"#utility.yul\":566:567   */\n  0x00\n    /* \"#utility.yul\":563:564   */\n  dup1\n    /* \"#utility.yul\":556:568   */\n  revert\n    /* \"#utility.yul\":580:682   */\ntag_16:\n    /* \"#utility.yul\":621:627   */\n  0x00\n    /* \"#utility.yul\":672:674   */\n  0x1f\n    /* \"#utility.yul\":668:675   */\n  not\n    /* \"#utility.yul\":663:665   */\n  0x1f\n    /* \"#utility.yul\":656:661   */\n  dup4\n    /* \"#utility.yul\":652:666   */\n  add\n    /* \"#utility.yul\":648:676   */\n  and\n    /* \"#utility.yul\":638:676   */\n  swap1\n  pop\n    /* \"#utility.yul\":580:682   */\n  swap2\n  swap1\n  pop\n  jump\t// out\n    /* \"#utility.yul\":688:868   */\ntag_17:\n    /* \"#utility.yul\":736:813   */\n  0x4e487b7100000000000000000000000000000000000000000000000000000000\n    /* \"#utility.yul\":733:734   */\n  0x00\n    /* \"#utility.yul\":726:814   */\n  mstore\n    /* \"#utility.yul\":833:837   */\n  0x41\n    /* \"#utility.yul\":830:831   */\n  0x04\n    /* \"#utility.yul\":823:838   */\n  mstore\n    /* \"#utility.yul\":857:861   */\n  0x24\n    /* \"#utility.yul\":854:855   */\n  0x00\n    /* \"#utility.yul\":847:862   */\n  revert\n    /* \"#utility.yul\":874:1155   */\ntag_18:\n    /* \"#utility.yul\":957:984   */\n  tag_52\n    /* \"#utility.yul\":979:983   */\n  dup3\n    /* \"#utility.yul\":957:984   */\n  tag_16\n  jump\t// in\ntag_52:\n    /* \"#utility.yul\":949:955   */\n  dup2\n    /* \"#utility.yul\":945:985   */\n  add\n    /* \"#utility.yul\":1087:1093   */\n  dup2\n    /* \"#utility.yul\":1075:1085   */\n  dup2\n    /* \"#utility.yul\":1072:1094   */\n  lt\n    /* \"#utility.yul\":1051:1069   */\n  0xffffffffffffffff\n    /* \"#utility.yul\":1039:1049   */\n  dup3\n    /* \"#utility.yul\":1036:1070   */\n  gt\n    /* \"#utility.yul\":1033:1095   */\n  or\n    /* \"#utility.yul\":1030:1118   */\n  iszero\n  tag_53\n  jumpi\n    /* \"#utility.yul\":1098:1116   */\n  tag_54\n  tag_17\n  jump\t// in\ntag_54:\n    /* \"#utility.yul\":1030:1118   */\ntag_53:\n    /* \"#utility.yul\":1138:1148   */\n  dup1\n    /* \"#utility.yul\":1134:1136   */\n  0x40\n    /* \"#utility.yul\":1127:1149   */\n  mstore\n    /* \"#utility.yul\":917:1155   */\n  pop\n    /* \"#utility.yul\":874:1155   */\n  pop\n  pop\n  jump\t// out\n    /* \"#utility.yul\":1161:1290   */\ntag_19:\n    /* \"#utility.yul\":1195:1201   */\n  0x00\n    /* \"#utility.yul\":1222:1242   */\n  tag_56\n  tag_11\n  jump\t// in\ntag_56:\n    /* \"#utility.yul\":1212:1242   */\n  swap1\n  pop\n    /* \"#utility.yul\":1251:1284   */\n  tag_57\n    /* \"#utility.yul\":1279:1283   */\n  dup3\n    /* \"#utility.yul\":1271:1277   */\n  dup3\n    /* \"#utility.yul\":1251:1284   */\n  tag_18\n  jump\t// in\ntag_57:\n    /* \"#utility.yul\":1161:1290   */\n  swap2\n  swap1\n  pop\n  jump\t// out\n    /* \"#utility.yul\":1296:1604   */\ntag_20:\n    /* \"#utility.yul\":1358:1362   */\n  0x00\n    /* \"#utility.yul\":1448:1466   */\n  0xffffffffffffffff\n    /* \"#utility.yul\":1440:1446   */\n  dup3\n    /* \"#utility.yul\":1437:1467   */\n  gt\n    /* \"#utility.yul\":1434:1490   */\n  iszero\n  tag_59\n  jumpi\n    /* \"#utility.yul\":1470:1488   */\n  tag_60\n  tag_17\n  jump\t// in\ntag_60:\n    /* \"#utility.yul\":1434:1490   */\ntag_59:\n    /* \"#utility.yul\":1508:1537   */\n  tag_61\n    /* \"#utility.yul\":1530:1536   */\n  dup3\n    /* \"#utility.yul\":1508:1537   */\n  tag_16\n  jump\t// in\ntag_61:\n    /* \"#utility.yul\":1500:1537   */\n  swap1\n  pop\n    /* \"#utility.yul\":1592:1596   */\n  0x20\n    /* \"#utility.yul\":1586:1590   */\n  dup2\n    /* \"#utility.yul\":1582:1597   */\n  add\n    /* \"#utility.yul\":1574:1597   */\n  swap1\n  pop\n    /* \"#utility.yul\":1296:1604   */\n  swap2\n  swap1\n  pop\n  jump\t// out\n    /* \"#utility.yul\":1610:1749   */\ntag_21:\n    /* \"#utility.yul\":1699:1705   */\n  dup3\n    /* \"#utility.yul\":1694:1697   */\n  dup2\n    /* \"#utility.yul\":1689:1692   */\n  dup4\n    /* \"#utility.yul\":1683:1706   */\n  mcopy\n    /* \"#utility.yul\":1740:1741   */\n  0x00\n    /* \"#utility.yul\":1731:1737   */\n  dup4\n    /* \"#utility.yul\":1726:1729   */\n  dup4\n    /* \"#utility.yul\":1722:1738   */\n  add\n    /* \"#utility.yul\":1715:1742   */\n  mstore\n    /* \"#utility.yul\":1610:1749   */\n  pop\n  pop\n  pop\n  jump\t// out\n    /* \"#utility.yul\":1755:2189   */\ntag_22:\n    /* \"#utility.yul\":1844:1849   */\n  0x00\n    /* \"#utility.yul\":1869:1935   */\n  tag_64\n    /* \"#utility.yul\":1885:1934   */\n  tag_65\n    /* \"#utility.yul\":1927:1933   */\n  dup5\n    /* \"#utility.yul\":1885:1934   */\n  tag_20\n  jump\t// in\ntag_65:\n    /* \"#utility.yul\":1869:1935   */\n  tag_19\n  jump\t// in\ntag_64:\n    /* \"#utility.yul\":1860:1935   */\n  swap1\n  pop\n    /* \"#utility.yul\":1958:1964   */\n  dup3\n    /* \"#utility.yul\":1951:1956   */\n  dup2\n    /* \"#utility.yul\":1944:1965   */\n  mstore\n    /* \"#utility.yul\":1996:2000   */\n  0x20\n    /* \"#utility.yul\":1989:1994   */\n  dup2\n    /* \"#utility.yul\":1985:2001   */\n  add\n    /* \"#utility.yul\":2034:2037   */\n  dup5\n    /* \"#utility.yul\":2025:2031   */\n  dup5\n    /* \"#utility.yul\":2020:2023   */\n  dup5\n    /* \"#utility.yul\":2016:2032   */\n  add\n    /* \"#utility.yul\":2013:2038   */\n  gt\n    /* \"#utility.yul\":2010:2122   */\n  iszero\n  tag_66\n  jumpi\n    /* \"#utility.yul\":2041:2120   */\n  tag_67\n  tag_15\n  jump\t// in\ntag_67:\n    /* \"#utility.yul\":2010:2122   */\ntag_66:\n    /* \"#utility.yul\":2131:2183   */\n  tag_68\n    /* \"#utility.yul\":2176:2182   */\n  dup5\n    /* \"#utility.yul\":2171:2174   */\n  dup3\n    /* \"#utility.yul\":2166:2169   */\n  dup6\n    /* \"#utility.yul\":2131:2183   */\n  tag_21\n  jump\t// in\ntag_68:\n    /* \"#utility.yul\":1850:2189   */\n  pop\n    /* \"#utility.yul\":1755:2189   */\n  swap4\n  swap3\n  pop\n  pop\n  pop\n  jump\t// out\n    /* \"#utility.yul\":2209:2564   */\ntag_23:\n    /* \"#utility.yul\":2276:2281   */\n  0x00\n    /* \"#utility.yul\":2325:2328   */\n  dup3\n    /* \"#utility.yul\":2318:2322   */\n  0x1f\n    /* \"#utility.yul\":2310:2316   */\n  dup4\n    /* \"#utility.yul\":2306:2323   */\n  add\n    /* \"#utility.yul\":2302:2329   */\n  slt\n    /* \"#utility.yul\":2292:2414   */\n  tag_70\n  jumpi\n    /* \"#utility.yul\":2333:2412   */\n  tag_71\n  tag_14\n  jump\t// in\ntag_71:\n    /* \"#utility.yul\":2292:2414   */\ntag_70:\n    /* \"#utility.yul\":2443:2449   */\n  dup2\n    /* \"#utility.yul\":2437:2450   */\n  mload\n    /* \"#utility.yul\":2468:2558   */\n  tag_72\n    /* \"#utility.yul\":2554:2557   */\n  dup5\n    /* \"#utility.yul\":2546:2552   */\n  dup3\n    /* \"#utility.yul\":2539:2543   */\n  0x20\n    /* \"#utility.yul\":2531:2537   */\n  dup7\n    /* \"#utility.yul\":2527:2544   */\n  add\n    /* \"#utility.yul\":2468:2558   */\n  tag_22\n  jump\t// in\ntag_72:\n    /* \"#utility.yul\":2459:2558   */\n  swap2\n  pop\n    /* \"#utility.yul\":2282:2564   */\n  pop\n    /* \"#utility.yul\":2209:2564   */\n  swap3\n  swap2\n  pop\n  pop\n  jump\t// out\n    /* \"#utility.yul\":2570:3094   */\ntag_3:\n    /* \"#utility.yul\":2650:2656   */\n  0x00\n    /* \"#utility.yul\":2699:2701   */\n  0x20\n    /* \"#utility.yul\":2687:2696   */\n  dup3\n    /* \"#utility.yul\":2678:2685   */\n  dup5\n    /* \"#utility.yul\":2674:2697   */\n  sub\n    /* \"#utility.yul\":2670:2702   */\n  slt\n    /* \"#utility.yul\":2667:2786   */\n  iszero\n  tag_74\n  jumpi\n    /* \"#utility.yul\":2705:2784   */\n  tag_75\n  tag_12\n  jump\t// in\ntag_75:\n    /* \"#utility.yul\":2667:2786   */\ntag_74:\n    /* \"#utility.yul\":2846:2847   */\n  0x00\n    /* \"#utility.yul\":2835:2844   */\n  dup3\n    /* \"#utility.yul\":2831:2848   */\n  add\n    /* \"#utility.yul\":2825:2849   */\n  mload\n    /* \"#utility.yul\":2876:2894   */\n  0xffffffffffffffff\n    /* \"#utility.yul\":2868:2874   */\n  dup2\n    /* \"#utility.yul\":2865:2895   */\n  gt\n    /* \"#utility.yul\":2862:2979   */\n  iszero\n  tag_76\n  jumpi\n    /* \"#utility.yul\":2898:2977   */\n  tag_77\n  tag_13\n  jump\t// in\ntag_77:\n    /* \"#utility.yul\":2862:2979   */\ntag_76:\n    /* \"#utility.yul\":3003:3077   */\n  tag_78\n    /* \"#utility.yul\":3069:3076   */\n  dup5\n    /* \"#utility.yul\":3060:3066   */\n  dup3\n    /* \"#utility.yul\":3049:3058   */\n  dup6\n    /* \"#utility.yul\":3045:3067   */\n  add\n    /* \"#utility.yul\":3003:3077   */\n  tag_23\n  jump\t// in\ntag_78:\n    /* \"#utility.yul\":2993:3077   */\n  swap2\n  pop\n    /* \"#utility.yul\":2796:3087   */\n  pop\n    /* \"#utility.yul\":2570:3094   */\n  swap3\n  swap2\n  pop\n  pop\n  jump\t// out\n    /* \"#utility.yul\":3100:3199   */\ntag_24:\n    /* \"#utility.yul\":3152:3158   */\n  0x00\n    /* \"#utility.yul\":3186:3191   */\n  dup2\n    /* \"#utility.yul\":3180:3192   */\n  mload\n    /* \"#utility.yul\":3170:3192   */\n  swap1\n  pop\n    /* \"#utility.yul\":3100:3199   */\n  swap2\n  swap1\n  pop\n  jump\t// out\n    /* \"#utility.yul\":3205:3385   */\ntag_25:\n    /* \"#utility.yul\":3253:3330   */\n  0x4e487b7100000000000000000000000000000000000000000000000000000000\n    /* \"#utility.yul\":3250:3251   */\n  0x00\n    /* \"#utility.yul\":3243:3331   */\n  mstore\n    /* \"#utility.yul\":3350:3354   */\n  0x22\n    /* \"#utility.yul\":3347:3348   */\n  0x04\n    /* \"#utility.yul\":3340:3355   */\n  mstore\n    /* \"#utility.yul\":3374:3378   */\n  0x24\n    /* \"#utility.yul\":3371:3372   */\n  0x00\n    /* \"#utility.yul\":3364:3379   */\n  revert\n    /* \"#utility.yul\":3391:3711   */\ntag_26:\n    /* \"#utility.yul\":3435:3441   */\n  0x00\n    /* \"#utility.yul\":3472:3473   */\n  0x02\n    /* \"#utility.yul\":3466:3470   */\n  dup3\n    /* \"#utility.yul\":3462:3474   */\n  div\n    /* \"#utility.yul\":3452:3474   */\n  swap1\n  pop\n    /* \"#utility.yul\":3519:3520   */\n  0x01\n    /* \"#utility.yul\":3513:3517   */\n  dup3\n    /* \"#utility.yul\":3509:3521   */\n  and\n    /* \"#utility.yul\":3540:3558   */\n  dup1\n    /* \"#utility.yul\":3530:3611   */\n  tag_82\n  jumpi\n    /* \"#utility.yul\":3596:3600   */\n  0x7f\n    /* \"#utility.yul\":3588:3594   */\n  dup3\n    /* \"#utility.yul\":3584:3601   */\n  and\n    /* \"#utility.yul\":3574:3601   */\n  swap2\n  pop\n    /* \"#utility.yul\":3530:3611   */\ntag_82:\n    /* \"#utility.yul\":3658:3660   */\n  0x20\n    /* \"#utility.yul\":3650:3656   */\n  dup3\n    /* \"#utility.yul\":3647:3661   */\n  lt\n    /* \"#utility.yul\":3627:3645   */\n  dup2\n    /* \"#utility.yul\":3624:3662   */\n  sub\n    /* \"#utility.yul\":3621:3705   */\n  tag_83\n  jumpi\n    /* \"#utility.yul\":3677:3695   */\n  tag_84\n  tag_25\n  jump\t// in\ntag_84:\n    /* \"#utility.yul\":3621:3705   */\ntag_83:\n    /* \"#utility.yul\":3442:3711   */\n  pop\n    /* \"#utility.yul\":3391:3711   */\n  swap2\n  swap1\n  pop\n  jump\t// out\n    /* \"#utility.yul\":3717:3858   */\ntag_27:\n    /* \"#utility.yul\":3766:3770   */\n  0x00\n    /* \"#utility.yul\":3789:3792   */\n  dup2\n    /* \"#utility.yul\":3781:3792   */\n  swap1\n  pop\n    /* \"#utility.yul\":3812:3815   */\n  dup2\n    /* \"#utility.yul\":3809:3810   */\n  0x00\n    /* \"#utility.yul\":3802:3816   */\n  mstore\n    /* \"#utility.yul\":3846:3850   */\n  0x20\n    /* \"#utility.yul\":3843:3844   */\n  0x00\n    /* \"#utility.yul\":3833:3851   */\n  keccak256\n    /* \"#utility.yul\":3825:3851   */\n  swap1\n  pop\n    /* \"#utility.yul\":3717:3858   */\n  swap2\n  swap1\n  pop\n  jump\t// out\n    /* \"#utility.yul\":3864:3957   */\ntag_28:\n    /* \"#utility.yul\":3901:3907   */\n  0x00\n    /* \"#utility.yul\":3948:3950   */\n  0x20\n    /* \"#utility.yul\":3943:3945   */\n  0x1f\n    /* \"#utility.yul\":3936:3941   */\n  dup4\n    /* \"#utility.yul\":3932:3946   */\n  add\n    /* \"#utility.yul\":3928:3951   */\n  div\n    /* \"#utility.yul\":3918:3951   */\n  swap1\n  pop\n    /* \"#utility.yul\":3864:3957   */\n  swap2\n  swap1\n  pop\n  jump\t// out\n    /* \"#utility.yul\":3963:4070   */\ntag_29:\n    /* \"#utility.yul\":4007:4015   */\n  0x00\n    /* \"#utility.yul\":4057:4062   */\n  dup3\n    /* \"#utility.yul\":4051:4055   */\n  dup3\n    /* \"#utility.yul\":4047:4063   */\n  shl\n    /* \"#utility.yul\":4026:4063   */\n  swap1\n  pop\n    /* \"#utility.yul\":3963:4070   */\n  swap3\n  swap2\n  pop\n  pop\n  jump\t// out\n    /* \"#utility.yul\":4076:4469   */\ntag_30:\n    /* \"#utility.yul\":4145:4151   */\n  0x00\n    /* \"#utility.yul\":4195:4196   */\n  0x08\n    /* \"#utility.yul\":4183:4193   */\n  dup4\n    /* \"#utility.yul\":4179:4197   */\n  mul\n    /* \"#utility.yul\":4218:4315   */\n  tag_89\n    /* \"#utility.yul\":4248:4314   */\n  0xffffffffffffffffffffffffffffffffffffffffffffffffffffffffffffffff\n    /* \"#utility.yul\":4237:4246   */\n  dup3\n    /* \"#utility.yul\":4218:4315   */\n  tag_29\n  jump\t// in\ntag_89:\n    /* \"#utility.yul\":4336:4375   */\n  tag_90\n    /* \"#utility.yul\":4366:4374   */\n  dup7\n    /* \"#utility.yul\":4355:4364   */\n  dup4\n    /* \"#utility.yul\":4336:4375   */\n  tag_29\n  jump\t// in\ntag_90:\n    /* \"#utility.yul\":4324:4375   */\n  swap6\n  pop\n    /* \"#utility.yul\":4408:4412   */\n  dup1\n    /* \"#utility.yul\":4404:4413   */\n  not\n    /* \"#utility.yul\":4397:4402   */\n  dup5\n    /* \"#utility.yul\":4393:4414   */\n  and\n    /* \"#utility.yul\":4384:4414   */\n  swap4\n  pop\n    /* \"#utility.yul\":4457:4461   */\n  dup1\n    /* \"#utility.yul\":4447:4455   */\n  dup7\n    /* \"#utility.yul\":4443:4462   */\n  and\n    /* \"#utility.yul\":4436:4441   */\n  dup5\n    /* \"#utility.yul\":4433:4463   */\n  or\n    /* \"#utility.yul\":4423:4463   */\n  swap3\n  pop\n    /* \"#utility.yul\":4152:4469   */\n  pop\n  pop\n    /* \"#utility.yul\":4076:4469   */\n  swap4\n  swap3\n  pop\n  pop\n  pop\n  jump\t// out\n    /* \"#utility.yul\":4475:4552   */\ntag_31:\n    /* \"#utility.yul\":4512:4519   */\n  0x00\n    /* \"#utility.yul\":4541:4546   */\n  dup2\n    /* \"#utility.yul\":4530:4546   */\n  swap1\n  pop\n    /* \"#utility.yul\":4475:4552   */\n  swap2\n  swap1\n  pop\n  jump\t// out\n    /* \"#utility.yul\":4558:4618   */\ntag_32:\n    /* \"#utility.yul\":4586:4589   */\n  0x00\n    /* \"#utility.yul\":4607:4612   */\n  dup2\n    /* \"#utility.yul\":4600:4612   */\n  swap1\n  pop\n    /* \"#utility.yul\":4558:4618   */\n  swap2\n  swap1\n  pop\n  jump\t// out\n    /* \"#utility.yul\":4624:4766   */\ntag_33:\n    /* \"#utility.yul\":4674:4683   */\n  0x00\n    /* \"#utility.yul\":4707:4760   */\n  tag_94\n    /* \"#utility.yul\":4725:4759   */\n  tag_95\n    /* \"#utility.yul\":4734:4758   */\n  tag_96\n    /* \"#utility.yul\":4752:4757   */\n  dup5\n    /* \"#utility.yul\":4734:4758   */\n  tag_31\n  jump\t// in\ntag_96:\n    /* \"#utility.yul\":4725:4759   */\n  tag_32\n  jump\t// in\ntag_95:\n    /* \"#utility.yul\":4707:4760   */\n  tag_31\n  jump\t// in\ntag_94:\n    /* \"#utility.yul\":4694:4760   */\n  swap1\n  pop\n    /* \"#utility.yul\":4624:4766   */\n  swap2\n  swap1\n  pop\n  jump\t// out\n    /* \"#utility.yul\":4772:4847   */\ntag_34:\n    /* \"#utility.yul\":4815:4818   */\n  0x00\n    /* \"#utility.yul\":4836:4841   */\n  dup2\n    /* \"#utility.yul\":4829:4841   */\n  swap1\n  pop\n    /* \"#utility.yul\":4772:4847   */\n  swap2\n  swap1\n  pop\n  jump\t// out\n    /* \"#utility.yul\":4853:5122   */\ntag_35:\n    /* \"#utility.yul\":4963:5002   */\n  tag_99\n    /* \"#utility.yul\":4994:5001   */\n  dup4\n    /* \"#utility.yul\":4963:5002   */\n  tag_33\n  jump\t// in\ntag_99:\n    /* \"#utility.yul\":5024:5115   */\n  tag_100\n    /* \"#utility.yul\":5073:5114   */\n  tag_101\n    /* \"#utility.yul\":5097:5113   */\n  dup3\n    /* \"#utility.yul\":5073:5114   */\n  tag_34\n  jump\t// in\ntag_101:\n    /* \"#utility.yul\":5065:5071   */\n  dup5\n    /* \"#utility.yul\":5058:5062   */\n  dup5\n    /* \"#utility.yul\":5052:5063   */\n  sload\n    /* \"#utility.yul\":5024:5115   */\n  tag_30\n  jump\t// in\ntag_100:\n    /* \"#utility.yul\":5018:5022   */\n  dup3\n    /* \"#utility.yul\":5011:5116   */\n  sstore\n    /* \"#utility.yul\":4929:5122   */\n  pop\n    /* \"#utility.yul\":4853:5122   */\n  pop\n  pop\n  pop\n  jump\t// out\n    /* \"#utility.yul\":5128:5201   */\ntag_36:\n    /* \"#utility.yul\":5173:5176   */\n  0x00\n    /* \"#utility.yul\":5128:5201   */\n  swap1\n  jump\t// out\n    /* \"#utility.yul\":5207:5396   */\ntag_37:\n    /* \"#utility.yul\":5284:5316   */\n  tag_104\n  tag_36\n  jump\t// in\ntag_104:\n    /* \"#utility.yul\":5325:5390   */\n  tag_105\n    /* \"#utility.yul\":5383:5389   */\n  dup2\n    /* \"#utility.yul\":5375:5381   */\n  dup5\n    /* \"#utility.yul\":5369:5373   */\n  dup5\n    /* \"#utility.yul\":5325:5390   */\n  tag_35\n  jump\t// in\ntag_105:\n    /* \"#utility.yul\":5260:5396   */\n  pop\n    /* \"#utility.yul\":5207:5396   */\n  pop\n  pop\n  jump\t// out\n    /* \"#utility.yul\":5402:5588   */\ntag_38:\n    /* \"#utility.yul\":5462:5582   */\ntag_107:\n    /* \"#utility.yul\":5479:5482   */\n  dup2\n    /* \"#utility.yul\":5472:5477   */\n  dup2\n    /* \"#utility.yul\":5469:5483   */\n  lt\n    /* \"#utility.yul\":5462:5582   */\n  iszero\n  tag_109\n  jumpi\n    /* \"#utility.yul\":5533:5572   */\n  tag_110\n    /* \"#utility.yul\":5570:5571   */\n  0x00\n    /* \"#utility.yul\":5563:5568   */\n  dup3\n    /* \"#utility.yul\":5533:5572   */\n  tag_37\n  jump\t// in\ntag_110:\n    /* \"#utility.yul\":5506:5507   */\n  0x01\n    /* \"#utility.yul\":5499:5504   */\n  dup2\n    /* \"#utility.yul\":5495:5508   */\n  add\n    /* \"#utility.yul\":5486:5508   */\n  swap1\n  pop\n    /* \"#utility.yul\":5462:5582   */\n  jump(tag_107)\ntag_109:\n    /* \"#utility.yul\":5402:5588   */\n  pop\n  pop\n  jump\t// out\n    /* \"#utility.yul\":5594:6137   */\ntag_39:\n    /* \"#utility.yul\":5695:5697   */\n  0x1f\n    /* \"#utility.yul\":5690:5693   */\n  dup3\n    /* \"#utility.yul\":5687:5698   */\n  gt\n    /* \"#utility.yul\":5684:6130   */\n  iszero\n  tag_112\n  jumpi\n    /* \"#utility.yul\":5729:5767   */\n  tag_113\n    /* \"#utility.yul\":5761:5766   */\n  dup2\n    /* \"#utility.yul\":5729:5767   */\n  tag_27\n  jump\t// in\ntag_113:\n    /* \"#utility.yul\":5813:5842   */\n  tag_114\n    /* \"#utility.yul\":5831:5841   */\n  dup5\n    /* \"#utility.yul\":5813:5842   */\n  tag_28\n  jump\t// in\ntag_114:\n    /* \"#utility.yul\":5803:5811   */\n  dup2\n    /* \"#utility.yul\":5799:5843   */\n  add\n    /* \"#utility.yul\":5996:5998   */\n  0x20\n    /* \"#utility.yul\":5984:5994   */\n  dup6\n    /* \"#utility.yul\":5981:5999   */\n  lt\n    /* \"#utility.yul\":5978:6027   */\n  iszero\n  tag_115\n  jumpi\n    /* \"#utility.yul\":6017:6025   */\n  dup2\n    /* \"#utility.yul\":6002:6025   */\n  swap1\n  pop\n    /* \"#utility.yul\":5978:6027   */\ntag_115:\n    /* \"#utility.yul\":6040:6120   */\n  tag_116\n    /* \"#utility.yul\":6096:6118   */\n  tag_117\n    /* \"#utility.yul\":6114:6117   */\n  dup6\n    /* \"#utility.yul\":6096:6118   */\n  tag_28\n  jump\t// in\ntag_117:\n    /* \"#utility.yul\":6086:6094   */\n  dup4\n    /* \"#utility.yul\":6082:6119   */\n  add\n    /* \"#utility.yul\":6069:6080   */\n  dup3\n    /* \"#utility.yul\":6040:6120   */\n  tag_38\n  jump\t// in\ntag_116:\n    /* \"#utility.yul\":5699:6130   */\n  pop\n  pop\n    /* \"#utility.yul\":5684:6130   */\ntag_112:\n    /* \"#utility.yul\":5594:6137   */\n  pop\n  pop\n  pop\n  jump\t// out\n    /* \"#utility.yul\":6143:6260   */\ntag_40:\n    /* \"#utility.yul\":6197:6205   */\n  0x00\n    /* \"#utility.yul\":6247:6252   */\n  dup3\n    /* \"#utility.yul\":6241:6245   */\n  dup3\n    /* \"#utility.yul\":6237:6253   */\n  shr\n    /* \"#utility.yul\":6216:6253   */\n  swap1\n  pop\n    /* \"#utility.yul\":6143:6260   */\n  swap3\n  swap2\n  pop\n  pop\n  jump\t// out\n    /* \"#utility.yul\":6266:6435   */\ntag_41:\n    /* \"#utility.yul\":6310:6316   */\n  0x00\n    /* \"#utility.yul\":6343:6394   */\n  tag_120\n    /* \"#utility.yul\":6391:6392   */\n  0x00\n    /* \"#utility.yul\":6387:6393   */\n  not\n    /* \"#utility.yul\":6379:6384   */\n  dup5\n    /* \"#utility.yul\":6376:6377   */\n  0x08\n    /* \"#utility.yul\":6372:6385   */\n  mul\n    /* \"#utility.yul\":6343:6394   */\n  tag_40\n  jump\t// in\ntag_120:\n    /* \"#utility.yul\":6339:6395   */\n  not\n    /* \"#utility.yul\":6424:6428   */\n  dup1\n    /* \"#utility.yul\":6418:6422   */\n  dup4\n    /* \"#utility.yul\":6414:6429   */\n  and\n    /* \"#utility.yul\":6404:6429   */\n  swap2\n  pop\n    /* \"#utility.yul\":6317:6435   */\n  pop\n    /* \"#utility.yul\":6266:6435   */\n  swap3\n  swap2\n  pop\n  pop\n  jump\t// out\n    /* \"#utility.yul\":6440:6735   */\ntag_42:\n    /* \"#utility.yul\":6516:6520   */\n  0x00\n    /* \"#utility.yul\":6662:6691   */\n  tag_122\n    /* \"#utility.yul\":6687:6690   */\n  dup4\n    /* \"#utility.yul\":6681:6685   */\n  dup4\n    /* \"#utility.yul\":6662:6691   */\n  tag_41\n  jump\t// in\ntag_122:\n    /* \"#utility.yul\":6654:6691   */\n  swap2\n  pop\n    /* \"#utility.yul\":6724:6727   */\n  dup3\n    /* \"#utility.yul\":6721:6722   */\n  0x02\n    /* \"#utility.yul\":6717:6728   */\n  mul\n    /* \"#utility.yul\":6711:6715   */\n  dup3\n    /* \"#utility.yul\":6708:6729   */\n  or\n    /* \"#utility.yul\":6700:6729   */\n  swap1\n  pop\n    /* \"#utility.yul\":6440:6735   */\n  swap3\n  swap2\n  pop\n  pop\n  jump\t// out\n    /* \"#utility.yul\":6740:8135   */\ntag_8:\n    /* \"#utility.yul\":6857:6894   */\n  tag_124\n    /* \"#utility.yul\":6890:6893   */\n  dup3\n    /* \"#utility.yul\":6857:6894   */\n  tag_24\n  jump\t// in\ntag_124:\n    /* \"#utility.yul\":6959:6977   */\n  0xffffffffffffffff\n    /* \"#utility.yul\":6951:6957   */\n  dup2\n    /* \"#utility.yul\":6948:6978   */\n  gt\n    /* \"#utility.yul\":6945:7001   */\n  iszero\n  tag_125\n  jumpi\n    /* \"#utility.yul\":6981:6999   */\n  tag_126\n  tag_17\n  jump\t// in\ntag_126:\n    /* \"#utility.yul\":6945:7001   */\ntag_125:\n    /* \"#utility.yul\":7025:7063   */\n  tag_127\n    /* \"#utility.yul\":7057:7061   */\n  dup3\n    /* \"#utility.yul\":7051:7062   */\n  sload\n    /* \"#utility.yul\":7025:7063   */\n  tag_26\n  jump\t// in\ntag_127:\n    /* \"#utility.yul\":7110:7177   */\n  tag_128\n    /* \"#utility.yul\":7170:7176   */\n  dup3\n    /* \"#utility.yul\":7162:7168   */\n  dup3\n    /* \"#utility.yul\":7156:7160   */\n  dup6\n    /* \"#utility.yul\":7110:7177   */\n  tag_39\n  jump\t// in\ntag_128:\n    /* \"#utility.yul\":7204:7205   */\n  0x00\n    /* \"#utility.yul\":7228:7232   */\n  0x20\n    /* \"#utility.yul\":7215:7232   */\n  swap1\n  pop\n    /* \"#utility.yul\":7260:7262   */\n  0x1f\n    /* \"#utility.yul\":7252:7258   */\n  dup4\n    /* \"#utility.yul\":7249:7263   */\n  gt\n    /* \"#utility.yul\":7277:7278   */\n  0x01\n    /* \"#utility.yul\":7272:7890   */\n  dup2\n  eq\n  tag_130\n  jumpi\n    /* \"#utility.yul\":7934:7935   */\n  0x00\n    /* \"#utility.yul\":7951:7957   */\n  dup5\n    /* \"#utility.yul\":7948:8025   */\n  iszero\n  tag_131\n  jumpi\n    /* \"#utility.yul\":8000:8009   */\n  dup3\n    /* \"#utility.yul\":7995:7998   */\n  dup8\n    /* \"#utility.yul\":7991:8010   */\n  add\n    /* \"#utility.yul\":7985:8011   */\n  mload\n    /* \"#utility.yul\":7976:8011   */\n  swap1\n  pop\n    /* \"#utility.yul\":7948:8025   */\ntag_131:\n    /* \"#utility.yul\":8051:8118   */\n  tag_132\n    /* \"#utility.yul\":8111:8117   */\n  dup6\n    /* \"#utility.yul\":8104:8109   */\n  dup3\n    /* \"#utility.yul\":8051:8118   */\n  tag_42\n  jump\t// in\ntag_132:\n    /* \"#utility.yul\":8045:8049   */\n  dup7\n    /* \"#utility.yul\":8038:8119   */\n  sstore\n    /* \"#utility.yul\":7907:8129   */\n  pop\n    /* \"#utility.yul\":7242:8129   */\n  jump(tag_129)\n    /* \"#utility.yul\":7272:7890   */\ntag_130:\n    /* \"#utility.yul\":7324:7328   */\n  0x1f\n    /* \"#utility.yul\":7320:7329   */\n  not\n    /* \"#utility.yul\":7312:7318   */\n  dup5\n    /* \"#utility.yul\":7308:7330   */\n  and\n    /* \"#utility.yul\":7358:7395   */\n  tag_133\n    /* \"#utility.yul\":7390:7394   */\n  dup7\n    /* \"#utility.yul\":7358:7395   */\n  tag_27\n  jump\t// in\ntag_133:\n    /* \"#utility.yul\":7417:7418   */\n  0x00\n    /* \"#utility.yul\":7431:7639   */\ntag_134:\n    /* \"#utility.yul\":7445:7452   */\n  dup3\n    /* \"#utility.yul\":7442:7443   */\n  dup2\n    /* \"#utility.yul\":7439:7453   */\n  lt\n    /* \"#utility.yul\":7431:7639   */\n  iszero\n  tag_136\n  jumpi\n    /* \"#utility.yul\":7524:7533   */\n  dup5\n    /* \"#utility.yul\":7519:7522   */\n  dup10\n    /* \"#utility.yul\":7515:7534   */\n  add\n    /* \"#utility.yul\":7509:7535   */\n  mload\n    /* \"#utility.yul\":7501:7507   */\n  dup3\n    /* \"#utility.yul\":7494:7536   */\n  sstore\n    /* \"#utility.yul\":7575:7576   */\n  0x01\n    /* \"#utility.yul\":7567:7573   */\n  dup3\n    /* \"#utility.yul\":7563:7577   */\n  add\n    /* \"#utility.yul\":7553:7577   */\n  swap2\n  pop\n    /* \"#utility.yul\":7622:7624   */\n  0x20\n    /* \"#utility.yul\":7611:7620   */\n  dup6\n    /* \"#utility.yul\":7607:7625   */\n  add\n    /* \"#utility.yul\":7594:7625   */\n  swap5\n  pop\n    /* \"#utility.yul\":7468:7472   */\n  0x20\n    /* \"#utility.yul\":7465:7466   */\n  dup2\n    /* \"#utility.yul\":7461:7473   */\n  add\n    /* \"#utility.yul\":7456:7473   */\n  swap1\n  pop\n    /* \"#utility.yul\":7431:7639   */\n  jump(tag_134)\ntag_136:\n    /* \"#utility.yul\":7667:7673   */\n  dup7\n    /* \"#utility.yul\":7658:7665   */\n  dup4\n    /* \"#utility.yul\":7655:7674   */\n  lt\n    /* \"#utility.yul\":7652:7831   */\n  iszero\n  tag_137\n  jumpi\n    /* \"#utility.yul\":7725:7734   */\n  dup5\n    /* \"#utility.yul\":7720:7723   */\n  dup10\n    /* \"#utility.yul\":7716:7735   */\n  add\n    /* \"#utility.yul\":7710:7736   */\n  mload\n    /* \"#utility.yul\":7768:7816   */\n  tag_138\n    /* \"#utility.yul\":7810:7814   */\n  0x1f\n    /* \"#utility.yul\":7802:7808   */\n  dup10\n    /* \"#utility.yul\":7798:7815   */\n  and\n    /* \"#utility.yul\":7787:7796   */\n  dup3\n    /* \"#utility.yul\":7768:7816   */\n  tag_41\n  jump\t// in\ntag_138:\n    /* \"#utility.yul\":7760:7766   */\n  dup4\n    /* \"#utility.yul\":7753:7817   */\n  sstore\n    /* \"#utility.yul\":7675:7831   */\n  pop\n    /* \"#utility.yul\":7652:7831   */\ntag_137:\n    /* \"#utility.yul\":7877:7878   */\n  0x01\n    /* \"#utility.yul\":7873:7874   */\n  0x02\n    /* \"#utility.yul\":7865:7871   */\n  dup9\n    /* \"#utility.yul\":7861:7875   */\n  mul\n    /* \"#utility.yul\":7857:7879   */\n  add\n    /* \"#utility.yul\":7851:7855   */\n  dup9\n    /* \"#utility.yul\":7844:7880   */\n  sstore\n    /* \"#utility.yul\":7279:7890   */\n  pop\n  pop\n  pop\n    /* \"#utility.yul\":7242:8129   */\ntag_129:\n  pop\n    /* \"#utility.yul\":6832:8135   */\n  pop\n  pop\n  pop\n    /* \"#utility.yul\":6740:8135   */\n  pop\n  pop\n  jump\t// out\n    /* \"task2_lab5.sol\":819:1262  contract FallbackDonation is DonationTracker {... */\ntag_10:\n  dataSize(sub_0)\n  dup1\n  dataOffset(sub_0)\n  0x00\n  codecopy\n  0x00\n  return\nstop\n\nsub_0: assembly {\n        /* \"task2_lab5.sol\":819:1262  contract FallbackDonation is DonationTracker {... */\n      mstore(0x40, 0x80)\n      jumpi(tag_1, lt(calldatasize, 0x04))\n      shr(0xe0, calldataload(0x00))\n      dup1\n      0x27e235e3\n      eq\n      tag_3\n      jumpi\n      dup1\n      0x70740aab\n      eq\n      tag_4\n      jumpi\n      dup1\n      0x8da5cb5b\n      eq\n      tag_5\n      jumpi\n      dup1\n      0x96b1cf28\n      eq\n      tag_6\n      jumpi\n      dup1\n      0xed88c68e\n      eq\n      tag_7\n      jumpi\n      jump(tag_2)\n    tag_1:\n      jumpi(tag_2, calldatasize)\n        /* \"task2_lab5.sol\":1077:1086  msg.value */\n      callvalue\n        /* \"task2_lab5.sol\":1053:1061  balances */\n      0x02\n        /* \"task2_lab5.sol\":1053:1073  balances[msg.sender] */\n      0x00\n        /* \"task2_lab5.sol\":1062:1072  msg.sender */\n      caller\n        /* \"task2_lab5.sol\":1053:1073  balances[msg.sender] */\n      0xffffffffffffffffffffffffffffffffffffffff\n      and\n      0xffffffffffffffffffffffffffffffffffffffff\n      and\n      dup2\n      mstore\n      0x20\n      add\n      swap1\n      dup2\n      mstore\n      0x20\n      add\n      0x00\n      keccak256\n      0x00\n        /* \"task2_lab5.sol\":1053:1086  balances[msg.sender] += msg.value */\n      dup3\n      dup3\n      sload\n      tag_10\n      swap2\n      swap1\n      tag_11\n      jump\t// in\n    tag_10:\n      swap3\n      pop\n      pop\n      dup2\n      swap1\n      sstore\n      pop\n        /* \"task2_lab5.sol\":1119:1129  msg.sender */\n      caller\n        /* \"task2_lab5.sol\":1102:1141  DonationReceived(msg.sender, msg.value) */\n      0xffffffffffffffffffffffffffffffffffffffff\n      and\n      0x264f630d9efa0d07053a31163641d9fcc0adafc9d9e76f1c37c2ce3a558d2c52\n        /* \"task2_lab5.sol\":1131:1140  msg.value */\n      callvalue\n        /* \"task2_lab5.sol\":1102:1141  DonationReceived(msg.sender, msg.value) */\n      mload(0x40)\n      tag_12\n      swap2\n      swap1\n      tag_13\n      jump\t// in\n    tag_12:\n      mload(0x40)\n      dup1\n      swap2\n      sub\n      swap1\n      log2\n        /* \"task2_lab5.sol\":819:1262  contract FallbackDonation is DonationTracker {... */\n      stop\n    tag_2:\n        /* \"task2_lab5.sol\":1201:1251  FallbackTriggered(msg.sender, msg.value, msg.data) */\n      0x390f97e4a5ab8058ca67d5e2db9310ca12d1e29c64f7eb23dc5f12f1c31e9058\n        /* \"task2_lab5.sol\":1219:1229  msg.sender */\n      caller\n        /* \"task2_lab5.sol\":1231:1240  msg.value */\n      callvalue\n        /* \"task2_lab5.sol\":1242:1250  msg.data */\n      0x00\n      calldatasize\n        /* \"task2_lab5.sol\":1201:1251  FallbackTriggered(msg.sender, msg.value, msg.data) */\n      mload(0x40)\n      tag_16\n      swap5\n      swap4\n      swap3\n      swap2\n      swap1\n      tag_17\n      jump\t// in\n    tag_16:\n      mload(0x40)\n      dup1\n      swap2\n      sub\n      swap1\n      log1\n        /* \"task2_lab5.sol\":819:1262  contract FallbackDonation is DonationTracker {... */\n      stop\n        /* \"task2_lab5.sol\":149:189  mapping(address => uint) public balances */\n    tag_3:\n      callvalue\n      dup1\n      iszero\n      tag_18\n      jumpi\n      0x00\n      dup1\n      revert\n    tag_18:\n      pop\n      tag_19\n      0x04\n      dup1\n      calldatasize\n      sub\n      dup2\n      add\n      swap1\n      tag_20\n      swap2\n      swap1\n      tag_21\n      jump\t// in\n    tag_20:\n      tag_22\n      jump\t// in\n    tag_19:\n      mload(0x40)\n      tag_23\n      swap2\n      swap1\n      tag_13\n      jump\t// in\n    tag_23:\n      mload(0x40)\n      dup1\n      swap2\n      sub\n      swap1\n      return\n        /* \"task2_lab5.sol\":119:140  string public purpose */\n    tag_4:\n      callvalue\n      dup1\n      iszero\n      tag_24\n      jumpi\n      0x00\n      dup1\n      revert\n    tag_24:\n      pop\n      tag_25\n      tag_26\n      jump\t// in\n    tag_25:\n      mload(0x40)\n      tag_27\n      swap2\n      swap1\n      tag_28\n      jump\t// in\n    tag_27:\n      mload(0x40)\n      dup1\n      swap2\n      sub\n      swap1\n      return\n        /* \"task2_lab5.sol\":92:112  address public owner */\n    tag_5:\n      callvalue\n      dup1\n      iszero\n      tag_29\n      jumpi\n      0x00\n      dup1\n      revert\n    tag_29:\n      pop\n      tag_30\n      tag_31\n      jump\t// in\n    tag_30:\n      mload(0x40)\n      tag_32\n      swap2\n      swap1\n      tag_33\n      jump\t// in\n    tag_32:\n      mload(0x40)\n      dup1\n      swap2\n      sub\n      swap1\n      return\n        /* \"task2_lab5.sol\":705:812  function updatePurpose(string memory _newPurpose) public onlyOwner {... */\n    tag_6:\n      callvalue\n      dup1\n      iszero\n      tag_34\n      jumpi\n      0x00\n      dup1\n      revert\n    tag_34:\n      pop\n      tag_35\n      0x04\n      dup1\n      calldatasize\n      sub\n      dup2\n      add\n      swap1\n      tag_36\n      swap2\n      swap1\n      tag_37\n      jump\t// in\n    tag_36:\n      tag_38\n      jump\t// in\n    tag_35:\n      stop\n        /* \"task2_lab5.sol\":489:697  function donate() public payable {... */\n    tag_7:\n      tag_39\n      tag_40\n      jump\t// in\n    tag_39:\n      stop\n        /* \"task2_lab5.sol\":149:189  mapping(address => uint) public balances */\n    tag_22:\n      mstore(0x20, 0x02)\n      dup1\n      0x00\n      mstore\n      keccak256(0x00, 0x40)\n      0x00\n      swap2\n      pop\n      swap1\n      pop\n      sload\n      dup2\n      jump\t// out\n        /* \"task2_lab5.sol\":119:140  string public purpose */\n    tag_26:\n      0x01\n      dup1\n      sload\n      tag_41\n      swap1\n      tag_42\n      jump\t// in\n    tag_41:\n      dup1\n      0x1f\n      add\n      0x20\n      dup1\n      swap2\n      div\n      mul\n      0x20\n      add\n      mload(0x40)\n      swap1\n      dup2\n      add\n      0x40\n      mstore\n      dup1\n      swap3\n      swap2\n      swap1\n      dup2\n      dup2\n      mstore\n      0x20\n      add\n      dup3\n      dup1\n      sload\n      tag_43\n      swap1\n      tag_42\n      jump\t// in\n    tag_43:\n      dup1\n      iszero\n      tag_44\n      jumpi\n      dup1\n      0x1f\n      lt\n      tag_45\n      jumpi\n      0x0100\n      dup1\n      dup4\n      sload\n      div\n      mul\n      dup4\n      mstore\n      swap2\n      0x20\n      add\n      swap2\n      jump(tag_44)\n    tag_45:\n      dup3\n      add\n      swap2\n      swap1\n      0x00\n      mstore\n      keccak256(0x00, 0x20)\n      swap1\n    tag_46:\n      dup2\n      sload\n      dup2\n      mstore\n      swap1\n      0x01\n      add\n      swap1\n      0x20\n      add\n      dup1\n      dup4\n      gt\n      tag_46\n      jumpi\n      dup3\n      swap1\n      sub\n      0x1f\n      and\n      dup3\n      add\n      swap2\n    tag_44:\n      pop\n      pop\n      pop\n      pop\n      pop\n      dup2\n      jump\t// out\n        /* \"task2_lab5.sol\":92:112  address public owner */\n    tag_31:\n      0x00\n      dup1\n      sload\n      swap1\n      0x0100\n      exp\n      swap1\n      div\n      0xffffffffffffffffffffffffffffffffffffffff\n      and\n      dup2\n      jump\t// out\n        /* \"task2_lab5.sol\":705:812  function updatePurpose(string memory _newPurpose) public onlyOwner {... */\n    tag_38:\n        /* \"task2_lab5.sol\":319:324  owner */\n      0x00\n      dup1\n      sload\n      swap1\n      0x0100\n      exp\n      swap1\n      div\n      0xffffffffffffffffffffffffffffffffffffffff\n      and\n        /* \"task2_lab5.sol\":305:324  msg.sender == owner */\n      0xffffffffffffffffffffffffffffffffffffffff\n      and\n        /* \"task2_lab5.sol\":305:315  msg.sender */\n      caller\n        /* \"task2_lab5.sol\":305:324  msg.sender == owner */\n      0xffffffffffffffffffffffffffffffffffffffff\n      and\n      eq\n        /* \"task2_lab5.sol\":297:351  require(msg.sender == owner, \"Not the contract owner\") */\n      tag_48\n      jumpi\n      mload(0x40)\n      0x08c379a000000000000000000000000000000000000000000000000000000000\n      dup2\n      mstore\n      0x04\n      add\n      tag_49\n      swap1\n      tag_50\n      jump\t// in\n    tag_49:\n      mload(0x40)\n      dup1\n      swap2\n      sub\n      swap1\n      revert\n    tag_48:\n        /* \"task2_lab5.sol\":793:804  _newPurpose */\n      dup1\n        /* \"task2_lab5.sol\":783:790  purpose */\n      0x01\n        /* \"task2_lab5.sol\":783:804  purpose = _newPurpose */\n      swap1\n      dup2\n      tag_52\n      swap2\n      swap1\n      tag_53\n      jump\t// in\n    tag_52:\n      pop\n        /* \"task2_lab5.sol\":705:812  function updatePurpose(string memory _newPurpose) public onlyOwner {... */\n      pop\n      jump\t// out\n        /* \"task2_lab5.sol\":489:697  function donate() public payable {... */\n    tag_40:\n        /* \"task2_lab5.sol\":553:554  0 */\n      0x00\n        /* \"task2_lab5.sol\":541:550  msg.value */\n      callvalue\n        /* \"task2_lab5.sol\":541:554  msg.value > 0 */\n      gt\n        /* \"task2_lab5.sol\":533:590  require(msg.value > 0, \"Donation must be greater than 0\") */\n      tag_55\n      jumpi\n      mload(0x40)\n      0x08c379a000000000000000000000000000000000000000000000000000000000\n      dup2\n      mstore\n      0x04\n      add\n      tag_56\n      swap1\n      tag_57\n      jump\t// in\n    tag_56:\n      mload(0x40)\n      dup1\n      swap2\n      sub\n      swap1\n      revert\n    tag_55:\n        /* \"task2_lab5.sol\":625:634  msg.value */\n      callvalue\n        /* \"task2_lab5.sol\":601:609  balances */\n      0x02\n        /* \"task2_lab5.sol\":601:621  balances[msg.sender] */\n      0x00\n        /* \"task2_lab5.sol\":610:620  msg.sender */\n      caller\n        /* \"task2_lab5.sol\":601:621  balances[msg.sender] */\n      0xffffffffffffffffffffffffffffffffffffffff\n      and\n      0xffffffffffffffffffffffffffffffffffffffff\n      and\n      dup2\n      mstore\n      0x20\n      add\n      swap1\n      dup2\n      mstore\n      0x20\n      add\n      0x00\n      keccak256\n      0x00\n        /* \"task2_lab5.sol\":601:634  balances[msg.sender] += msg.value */\n      dup3\n      dup3\n      sload\n      tag_58\n      swap2\n      swap1\n      tag_11\n      jump\t// in\n    tag_58:\n      swap3\n      pop\n      pop\n      dup2\n      swap1\n      sstore\n      pop\n        /* \"task2_lab5.sol\":667:677  msg.sender */\n      caller\n        /* \"task2_lab5.sol\":650:689  DonationReceived(msg.sender, msg.value) */\n      0xffffffffffffffffffffffffffffffffffffffff\n      and\n      0x264f630d9efa0d07053a31163641d9fcc0adafc9d9e76f1c37c2ce3a558d2c52\n        /* \"task2_lab5.sol\":679:688  msg.value */\n      callvalue\n        /* \"task2_lab5.sol\":650:689  DonationReceived(msg.sender, msg.value) */\n      mload(0x40)\n      tag_59\n      swap2\n      swap1\n      tag_13\n      jump\t// in\n    tag_59:\n      mload(0x40)\n      dup1\n      swap2\n      sub\n      swap1\n      log2\n        /* \"task2_lab5.sol\":489:697  function donate() public payable {... */\n      jump\t// out\n        /* \"#utility.yul\":7:84   */\n    tag_60:\n        /* \"#utility.yul\":44:51   */\n      0x00\n        /* \"#utility.yul\":73:78   */\n      dup2\n        /* \"#utility.yul\":62:78   */\n      swap1\n      pop\n        /* \"#utility.yul\":7:84   */\n      swap2\n      swap1\n      pop\n      jump\t// out\n        /* \"#utility.yul\":90:270   */\n    tag_61:\n        /* \"#utility.yul\":138:215   */\n      0x4e487b7100000000000000000000000000000000000000000000000000000000\n        /* \"#utility.yul\":135:136   */\n      0x00\n        /* \"#utility.yul\":128:216   */\n      mstore\n        /* \"#utility.yul\":235:239   */\n      0x11\n        /* \"#utility.yul\":232:233   */\n      0x04\n        /* \"#utility.yul\":225:240   */\n      mstore\n        /* \"#utility.yul\":259:263   */\n      0x24\n        /* \"#utility.yul\":256:257   */\n      0x00\n        /* \"#utility.yul\":249:264   */\n      revert\n        /* \"#utility.yul\":276:467   */\n    tag_11:\n        /* \"#utility.yul\":316:319   */\n      0x00\n        /* \"#utility.yul\":335:355   */\n      tag_111\n        /* \"#utility.yul\":353:354   */\n      dup3\n        /* \"#utility.yul\":335:355   */\n      tag_60\n      jump\t// in\n    tag_111:\n        /* \"#utility.yul\":330:355   */\n      swap2\n      pop\n        /* \"#utility.yul\":369:389   */\n      tag_112\n        /* \"#utility.yul\":387:388   */\n      dup4\n        /* \"#utility.yul\":369:389   */\n      tag_60\n      jump\t// in\n    tag_112:\n        /* \"#utility.yul\":364:389   */\n      swap3\n      pop\n        /* \"#utility.yul\":412:413   */\n      dup3\n        /* \"#utility.yul\":409:410   */\n      dup3\n        /* \"#utility.yul\":405:414   */\n      add\n        /* \"#utility.yul\":398:414   */\n      swap1\n      pop\n        /* \"#utility.yul\":433:436   */\n      dup1\n        /* \"#utility.yul\":430:431   */\n      dup3\n        /* \"#utility.yul\":427:437   */\n      gt\n        /* \"#utility.yul\":424:460   */\n      iszero\n      tag_113\n      jumpi\n        /* \"#utility.yul\":440:458   */\n      tag_114\n      tag_61\n      jump\t// in\n    tag_114:\n        /* \"#utility.yul\":424:460   */\n    tag_113:\n        /* \"#utility.yul\":276:467   */\n      swap3\n      swap2\n      pop\n      pop\n      jump\t// out\n        /* \"#utility.yul\":473:591   */\n    tag_62:\n        /* \"#utility.yul\":560:584   */\n      tag_116\n        /* \"#utility.yul\":578:583   */\n      dup2\n        /* \"#utility.yul\":560:584   */\n      tag_60\n      jump\t// in\n    tag_116:\n        /* \"#utility.yul\":555:558   */\n      dup3\n        /* \"#utility.yul\":548:585   */\n      mstore\n        /* \"#utility.yul\":473:591   */\n      pop\n      pop\n      jump\t// out\n        /* \"#utility.yul\":597:819   */\n    tag_13:\n        /* \"#utility.yul\":690:694   */\n      0x00\n        /* \"#utility.yul\":728:730   */\n      0x20\n        /* \"#utility.yul\":717:726   */\n      dup3\n        /* \"#utility.yul\":713:731   */\n      add\n        /* \"#utility.yul\":705:731   */\n      swap1\n      pop\n        /* \"#utility.yul\":741:812   */\n      tag_118\n        /* \"#utility.yul\":809:810   */\n      0x00\n        /* \"#utility.yul\":798:807   */\n      dup4\n        /* \"#utility.yul\":794:811   */\n      add\n        /* \"#utility.yul\":785:791   */\n      dup5\n        /* \"#utility.yul\":741:812   */\n      tag_62\n      jump\t// in\n    tag_118:\n        /* \"#utility.yul\":597:819   */\n      swap3\n      swap2\n      pop\n      pop\n      jump\t// out\n        /* \"#utility.yul\":825:951   */\n    tag_63:\n        /* \"#utility.yul\":862:869   */\n      0x00\n        /* \"#utility.yul\":902:944   */\n      0xffffffffffffffffffffffffffffffffffffffff\n        /* \"#utility.yul\":895:900   */\n      dup3\n        /* \"#utility.yul\":891:945   */\n      and\n        /* \"#utility.yul\":880:945   */\n      swap1\n      pop\n        /* \"#utility.yul\":825:951   */\n      swap2\n      swap1\n      pop\n      jump\t// out\n        /* \"#utility.yul\":957:1053   */\n    tag_64:\n        /* \"#utility.yul\":994:1001   */\n      0x00\n        /* \"#utility.yul\":1023:1047   */\n      tag_121\n        /* \"#utility.yul\":1041:1046   */\n      dup3\n        /* \"#utility.yul\":1023:1047   */\n      tag_63\n      jump\t// in\n    tag_121:\n        /* \"#utility.yul\":1012:1047   */\n      swap1\n      pop\n        /* \"#utility.yul\":957:1053   */\n      swap2\n      swap1\n      pop\n      jump\t// out\n        /* \"#utility.yul\":1059:1177   */\n    tag_65:\n        /* \"#utility.yul\":1146:1170   */\n      tag_123\n        /* \"#utility.yul\":1164:1169   */\n      dup2\n        /* \"#utility.yul\":1146:1170   */\n      tag_64\n      jump\t// in\n    tag_123:\n        /* \"#utility.yul\":1141:1144   */\n      dup3\n        /* \"#utility.yul\":1134:1171   */\n      mstore\n        /* \"#utility.yul\":1059:1177   */\n      pop\n      pop\n      jump\t// out\n        /* \"#utility.yul\":1183:1351   */\n    tag_66:\n        /* \"#utility.yul\":1266:1277   */\n      0x00\n        /* \"#utility.yul\":1300:1306   */\n      dup3\n        /* \"#utility.yul\":1295:1298   */\n      dup3\n        /* \"#utility.yul\":1288:1307   */\n      mstore\n        /* \"#utility.yul\":1340:1344   */\n      0x20\n        /* \"#utility.yul\":1335:1338   */\n      dup3\n        /* \"#utility.yul\":1331:1345   */\n      add\n        /* \"#utility.yul\":1316:1345   */\n      swap1\n      pop\n        /* \"#utility.yul\":1183:1351   */\n      swap3\n      swap2\n      pop\n      pop\n      jump\t// out\n        /* \"#utility.yul\":1357:1505   */\n    tag_67:\n        /* \"#utility.yul\":1455:1461   */\n      dup3\n        /* \"#utility.yul\":1450:1453   */\n      dup2\n        /* \"#utility.yul\":1445:1448   */\n      dup4\n        /* \"#utility.yul\":1432:1462   */\n      calldatacopy\n        /* \"#utility.yul\":1496:1497   */\n      0x00\n        /* \"#utility.yul\":1487:1493   */\n      dup4\n        /* \"#utility.yul\":1482:1485   */\n      dup4\n        /* \"#utility.yul\":1478:1494   */\n      add\n        /* \"#utility.yul\":1471:1498   */\n      mstore\n        /* \"#utility.yul\":1357:1505   */\n      pop\n      pop\n      pop\n      jump\t// out\n        /* \"#utility.yul\":1511:1613   */\n    tag_68:\n        /* \"#utility.yul\":1552:1558   */\n      0x00\n        /* \"#utility.yul\":1603:1605   */\n      0x1f\n        /* \"#utility.yul\":1599:1606   */\n      not\n        /* \"#utility.yul\":1594:1596   */\n      0x1f\n        /* \"#utility.yul\":1587:1592   */\n      dup4\n        /* \"#utility.yul\":1583:1597   */\n      add\n        /* \"#utility.yul\":1579:1607   */\n      and\n        /* \"#utility.yul\":1569:1607   */\n      swap1\n      pop\n        /* \"#utility.yul\":1511:1613   */\n      swap2\n      swap1\n      pop\n      jump\t// out\n        /* \"#utility.yul\":1641:1955   */\n    tag_69:\n        /* \"#utility.yul\":1737:1740   */\n      0x00\n        /* \"#utility.yul\":1758:1828   */\n      tag_128\n        /* \"#utility.yul\":1821:1827   */\n      dup4\n        /* \"#utility.yul\":1816:1819   */\n      dup6\n        /* \"#utility.yul\":1758:1828   */\n      tag_66\n      jump\t// in\n    tag_128:\n        /* \"#utility.yul\":1751:1828   */\n      swap4\n      pop\n        /* \"#utility.yul\":1838:1894   */\n      tag_129\n        /* \"#utility.yul\":1887:1893   */\n      dup4\n        /* \"#utility.yul\":1882:1885   */\n      dup6\n        /* \"#utility.yul\":1875:1880   */\n      dup5\n        /* \"#utility.yul\":1838:1894   */\n      tag_67\n      jump\t// in\n    tag_129:\n        /* \"#utility.yul\":1919:1948   */\n      tag_130\n        /* \"#utility.yul\":1941:1947   */\n      dup4\n        /* \"#utility.yul\":1919:1948   */\n      tag_68\n      jump\t// in\n    tag_130:\n        /* \"#utility.yul\":1914:1917   */\n      dup5\n        /* \"#utility.yul\":1910:1949   */\n      add\n        /* \"#utility.yul\":1903:1949   */\n      swap1\n      pop\n        /* \"#utility.yul\":1641:1955   */\n      swap4\n      swap3\n      pop\n      pop\n      pop\n      jump\t// out\n        /* \"#utility.yul\":1961:2510   */\n    tag_17:\n        /* \"#utility.yul\":2138:2142   */\n      0x00\n        /* \"#utility.yul\":2176:2178   */\n      0x60\n        /* \"#utility.yul\":2165:2174   */\n      dup3\n        /* \"#utility.yul\":2161:2179   */\n      add\n        /* \"#utility.yul\":2153:2179   */\n      swap1\n      pop\n        /* \"#utility.yul\":2189:2260   */\n      tag_132\n        /* \"#utility.yul\":2257:2258   */\n      0x00\n        /* \"#utility.yul\":2246:2255   */\n      dup4\n        /* \"#utility.yul\":2242:2259   */\n      add\n        /* \"#utility.yul\":2233:2239   */\n      dup8\n        /* \"#utility.yul\":2189:2260   */\n      tag_65\n      jump\t// in\n    tag_132:\n        /* \"#utility.yul\":2270:2342   */\n      tag_133\n        /* \"#utility.yul\":2338:2340   */\n      0x20\n        /* \"#utility.yul\":2327:2336   */\n      dup4\n        /* \"#utility.yul\":2323:2341   */\n      add\n        /* \"#utility.yul\":2314:2320   */\n      dup7\n        /* \"#utility.yul\":2270:2342   */\n      tag_62\n      jump\t// in\n    tag_133:\n        /* \"#utility.yul\":2389:2398   */\n      dup2\n        /* \"#utility.yul\":2383:2387   */\n      dup2\n        /* \"#utility.yul\":2379:2399   */\n      sub\n        /* \"#utility.yul\":2374:2376   */\n      0x40\n        /* \"#utility.yul\":2363:2372   */\n      dup4\n        /* \"#utility.yul\":2359:2377   */\n      add\n        /* \"#utility.yul\":2352:2400   */\n      mstore\n        /* \"#utility.yul\":2417:2503   */\n      tag_134\n        /* \"#utility.yul\":2498:2502   */\n      dup2\n        /* \"#utility.yul\":2489:2495   */\n      dup5\n        /* \"#utility.yul\":2481:2487   */\n      dup7\n        /* \"#utility.yul\":2417:2503   */\n      tag_69\n      jump\t// in\n    tag_134:\n        /* \"#utility.yul\":2409:2503   */\n      swap1\n      pop\n        /* \"#utility.yul\":1961:2510   */\n      swap6\n      swap5\n      pop\n      pop\n      pop\n      pop\n      pop\n      jump\t// out\n        /* \"#utility.yul\":2516:2591   */\n    tag_70:\n        /* \"#utility.yul\":2549:2555   */\n      0x00\n        /* \"#utility.yul\":2582:2584   */\n      0x40\n        /* \"#utility.yul\":2576:2585   */\n      mload\n        /* \"#utility.yul\":2566:2585   */\n      swap1\n      pop\n        /* \"#utility.yul\":2516:2591   */\n      swap1\n      jump\t// out\n        /* \"#utility.yul\":2597:2714   */\n    tag_71:\n        /* \"#utility.yul\":2706:2707   */\n      0x00\n        /* \"#utility.yul\":2703:2704   */\n      dup1\n        /* \"#utility.yul\":2696:2708   */\n      revert\n        /* \"#utility.yul\":2720:2837   */\n    tag_72:\n        /* \"#utility.yul\":2829:2830   */\n      0x00\n        /* \"#utility.yul\":2826:2827   */\n      dup1\n        /* \"#utility.yul\":2819:2831   */\n      revert\n        /* \"#utility.yul\":2843:2965   */\n    tag_73:\n        /* \"#utility.yul\":2916:2940   */\n      tag_139\n        /* \"#utility.yul\":2934:2939   */\n      dup2\n        /* \"#utility.yul\":2916:2940   */\n      tag_64\n      jump\t// in\n    tag_139:\n        /* \"#utility.yul\":2909:2914   */\n      dup2\n        /* \"#utility.yul\":2906:2941   */\n      eq\n        /* \"#utility.yul\":2896:2959   */\n      tag_140\n      jumpi\n        /* \"#utility.yul\":2955:2956   */\n      0x00\n        /* \"#utility.yul\":2952:2953   */\n      dup1\n        /* \"#utility.yul\":2945:2957   */\n      revert\n        /* \"#utility.yul\":2896:2959   */\n    tag_140:\n        /* \"#utility.yul\":2843:2965   */\n      pop\n      jump\t// out\n        /* \"#utility.yul\":2971:3110   */\n    tag_74:\n        /* \"#utility.yul\":3017:3022   */\n      0x00\n        /* \"#utility.yul\":3055:3061   */\n      dup2\n        /* \"#utility.yul\":3042:3062   */\n      calldataload\n        /* \"#utility.yul\":3033:3062   */\n      swap1\n      pop\n        /* \"#utility.yul\":3071:3104   */\n      tag_142\n        /* \"#utility.yul\":3098:3103   */\n      dup2\n        /* \"#utility.yul\":3071:3104   */\n      tag_73\n      jump\t// in\n    tag_142:\n        /* \"#utility.yul\":2971:3110   */\n      swap3\n      swap2\n      pop\n      pop\n      jump\t// out\n        /* \"#utility.yul\":3116:3445   */\n    tag_21:\n        /* \"#utility.yul\":3175:3181   */\n      0x00\n        /* \"#utility.yul\":3224:3226   */\n      0x20\n        /* \"#utility.yul\":3212:3221   */\n      dup3\n        /* \"#utility.yul\":3203:3210   */\n      dup5\n        /* \"#utility.yul\":3199:3222   */\n      sub\n        /* \"#utility.yul\":3195:3227   */\n      slt\n        /* \"#utility.yul\":3192:3311   */\n      iszero\n      tag_144\n      jumpi\n        /* \"#utility.yul\":3230:3309   */\n      tag_145\n      tag_71\n      jump\t// in\n    tag_145:\n        /* \"#utility.yul\":3192:3311   */\n    tag_144:\n        /* \"#utility.yul\":3350:3351   */\n      0x00\n        /* \"#utility.yul\":3375:3428   */\n      tag_146\n        /* \"#utility.yul\":3420:3427   */\n      dup5\n        /* \"#utility.yul\":3411:3417   */\n      dup3\n        /* \"#utility.yul\":3400:3409   */\n      dup6\n        /* \"#utility.yul\":3396:3418   */\n      add\n        /* \"#utility.yul\":3375:3428   */\n      tag_74\n      jump\t// in\n    tag_146:\n        /* \"#utility.yul\":3365:3428   */\n      swap2\n      pop\n        /* \"#utility.yul\":3321:3438   */\n      pop\n        /* \"#utility.yul\":3116:3445   */\n      swap3\n      swap2\n      pop\n      pop\n      jump\t// out\n        /* \"#utility.yul\":3451:3550   */\n    tag_75:\n        /* \"#utility.yul\":3503:3509   */\n      0x00\n        /* \"#utility.yul\":3537:3542   */\n      dup2\n        /* \"#utility.yul\":3531:3543   */\n      mload\n        /* \"#utility.yul\":3521:3543   */\n      swap1\n      pop\n        /* \"#utility.yul\":3451:3550   */\n      swap2\n      swap1\n      pop\n      jump\t// out\n        /* \"#utility.yul\":3556:3725   */\n    tag_76:\n        /* \"#utility.yul\":3640:3651   */\n      0x00\n        /* \"#utility.yul\":3674:3680   */\n      dup3\n        /* \"#utility.yul\":3669:3672   */\n      dup3\n        /* \"#utility.yul\":3662:3681   */\n      mstore\n        /* \"#utility.yul\":3714:3718   */\n      0x20\n        /* \"#utility.yul\":3709:3712   */\n      dup3\n        /* \"#utility.yul\":3705:3719   */\n      add\n        /* \"#utility.yul\":3690:3719   */\n      swap1\n      pop\n        /* \"#utility.yul\":3556:3725   */\n      swap3\n      swap2\n      pop\n      pop\n      jump\t// out\n        /* \"#utility.yul\":3731:3870   */\n    tag_77:\n        /* \"#utility.yul\":3820:3826   */\n      dup3\n        /* \"#utility.yul\":3815:3818   */\n      dup2\n        /* \"#utility.yul\":3810:3813   */\n      dup4\n        /* \"#utility.yul\":3804:3827   */\n      mcopy\n        /* \"#utility.yul\":3861:3862   */\n      0x00\n        /* \"#utility.yul\":3852:3858   */\n      dup4\n        /* \"#utility.yul\":3847:3850   */\n      dup4\n        /* \"#utility.yul\":3843:3859   */\n      add\n        /* \"#utility.yul\":3836:3863   */\n      mstore\n        /* \"#utility.yul\":3731:3870   */\n      pop\n      pop\n      pop\n      jump\t// out\n        /* \"#utility.yul\":3876:4253   */\n    tag_78:\n        /* \"#utility.yul\":3964:3967   */\n      0x00\n        /* \"#utility.yul\":3992:4031   */\n      tag_151\n        /* \"#utility.yul\":4025:4030   */\n      dup3\n        /* \"#utility.yul\":3992:4031   */\n      tag_75\n      jump\t// in\n    tag_151:\n        /* \"#utility.yul\":4047:4118   */\n      tag_152\n        /* \"#utility.yul\":4111:4117   */\n      dup2\n        /* \"#utility.yul\":4106:4109   */\n      dup6\n        /* \"#utility.yul\":4047:4118   */\n      tag_76\n      jump\t// in\n    tag_152:\n        /* \"#utility.yul\":4040:4118   */\n      swap4\n      pop\n        /* \"#utility.yul\":4127:4192   */\n      tag_153\n        /* \"#utility.yul\":4185:4191   */\n      dup2\n        /* \"#utility.yul\":4180:4183   */\n      dup6\n        /* \"#utility.yul\":4173:4177   */\n      0x20\n        /* \"#utility.yul\":4166:4171   */\n      dup7\n        /* \"#utility.yul\":4162:4178   */\n      add\n        /* \"#utility.yul\":4127:4192   */\n      tag_77\n      jump\t// in\n    tag_153:\n        /* \"#utility.yul\":4217:4246   */\n      tag_154\n        /* \"#utility.yul\":4239:4245   */\n      dup2\n        /* \"#utility.yul\":4217:4246   */\n      tag_68\n      jump\t// in\n    tag_154:\n        /* \"#utility.yul\":4212:4215   */\n      dup5\n        /* \"#utility.yul\":4208:4247   */\n      add\n        /* \"#utility.yul\":4201:4247   */\n      swap2\n      pop\n        /* \"#utility.yul\":3968:4253   */\n      pop\n        /* \"#utility.yul\":3876:4253   */\n      swap3\n      swap2\n      pop\n      pop\n      jump\t// out\n        /* \"#utility.yul\":4259:4572   */\n    tag_28:\n        /* \"#utility.yul\":4372:4376   */\n      0x00\n        /* \"#utility.yul\":4410:4412   */\n      0x20\n        /* \"#utility.yul\":4399:4408   */\n      dup3\n        /* \"#utility.yul\":4395:4413   */\n      add\n        /* \"#utility.yul\":4387:4413   */\n      swap1\n      pop\n        /* \"#utility.yul\":4459:4468   */\n      dup2\n        /* \"#utility.yul\":4453:4457   */\n      dup2\n        /* \"#utility.yul\":4449:4469   */\n      sub\n        /* \"#utility.yul\":4445:4446   */\n      0x00\n        /* \"#utility.yul\":4434:4443   */\n      dup4\n        /* \"#utility.yul\":4430:4447   */\n      add\n        /* \"#utility.yul\":4423:4470   */\n      mstore\n        /* \"#utility.yul\":4487:4565   */\n      tag_156\n        /* \"#utility.yul\":4560:4564   */\n      dup2\n        /* \"#utility.yul\":4551:4557   */\n      dup5\n        /* \"#utility.yul\":4487:4565   */\n      tag_78\n      jump\t// in\n    tag_156:\n        /* \"#utility.yul\":4479:4565   */\n      swap1\n      pop\n        /* \"#utility.yul\":4259:4572   */\n      swap3\n      swap2\n      pop\n      pop\n      jump\t// out\n        /* \"#utility.yul\":4578:4800   */\n    tag_33:\n        /* \"#utility.yul\":4671:4675   */\n      0x00\n        /* \"#utility.yul\":4709:4711   */\n      0x20\n        /* \"#utility.yul\":4698:4707   */\n      dup3\n        /* \"#utility.yul\":4694:4712   */\n      add\n        /* \"#utility.yul\":4686:4712   */\n      swap1\n      pop\n        /* \"#utility.yul\":4722:4793   */\n      tag_158\n        /* \"#utility.yul\":4790:4791   */\n      0x00\n        /* \"#utility.yul\":4779:4788   */\n      dup4\n        /* \"#utility.yul\":4775:4792   */\n      add\n        /* \"#utility.yul\":4766:4772   */\n      dup5\n        /* \"#utility.yul\":4722:4793   */\n      tag_65\n      jump\t// in\n    tag_158:\n        /* \"#utility.yul\":4578:4800   */\n      swap3\n      swap2\n      pop\n      pop\n      jump\t// out\n        /* \"#utility.yul\":4806:4923   */\n    tag_79:\n        /* \"#utility.yul\":4915:4916   */\n      0x00\n        /* \"#utility.yul\":4912:4913   */\n      dup1\n        /* \"#utility.yul\":4905:4917   */\n      revert\n        /* \"#utility.yul\":4929:5046   */\n    tag_80:\n        /* \"#utility.yul\":5038:5039   */\n      0x00\n        /* \"#utility.yul\":5035:5036   */\n      dup1\n        /* \"#utility.yul\":5028:5040   */\n      revert\n        /* \"#utility.yul\":5052:5232   */\n    tag_81:\n        /* \"#utility.yul\":5100:5177   */\n      0x4e487b7100000000000000000000000000000000000000000000000000000000\n        /* \"#utility.yul\":5097:5098   */\n      0x00\n        /* \"#utility.yul\":5090:5178   */\n      mstore\n        /* \"#utility.yul\":5197:5201   */\n      0x41\n        /* \"#utility.yul\":5194:5195   */\n      0x04\n        /* \"#utility.yul\":5187:5202   */\n      mstore\n        /* \"#utility.yul\":5221:5225   */\n      0x24\n        /* \"#utility.yul\":5218:5219   */\n      0x00\n        /* \"#utility.yul\":5211:5226   */\n      revert\n        /* \"#utility.yul\":5238:5519   */\n    tag_82:\n        /* \"#utility.yul\":5321:5348   */\n      tag_163\n        /* \"#utility.yul\":5343:5347   */\n      dup3\n        /* \"#utility.yul\":5321:5348   */\n      tag_68\n      jump\t// in\n    tag_163:\n        /* \"#utility.yul\":5313:5319   */\n      dup2\n        /* \"#utility.yul\":5309:5349   */\n      add\n        /* \"#utility.yul\":5451:5457   */\n      dup2\n        /* \"#utility.yul\":5439:5449   */\n      dup2\n        /* \"#utility.yul\":5436:5458   */\n      lt\n        /* \"#utility.yul\":5415:5433   */\n      0xffffffffffffffff\n        /* \"#utility.yul\":5403:5413   */\n      dup3\n        /* \"#utility.yul\":5400:5434   */\n      gt\n        /* \"#utility.yul\":5397:5459   */\n      or\n        /* \"#utility.yul\":5394:5482   */\n      iszero\n      tag_164\n      jumpi\n        /* \"#utility.yul\":5462:5480   */\n      tag_165\n      tag_81\n      jump\t// in\n    tag_165:\n        /* \"#utility.yul\":5394:5482   */\n    tag_164:\n        /* \"#utility.yul\":5502:5512   */\n      dup1\n        /* \"#utility.yul\":5498:5500   */\n      0x40\n        /* \"#utility.yul\":5491:5513   */\n      mstore\n        /* \"#utility.yul\":5281:5519   */\n      pop\n        /* \"#utility.yul\":5238:5519   */\n      pop\n      pop\n      jump\t// out\n        /* \"#utility.yul\":5525:5654   */\n    tag_83:\n        /* \"#utility.yul\":5559:5565   */\n      0x00\n        /* \"#utility.yul\":5586:5606   */\n      tag_167\n      tag_70\n      jump\t// in\n    tag_167:\n        /* \"#utility.yul\":5576:5606   */\n      swap1\n      pop\n        /* \"#utility.yul\":5615:5648   */\n      tag_168\n        /* \"#utility.yul\":5643:5647   */\n      dup3\n        /* \"#utility.yul\":5635:5641   */\n      dup3\n        /* \"#utility.yul\":5615:5648   */\n      tag_82\n      jump\t// in\n    tag_168:\n        /* \"#utility.yul\":5525:5654   */\n      swap2\n      swap1\n      pop\n      jump\t// out\n        /* \"#utility.yul\":5660:5968   */\n    tag_84:\n        /* \"#utility.yul\":5722:5726   */\n      0x00\n        /* \"#utility.yul\":5812:5830   */\n      0xffffffffffffffff\n        /* \"#utility.yul\":5804:5810   */\n      dup3\n        /* \"#utility.yul\":5801:5831   */\n      gt\n        /* \"#utility.yul\":5798:5854   */\n      iszero\n      tag_170\n      jumpi\n        /* \"#utility.yul\":5834:5852   */\n      tag_171\n      tag_81\n      jump\t// in\n    tag_171:\n        /* \"#utility.yul\":5798:5854   */\n    tag_170:\n        /* \"#utility.yul\":5872:5901   */\n      tag_172\n        /* \"#utility.yul\":5894:5900   */\n      dup3\n        /* \"#utility.yul\":5872:5901   */\n      tag_68\n      jump\t// in\n    tag_172:\n        /* \"#utility.yul\":5864:5901   */\n      swap1\n      pop\n        /* \"#utility.yul\":5956:5960   */\n      0x20\n        /* \"#utility.yul\":5950:5954   */\n      dup2\n        /* \"#utility.yul\":5946:5961   */\n      add\n        /* \"#utility.yul\":5938:5961   */\n      swap1\n      pop\n        /* \"#utility.yul\":5660:5968   */\n      swap2\n      swap1\n      pop\n      jump\t// out\n        /* \"#utility.yul\":5974:6399   */\n    tag_85:\n        /* \"#utility.yul\":6052:6057   */\n      0x00\n        /* \"#utility.yul\":6077:6143   */\n      tag_174\n        /* \"#utility.yul\":6093:6142   */\n      tag_175\n        /* \"#utility.yul\":6135:6141   */\n      dup5\n        /* \"#utility.yul\":6093:6142   */\n      tag_84\n      jump\t// in\n    tag_175:\n        /* \"#utility.yul\":6077:6143   */\n      tag_83\n      jump\t// in\n    tag_174:\n        /* \"#utility.yul\":6068:6143   */\n      swap1\n      pop\n        /* \"#utility.yul\":6166:6172   */\n      dup3\n        /* \"#utility.yul\":6159:6164   */\n      dup2\n        /* \"#utility.yul\":6152:6173   */\n      mstore\n        /* \"#utility.yul\":6204:6208   */\n      0x20\n        /* \"#utility.yul\":6197:6202   */\n      dup2\n        /* \"#utility.yul\":6193:6209   */\n      add\n        /* \"#utility.yul\":6242:6245   */\n      dup5\n        /* \"#utility.yul\":6233:6239   */\n      dup5\n        /* \"#utility.yul\":6228:6231   */\n      dup5\n        /* \"#utility.yul\":6224:6240   */\n      add\n        /* \"#utility.yul\":6221:6246   */\n      gt\n        /* \"#utility.yul\":6218:6330   */\n      iszero\n      tag_176\n      jumpi\n        /* \"#utility.yul\":6249:6328   */\n      tag_177\n      tag_80\n      jump\t// in\n    tag_177:\n        /* \"#utility.yul\":6218:6330   */\n    tag_176:\n        /* \"#utility.yul\":6339:6393   */\n      tag_178\n        /* \"#utility.yul\":6386:6392   */\n      dup5\n        /* \"#utility.yul\":6381:6384   */\n      dup3\n        /* \"#utility.yul\":6376:6379   */\n      dup6\n        /* \"#utility.yul\":6339:6393   */\n      tag_67\n      jump\t// in\n    tag_178:\n        /* \"#utility.yul\":6058:6399   */\n      pop\n        /* \"#utility.yul\":5974:6399   */\n      swap4\n      swap3\n      pop\n      pop\n      pop\n      jump\t// out\n        /* \"#utility.yul\":6419:6759   */\n    tag_86:\n        /* \"#utility.yul\":6475:6480   */\n      0x00\n        /* \"#utility.yul\":6524:6527   */\n      dup3\n        /* \"#utility.yul\":6517:6521   */\n      0x1f\n        /* \"#utility.yul\":6509:6515   */\n      dup4\n        /* \"#utility.yul\":6505:6522   */\n      add\n        /* \"#utility.yul\":6501:6528   */\n      slt\n        /* \"#utility.yul\":6491:6613   */\n      tag_180\n      jumpi\n        /* \"#utility.yul\":6532:6611   */\n      tag_181\n      tag_79\n      jump\t// in\n    tag_181:\n        /* \"#utility.yul\":6491:6613   */\n    tag_180:\n        /* \"#utility.yul\":6649:6655   */\n      dup2\n        /* \"#utility.yul\":6636:6656   */\n      calldataload\n        /* \"#utility.yul\":6674:6753   */\n      tag_182\n        /* \"#utility.yul\":6749:6752   */\n      dup5\n        /* \"#utility.yul\":6741:6747   */\n      dup3\n        /* \"#utility.yul\":6734:6738   */\n      0x20\n        /* \"#utility.yul\":6726:6732   */\n      dup7\n        /* \"#utility.yul\":6722:6739   */\n      add\n        /* \"#utility.yul\":6674:6753   */\n      tag_85\n      jump\t// in\n    tag_182:\n        /* \"#utility.yul\":6665:6753   */\n      swap2\n      pop\n        /* \"#utility.yul\":6481:6759   */\n      pop\n        /* \"#utility.yul\":6419:6759   */\n      swap3\n      swap2\n      pop\n      pop\n      jump\t// out\n        /* \"#utility.yul\":6765:7274   */\n    tag_37:\n        /* \"#utility.yul\":6834:6840   */\n      0x00\n        /* \"#utility.yul\":6883:6885   */\n      0x20\n        /* \"#utility.yul\":6871:6880   */\n      dup3\n        /* \"#utility.yul\":6862:6869   */\n      dup5\n        /* \"#utility.yul\":6858:6881   */\n      sub\n        /* \"#utility.yul\":6854:6886   */\n      slt\n        /* \"#utility.yul\":6851:6970   */\n      iszero\n      tag_184\n      jumpi\n        /* \"#utility.yul\":6889:6968   */\n      tag_185\n      tag_71\n      jump\t// in\n    tag_185:\n        /* \"#utility.yul\":6851:6970   */\n    tag_184:\n        /* \"#utility.yul\":7037:7038   */\n      0x00\n        /* \"#utility.yul\":7026:7035   */\n      dup3\n        /* \"#utility.yul\":7022:7039   */\n      add\n        /* \"#utility.yul\":7009:7040   */\n      calldataload\n        /* \"#utility.yul\":7067:7085   */\n      0xffffffffffffffff\n        /* \"#utility.yul\":7059:7065   */\n      dup2\n        /* \"#utility.yul\":7056:7086   */\n      gt\n        /* \"#utility.yul\":7053:7170   */\n      iszero\n      tag_186\n      jumpi\n        /* \"#utility.yul\":7089:7168   */\n      tag_187\n      tag_72\n      jump\t// in\n    tag_187:\n        /* \"#utility.yul\":7053:7170   */\n    tag_186:\n        /* \"#utility.yul\":7194:7257   */\n      tag_188\n        /* \"#utility.yul\":7249:7256   */\n      dup5\n        /* \"#utility.yul\":7240:7246   */\n      dup3\n        /* \"#utility.yul\":7229:7238   */\n      dup6\n        /* \"#utility.yul\":7225:7247   */\n      add\n        /* \"#utility.yul\":7194:7257   */\n      tag_86\n      jump\t// in\n    tag_188:\n        /* \"#utility.yul\":7184:7257   */\n      swap2\n      pop\n        /* \"#utility.yul\":6980:7267   */\n      pop\n        /* \"#utility.yul\":6765:7274   */\n      swap3\n      swap2\n      pop\n      pop\n      jump\t// out\n        /* \"#utility.yul\":7280:7460   */\n    tag_87:\n        /* \"#utility.yul\":7328:7405   */\n      0x4e487b7100000000000000000000000000000000000000000000000000000000\n        /* \"#utility.yul\":7325:7326   */\n      0x00\n        /* \"#utility.yul\":7318:7406   */\n      mstore\n        /* \"#utility.yul\":7425:7429   */\n      0x22\n        /* \"#utility.yul\":7422:7423   */\n      0x04\n        /* \"#utility.yul\":7415:7430   */\n      mstore\n        /* \"#utility.yul\":7449:7453   */\n      0x24\n        /* \"#utility.yul\":7446:7447   */\n      0x00\n        /* \"#utility.yul\":7439:7454   */\n      revert\n        /* \"#utility.yul\":7466:7786   */\n    tag_42:\n        /* \"#utility.yul\":7510:7516   */\n      0x00\n        /* \"#utility.yul\":7547:7548   */\n      0x02\n        /* \"#utility.yul\":7541:7545   */\n      dup3\n        /* \"#utility.yul\":7537:7549   */\n      div\n        /* \"#utility.yul\":7527:7549   */\n      swap1\n      pop\n        /* \"#utility.yul\":7594:7595   */\n      0x01\n        /* \"#utility.yul\":7588:7592   */\n      dup3\n        /* \"#utility.yul\":7584:7596   */\n      and\n        /* \"#utility.yul\":7615:7633   */\n      dup1\n        /* \"#utility.yul\":7605:7686   */\n      tag_191\n      jumpi\n        /* \"#utility.yul\":7671:7675   */\n      0x7f\n        /* \"#utility.yul\":7663:7669   */\n      dup3\n        /* \"#utility.yul\":7659:7676   */\n      and\n        /* \"#utility.yul\":7649:7676   */\n      swap2\n      pop\n        /* \"#utility.yul\":7605:7686   */\n    tag_191:\n        /* \"#utility.yul\":7733:7735   */\n      0x20\n        /* \"#utility.yul\":7725:7731   */\n      dup3\n        /* \"#utility.yul\":7722:7736   */\n      lt\n        /* \"#utility.yul\":7702:7720   */\n      dup2\n        /* \"#utility.yul\":7699:7737   */\n      sub\n        /* \"#utility.yul\":7696:7780   */\n      tag_192\n      jumpi\n        /* \"#utility.yul\":7752:7770   */\n      tag_193\n      tag_87\n      jump\t// in\n    tag_193:\n        /* \"#utility.yul\":7696:7780   */\n    tag_192:\n        /* \"#utility.yul\":7517:7786   */\n      pop\n        /* \"#utility.yul\":7466:7786   */\n      swap2\n      swap1\n      pop\n      jump\t// out\n        /* \"#utility.yul\":7792:7964   */\n    tag_88:\n        /* \"#utility.yul\":7932:7956   */\n      0x4e6f742074686520636f6e7472616374206f776e657200000000000000000000\n        /* \"#utility.yul\":7928:7929   */\n      0x00\n        /* \"#utility.yul\":7920:7926   */\n      dup3\n        /* \"#utility.yul\":7916:7930   */\n      add\n        /* \"#utility.yul\":7909:7957   */\n      mstore\n        /* \"#utility.yul\":7792:7964   */\n      pop\n      jump\t// out\n        /* \"#utility.yul\":7970:8336   */\n    tag_89:\n        /* \"#utility.yul\":8112:8115   */\n      0x00\n        /* \"#utility.yul\":8133:8200   */\n      tag_196\n        /* \"#utility.yul\":8197:8199   */\n      0x16\n        /* \"#utility.yul\":8192:8195   */\n      dup4\n        /* \"#utility.yul\":8133:8200   */\n      tag_76\n      jump\t// in\n    tag_196:\n        /* \"#utility.yul\":8126:8200   */\n      swap2\n      pop\n        /* \"#utility.yul\":8209:8302   */\n      tag_197\n        /* \"#utility.yul\":8298:8301   */\n      dup3\n        /* \"#utility.yul\":8209:8302   */\n      tag_88\n      jump\t// in\n    tag_197:\n        /* \"#utility.yul\":8327:8329   */\n      0x20\n        /* \"#utility.yul\":8322:8325   */\n      dup3\n        /* \"#utility.yul\":8318:8330   */\n      add\n        /* \"#utility.yul\":8311:8330   */\n      swap1\n      pop\n        /* \"#utility.yul\":7970:8336   */\n      swap2\n      swap1\n      pop\n      jump\t// out\n        /* \"#utility.yul\":8342:8761   */\n    tag_50:\n        /* \"#utility.yul\":8508:8512   */\n      0x00\n        /* \"#utility.yul\":8546:8548   */\n      0x20\n        /* \"#utility.yul\":8535:8544   */\n      dup3\n        /* \"#utility.yul\":8531:8549   */\n      add\n        /* \"#utility.yul\":8523:8549   */\n      swap1\n      pop\n        /* \"#utility.yul\":8595:8604   */\n      dup2\n        /* \"#utility.yul\":8589:8593   */\n      dup2\n        /* \"#utility.yul\":8585:8605   */\n      sub\n        /* \"#utility.yul\":8581:8582   */\n      0x00\n        /* \"#utility.yul\":8570:8579   */\n      dup4\n        /* \"#utility.yul\":8566:8583   */\n      add\n        /* \"#utility.yul\":8559:8606   */\n      mstore\n        /* \"#utility.yul\":8623:8754   */\n      tag_199\n        /* \"#utility.yul\":8749:8753   */\n      dup2\n        /* \"#utility.yul\":8623:8754   */\n      tag_89\n      jump\t// in\n    tag_199:\n        /* \"#utility.yul\":8615:8754   */\n      swap1\n      pop\n        /* \"#utility.yul\":8342:8761   */\n      swap2\n      swap1\n      pop\n      jump\t// out\n        /* \"#utility.yul\":8767:8908   */\n    tag_90:\n        /* \"#utility.yul\":8816:8820   */\n      0x00\n        /* \"#utility.yul\":8839:8842   */\n      dup2\n        /* \"#utility.yul\":8831:8842   */\n      swap1\n      pop\n        /* \"#utility.yul\":8862:8865   */\n      dup2\n        /* \"#utility.yul\":8859:8860   */\n      0x00\n        /* \"#utility.yul\":8852:8866   */\n      mstore\n        /* \"#utility.yul\":8896:8900   */\n      0x20\n        /* \"#utility.yul\":8893:8894   */\n      0x00\n        /* \"#utility.yul\":8883:8901   */\n      keccak256\n        /* \"#utility.yul\":8875:8901   */\n      swap1\n      pop\n        /* \"#utility.yul\":8767:8908   */\n      swap2\n      swap1\n      pop\n      jump\t// out\n        /* \"#utility.yul\":8914:9007   */\n    tag_91:\n        /* \"#utility.yul\":8951:8957   */\n      0x00\n        /* \"#utility.yul\":8998:9000   */\n      0x20\n        /* \"#utility.yul\":8993:8995   */\n      0x1f\n        /* \"#utility.yul\":8986:8991   */\n      dup4\n        /* \"#utility.yul\":8982:8996   */\n      add\n        /* \"#utility.yul\":8978:9001   */\n      div\n        /* \"#utility.yul\":8968:9001   */\n      swap1\n      pop\n        /* \"#utility.yul\":8914:9007   */\n      swap2\n      swap1\n      pop\n      jump\t// out\n        /* \"#utility.yul\":9013:9120   */\n    tag_92:\n        /* \"#utility.yul\":9057:9065   */\n      0x00\n        /* \"#utility.yul\":9107:9112   */\n      dup3\n        /* \"#utility.yul\":9101:9105   */\n      dup3\n        /* \"#utility.yul\":9097:9113   */\n      shl\n        /* \"#utility.yul\":9076:9113   */\n      swap1\n      pop\n        /* \"#utility.yul\":9013:9120   */\n      swap3\n      swap2\n      pop\n      pop\n      jump\t// out\n        /* \"#utility.yul\":9126:9519   */\n    tag_93:\n        /* \"#utility.yul\":9195:9201   */\n      0x00\n        /* \"#utility.yul\":9245:9246   */\n      0x08\n        /* \"#utility.yul\":9233:9243   */\n      dup4\n        /* \"#utility.yul\":9229:9247   */\n      mul\n        /* \"#utility.yul\":9268:9365   */\n      tag_204\n        /* \"#utility.yul\":9298:9364   */\n      0xffffffffffffffffffffffffffffffffffffffffffffffffffffffffffffffff\n        /* \"#utility.yul\":9287:9296   */\n      dup3\n        /* \"#utility.yul\":9268:9365   */\n      tag_92\n      jump\t// in\n    tag_204:\n        /* \"#utility.yul\":9386:9425   */\n      tag_205\n        /* \"#utility.yul\":9416:9424   */\n      dup7\n        /* \"#utility.yul\":9405:9414   */\n      dup4\n        /* \"#utility.yul\":9386:9425   */\n      tag_92\n      jump\t// in\n    tag_205:\n        /* \"#utility.yul\":9374:9425   */\n      swap6\n      pop\n        /* \"#utility.yul\":9458:9462   */\n      dup1\n        /* \"#utility.yul\":9454:9463   */\n      not\n        /* \"#utility.yul\":9447:9452   */\n      dup5\n        /* \"#utility.yul\":9443:9464   */\n      and\n        /* \"#utility.yul\":9434:9464   */\n      swap4\n      pop\n        /* \"#utility.yul\":9507:9511   */\n      dup1\n        /* \"#utility.yul\":9497:9505   */\n      dup7\n        /* \"#utility.yul\":9493:9512   */\n      and\n        /* \"#utility.yul\":9486:9491   */\n      dup5\n        /* \"#utility.yul\":9483:9513   */\n      or\n        /* \"#utility.yul\":9473:9513   */\n      swap3\n      pop\n        /* \"#utility.yul\":9202:9519   */\n      pop\n      pop\n        /* \"#utility.yul\":9126:9519   */\n      swap4\n      swap3\n      pop\n      pop\n      pop\n      jump\t// out\n        /* \"#utility.yul\":9525:9585   */\n    tag_94:\n        /* \"#utility.yul\":9553:9556   */\n      0x00\n        /* \"#utility.yul\":9574:9579   */\n      dup2\n        /* \"#utility.yul\":9567:9579   */\n      swap1\n      pop\n        /* \"#utility.yul\":9525:9585   */\n      swap2\n      swap1\n      pop\n      jump\t// out\n        /* \"#utility.yul\":9591:9733   */\n    tag_95:\n        /* \"#utility.yul\":9641:9650   */\n      0x00\n        /* \"#utility.yul\":9674:9727   */\n      tag_208\n        /* \"#utility.yul\":9692:9726   */\n      tag_209\n        /* \"#utility.yul\":9701:9725   */\n      tag_210\n        /* \"#utility.yul\":9719:9724   */\n      dup5\n        /* \"#utility.yul\":9701:9725   */\n      tag_60\n      jump\t// in\n    tag_210:\n        /* \"#utility.yul\":9692:9726   */\n      tag_94\n      jump\t// in\n    tag_209:\n        /* \"#utility.yul\":9674:9727   */\n      tag_60\n      jump\t// in\n    tag_208:\n        /* \"#utility.yul\":9661:9727   */\n      swap1\n      pop\n        /* \"#utility.yul\":9591:9733   */\n      swap2\n      swap1\n      pop\n      jump\t// out\n        /* \"#utility.yul\":9739:9814   */\n    tag_96:\n        /* \"#utility.yul\":9782:9785   */\n      0x00\n        /* \"#utility.yul\":9803:9808   */\n      dup2\n        /* \"#utility.yul\":9796:9808   */\n      swap1\n      pop\n        /* \"#utility.yul\":9739:9814   */\n      swap2\n      swap1\n      pop\n      jump\t// out\n        /* \"#utility.yul\":9820:10089   */\n    tag_97:\n        /* \"#utility.yul\":9930:9969   */\n      tag_213\n        /* \"#utility.yul\":9961:9968   */\n      dup4\n        /* \"#utility.yul\":9930:9969   */\n      tag_95\n      jump\t// in\n    tag_213:\n        /* \"#utility.yul\":9991:10082   */\n      tag_214\n        /* \"#utility.yul\":10040:10081   */\n      tag_215\n        /* \"#utility.yul\":10064:10080   */\n      dup3\n        /* \"#utility.yul\":10040:10081   */\n      tag_96\n      jump\t// in\n    tag_215:\n        /* \"#utility.yul\":10032:10038   */\n      dup5\n        /* \"#utility.yul\":10025:10029   */\n      dup5\n        /* \"#utility.yul\":10019:10030   */\n      sload\n        /* \"#utility.yul\":9991:10082   */\n      tag_93\n      jump\t// in\n    tag_214:\n        /* \"#utility.yul\":9985:9989   */\n      dup3\n        /* \"#utility.yul\":9978:10083   */\n      sstore\n        /* \"#utility.yul\":9896:10089   */\n      pop\n        /* \"#utility.yul\":9820:10089   */\n      pop\n      pop\n      pop\n      jump\t// out\n        /* \"#utility.yul\":10095:10168   */\n    tag_98:\n        /* \"#utility.yul\":10140:10143   */\n      0x00\n        /* \"#utility.yul\":10095:10168   */\n      swap1\n      jump\t// out\n        /* \"#utility.yul\":10174:10363   */\n    tag_99:\n        /* \"#utility.yul\":10251:10283   */\n      tag_218\n      tag_98\n      jump\t// in\n    tag_218:\n        /* \"#utility.yul\":10292:10357   */\n      tag_219\n        /* \"#utility.yul\":10350:10356   */\n      dup2\n        /* \"#utility.yul\":10342:10348   */\n      dup5\n        /* \"#utility.yul\":10336:10340   */\n      dup5\n        /* \"#utility.yul\":10292:10357   */\n      tag_97\n      jump\t// in\n    tag_219:\n        /* \"#utility.yul\":10227:10363   */\n      pop\n        /* \"#utility.yul\":10174:10363   */\n      pop\n      pop\n      jump\t// out\n        /* \"#utility.yul\":10369:10555   */\n    tag_100:\n        /* \"#utility.yul\":10429:10549   */\n    tag_221:\n        /* \"#utility.yul\":10446:10449   */\n      dup2\n        /* \"#utility.yul\":10439:10444   */\n      dup2\n        /* \"#utility.yul\":10436:10450   */\n      lt\n        /* \"#utility.yul\":10429:10549   */\n      iszero\n      tag_223\n      jumpi\n        /* \"#utility.yul\":10500:10539   */\n      tag_224\n        /* \"#utility.yul\":10537:10538   */\n      0x00\n        /* \"#utility.yul\":10530:10535   */\n      dup3\n        /* \"#utility.yul\":10500:10539   */\n      tag_99\n      jump\t// in\n    tag_224:\n        /* \"#utility.yul\":10473:10474   */\n      0x01\n        /* \"#utility.yul\":10466:10471   */\n      dup2\n        /* \"#utility.yul\":10462:10475   */\n      add\n        /* \"#utility.yul\":10453:10475   */\n      swap1\n      pop\n        /* \"#utility.yul\":10429:10549   */\n      jump(tag_221)\n    tag_223:\n        /* \"#utility.yul\":10369:10555   */\n      pop\n      pop\n      jump\t// out\n        /* \"#utility.yul\":10561:11104   */\n    tag_101:\n        /* \"#utility.yul\":10662:10664   */\n      0x1f\n        /* \"#utility.yul\":10657:10660   */\n      dup3\n        /* \"#utility.yul\":10654:10665   */\n      gt\n        /* \"#utility.yul\":10651:11097   */\n      iszero\n      tag_226\n      jumpi\n        /* \"#utility.yul\":10696:10734   */\n      tag_227\n        /* \"#utility.yul\":10728:10733   */\n      dup2\n        /* \"#utility.yul\":10696:10734   */\n      tag_90\n      jump\t// in\n    tag_227:\n        /* \"#utility.yul\":10780:10809   */\n      tag_228\n        /* \"#utility.yul\":10798:10808   */\n      dup5\n        /* \"#utility.yul\":10780:10809   */\n      tag_91\n      jump\t// in\n    tag_228:\n        /* \"#utility.yul\":10770:10778   */\n      dup2\n        /* \"#utility.yul\":10766:10810   */\n      add\n        /* \"#utility.yul\":10963:10965   */\n      0x20\n        /* \"#utility.yul\":10951:10961   */\n      dup6\n        /* \"#utility.yul\":10948:10966   */\n      lt\n        /* \"#utility.yul\":10945:10994   */\n      iszero\n      tag_229\n      jumpi\n        /* \"#utility.yul\":10984:10992   */\n      dup2\n        /* \"#utility.yul\":10969:10992   */\n      swap1\n      pop\n        /* \"#utility.yul\":10945:10994   */\n    tag_229:\n        /* \"#utility.yul\":11007:11087   */\n      tag_230\n        /* \"#utility.yul\":11063:11085   */\n      tag_231\n        /* \"#utility.yul\":11081:11084   */\n      dup6\n        /* \"#utility.yul\":11063:11085   */\n      tag_91\n      jump\t// in\n    tag_231:\n        /* \"#utility.yul\":11053:11061   */\n      dup4\n        /* \"#utility.yul\":11049:11086   */\n      add\n        /* \"#utility.yul\":11036:11047   */\n      dup3\n        /* \"#utility.yul\":11007:11087   */\n      tag_100\n      jump\t// in\n    tag_230:\n        /* \"#utility.yul\":10666:11097   */\n      pop\n      pop\n        /* \"#utility.yul\":10651:11097   */\n    tag_226:\n        /* \"#utility.yul\":10561:11104   */\n      pop\n      pop\n      pop\n      jump\t// out\n        /* \"#utility.yul\":11110:11227   */\n    tag_102:\n        /* \"#utility.yul\":11164:11172   */\n      0x00\n        /* \"#utility.yul\":11214:11219   */\n      dup3\n        /* \"#utility.yul\":11208:11212   */\n      dup3\n        /* \"#utility.yul\":11204:11220   */\n      shr\n        /* \"#utility.yul\":11183:11220   */\n      swap1\n      pop\n        /* \"#utility.yul\":11110:11227   */\n      swap3\n      swap2\n      pop\n      pop\n      jump\t// out\n        /* \"#utility.yul\":11233:11402   */\n    tag_103:\n        /* \"#utility.yul\":11277:11283   */\n      0x00\n        /* \"#utility.yul\":11310:11361   */\n      tag_234\n        /* \"#utility.yul\":11358:11359   */\n      0x00\n        /* \"#utility.yul\":11354:11360   */\n      not\n        /* \"#utility.yul\":11346:11351   */\n      dup5\n        /* \"#utility.yul\":11343:11344   */\n      0x08\n        /* \"#utility.yul\":11339:11352   */\n      mul\n        /* \"#utility.yul\":11310:11361   */\n      tag_102\n      jump\t// in\n    tag_234:\n        /* \"#utility.yul\":11306:11362   */\n      not\n        /* \"#utility.yul\":11391:11395   */\n      dup1\n        /* \"#utility.yul\":11385:11389   */\n      dup4\n        /* \"#utility.yul\":11381:11396   */\n      and\n        /* \"#utility.yul\":11371:11396   */\n      swap2\n      pop\n        /* \"#utility.yul\":11284:11402   */\n      pop\n        /* \"#utility.yul\":11233:11402   */\n      swap3\n      swap2\n      pop\n      pop\n      jump\t// out\n        /* \"#utility.yul\":11407:11702   */\n    tag_104:\n        /* \"#utility.yul\":11483:11487   */\n      0x00\n        /* \"#utility.yul\":11629:11658   */\n      tag_236\n        /* \"#utility.yul\":11654:11657   */\n      dup4\n        /* \"#utility.yul\":11648:11652   */\n      dup4\n        /* \"#utility.yul\":11629:11658   */\n      tag_103\n      jump\t// in\n    tag_236:\n        /* \"#utility.yul\":11621:11658   */\n      swap2\n      pop\n        /* \"#utility.yul\":11691:11694   */\n      dup3\n        /* \"#utility.yul\":11688:11689   */\n      0x02\n        /* \"#utility.yul\":11684:11695   */\n      mul\n        /* \"#utility.yul\":11678:11682   */\n      dup3\n        /* \"#utility.yul\":11675:11696   */\n      or\n        /* \"#utility.yul\":11667:11696   */\n      swap1\n      pop\n        /* \"#utility.yul\":11407:11702   */\n      swap3\n      swap2\n      pop\n      pop\n      jump\t// out\n        /* \"#utility.yul\":11707:13102   */\n    tag_53:\n        /* \"#utility.yul\":11824:11861   */\n      tag_238\n        /* \"#utility.yul\":11857:11860   */\n      dup3\n        /* \"#utility.yul\":11824:11861   */\n      tag_75\n      jump\t// in\n    tag_238:\n        /* \"#utility.yul\":11926:11944   */\n      0xffffffffffffffff\n        /* \"#utility.yul\":11918:11924   */\n      dup2\n        /* \"#utility.yul\":11915:11945   */\n      gt\n        /* \"#utility.yul\":11912:11968   */\n      iszero\n      tag_239\n      jumpi\n        /* \"#utility.yul\":11948:11966   */\n      tag_240\n      tag_81\n      jump\t// in\n    tag_240:\n        /* \"#utility.yul\":11912:11968   */\n    tag_239:\n        /* \"#utility.yul\":11992:12030   */\n      tag_241\n        /* \"#utility.yul\":12024:12028   */\n      dup3\n        /* \"#utility.yul\":12018:12029   */\n      sload\n        /* \"#utility.yul\":11992:12030   */\n      tag_42\n      jump\t// in\n    tag_241:\n        /* \"#utility.yul\":12077:12144   */\n      tag_242\n        /* \"#utility.yul\":12137:12143   */\n      dup3\n        /* \"#utility.yul\":12129:12135   */\n      dup3\n        /* \"#utility.yul\":12123:12127   */\n      dup6\n        /* \"#utility.yul\":12077:12144   */\n      tag_101\n      jump\t// in\n    tag_242:\n        /* \"#utility.yul\":12171:12172   */\n      0x00\n        /* \"#utility.yul\":12195:12199   */\n      0x20\n        /* \"#utility.yul\":12182:12199   */\n      swap1\n      pop\n        /* \"#utility.yul\":12227:12229   */\n      0x1f\n        /* \"#utility.yul\":12219:12225   */\n      dup4\n        /* \"#utility.yul\":12216:12230   */\n      gt\n        /* \"#utility.yul\":12244:12245   */\n      0x01\n        /* \"#utility.yul\":12239:12857   */\n      dup2\n      eq\n      tag_244\n      jumpi\n        /* \"#utility.yul\":12901:12902   */\n      0x00\n        /* \"#utility.yul\":12918:12924   */\n      dup5\n        /* \"#utility.yul\":12915:12992   */\n      iszero\n      tag_245\n      jumpi\n        /* \"#utility.yul\":12967:12976   */\n      dup3\n        /* \"#utility.yul\":12962:12965   */\n      dup8\n        /* \"#utility.yul\":12958:12977   */\n      add\n        /* \"#utility.yul\":12952:12978   */\n      mload\n        /* \"#utility.yul\":12943:12978   */\n      swap1\n      pop\n        /* \"#utility.yul\":12915:12992   */\n    tag_245:\n        /* \"#utility.yul\":13018:13085   */\n      tag_246\n        /* \"#utility.yul\":13078:13084   */\n      dup6\n        /* \"#utility.yul\":13071:13076   */\n      dup3\n        /* \"#utility.yul\":13018:13085   */\n      tag_104\n      jump\t// in\n    tag_246:\n        /* \"#utility.yul\":13012:13016   */\n      dup7\n        /* \"#utility.yul\":13005:13086   */\n      sstore\n        /* \"#utility.yul\":12874:13096   */\n      pop\n        /* \"#utility.yul\":12209:13096   */\n      jump(tag_243)\n        /* \"#utility.yul\":12239:12857   */\n    tag_244:\n        /* \"#utility.yul\":12291:12295   */\n      0x1f\n        /* \"#utility.yul\":12287:12296   */\n      not\n        /* \"#utility.yul\":12279:12285   */\n      dup5\n        /* \"#utility.yul\":12275:12297   */\n      and\n        /* \"#utility.yul\":12325:12362   */\n      tag_247\n        /* \"#utility.yul\":12357:12361   */\n      dup7\n        /* \"#utility.yul\":12325:12362   */\n      tag_90\n      jump\t// in\n    tag_247:\n        /* \"#utility.yul\":12384:12385   */\n      0x00\n        /* \"#utility.yul\":12398:12606   */\n    tag_248:\n        /* \"#utility.yul\":12412:12419   */\n      dup3\n        /* \"#utility.yul\":12409:12410   */\n      dup2\n        /* \"#utility.yul\":12406:12420   */\n      lt\n        /* \"#utility.yul\":12398:12606   */\n      iszero\n      tag_250\n      jumpi\n        /* \"#utility.yul\":12491:12500   */\n      dup5\n        /* \"#utility.yul\":12486:12489   */\n      dup10\n        /* \"#utility.yul\":12482:12501   */\n      add\n        /* \"#utility.yul\":12476:12502   */\n      mload\n        /* \"#utility.yul\":12468:12474   */\n      dup3\n        /* \"#utility.yul\":12461:12503   */\n      sstore\n        /* \"#utility.yul\":12542:12543   */\n      0x01\n        /* \"#utility.yul\":12534:12540   */\n      dup3\n        /* \"#utility.yul\":12530:12544   */\n      add\n        /* \"#utility.yul\":12520:12544   */\n      swap2\n      pop\n        /* \"#utility.yul\":12589:12591   */\n      0x20\n        /* \"#utility.yul\":12578:12587   */\n      dup6\n        /* \"#utility.yul\":12574:12592   */\n      add\n        /* \"#utility.yul\":12561:12592   */\n      swap5\n      pop\n        /* \"#utility.yul\":12435:12439   */\n      0x20\n        /* \"#utility.yul\":12432:12433   */\n      dup2\n        /* \"#utility.yul\":12428:12440   */\n      add\n        /* \"#utility.yul\":12423:12440   */\n      swap1\n      pop\n        /* \"#utility.yul\":12398:12606   */\n      jump(tag_248)\n    tag_250:\n        /* \"#utility.yul\":12634:12640   */\n      dup7\n        /* \"#utility.yul\":12625:12632   */\n      dup4\n        /* \"#utility.yul\":12622:12641   */\n      lt\n        /* \"#utility.yul\":12619:12798   */\n      iszero\n      tag_251\n      jumpi\n        /* \"#utility.yul\":12692:12701   */\n      dup5\n        /* \"#utility.yul\":12687:12690   */\n      dup10\n        /* \"#utility.yul\":12683:12702   */\n      add\n        /* \"#utility.yul\":12677:12703   */\n      mload\n        /* \"#utility.yul\":12735:12783   */\n      tag_252\n        /* \"#utility.yul\":12777:12781   */\n      0x1f\n        /* \"#utility.yul\":12769:12775   */\n      dup10\n        /* \"#utility.yul\":12765:12782   */\n      and\n        /* \"#utility.yul\":12754:12763   */\n      dup3\n        /* \"#utility.yul\":12735:12783   */\n      tag_103\n      jump\t// in\n    tag_252:\n        /* \"#utility.yul\":12727:12733   */\n      dup4\n        /* \"#utility.yul\":12720:12784   */\n      sstore\n        /* \"#utility.yul\":12642:12798   */\n      pop\n        /* \"#utility.yul\":12619:12798   */\n    tag_251:\n        /* \"#utility.yul\":12844:12845   */\n      0x01\n        /* \"#utility.yul\":12840:12841   */\n      0x02\n        /* \"#utility.yul\":12832:12838   */\n      dup9\n        /* \"#utility.yul\":12828:12842   */\n      mul\n        /* \"#utility.yul\":12824:12846   */\n      add\n        /* \"#utility.yul\":12818:12822   */\n      dup9\n        /* \"#utility.yul\":12811:12847   */\n      sstore\n        /* \"#utility.yul\":12246:12857   */\n      pop\n      pop\n      pop\n        /* \"#utility.yul\":12209:13096   */\n    tag_243:\n      pop\n        /* \"#utility.yul\":11799:13102   */\n      pop\n      pop\n      pop\n        /* \"#utility.yul\":11707:13102   */\n      pop\n      pop\n      jump\t// out\n        /* \"#utility.yul\":13108:13289   */\n    tag_105:\n        /* \"#utility.yul\":13248:13281   */\n      0x446f6e6174696f6e206d7573742062652067726561746572207468616e203000\n        /* \"#utility.yul\":13244:13245   */\n      0x00\n        /* \"#utility.yul\":13236:13242   */\n      dup3\n        /* \"#utility.yul\":13232:13246   */\n      add\n        /* \"#utility.yul\":13225:13282   */\n      mstore\n        /* \"#utility.yul\":13108:13289   */\n      pop\n      jump\t// out\n        /* \"#utility.yul\":13295:13661   */\n    tag_106:\n        /* \"#utility.yul\":13437:13440   */\n      0x00\n        /* \"#utility.yul\":13458:13525   */\n      tag_255\n        /* \"#utility.yul\":13522:13524   */\n      0x1f\n        /* \"#utility.yul\":13517:13520   */\n      dup4\n        /* \"#utility.yul\":13458:13525   */\n      tag_76\n      jump\t// in\n    tag_255:\n        /* \"#utility.yul\":13451:13525   */\n      swap2\n      pop\n        /* \"#utility.yul\":13534:13627   */\n      tag_256\n        /* \"#utility.yul\":13623:13626   */\n      dup3\n        /* \"#utility.yul\":13534:13627   */\n      tag_105\n      jump\t// in\n    tag_256:\n        /* \"#utility.yul\":13652:13654   */\n      0x20\n        /* \"#utility.yul\":13647:13650   */\n      dup3\n        /* \"#utility.yul\":13643:13655   */\n      add\n        /* \"#utility.yul\":13636:13655   */\n      swap1\n      pop\n        /* \"#utility.yul\":13295:13661   */\n      swap2\n      swap1\n      pop\n      jump\t// out\n        /* \"#utility.yul\":13667:14086   */\n    tag_57:\n        /* \"#utility.yul\":13833:13837   */\n      0x00\n        /* \"#utility.yul\":13871:13873   */\n      0x20\n        /* \"#utility.yul\":13860:13869   */\n      dup3\n        /* \"#utility.yul\":13856:13874   */\n      add\n        /* \"#utility.yul\":13848:13874   */\n      swap1\n      pop\n        /* \"#utility.yul\":13920:13929   */\n      dup2\n        /* \"#utility.yul\":13914:13918   */\n      dup2\n        /* \"#utility.yul\":13910:13930   */\n      sub\n        /* \"#utility.yul\":13906:13907   */\n      0x00\n        /* \"#utility.yul\":13895:13904   */\n      dup4\n        /* \"#utility.yul\":13891:13908   */\n      add\n        /* \"#utility.yul\":13884:13931   */\n      mstore\n        /* \"#utility.yul\":13948:14079   */\n      tag_258\n        /* \"#utility.yul\":14074:14078   */\n      dup2\n        /* \"#utility.yul\":13948:14079   */\n      tag_106\n      jump\t// in\n    tag_258:\n        /* \"#utility.yul\":13940:14079   */\n      swap1\n      pop\n        /* \"#utility.yul\":13667:14086   */\n      swap2\n      swap1\n      pop\n      jump\t// out\n\n    auxdata: 0xa2646970667358221220c630cb982790e87f8826e4fcd13185e96978840d2d7aabeb34601bd71a01e01464736f6c634300081a0033\n}\n",
				"bytecode": {
					"linkReferences": {},
					"object": "608060405234801561000f575f80fd5b506040516110df3803806110df833981810160405281019061003191906101d5565b80335f806101000a81548173ffffffffffffffffffffffffffffffffffffffff021916908373ffffffffffffffffffffffffffffffffffffffff16021790555080600190816100809190610429565b5050506104f8565b5f604051905090565b5f80fd5b5f80fd5b5f80fd5b5f80fd5b5f601f19601f8301169050919050565b7f4e487b71000000000000000000000000000000000000000000000000000000005f52604160045260245ffd5b6100e7826100a1565b810181811067ffffffffffffffff82111715610106576101056100b1565b5b80604052505050565b5f610118610088565b905061012482826100de565b919050565b5f67ffffffffffffffff821115610143576101426100b1565b5b61014c826100a1565b9050602081019050919050565b8281835e5f83830152505050565b5f61017961017484610129565b61010f565b9050828152602081018484840111156101955761019461009d565b5b6101a0848285610159565b509392505050565b5f82601f8301126101bc576101bb610099565b5b81516101cc848260208601610167565b91505092915050565b5f602082840312156101ea576101e9610091565b5b5f82015167ffffffffffffffff81111561020757610206610095565b5b610213848285016101a8565b91505092915050565b5f81519050919050565b7f4e487b71000000000000000000000000000000000000000000000000000000005f52602260045260245ffd5b5f600282049050600182168061026a57607f821691505b60208210810361027d5761027c610226565b5b50919050565b5f819050815f5260205f209050919050565b5f6020601f8301049050919050565b5f82821b905092915050565b5f600883026102df7fffffffffffffffffffffffffffffffffffffffffffffffffffffffffffffffff826102a4565b6102e986836102a4565b95508019841693508086168417925050509392505050565b5f819050919050565b5f819050919050565b5f61032d61032861032384610301565b61030a565b610301565b9050919050565b5f819050919050565b61034683610313565b61035a61035282610334565b8484546102b0565b825550505050565b5f90565b61036e610362565b61037981848461033d565b505050565b5b8181101561039c576103915f82610366565b60018101905061037f565b5050565b601f8211156103e1576103b281610283565b6103bb84610295565b810160208510156103ca578190505b6103de6103d685610295565b83018261037e565b50505b505050565b5f82821c905092915050565b5f6104015f19846008026103e6565b1980831691505092915050565b5f61041983836103f2565b9150826002028217905092915050565b6104328261021c565b67ffffffffffffffff81111561044b5761044a6100b1565b5b6104558254610253565b6104608282856103a0565b5f60209050601f831160018114610491575f841561047f578287015190505b610489858261040e565b8655506104f0565b601f19841661049f86610283565b5f5b828110156104c6578489015182556001820191506020850194506020810190506104a1565b868310156104e357848901516104df601f8916826103f2565b8355505b6001600288020188555050505b505050505050565b610bda806105055f395ff3fe60806040526004361061004d575f3560e01c806327e235e31461013457806370740aab146101705780638da5cb5b1461019a57806396b1cf28146101c4578063ed88c68e146101ec576100f5565b366100f5573460025f3373ffffffffffffffffffffffffffffffffffffffff1673ffffffffffffffffffffffffffffffffffffffff1681526020019081526020015f205f82825461009e9190610475565b925050819055503373ffffffffffffffffffffffffffffffffffffffff167f264f630d9efa0d07053a31163641d9fcc0adafc9d9e76f1c37c2ce3a558d2c52346040516100eb91906104b7565b60405180910390a2005b7f390f97e4a5ab8058ca67d5e2db9310ca12d1e29c64f7eb23dc5f12f1c31e905833345f3660405161012a9493929190610569565b60405180910390a1005b34801561013f575f80fd5b5061015a600480360381019061015591906105e2565b6101f6565b60405161016791906104b7565b60405180910390f35b34801561017b575f80fd5b5061018461020b565b604051610191919061066d565b60405180910390f35b3480156101a5575f80fd5b506101ae610297565b6040516101bb919061068d565b60405180910390f35b3480156101cf575f80fd5b506101ea60048036038101906101e591906107c4565b6102ba565b005b6101f461035a565b005b6002602052805f5260405f205f915090505481565b6001805461021890610838565b80601f016020809104026020016040519081016040528092919081815260200182805461024490610838565b801561028f5780601f106102665761010080835404028352916020019161028f565b820191905f5260205f20905b81548152906001019060200180831161027257829003601f168201915b505050505081565b5f8054906101000a900473ffffffffffffffffffffffffffffffffffffffff1681565b5f8054906101000a900473ffffffffffffffffffffffffffffffffffffffff1673ffffffffffffffffffffffffffffffffffffffff163373ffffffffffffffffffffffffffffffffffffffff1614610347576040517f08c379a000000000000000000000000000000000000000000000000000000000815260040161033e906108b2565b60405180910390fd5b80600190816103569190610a6d565b5050565b5f341161039c576040517f08c379a000000000000000000000000000000000000000000000000000000000815260040161039390610b86565b60405180910390fd5b3460025f3373ffffffffffffffffffffffffffffffffffffffff1673ffffffffffffffffffffffffffffffffffffffff1681526020019081526020015f205f8282546103e89190610475565b925050819055503373ffffffffffffffffffffffffffffffffffffffff167f264f630d9efa0d07053a31163641d9fcc0adafc9d9e76f1c37c2ce3a558d2c523460405161043591906104b7565b60405180910390a2565b5f819050919050565b7f4e487b71000000000000000000000000000000000000000000000000000000005f52601160045260245ffd5b5f61047f8261043f565b915061048a8361043f565b92508282019050808211156104a2576104a1610448565b5b92915050565b6104b18161043f565b82525050565b5f6020820190506104ca5f8301846104a8565b92915050565b5f73ffffffffffffffffffffffffffffffffffffffff82169050919050565b5f6104f9826104d0565b9050919050565b610509816104ef565b82525050565b5f82825260208201905092915050565b828183375f83830152505050565b5f601f19601f8301169050919050565b5f610548838561050f565b935061055583858461051f565b61055e8361052d565b840190509392505050565b5f60608201905061057c5f830187610500565b61058960208301866104a8565b818103604083015261059c81848661053d565b905095945050505050565b5f604051905090565b5f80fd5b5f80fd5b6105c1816104ef565b81146105cb575f80fd5b50565b5f813590506105dc816105b8565b92915050565b5f602082840312156105f7576105f66105b0565b5b5f610604848285016105ce565b91505092915050565b5f81519050919050565b5f82825260208201905092915050565b8281835e5f83830152505050565b5f61063f8261060d565b6106498185610617565b9350610659818560208601610627565b6106628161052d565b840191505092915050565b5f6020820190508181035f8301526106858184610635565b905092915050565b5f6020820190506106a05f830184610500565b92915050565b5f80fd5b5f80fd5b7f4e487b71000000000000000000000000000000000000000000000000000000005f52604160045260245ffd5b6106e48261052d565b810181811067ffffffffffffffff82111715610703576107026106ae565b5b80604052505050565b5f6107156105a7565b905061072182826106db565b919050565b5f67ffffffffffffffff8211156107405761073f6106ae565b5b6107498261052d565b9050602081019050919050565b5f61076861076384610726565b61070c565b905082815260208101848484011115610784576107836106aa565b5b61078f84828561051f565b509392505050565b5f82601f8301126107ab576107aa6106a6565b5b81356107bb848260208601610756565b91505092915050565b5f602082840312156107d9576107d86105b0565b5b5f82013567ffffffffffffffff8111156107f6576107f56105b4565b5b61080284828501610797565b91505092915050565b7f4e487b71000000000000000000000000000000000000000000000000000000005f52602260045260245ffd5b5f600282049050600182168061084f57607f821691505b6020821081036108625761086161080b565b5b50919050565b7f4e6f742074686520636f6e7472616374206f776e6572000000000000000000005f82015250565b5f61089c601683610617565b91506108a782610868565b602082019050919050565b5f6020820190508181035f8301526108c981610890565b9050919050565b5f819050815f5260205f209050919050565b5f6020601f8301049050919050565b5f82821b905092915050565b5f6008830261092c7fffffffffffffffffffffffffffffffffffffffffffffffffffffffffffffffff826108f1565b61093686836108f1565b95508019841693508086168417925050509392505050565b5f819050919050565b5f61097161096c6109678461043f565b61094e565b61043f565b9050919050565b5f819050919050565b61098a83610957565b61099e61099682610978565b8484546108fd565b825550505050565b5f90565b6109b26109a6565b6109bd818484610981565b505050565b5b818110156109e0576109d55f826109aa565b6001810190506109c3565b5050565b601f821115610a25576109f6816108d0565b6109ff846108e2565b81016020851015610a0e578190505b610a22610a1a856108e2565b8301826109c2565b50505b505050565b5f82821c905092915050565b5f610a455f1984600802610a2a565b1980831691505092915050565b5f610a5d8383610a36565b9150826002028217905092915050565b610a768261060d565b67ffffffffffffffff811115610a8f57610a8e6106ae565b5b610a998254610838565b610aa48282856109e4565b5f60209050601f831160018114610ad5575f8415610ac3578287015190505b610acd8582610a52565b865550610b34565b601f198416610ae3866108d0565b5f5b82811015610b0a57848901518255600182019150602085019450602081019050610ae5565b86831015610b275784890151610b23601f891682610a36565b8355505b6001600288020188555050505b505050505050565b7f446f6e6174696f6e206d7573742062652067726561746572207468616e2030005f82015250565b5f610b70601f83610617565b9150610b7b82610b3c565b602082019050919050565b5f6020820190508181035f830152610b9d81610b64565b905091905056fea2646970667358221220c630cb982790e87f8826e4fcd13185e96978840d2d7aabeb34601bd71a01e01464736f6c634300081a0033",
					"opcodes": "PUSH1 0x80 PUSH1 0x40 MSTORE CALLVALUE DUP1 ISZERO PUSH2 0xF JUMPI PUSH0 DUP1 REVERT JUMPDEST POP PUSH1 0x40 MLOAD PUSH2 0x10DF CODESIZE SUB DUP1 PUSH2 0x10DF DUP4 CODECOPY DUP2 DUP2 ADD PUSH1 0x40 MSTORE DUP2 ADD SWAP1 PUSH2 0x31 SWAP2 SWAP1 PUSH2 0x1D5 JUMP JUMPDEST DUP1 CALLER PUSH0 DUP1 PUSH2 0x100 EXP DUP2 SLOAD DUP2 PUSH20 0xFFFFFFFFFFFFFFFFFFFFFFFFFFFFFFFFFFFFFFFF MUL NOT AND SWAP1 DUP4 PUSH20 0xFFFFFFFFFFFFFFFFFFFFFFFFFFFFFFFFFFFFFFFF AND MUL OR SWAP1 SSTORE POP DUP1 PUSH1 0x1 SWAP1 DUP2 PUSH2 0x80 SWAP2 SWAP1 PUSH2 0x429 JUMP JUMPDEST POP POP POP PUSH2 0x4F8 JUMP JUMPDEST PUSH0 PUSH1 0x40 MLOAD SWAP1 POP SWAP1 JUMP JUMPDEST PUSH0 DUP1 REVERT JUMPDEST PUSH0 DUP1 REVERT JUMPDEST PUSH0 DUP1 REVERT JUMPDEST PUSH0 DUP1 REVERT JUMPDEST PUSH0 PUSH1 0x1F NOT PUSH1 0x1F DUP4 ADD AND SWAP1 POP SWAP2 SWAP1 POP JUMP JUMPDEST PUSH32 0x4E487B7100000000000000000000000000000000000000000000000000000000 PUSH0 MSTORE PUSH1 0x41 PUSH1 0x4 MSTORE PUSH1 0x24 PUSH0 REVERT JUMPDEST PUSH2 0xE7 DUP3 PUSH2 0xA1 JUMP JUMPDEST DUP2 ADD DUP2 DUP2 LT PUSH8 0xFFFFFFFFFFFFFFFF DUP3 GT OR ISZERO PUSH2 0x106 JUMPI PUSH2 0x105 PUSH2 0xB1 JUMP JUMPDEST JUMPDEST DUP1 PUSH1 0x40 MSTORE POP POP POP JUMP JUMPDEST PUSH0 PUSH2 0x118 PUSH2 0x88 JUMP JUMPDEST SWAP1 POP PUSH2 0x124 DUP3 DUP3 PUSH2 0xDE JUMP JUMPDEST SWAP2 SWAP1 POP JUMP JUMPDEST PUSH0 PUSH8 0xFFFFFFFFFFFFFFFF DUP3 GT ISZERO PUSH2 0x143 JUMPI PUSH2 0x142 PUSH2 0xB1 JUMP JUMPDEST JUMPDEST PUSH2 0x14C DUP3 PUSH2 0xA1 JUMP JUMPDEST SWAP1 POP PUSH1 0x20 DUP2 ADD SWAP1 POP SWAP2 SWAP1 POP JUMP JUMPDEST DUP3 DUP2 DUP4 MCOPY PUSH0 DUP4 DUP4 ADD MSTORE POP POP POP JUMP JUMPDEST PUSH0 PUSH2 0x179 PUSH2 0x174 DUP5 PUSH2 0x129 JUMP JUMPDEST PUSH2 0x10F JUMP JUMPDEST SWAP1 POP DUP3 DUP2 MSTORE PUSH1 0x20 DUP2 ADD DUP5 DUP5 DUP5 ADD GT ISZERO PUSH2 0x195 JUMPI PUSH2 0x194 PUSH2 0x9D JUMP JUMPDEST JUMPDEST PUSH2 0x1A0 DUP5 DUP3 DUP6 PUSH2 0x159 JUMP JUMPDEST POP SWAP4 SWAP3 POP POP POP JUMP JUMPDEST PUSH0 DUP3 PUSH1 0x1F DUP4 ADD SLT PUSH2 0x1BC JUMPI PUSH2 0x1BB PUSH2 0x99 JUMP JUMPDEST JUMPDEST DUP2 MLOAD PUSH2 0x1CC DUP5 DUP3 PUSH1 0x20 DUP7 ADD PUSH2 0x167 JUMP JUMPDEST SWAP2 POP POP SWAP3 SWAP2 POP POP JUMP JUMPDEST PUSH0 PUSH1 0x20 DUP3 DUP5 SUB SLT ISZERO PUSH2 0x1EA JUMPI PUSH2 0x1E9 PUSH2 0x91 JUMP JUMPDEST JUMPDEST PUSH0 DUP3 ADD MLOAD PUSH8 0xFFFFFFFFFFFFFFFF DUP2 GT ISZERO PUSH2 0x207 JUMPI PUSH2 0x206 PUSH2 0x95 JUMP JUMPDEST JUMPDEST PUSH2 0x213 DUP5 DUP3 DUP6 ADD PUSH2 0x1A8 JUMP JUMPDEST SWAP2 POP POP SWAP3 SWAP2 POP POP JUMP JUMPDEST PUSH0 DUP2 MLOAD SWAP1 POP SWAP2 SWAP1 POP JUMP JUMPDEST PUSH32 0x4E487B7100000000000000000000000000000000000000000000000000000000 PUSH0 MSTORE PUSH1 0x22 PUSH1 0x4 MSTORE PUSH1 0x24 PUSH0 REVERT JUMPDEST PUSH0 PUSH1 0x2 DUP3 DIV SWAP1 POP PUSH1 0x1 DUP3 AND DUP1 PUSH2 0x26A JUMPI PUSH1 0x7F DUP3 AND SWAP2 POP JUMPDEST PUSH1 0x20 DUP3 LT DUP2 SUB PUSH2 0x27D JUMPI PUSH2 0x27C PUSH2 0x226 JUMP JUMPDEST JUMPDEST POP SWAP2 SWAP1 POP JUMP JUMPDEST PUSH0 DUP2 SWAP1 POP DUP2 PUSH0 MSTORE PUSH1 0x20 PUSH0 KECCAK256 SWAP1 POP SWAP2 SWAP1 POP JUMP JUMPDEST PUSH0 PUSH1 0x20 PUSH1 0x1F DUP4 ADD DIV SWAP1 POP SWAP2 SWAP1 POP JUMP JUMPDEST PUSH0 DUP3 DUP3 SHL SWAP1 POP SWAP3 SWAP2 POP POP JUMP JUMPDEST PUSH0 PUSH1 0x8 DUP4 MUL PUSH2 0x2DF PUSH32 0xFFFFFFFFFFFFFFFFFFFFFFFFFFFFFFFFFFFFFFFFFFFFFFFFFFFFFFFFFFFFFFFF DUP3 PUSH2 0x2A4 JUMP JUMPDEST PUSH2 0x2E9 DUP7 DUP4 PUSH2 0x2A4 JUMP JUMPDEST SWAP6 POP DUP1 NOT DUP5 AND SWAP4 POP DUP1 DUP7 AND DUP5 OR SWAP3 POP POP POP SWAP4 SWAP3 POP POP POP JUMP JUMPDEST PUSH0 DUP2 SWAP1 POP SWAP2 SWAP1 POP JUMP JUMPDEST PUSH0 DUP2 SWAP1 POP SWAP2 SWAP1 POP JUMP JUMPDEST PUSH0 PUSH2 0x32D PUSH2 0x328 PUSH2 0x323 DUP5 PUSH2 0x301 JUMP JUMPDEST PUSH2 0x30A JUMP JUMPDEST PUSH2 0x301 JUMP JUMPDEST SWAP1 POP SWAP2 SWAP1 POP JUMP JUMPDEST PUSH0 DUP2 SWAP1 POP SWAP2 SWAP1 POP JUMP JUMPDEST PUSH2 0x346 DUP4 PUSH2 0x313 JUMP JUMPDEST PUSH2 0x35A PUSH2 0x352 DUP3 PUSH2 0x334 JUMP JUMPDEST DUP5 DUP5 SLOAD PUSH2 0x2B0 JUMP JUMPDEST DUP3 SSTORE POP POP POP POP JUMP JUMPDEST PUSH0 SWAP1 JUMP JUMPDEST PUSH2 0x36E PUSH2 0x362 JUMP JUMPDEST PUSH2 0x379 DUP2 DUP5 DUP5 PUSH2 0x33D JUMP JUMPDEST POP POP POP JUMP JUMPDEST JUMPDEST DUP2 DUP2 LT ISZERO PUSH2 0x39C JUMPI PUSH2 0x391 PUSH0 DUP3 PUSH2 0x366 JUMP JUMPDEST PUSH1 0x1 DUP2 ADD SWAP1 POP PUSH2 0x37F JUMP JUMPDEST POP POP JUMP JUMPDEST PUSH1 0x1F DUP3 GT ISZERO PUSH2 0x3E1 JUMPI PUSH2 0x3B2 DUP2 PUSH2 0x283 JUMP JUMPDEST PUSH2 0x3BB DUP5 PUSH2 0x295 JUMP JUMPDEST DUP2 ADD PUSH1 0x20 DUP6 LT ISZERO PUSH2 0x3CA JUMPI DUP2 SWAP1 POP JUMPDEST PUSH2 0x3DE PUSH2 0x3D6 DUP6 PUSH2 0x295 JUMP JUMPDEST DUP4 ADD DUP3 PUSH2 0x37E JUMP JUMPDEST POP POP JUMPDEST POP POP POP JUMP JUMPDEST PUSH0 DUP3 DUP3 SHR SWAP1 POP SWAP3 SWAP2 POP POP JUMP JUMPDEST PUSH0 PUSH2 0x401 PUSH0 NOT DUP5 PUSH1 0x8 MUL PUSH2 0x3E6 JUMP JUMPDEST NOT DUP1 DUP4 AND SWAP2 POP POP SWAP3 SWAP2 POP POP JUMP JUMPDEST PUSH0 PUSH2 0x419 DUP4 DUP4 PUSH2 0x3F2 JUMP JUMPDEST SWAP2 POP DUP3 PUSH1 0x2 MUL DUP3 OR SWAP1 POP SWAP3 SWAP2 POP POP JUMP JUMPDEST PUSH2 0x432 DUP3 PUSH2 0x21C JUMP JUMPDEST PUSH8 0xFFFFFFFFFFFFFFFF DUP2 GT ISZERO PUSH2 0x44B JUMPI PUSH2 0x44A PUSH2 0xB1 JUMP JUMPDEST JUMPDEST PUSH2 0x455 DUP3 SLOAD PUSH2 0x253 JUMP JUMPDEST PUSH2 0x460 DUP3 DUP3 DUP6 PUSH2 0x3A0 JUMP JUMPDEST PUSH0 PUSH1 0x20 SWAP1 POP PUSH1 0x1F DUP4 GT PUSH1 0x1 DUP2 EQ PUSH2 0x491 JUMPI PUSH0 DUP5 ISZERO PUSH2 0x47F JUMPI DUP3 DUP8 ADD MLOAD SWAP1 POP JUMPDEST PUSH2 0x489 DUP6 DUP3 PUSH2 0x40E JUMP JUMPDEST DUP7 SSTORE POP PUSH2 0x4F0 JUMP JUMPDEST PUSH1 0x1F NOT DUP5 AND PUSH2 0x49F DUP7 PUSH2 0x283 JUMP JUMPDEST PUSH0 JUMPDEST DUP3 DUP2 LT ISZERO PUSH2 0x4C6 JUMPI DUP5 DUP10 ADD MLOAD DUP3 SSTORE PUSH1 0x1 DUP3 ADD SWAP2 POP PUSH1 0x20 DUP6 ADD SWAP5 POP PUSH1 0x20 DUP2 ADD SWAP1 POP PUSH2 0x4A1 JUMP JUMPDEST DUP7 DUP4 LT ISZERO PUSH2 0x4E3 JUMPI DUP5 DUP10 ADD MLOAD PUSH2 0x4DF PUSH1 0x1F DUP10 AND DUP3 PUSH2 0x3F2 JUMP JUMPDEST DUP4 SSTORE POP JUMPDEST PUSH1 0x1 PUSH1 0x2 DUP9 MUL ADD DUP9 SSTORE POP POP POP JUMPDEST POP POP POP POP POP POP JUMP JUMPDEST PUSH2 0xBDA DUP1 PUSH2 0x505 PUSH0 CODECOPY PUSH0 RETURN INVALID PUSH1 0x80 PUSH1 0x40 MSTORE PUSH1 0x4 CALLDATASIZE LT PUSH2 0x4D JUMPI PUSH0 CALLDATALOAD PUSH1 0xE0 SHR DUP1 PUSH4 0x27E235E3 EQ PUSH2 0x134 JUMPI DUP1 PUSH4 0x70740AAB EQ PUSH2 0x170 JUMPI DUP1 PUSH4 0x8DA5CB5B EQ PUSH2 0x19A JUMPI DUP1 PUSH4 0x96B1CF28 EQ PUSH2 0x1C4 JUMPI DUP1 PUSH4 0xED88C68E EQ PUSH2 0x1EC JUMPI PUSH2 0xF5 JUMP JUMPDEST CALLDATASIZE PUSH2 0xF5 JUMPI CALLVALUE PUSH1 0x2 PUSH0 CALLER PUSH20 0xFFFFFFFFFFFFFFFFFFFFFFFFFFFFFFFFFFFFFFFF AND PUSH20 0xFFFFFFFFFFFFFFFFFFFFFFFFFFFFFFFFFFFFFFFF AND DUP2 MSTORE PUSH1 0x20 ADD SWAP1 DUP2 MSTORE PUSH1 0x20 ADD PUSH0 KECCAK256 PUSH0 DUP3 DUP3 SLOAD PUSH2 0x9E SWAP2 SWAP1 PUSH2 0x475 JUMP JUMPDEST SWAP3 POP POP DUP2 SWAP1 SSTORE POP CALLER PUSH20 0xFFFFFFFFFFFFFFFFFFFFFFFFFFFFFFFFFFFFFFFF AND PUSH32 0x264F630D9EFA0D07053A31163641D9FCC0ADAFC9D9E76F1C37C2CE3A558D2C52 CALLVALUE PUSH1 0x40 MLOAD PUSH2 0xEB SWAP2 SWAP1 PUSH2 0x4B7 JUMP JUMPDEST PUSH1 0x40 MLOAD DUP1 SWAP2 SUB SWAP1 LOG2 STOP JUMPDEST PUSH32 0x390F97E4A5AB8058CA67D5E2DB9310CA12D1E29C64F7EB23DC5F12F1C31E9058 CALLER CALLVALUE PUSH0 CALLDATASIZE PUSH1 0x40 MLOAD PUSH2 0x12A SWAP5 SWAP4 SWAP3 SWAP2 SWAP1 PUSH2 0x569 JUMP JUMPDEST PUSH1 0x40 MLOAD DUP1 SWAP2 SUB SWAP1 LOG1 STOP JUMPDEST CALLVALUE DUP1 ISZERO PUSH2 0x13F JUMPI PUSH0 DUP1 REVERT JUMPDEST POP PUSH2 0x15A PUSH1 0x4 DUP1 CALLDATASIZE SUB DUP2 ADD SWAP1 PUSH2 0x155 SWAP2 SWAP1 PUSH2 0x5E2 JUMP JUMPDEST PUSH2 0x1F6 JUMP JUMPDEST PUSH1 0x40 MLOAD PUSH2 0x167 SWAP2 SWAP1 PUSH2 0x4B7 JUMP JUMPDEST PUSH1 0x40 MLOAD DUP1 SWAP2 SUB SWAP1 RETURN JUMPDEST CALLVALUE DUP1 ISZERO PUSH2 0x17B JUMPI PUSH0 DUP1 REVERT JUMPDEST POP PUSH2 0x184 PUSH2 0x20B JUMP JUMPDEST PUSH1 0x40 MLOAD PUSH2 0x191 SWAP2 SWAP1 PUSH2 0x66D JUMP JUMPDEST PUSH1 0x40 MLOAD DUP1 SWAP2 SUB SWAP1 RETURN JUMPDEST CALLVALUE DUP1 ISZERO PUSH2 0x1A5 JUMPI PUSH0 DUP1 REVERT JUMPDEST POP PUSH2 0x1AE PUSH2 0x297 JUMP JUMPDEST PUSH1 0x40 MLOAD PUSH2 0x1BB SWAP2 SWAP1 PUSH2 0x68D JUMP JUMPDEST PUSH1 0x40 MLOAD DUP1 SWAP2 SUB SWAP1 RETURN JUMPDEST CALLVALUE DUP1 ISZERO PUSH2 0x1CF JUMPI PUSH0 DUP1 REVERT JUMPDEST POP PUSH2 0x1EA PUSH1 0x4 DUP1 CALLDATASIZE SUB DUP2 ADD SWAP1 PUSH2 0x1E5 SWAP2 SWAP1 PUSH2 0x7C4 JUMP JUMPDEST PUSH2 0x2BA JUMP JUMPDEST STOP JUMPDEST PUSH2 0x1F4 PUSH2 0x35A JUMP JUMPDEST STOP JUMPDEST PUSH1 0x2 PUSH1 0x20 MSTORE DUP1 PUSH0 MSTORE PUSH1 0x40 PUSH0 KECCAK256 PUSH0 SWAP2 POP SWAP1 POP SLOAD DUP2 JUMP JUMPDEST PUSH1 0x1 DUP1 SLOAD PUSH2 0x218 SWAP1 PUSH2 0x838 JUMP JUMPDEST DUP1 PUSH1 0x1F ADD PUSH1 0x20 DUP1 SWAP2 DIV MUL PUSH1 0x20 ADD PUSH1 0x40 MLOAD SWAP1 DUP2 ADD PUSH1 0x40 MSTORE DUP1 SWAP3 SWAP2 SWAP1 DUP2 DUP2 MSTORE PUSH1 0x20 ADD DUP3 DUP1 SLOAD PUSH2 0x244 SWAP1 PUSH2 0x838 JUMP JUMPDEST DUP1 ISZERO PUSH2 0x28F JUMPI DUP1 PUSH1 0x1F LT PUSH2 0x266 JUMPI PUSH2 0x100 DUP1 DUP4 SLOAD DIV MUL DUP4 MSTORE SWAP2 PUSH1 0x20 ADD SWAP2 PUSH2 0x28F JUMP JUMPDEST DUP3 ADD SWAP2 SWAP1 PUSH0 MSTORE PUSH1 0x20 PUSH0 KECCAK256 SWAP1 JUMPDEST DUP2 SLOAD DUP2 MSTORE SWAP1 PUSH1 0x1 ADD SWAP1 PUSH1 0x20 ADD DUP1 DUP4 GT PUSH2 0x272 JUMPI DUP3 SWAP1 SUB PUSH1 0x1F AND DUP3 ADD SWAP2 JUMPDEST POP POP POP POP POP DUP2 JUMP JUMPDEST PUSH0 DUP1 SLOAD SWAP1 PUSH2 0x100 EXP SWAP1 DIV PUSH20 0xFFFFFFFFFFFFFFFFFFFFFFFFFFFFFFFFFFFFFFFF AND DUP2 JUMP JUMPDEST PUSH0 DUP1 SLOAD SWAP1 PUSH2 0x100 EXP SWAP1 DIV PUSH20 0xFFFFFFFFFFFFFFFFFFFFFFFFFFFFFFFFFFFFFFFF AND PUSH20 0xFFFFFFFFFFFFFFFFFFFFFFFFFFFFFFFFFFFFFFFF AND CALLER PUSH20 0xFFFFFFFFFFFFFFFFFFFFFFFFFFFFFFFFFFFFFFFF AND EQ PUSH2 0x347 JUMPI PUSH1 0x40 MLOAD PUSH32 0x8C379A000000000000000000000000000000000000000000000000000000000 DUP2 MSTORE PUSH1 0x4 ADD PUSH2 0x33E SWAP1 PUSH2 0x8B2 JUMP JUMPDEST PUSH1 0x40 MLOAD DUP1 SWAP2 SUB SWAP1 REVERT JUMPDEST DUP1 PUSH1 0x1 SWAP1 DUP2 PUSH2 0x356 SWAP2 SWAP1 PUSH2 0xA6D JUMP JUMPDEST POP POP JUMP JUMPDEST PUSH0 CALLVALUE GT PUSH2 0x39C JUMPI PUSH1 0x40 MLOAD PUSH32 0x8C379A000000000000000000000000000000000000000000000000000000000 DUP2 MSTORE PUSH1 0x4 ADD PUSH2 0x393 SWAP1 PUSH2 0xB86 JUMP JUMPDEST PUSH1 0x40 MLOAD DUP1 SWAP2 SUB SWAP1 REVERT JUMPDEST CALLVALUE PUSH1 0x2 PUSH0 CALLER PUSH20 0xFFFFFFFFFFFFFFFFFFFFFFFFFFFFFFFFFFFFFFFF AND PUSH20 0xFFFFFFFFFFFFFFFFFFFFFFFFFFFFFFFFFFFFFFFF AND DUP2 MSTORE PUSH1 0x20 ADD SWAP1 DUP2 MSTORE PUSH1 0x20 ADD PUSH0 KECCAK256 PUSH0 DUP3 DUP3 SLOAD PUSH2 0x3E8 SWAP2 SWAP1 PUSH2 0x475 JUMP JUMPDEST SWAP3 POP POP DUP2 SWAP1 SSTORE POP CALLER PUSH20 0xFFFFFFFFFFFFFFFFFFFFFFFFFFFFFFFFFFFFFFFF AND PUSH32 0x264F630D9EFA0D07053A31163641D9FCC0ADAFC9D9E76F1C37C2CE3A558D2C52 CALLVALUE PUSH1 0x40 MLOAD PUSH2 0x435 SWAP2 SWAP1 PUSH2 0x4B7 JUMP JUMPDEST PUSH1 0x40 MLOAD DUP1 SWAP2 SUB SWAP1 LOG2 JUMP JUMPDEST PUSH0 DUP2 SWAP1 POP SWAP2 SWAP1 POP JUMP JUMPDEST PUSH32 0x4E487B7100000000000000000000000000000000000000000000000000000000 PUSH0 MSTORE PUSH1 0x11 PUSH1 0x4 MSTORE PUSH1 0x24 PUSH0 REVERT JUMPDEST PUSH0 PUSH2 0x47F DUP3 PUSH2 0x43F JUMP JUMPDEST SWAP2 POP PUSH2 0x48A DUP4 PUSH2 0x43F JUMP JUMPDEST SWAP3 POP DUP3 DUP3 ADD SWAP1 POP DUP1 DUP3 GT ISZERO PUSH2 0x4A2 JUMPI PUSH2 0x4A1 PUSH2 0x448 JUMP JUMPDEST JUMPDEST SWAP3 SWAP2 POP POP JUMP JUMPDEST PUSH2 0x4B1 DUP2 PUSH2 0x43F JUMP JUMPDEST DUP3 MSTORE POP POP JUMP JUMPDEST PUSH0 PUSH1 0x20 DUP3 ADD SWAP1 POP PUSH2 0x4CA PUSH0 DUP4 ADD DUP5 PUSH2 0x4A8 JUMP JUMPDEST SWAP3 SWAP2 POP POP JUMP JUMPDEST PUSH0 PUSH20 0xFFFFFFFFFFFFFFFFFFFFFFFFFFFFFFFFFFFFFFFF DUP3 AND SWAP1 POP SWAP2 SWAP1 POP JUMP JUMPDEST PUSH0 PUSH2 0x4F9 DUP3 PUSH2 0x4D0 JUMP JUMPDEST SWAP1 POP SWAP2 SWAP1 POP JUMP JUMPDEST PUSH2 0x509 DUP2 PUSH2 0x4EF JUMP JUMPDEST DUP3 MSTORE POP POP JUMP JUMPDEST PUSH0 DUP3 DUP3 MSTORE PUSH1 0x20 DUP3 ADD SWAP1 POP SWAP3 SWAP2 POP POP JUMP JUMPDEST DUP3 DUP2 DUP4 CALLDATACOPY PUSH0 DUP4 DUP4 ADD MSTORE POP POP POP JUMP JUMPDEST PUSH0 PUSH1 0x1F NOT PUSH1 0x1F DUP4 ADD AND SWAP1 POP SWAP2 SWAP1 POP JUMP JUMPDEST PUSH0 PUSH2 0x548 DUP4 DUP6 PUSH2 0x50F JUMP JUMPDEST SWAP4 POP PUSH2 0x555 DUP4 DUP6 DUP5 PUSH2 0x51F JUMP JUMPDEST PUSH2 0x55E DUP4 PUSH2 0x52D JUMP JUMPDEST DUP5 ADD SWAP1 POP SWAP4 SWAP3 POP POP POP JUMP JUMPDEST PUSH0 PUSH1 0x60 DUP3 ADD SWAP1 POP PUSH2 0x57C PUSH0 DUP4 ADD DUP8 PUSH2 0x500 JUMP JUMPDEST PUSH2 0x589 PUSH1 0x20 DUP4 ADD DUP7 PUSH2 0x4A8 JUMP JUMPDEST DUP2 DUP2 SUB PUSH1 0x40 DUP4 ADD MSTORE PUSH2 0x59C DUP2 DUP5 DUP7 PUSH2 0x53D JUMP JUMPDEST SWAP1 POP SWAP6 SWAP5 POP POP POP POP POP JUMP JUMPDEST PUSH0 PUSH1 0x40 MLOAD SWAP1 POP SWAP1 JUMP JUMPDEST PUSH0 DUP1 REVERT JUMPDEST PUSH0 DUP1 REVERT JUMPDEST PUSH2 0x5C1 DUP2 PUSH2 0x4EF JUMP JUMPDEST DUP2 EQ PUSH2 0x5CB JUMPI PUSH0 DUP1 REVERT JUMPDEST POP JUMP JUMPDEST PUSH0 DUP2 CALLDATALOAD SWAP1 POP PUSH2 0x5DC DUP2 PUSH2 0x5B8 JUMP JUMPDEST SWAP3 SWAP2 POP POP JUMP JUMPDEST PUSH0 PUSH1 0x20 DUP3 DUP5 SUB SLT ISZERO PUSH2 0x5F7 JUMPI PUSH2 0x5F6 PUSH2 0x5B0 JUMP JUMPDEST JUMPDEST PUSH0 PUSH2 0x604 DUP5 DUP3 DUP6 ADD PUSH2 0x5CE JUMP JUMPDEST SWAP2 POP POP SWAP3 SWAP2 POP POP JUMP JUMPDEST PUSH0 DUP2 MLOAD SWAP1 POP SWAP2 SWAP1 POP JUMP JUMPDEST PUSH0 DUP3 DUP3 MSTORE PUSH1 0x20 DUP3 ADD SWAP1 POP SWAP3 SWAP2 POP POP JUMP JUMPDEST DUP3 DUP2 DUP4 MCOPY PUSH0 DUP4 DUP4 ADD MSTORE POP POP POP JUMP JUMPDEST PUSH0 PUSH2 0x63F DUP3 PUSH2 0x60D JUMP JUMPDEST PUSH2 0x649 DUP2 DUP6 PUSH2 0x617 JUMP JUMPDEST SWAP4 POP PUSH2 0x659 DUP2 DUP6 PUSH1 0x20 DUP7 ADD PUSH2 0x627 JUMP JUMPDEST PUSH2 0x662 DUP2 PUSH2 0x52D JUMP JUMPDEST DUP5 ADD SWAP2 POP POP SWAP3 SWAP2 POP POP JUMP JUMPDEST PUSH0 PUSH1 0x20 DUP3 ADD SWAP1 POP DUP2 DUP2 SUB PUSH0 DUP4 ADD MSTORE PUSH2 0x685 DUP2 DUP5 PUSH2 0x635 JUMP JUMPDEST SWAP1 POP SWAP3 SWAP2 POP POP JUMP JUMPDEST PUSH0 PUSH1 0x20 DUP3 ADD SWAP1 POP PUSH2 0x6A0 PUSH0 DUP4 ADD DUP5 PUSH2 0x500 JUMP JUMPDEST SWAP3 SWAP2 POP POP JUMP JUMPDEST PUSH0 DUP1 REVERT JUMPDEST PUSH0 DUP1 REVERT JUMPDEST PUSH32 0x4E487B7100000000000000000000000000000000000000000000000000000000 PUSH0 MSTORE PUSH1 0x41 PUSH1 0x4 MSTORE PUSH1 0x24 PUSH0 REVERT JUMPDEST PUSH2 0x6E4 DUP3 PUSH2 0x52D JUMP JUMPDEST DUP2 ADD DUP2 DUP2 LT PUSH8 0xFFFFFFFFFFFFFFFF DUP3 GT OR ISZERO PUSH2 0x703 JUMPI PUSH2 0x702 PUSH2 0x6AE JUMP JUMPDEST JUMPDEST DUP1 PUSH1 0x40 MSTORE POP POP POP JUMP JUMPDEST PUSH0 PUSH2 0x715 PUSH2 0x5A7 JUMP JUMPDEST SWAP1 POP PUSH2 0x721 DUP3 DUP3 PUSH2 0x6DB JUMP JUMPDEST SWAP2 SWAP1 POP JUMP JUMPDEST PUSH0 PUSH8 0xFFFFFFFFFFFFFFFF DUP3 GT ISZERO PUSH2 0x740 JUMPI PUSH2 0x73F PUSH2 0x6AE JUMP JUMPDEST JUMPDEST PUSH2 0x749 DUP3 PUSH2 0x52D JUMP JUMPDEST SWAP1 POP PUSH1 0x20 DUP2 ADD SWAP1 POP SWAP2 SWAP1 POP JUMP JUMPDEST PUSH0 PUSH2 0x768 PUSH2 0x763 DUP5 PUSH2 0x726 JUMP JUMPDEST PUSH2 0x70C JUMP JUMPDEST SWAP1 POP DUP3 DUP2 MSTORE PUSH1 0x20 DUP2 ADD DUP5 DUP5 DUP5 ADD GT ISZERO PUSH2 0x784 JUMPI PUSH2 0x783 PUSH2 0x6AA JUMP JUMPDEST JUMPDEST PUSH2 0x78F DUP5 DUP3 DUP6 PUSH2 0x51F JUMP JUMPDEST POP SWAP4 SWAP3 POP POP POP JUMP JUMPDEST PUSH0 DUP3 PUSH1 0x1F DUP4 ADD SLT PUSH2 0x7AB JUMPI PUSH2 0x7AA PUSH2 0x6A6 JUMP JUMPDEST JUMPDEST DUP2 CALLDATALOAD PUSH2 0x7BB DUP5 DUP3 PUSH1 0x20 DUP7 ADD PUSH2 0x756 JUMP JUMPDEST SWAP2 POP POP SWAP3 SWAP2 POP POP JUMP JUMPDEST PUSH0 PUSH1 0x20 DUP3 DUP5 SUB SLT ISZERO PUSH2 0x7D9 JUMPI PUSH2 0x7D8 PUSH2 0x5B0 JUMP JUMPDEST JUMPDEST PUSH0 DUP3 ADD CALLDATALOAD PUSH8 0xFFFFFFFFFFFFFFFF DUP2 GT ISZERO PUSH2 0x7F6 JUMPI PUSH2 0x7F5 PUSH2 0x5B4 JUMP JUMPDEST JUMPDEST PUSH2 0x802 DUP5 DUP3 DUP6 ADD PUSH2 0x797 JUMP JUMPDEST SWAP2 POP POP SWAP3 SWAP2 POP POP JUMP JUMPDEST PUSH32 0x4E487B7100000000000000000000000000000000000000000000000000000000 PUSH0 MSTORE PUSH1 0x22 PUSH1 0x4 MSTORE PUSH1 0x24 PUSH0 REVERT JUMPDEST PUSH0 PUSH1 0x2 DUP3 DIV SWAP1 POP PUSH1 0x1 DUP3 AND DUP1 PUSH2 0x84F JUMPI PUSH1 0x7F DUP3 AND SWAP2 POP JUMPDEST PUSH1 0x20 DUP3 LT DUP2 SUB PUSH2 0x862 JUMPI PUSH2 0x861 PUSH2 0x80B JUMP JUMPDEST JUMPDEST POP SWAP2 SWAP1 POP JUMP JUMPDEST PUSH32 0x4E6F742074686520636F6E7472616374206F776E657200000000000000000000 PUSH0 DUP3 ADD MSTORE POP JUMP JUMPDEST PUSH0 PUSH2 0x89C PUSH1 0x16 DUP4 PUSH2 0x617 JUMP JUMPDEST SWAP2 POP PUSH2 0x8A7 DUP3 PUSH2 0x868 JUMP JUMPDEST PUSH1 0x20 DUP3 ADD SWAP1 POP SWAP2 SWAP1 POP JUMP JUMPDEST PUSH0 PUSH1 0x20 DUP3 ADD SWAP1 POP DUP2 DUP2 SUB PUSH0 DUP4 ADD MSTORE PUSH2 0x8C9 DUP2 PUSH2 0x890 JUMP JUMPDEST SWAP1 POP SWAP2 SWAP1 POP JUMP JUMPDEST PUSH0 DUP2 SWAP1 POP DUP2 PUSH0 MSTORE PUSH1 0x20 PUSH0 KECCAK256 SWAP1 POP SWAP2 SWAP1 POP JUMP JUMPDEST PUSH0 PUSH1 0x20 PUSH1 0x1F DUP4 ADD DIV SWAP1 POP SWAP2 SWAP1 POP JUMP JUMPDEST PUSH0 DUP3 DUP3 SHL SWAP1 POP SWAP3 SWAP2 POP POP JUMP JUMPDEST PUSH0 PUSH1 0x8 DUP4 MUL PUSH2 0x92C PUSH32 0xFFFFFFFFFFFFFFFFFFFFFFFFFFFFFFFFFFFFFFFFFFFFFFFFFFFFFFFFFFFFFFFF DUP3 PUSH2 0x8F1 JUMP JUMPDEST PUSH2 0x936 DUP7 DUP4 PUSH2 0x8F1 JUMP JUMPDEST SWAP6 POP DUP1 NOT DUP5 AND SWAP4 POP DUP1 DUP7 AND DUP5 OR SWAP3 POP POP POP SWAP4 SWAP3 POP POP POP JUMP JUMPDEST PUSH0 DUP2 SWAP1 POP SWAP2 SWAP1 POP JUMP JUMPDEST PUSH0 PUSH2 0x971 PUSH2 0x96C PUSH2 0x967 DUP5 PUSH2 0x43F JUMP JUMPDEST PUSH2 0x94E JUMP JUMPDEST PUSH2 0x43F JUMP JUMPDEST SWAP1 POP SWAP2 SWAP1 POP JUMP JUMPDEST PUSH0 DUP2 SWAP1 POP SWAP2 SWAP1 POP JUMP JUMPDEST PUSH2 0x98A DUP4 PUSH2 0x957 JUMP JUMPDEST PUSH2 0x99E PUSH2 0x996 DUP3 PUSH2 0x978 JUMP JUMPDEST DUP5 DUP5 SLOAD PUSH2 0x8FD JUMP JUMPDEST DUP3 SSTORE POP POP POP POP JUMP JUMPDEST PUSH0 SWAP1 JUMP JUMPDEST PUSH2 0x9B2 PUSH2 0x9A6 JUMP JUMPDEST PUSH2 0x9BD DUP2 DUP5 DUP5 PUSH2 0x981 JUMP JUMPDEST POP POP POP JUMP JUMPDEST JUMPDEST DUP2 DUP2 LT ISZERO PUSH2 0x9E0 JUMPI PUSH2 0x9D5 PUSH0 DUP3 PUSH2 0x9AA JUMP JUMPDEST PUSH1 0x1 DUP2 ADD SWAP1 POP PUSH2 0x9C3 JUMP JUMPDEST POP POP JUMP JUMPDEST PUSH1 0x1F DUP3 GT ISZERO PUSH2 0xA25 JUMPI PUSH2 0x9F6 DUP2 PUSH2 0x8D0 JUMP JUMPDEST PUSH2 0x9FF DUP5 PUSH2 0x8E2 JUMP JUMPDEST DUP2 ADD PUSH1 0x20 DUP6 LT ISZERO PUSH2 0xA0E JUMPI DUP2 SWAP1 POP JUMPDEST PUSH2 0xA22 PUSH2 0xA1A DUP6 PUSH2 0x8E2 JUMP JUMPDEST DUP4 ADD DUP3 PUSH2 0x9C2 JUMP JUMPDEST POP POP JUMPDEST POP POP POP JUMP JUMPDEST PUSH0 DUP3 DUP3 SHR SWAP1 POP SWAP3 SWAP2 POP POP JUMP JUMPDEST PUSH0 PUSH2 0xA45 PUSH0 NOT DUP5 PUSH1 0x8 MUL PUSH2 0xA2A JUMP JUMPDEST NOT DUP1 DUP4 AND SWAP2 POP POP SWAP3 SWAP2 POP POP JUMP JUMPDEST PUSH0 PUSH2 0xA5D DUP4 DUP4 PUSH2 0xA36 JUMP JUMPDEST SWAP2 POP DUP3 PUSH1 0x2 MUL DUP3 OR SWAP1 POP SWAP3 SWAP2 POP POP JUMP JUMPDEST PUSH2 0xA76 DUP3 PUSH2 0x60D JUMP JUMPDEST PUSH8 0xFFFFFFFFFFFFFFFF DUP2 GT ISZERO PUSH2 0xA8F JUMPI PUSH2 0xA8E PUSH2 0x6AE JUMP JUMPDEST JUMPDEST PUSH2 0xA99 DUP3 SLOAD PUSH2 0x838 JUMP JUMPDEST PUSH2 0xAA4 DUP3 DUP3 DUP6 PUSH2 0x9E4 JUMP JUMPDEST PUSH0 PUSH1 0x20 SWAP1 POP PUSH1 0x1F DUP4 GT PUSH1 0x1 DUP2 EQ PUSH2 0xAD5 JUMPI PUSH0 DUP5 ISZERO PUSH2 0xAC3 JUMPI DUP3 DUP8 ADD MLOAD SWAP1 POP JUMPDEST PUSH2 0xACD DUP6 DUP3 PUSH2 0xA52 JUMP JUMPDEST DUP7 SSTORE POP PUSH2 0xB34 JUMP JUMPDEST PUSH1 0x1F NOT DUP5 AND PUSH2 0xAE3 DUP7 PUSH2 0x8D0 JUMP JUMPDEST PUSH0 JUMPDEST DUP3 DUP2 LT ISZERO PUSH2 0xB0A JUMPI DUP5 DUP10 ADD MLOAD DUP3 SSTORE PUSH1 0x1 DUP3 ADD SWAP2 POP PUSH1 0x20 DUP6 ADD SWAP5 POP PUSH1 0x20 DUP2 ADD SWAP1 POP PUSH2 0xAE5 JUMP JUMPDEST DUP7 DUP4 LT ISZERO PUSH2 0xB27 JUMPI DUP5 DUP10 ADD MLOAD PUSH2 0xB23 PUSH1 0x1F DUP10 AND DUP3 PUSH2 0xA36 JUMP JUMPDEST DUP4 SSTORE POP JUMPDEST PUSH1 0x1 PUSH1 0x2 DUP9 MUL ADD DUP9 SSTORE POP POP POP JUMPDEST POP POP POP POP POP POP JUMP JUMPDEST PUSH32 0x446F6E6174696F6E206D7573742062652067726561746572207468616E203000 PUSH0 DUP3 ADD MSTORE POP JUMP JUMPDEST PUSH0 PUSH2 0xB70 PUSH1 0x1F DUP4 PUSH2 0x617 JUMP JUMPDEST SWAP2 POP PUSH2 0xB7B DUP3 PUSH2 0xB3C JUMP JUMPDEST PUSH1 0x20 DUP3 ADD SWAP1 POP SWAP2 SWAP1 POP JUMP JUMPDEST PUSH0 PUSH1 0x20 DUP3 ADD SWAP1 POP DUP2 DUP2 SUB PUSH0 DUP4 ADD MSTORE PUSH2 0xB9D DUP2 PUSH2 0xB64 JUMP JUMPDEST SWAP1 POP SWAP2 SWAP1 POP JUMP INVALID LOG2 PUSH5 0x6970667358 0x22 SLT KECCAK256 0xC6 ADDRESS 0xCB SWAP9 0x27 SWAP1 0xE8 PUSH32 0x8826E4FCD13185E96978840D2D7AABEB34601BD71A01E01464736F6C63430008 BYTE STOP CALLER "
				},
				"gasEstimates": {
					"creation": {
						"codeDepositCost": "606800",
						"executionCost": "infinite",
						"totalCost": "infinite"
					},
					"external": {
						"": "infinite",
						"balances(address)": "2780",
						"donate()": "infinite",
						"owner()": "2527",
						"purpose()": "infinite",
						"updatePurpose(string)": "infinite"
					}
				},
				"methodIdentifiers": {
					"balances(address)": "27e235e3",
					"donate()": "ed88c68e",
					"owner()": "8da5cb5b",
					"purpose()": "70740aab",
					"updatePurpose(string)": "96b1cf28"
				}
			},
			"storageLayout": {
				"storage": [
					{
						"astId": 3,
						"contract": "task2_lab5.sol:FallbackDonation",
						"label": "owner",
						"offset": 0,
						"slot": "0",
						"type": "t_address"
					},
					{
						"astId": 5,
						"contract": "task2_lab5.sol:FallbackDonation",
						"label": "purpose",
						"offset": 0,
						"slot": "1",
						"type": "t_string_storage"
					},
					{
						"astId": 9,
						"contract": "task2_lab5.sol:FallbackDonation",
						"label": "balances",
						"offset": 0,
						"slot": "2",
						"type": "t_mapping(t_address,t_uint256)"
					}
				],
				"types": {
					"t_address": {
						"encoding": "inplace",
						"label": "address",
						"numberOfBytes": "20"
					},
					"t_mapping(t_address,t_uint256)": {
						"encoding": "mapping",
						"key": "t_address",
						"label": "mapping(address => uint256)",
						"numberOfBytes": "32",
						"value": "t_uint256"
					},
					"t_string_storage": {
						"encoding": "bytes",
						"label": "string",
						"numberOfBytes": "32"
					},
					"t_uint256": {
						"encoding": "inplace",
						"label": "uint256",
						"numberOfBytes": "32"
					}
				}
			},
			"userdoc": {
				"kind": "user",
				"methods": {},
				"version": 1
			}
		}
	}
}