{
	"contracts/PES1UG22CS698_VINEET_V_PAI_TASK1.sol": {
		"BasicMath": {
			"abi": [
				{
					"inputs": [
						{
							"internalType": "int256",
							"name": "a",
							"type": "int256"
						},
						{
							"internalType": "int256",
							"name": "b",
							"type": "int256"
						}
					],
					"name": "add",
					"outputs": [
						{
							"internalType": "int256",
							"name": "",
							"type": "int256"
						}
					],
					"stateMutability": "pure",
					"type": "function"
				},
				{
					"inputs": [
						{
							"internalType": "uint256",
							"name": "num",
							"type": "uint256"
						}
					],
					"name": "isEven",
					"outputs": [
						{
							"internalType": "bool",
							"name": "",
							"type": "bool"
						}
					],
					"stateMutability": "pure",
					"type": "function"
				},
				{
					"inputs": [],
					"name": "math",
					"outputs": [
						{
							"internalType": "int256",
							"name": "",
							"type": "int256"
						}
					],
					"stateMutability": "view",
					"type": "function"
				},
				{
					"inputs": [],
					"name": "math1",
					"outputs": [
						{
							"internalType": "uint256",
							"name": "",
							"type": "uint256"
						}
					],
					"stateMutability": "view",
					"type": "function"
				},
				{
					"inputs": [
						{
							"internalType": "uint256",
							"name": "a",
							"type": "uint256"
						},
						{
							"internalType": "uint256",
							"name": "b",
							"type": "uint256"
						}
					],
					"name": "multiply",
					"outputs": [
						{
							"internalType": "uint256",
							"name": "",
							"type": "uint256"
						}
					],
					"stateMutability": "pure",
					"type": "function"
				},
				{
					"inputs": [],
					"name": "values",
					"outputs": [
						{
							"internalType": "bool",
							"name": "",
							"type": "bool"
						}
					],
					"stateMutability": "view",
					"type": "function"
				}
			],
			"devdoc": {
				"kind": "dev",
				"methods": {},
				"version": 1
			},
			"evm": {
				"assembly": "    /* \"contracts/PES1UG22CS698_VINEET_V_PAI_TASK1.sol\":60:477  contract BasicMath{... */\n  mstore(0x40, 0x80)\n    /* \"contracts/PES1UG22CS698_VINEET_V_PAI_TASK1.sol\":106:108  24 */\n  0x18\n    /* \"contracts/PES1UG22CS698_VINEET_V_PAI_TASK1.sol\":85:108  uint256 public math1=24 */\n  0x00\n  sstore\n    /* \"contracts/PES1UG22CS698_VINEET_V_PAI_TASK1.sol\":136:139  -23 */\n  0xffffffffffffffffffffffffffffffffffffffffffffffffffffffffffffffe9\n    /* \"contracts/PES1UG22CS698_VINEET_V_PAI_TASK1.sol\":115:139  int256 public math = -23 */\n  0x01\n  sstore\n    /* \"contracts/PES1UG22CS698_VINEET_V_PAI_TASK1.sol\":165:169  true */\n  0x01\n    /* \"contracts/PES1UG22CS698_VINEET_V_PAI_TASK1.sol\":146:169  bool public values=true */\n  0x02\n  exp(0x0100, 0x00)\n  dup2\n  sload\n  dup2\n  0xff\n  mul\n  not\n  and\n  swap1\n  dup4\n  iszero\n  iszero\n  mul\n  or\n  swap1\n  sstore\n  pop\n    /* \"contracts/PES1UG22CS698_VINEET_V_PAI_TASK1.sol\":60:477  contract BasicMath{... */\n  callvalue\n  dup1\n  iszero\n  tag_1\n  jumpi\n  0x00\n  dup1\n  revert\ntag_1:\n  pop\n  dataSize(sub_0)\n  dup1\n  dataOffset(sub_0)\n  0x00\n  codecopy\n  0x00\n  return\nstop\n\nsub_0: assembly {\n        /* \"contracts/PES1UG22CS698_VINEET_V_PAI_TASK1.sol\":60:477  contract BasicMath{... */\n      mstore(0x40, 0x80)\n      callvalue\n      dup1\n      iszero\n      tag_1\n      jumpi\n      0x00\n      dup1\n      revert\n    tag_1:\n      pop\n      jumpi(tag_2, lt(calldatasize, 0x04))\n      shr(0xe0, calldataload(0x00))\n      dup1\n      0x0372b015\n      eq\n      tag_3\n      jumpi\n      dup1\n      0x165c4a16\n      eq\n      tag_4\n      jumpi\n      dup1\n      0x2a2e1320\n      eq\n      tag_5\n      jumpi\n      dup1\n      0x971217b7\n      eq\n      tag_6\n      jumpi\n      dup1\n      0xa5f3c23b\n      eq\n      tag_7\n      jumpi\n      dup1\n      0xaddf3804\n      eq\n      tag_8\n      jumpi\n    tag_2:\n      0x00\n      dup1\n      revert\n        /* \"contracts/PES1UG22CS698_VINEET_V_PAI_TASK1.sol\":85:108  uint256 public math1=24 */\n    tag_3:\n      tag_9\n      tag_10\n      jump\t// in\n    tag_9:\n      mload(0x40)\n      tag_11\n      swap2\n      swap1\n      tag_12\n      jump\t// in\n    tag_11:\n      mload(0x40)\n      dup1\n      swap2\n      sub\n      swap1\n      return\n        /* \"contracts/PES1UG22CS698_VINEET_V_PAI_TASK1.sol\":276:380  function multiply(uint256 a , uint256 b) public pure returns(uint256)... */\n    tag_4:\n      tag_13\n      0x04\n      dup1\n      calldatasize\n      sub\n      dup2\n      add\n      swap1\n      tag_14\n      swap2\n      swap1\n      tag_15\n      jump\t// in\n    tag_14:\n      tag_16\n      jump\t// in\n    tag_13:\n      mload(0x40)\n      tag_17\n      swap2\n      swap1\n      tag_12\n      jump\t// in\n    tag_17:\n      mload(0x40)\n      dup1\n      swap2\n      sub\n      swap1\n      return\n        /* \"contracts/PES1UG22CS698_VINEET_V_PAI_TASK1.sol\":386:474  function isEven(uint256 num )public pure returns(bool){... */\n    tag_5:\n      tag_18\n      0x04\n      dup1\n      calldatasize\n      sub\n      dup2\n      add\n      swap1\n      tag_19\n      swap2\n      swap1\n      tag_20\n      jump\t// in\n    tag_19:\n      tag_21\n      jump\t// in\n    tag_18:\n      mload(0x40)\n      tag_22\n      swap2\n      swap1\n      tag_23\n      jump\t// in\n    tag_22:\n      mload(0x40)\n      dup1\n      swap2\n      sub\n      swap1\n      return\n        /* \"contracts/PES1UG22CS698_VINEET_V_PAI_TASK1.sol\":146:169  bool public values=true */\n    tag_6:\n      tag_24\n      tag_25\n      jump\t// in\n    tag_24:\n      mload(0x40)\n      tag_26\n      swap2\n      swap1\n      tag_23\n      jump\t// in\n    tag_26:\n      mload(0x40)\n      dup1\n      swap2\n      sub\n      swap1\n      return\n        /* \"contracts/PES1UG22CS698_VINEET_V_PAI_TASK1.sol\":177:270  function add(int256 a, int256 b) public pure returns (int256) {... */\n    tag_7:\n      tag_27\n      0x04\n      dup1\n      calldatasize\n      sub\n      dup2\n      add\n      swap1\n      tag_28\n      swap2\n      swap1\n      tag_29\n      jump\t// in\n    tag_28:\n      tag_30\n      jump\t// in\n    tag_27:\n      mload(0x40)\n      tag_31\n      swap2\n      swap1\n      tag_32\n      jump\t// in\n    tag_31:\n      mload(0x40)\n      dup1\n      swap2\n      sub\n      swap1\n      return\n        /* \"contracts/PES1UG22CS698_VINEET_V_PAI_TASK1.sol\":115:139  int256 public math = -23 */\n    tag_8:\n      tag_33\n      tag_34\n      jump\t// in\n    tag_33:\n      mload(0x40)\n      tag_35\n      swap2\n      swap1\n      tag_32\n      jump\t// in\n    tag_35:\n      mload(0x40)\n      dup1\n      swap2\n      sub\n      swap1\n      return\n        /* \"contracts/PES1UG22CS698_VINEET_V_PAI_TASK1.sol\":85:108  uint256 public math1=24 */\n    tag_10:\n      sload(0x00)\n      dup2\n      jump\t// out\n        /* \"contracts/PES1UG22CS698_VINEET_V_PAI_TASK1.sol\":276:380  function multiply(uint256 a , uint256 b) public pure returns(uint256)... */\n    tag_16:\n        /* \"contracts/PES1UG22CS698_VINEET_V_PAI_TASK1.sol\":337:344  uint256 */\n      0x00\n        /* \"contracts/PES1UG22CS698_VINEET_V_PAI_TASK1.sol\":371:372  b */\n      dup2\n        /* \"contracts/PES1UG22CS698_VINEET_V_PAI_TASK1.sol\":369:370  a */\n      dup4\n        /* \"contracts/PES1UG22CS698_VINEET_V_PAI_TASK1.sol\":369:372  a*b */\n      tag_37\n      swap2\n      swap1\n      tag_38\n      jump\t// in\n    tag_37:\n        /* \"contracts/PES1UG22CS698_VINEET_V_PAI_TASK1.sol\":362:372  return a*b */\n      swap1\n      pop\n        /* \"contracts/PES1UG22CS698_VINEET_V_PAI_TASK1.sol\":276:380  function multiply(uint256 a , uint256 b) public pure returns(uint256)... */\n      swap3\n      swap2\n      pop\n      pop\n      jump\t// out\n        /* \"contracts/PES1UG22CS698_VINEET_V_PAI_TASK1.sol\":386:474  function isEven(uint256 num )public pure returns(bool){... */\n    tag_21:\n        /* \"contracts/PES1UG22CS698_VINEET_V_PAI_TASK1.sol\":435:439  bool */\n      0x00\n        /* \"contracts/PES1UG22CS698_VINEET_V_PAI_TASK1.sol\":465:466  0 */\n      dup1\n        /* \"contracts/PES1UG22CS698_VINEET_V_PAI_TASK1.sol\":462:463  2 */\n      0x02\n        /* \"contracts/PES1UG22CS698_VINEET_V_PAI_TASK1.sol\":458:461  num */\n      dup4\n        /* \"contracts/PES1UG22CS698_VINEET_V_PAI_TASK1.sol\":458:463  num%2 */\n      tag_40\n      swap2\n      swap1\n      tag_41\n      jump\t// in\n    tag_40:\n        /* \"contracts/PES1UG22CS698_VINEET_V_PAI_TASK1.sol\":458:466  num%2==0 */\n      eq\n        /* \"contracts/PES1UG22CS698_VINEET_V_PAI_TASK1.sol\":451:466  return num%2==0 */\n      swap1\n      pop\n        /* \"contracts/PES1UG22CS698_VINEET_V_PAI_TASK1.sol\":386:474  function isEven(uint256 num )public pure returns(bool){... */\n      swap2\n      swap1\n      pop\n      jump\t// out\n        /* \"contracts/PES1UG22CS698_VINEET_V_PAI_TASK1.sol\":146:169  bool public values=true */\n    tag_25:\n      0x02\n      0x00\n      swap1\n      sload\n      swap1\n      0x0100\n      exp\n      swap1\n      div\n      0xff\n      and\n      dup2\n      jump\t// out\n        /* \"contracts/PES1UG22CS698_VINEET_V_PAI_TASK1.sol\":177:270  function add(int256 a, int256 b) public pure returns (int256) {... */\n    tag_30:\n        /* \"contracts/PES1UG22CS698_VINEET_V_PAI_TASK1.sol\":231:237  int256 */\n      0x00\n        /* \"contracts/PES1UG22CS698_VINEET_V_PAI_TASK1.sol\":261:262  b */\n      dup2\n        /* \"contracts/PES1UG22CS698_VINEET_V_PAI_TASK1.sol\":257:258  a */\n      dup4\n        /* \"contracts/PES1UG22CS698_VINEET_V_PAI_TASK1.sol\":257:262  a + b */\n      tag_43\n      swap2\n      swap1\n      tag_44\n      jump\t// in\n    tag_43:\n        /* \"contracts/PES1UG22CS698_VINEET_V_PAI_TASK1.sol\":250:262  return a + b */\n      swap1\n      pop\n        /* \"contracts/PES1UG22CS698_VINEET_V_PAI_TASK1.sol\":177:270  function add(int256 a, int256 b) public pure returns (int256) {... */\n      swap3\n      swap2\n      pop\n      pop\n      jump\t// out\n        /* \"contracts/PES1UG22CS698_VINEET_V_PAI_TASK1.sol\":115:139  int256 public math = -23 */\n    tag_34:\n      sload(0x01)\n      dup2\n      jump\t// out\n        /* \"#utility.yul\":7:84   */\n    tag_45:\n        /* \"#utility.yul\":44:51   */\n      0x00\n        /* \"#utility.yul\":73:78   */\n      dup2\n        /* \"#utility.yul\":62:78   */\n      swap1\n      pop\n        /* \"#utility.yul\":7:84   */\n      swap2\n      swap1\n      pop\n      jump\t// out\n        /* \"#utility.yul\":90:208   */\n    tag_46:\n        /* \"#utility.yul\":177:201   */\n      tag_63\n        /* \"#utility.yul\":195:200   */\n      dup2\n        /* \"#utility.yul\":177:201   */\n      tag_45\n      jump\t// in\n    tag_63:\n        /* \"#utility.yul\":172:175   */\n      dup3\n        /* \"#utility.yul\":165:202   */\n      mstore\n        /* \"#utility.yul\":90:208   */\n      pop\n      pop\n      jump\t// out\n        /* \"#utility.yul\":214:436   */\n    tag_12:\n        /* \"#utility.yul\":307:311   */\n      0x00\n        /* \"#utility.yul\":345:347   */\n      0x20\n        /* \"#utility.yul\":334:343   */\n      dup3\n        /* \"#utility.yul\":330:348   */\n      add\n        /* \"#utility.yul\":322:348   */\n      swap1\n      pop\n        /* \"#utility.yul\":358:429   */\n      tag_65\n        /* \"#utility.yul\":426:427   */\n      0x00\n        /* \"#utility.yul\":415:424   */\n      dup4\n        /* \"#utility.yul\":411:428   */\n      add\n        /* \"#utility.yul\":402:408   */\n      dup5\n        /* \"#utility.yul\":358:429   */\n      tag_46\n      jump\t// in\n    tag_65:\n        /* \"#utility.yul\":214:436   */\n      swap3\n      swap2\n      pop\n      pop\n      jump\t// out\n        /* \"#utility.yul\":523:640   */\n    tag_48:\n        /* \"#utility.yul\":632:633   */\n      0x00\n        /* \"#utility.yul\":629:630   */\n      dup1\n        /* \"#utility.yul\":622:634   */\n      revert\n        /* \"#utility.yul\":769:891   */\n    tag_50:\n        /* \"#utility.yul\":842:866   */\n      tag_70\n        /* \"#utility.yul\":860:865   */\n      dup2\n        /* \"#utility.yul\":842:866   */\n      tag_45\n      jump\t// in\n    tag_70:\n        /* \"#utility.yul\":835:840   */\n      dup2\n        /* \"#utility.yul\":832:867   */\n      eq\n        /* \"#utility.yul\":822:885   */\n      tag_71\n      jumpi\n        /* \"#utility.yul\":881:882   */\n      0x00\n        /* \"#utility.yul\":878:879   */\n      dup1\n        /* \"#utility.yul\":871:883   */\n      revert\n        /* \"#utility.yul\":822:885   */\n    tag_71:\n        /* \"#utility.yul\":769:891   */\n      pop\n      jump\t// out\n        /* \"#utility.yul\":897:1036   */\n    tag_51:\n        /* \"#utility.yul\":943:948   */\n      0x00\n        /* \"#utility.yul\":981:987   */\n      dup2\n        /* \"#utility.yul\":968:988   */\n      calldataload\n        /* \"#utility.yul\":959:988   */\n      swap1\n      pop\n        /* \"#utility.yul\":997:1030   */\n      tag_73\n        /* \"#utility.yul\":1024:1029   */\n      dup2\n        /* \"#utility.yul\":997:1030   */\n      tag_50\n      jump\t// in\n    tag_73:\n        /* \"#utility.yul\":897:1036   */\n      swap3\n      swap2\n      pop\n      pop\n      jump\t// out\n        /* \"#utility.yul\":1042:1516   */\n    tag_15:\n        /* \"#utility.yul\":1110:1116   */\n      0x00\n        /* \"#utility.yul\":1118:1124   */\n      dup1\n        /* \"#utility.yul\":1167:1169   */\n      0x40\n        /* \"#utility.yul\":1155:1164   */\n      dup4\n        /* \"#utility.yul\":1146:1153   */\n      dup6\n        /* \"#utility.yul\":1142:1165   */\n      sub\n        /* \"#utility.yul\":1138:1170   */\n      slt\n        /* \"#utility.yul\":1135:1254   */\n      iszero\n      tag_75\n      jumpi\n        /* \"#utility.yul\":1173:1252   */\n      tag_76\n      tag_48\n      jump\t// in\n    tag_76:\n        /* \"#utility.yul\":1135:1254   */\n    tag_75:\n        /* \"#utility.yul\":1293:1294   */\n      0x00\n        /* \"#utility.yul\":1318:1371   */\n      tag_77\n        /* \"#utility.yul\":1363:1370   */\n      dup6\n        /* \"#utility.yul\":1354:1360   */\n      dup3\n        /* \"#utility.yul\":1343:1352   */\n      dup7\n        /* \"#utility.yul\":1339:1361   */\n      add\n        /* \"#utility.yul\":1318:1371   */\n      tag_51\n      jump\t// in\n    tag_77:\n        /* \"#utility.yul\":1308:1371   */\n      swap3\n      pop\n        /* \"#utility.yul\":1264:1381   */\n      pop\n        /* \"#utility.yul\":1420:1422   */\n      0x20\n        /* \"#utility.yul\":1446:1499   */\n      tag_78\n        /* \"#utility.yul\":1491:1498   */\n      dup6\n        /* \"#utility.yul\":1482:1488   */\n      dup3\n        /* \"#utility.yul\":1471:1480   */\n      dup7\n        /* \"#utility.yul\":1467:1489   */\n      add\n        /* \"#utility.yul\":1446:1499   */\n      tag_51\n      jump\t// in\n    tag_78:\n        /* \"#utility.yul\":1436:1499   */\n      swap2\n      pop\n        /* \"#utility.yul\":1391:1509   */\n      pop\n        /* \"#utility.yul\":1042:1516   */\n      swap3\n      pop\n      swap3\n      swap1\n      pop\n      jump\t// out\n        /* \"#utility.yul\":1522:1851   */\n    tag_20:\n        /* \"#utility.yul\":1581:1587   */\n      0x00\n        /* \"#utility.yul\":1630:1632   */\n      0x20\n        /* \"#utility.yul\":1618:1627   */\n      dup3\n        /* \"#utility.yul\":1609:1616   */\n      dup5\n        /* \"#utility.yul\":1605:1628   */\n      sub\n        /* \"#utility.yul\":1601:1633   */\n      slt\n        /* \"#utility.yul\":1598:1717   */\n      iszero\n      tag_80\n      jumpi\n        /* \"#utility.yul\":1636:1715   */\n      tag_81\n      tag_48\n      jump\t// in\n    tag_81:\n        /* \"#utility.yul\":1598:1717   */\n    tag_80:\n        /* \"#utility.yul\":1756:1757   */\n      0x00\n        /* \"#utility.yul\":1781:1834   */\n      tag_82\n        /* \"#utility.yul\":1826:1833   */\n      dup5\n        /* \"#utility.yul\":1817:1823   */\n      dup3\n        /* \"#utility.yul\":1806:1815   */\n      dup6\n        /* \"#utility.yul\":1802:1824   */\n      add\n        /* \"#utility.yul\":1781:1834   */\n      tag_51\n      jump\t// in\n    tag_82:\n        /* \"#utility.yul\":1771:1834   */\n      swap2\n      pop\n        /* \"#utility.yul\":1727:1844   */\n      pop\n        /* \"#utility.yul\":1522:1851   */\n      swap3\n      swap2\n      pop\n      pop\n      jump\t// out\n        /* \"#utility.yul\":1857:1947   */\n    tag_52:\n        /* \"#utility.yul\":1891:1898   */\n      0x00\n        /* \"#utility.yul\":1934:1939   */\n      dup2\n        /* \"#utility.yul\":1927:1940   */\n      iszero\n        /* \"#utility.yul\":1920:1941   */\n      iszero\n        /* \"#utility.yul\":1909:1941   */\n      swap1\n      pop\n        /* \"#utility.yul\":1857:1947   */\n      swap2\n      swap1\n      pop\n      jump\t// out\n        /* \"#utility.yul\":1953:2062   */\n    tag_53:\n        /* \"#utility.yul\":2034:2055   */\n      tag_85\n        /* \"#utility.yul\":2049:2054   */\n      dup2\n        /* \"#utility.yul\":2034:2055   */\n      tag_52\n      jump\t// in\n    tag_85:\n        /* \"#utility.yul\":2029:2032   */\n      dup3\n        /* \"#utility.yul\":2022:2056   */\n      mstore\n        /* \"#utility.yul\":1953:2062   */\n      pop\n      pop\n      jump\t// out\n        /* \"#utility.yul\":2068:2278   */\n    tag_23:\n        /* \"#utility.yul\":2155:2159   */\n      0x00\n        /* \"#utility.yul\":2193:2195   */\n      0x20\n        /* \"#utility.yul\":2182:2191   */\n      dup3\n        /* \"#utility.yul\":2178:2196   */\n      add\n        /* \"#utility.yul\":2170:2196   */\n      swap1\n      pop\n        /* \"#utility.yul\":2206:2271   */\n      tag_87\n        /* \"#utility.yul\":2268:2269   */\n      0x00\n        /* \"#utility.yul\":2257:2266   */\n      dup4\n        /* \"#utility.yul\":2253:2270   */\n      add\n        /* \"#utility.yul\":2244:2250   */\n      dup5\n        /* \"#utility.yul\":2206:2271   */\n      tag_53\n      jump\t// in\n    tag_87:\n        /* \"#utility.yul\":2068:2278   */\n      swap3\n      swap2\n      pop\n      pop\n      jump\t// out\n        /* \"#utility.yul\":2284:2360   */\n    tag_54:\n        /* \"#utility.yul\":2320:2327   */\n      0x00\n        /* \"#utility.yul\":2349:2354   */\n      dup2\n        /* \"#utility.yul\":2338:2354   */\n      swap1\n      pop\n        /* \"#utility.yul\":2284:2360   */\n      swap2\n      swap1\n      pop\n      jump\t// out\n        /* \"#utility.yul\":2366:2486   */\n    tag_55:\n        /* \"#utility.yul\":2438:2461   */\n      tag_90\n        /* \"#utility.yul\":2455:2460   */\n      dup2\n        /* \"#utility.yul\":2438:2461   */\n      tag_54\n      jump\t// in\n    tag_90:\n        /* \"#utility.yul\":2431:2436   */\n      dup2\n        /* \"#utility.yul\":2428:2462   */\n      eq\n        /* \"#utility.yul\":2418:2480   */\n      tag_91\n      jumpi\n        /* \"#utility.yul\":2476:2477   */\n      0x00\n        /* \"#utility.yul\":2473:2474   */\n      dup1\n        /* \"#utility.yul\":2466:2478   */\n      revert\n        /* \"#utility.yul\":2418:2480   */\n    tag_91:\n        /* \"#utility.yul\":2366:2486   */\n      pop\n      jump\t// out\n        /* \"#utility.yul\":2492:2629   */\n    tag_56:\n        /* \"#utility.yul\":2537:2542   */\n      0x00\n        /* \"#utility.yul\":2575:2581   */\n      dup2\n        /* \"#utility.yul\":2562:2582   */\n      calldataload\n        /* \"#utility.yul\":2553:2582   */\n      swap1\n      pop\n        /* \"#utility.yul\":2591:2623   */\n      tag_93\n        /* \"#utility.yul\":2617:2622   */\n      dup2\n        /* \"#utility.yul\":2591:2623   */\n      tag_55\n      jump\t// in\n    tag_93:\n        /* \"#utility.yul\":2492:2629   */\n      swap3\n      swap2\n      pop\n      pop\n      jump\t// out\n        /* \"#utility.yul\":2635:3105   */\n    tag_29:\n        /* \"#utility.yul\":2701:2707   */\n      0x00\n        /* \"#utility.yul\":2709:2715   */\n      dup1\n        /* \"#utility.yul\":2758:2760   */\n      0x40\n        /* \"#utility.yul\":2746:2755   */\n      dup4\n        /* \"#utility.yul\":2737:2744   */\n      dup6\n        /* \"#utility.yul\":2733:2756   */\n      sub\n        /* \"#utility.yul\":2729:2761   */\n      slt\n        /* \"#utility.yul\":2726:2845   */\n      iszero\n      tag_95\n      jumpi\n        /* \"#utility.yul\":2764:2843   */\n      tag_96\n      tag_48\n      jump\t// in\n    tag_96:\n        /* \"#utility.yul\":2726:2845   */\n    tag_95:\n        /* \"#utility.yul\":2884:2885   */\n      0x00\n        /* \"#utility.yul\":2909:2961   */\n      tag_97\n        /* \"#utility.yul\":2953:2960   */\n      dup6\n        /* \"#utility.yul\":2944:2950   */\n      dup3\n        /* \"#utility.yul\":2933:2942   */\n      dup7\n        /* \"#utility.yul\":2929:2951   */\n      add\n        /* \"#utility.yul\":2909:2961   */\n      tag_56\n      jump\t// in\n    tag_97:\n        /* \"#utility.yul\":2899:2961   */\n      swap3\n      pop\n        /* \"#utility.yul\":2855:2971   */\n      pop\n        /* \"#utility.yul\":3010:3012   */\n      0x20\n        /* \"#utility.yul\":3036:3088   */\n      tag_98\n        /* \"#utility.yul\":3080:3087   */\n      dup6\n        /* \"#utility.yul\":3071:3077   */\n      dup3\n        /* \"#utility.yul\":3060:3069   */\n      dup7\n        /* \"#utility.yul\":3056:3078   */\n      add\n        /* \"#utility.yul\":3036:3088   */\n      tag_56\n      jump\t// in\n    tag_98:\n        /* \"#utility.yul\":3026:3088   */\n      swap2\n      pop\n        /* \"#utility.yul\":2981:3098   */\n      pop\n        /* \"#utility.yul\":2635:3105   */\n      swap3\n      pop\n      swap3\n      swap1\n      pop\n      jump\t// out\n        /* \"#utility.yul\":3111:3226   */\n    tag_57:\n        /* \"#utility.yul\":3196:3219   */\n      tag_100\n        /* \"#utility.yul\":3213:3218   */\n      dup2\n        /* \"#utility.yul\":3196:3219   */\n      tag_54\n      jump\t// in\n    tag_100:\n        /* \"#utility.yul\":3191:3194   */\n      dup3\n        /* \"#utility.yul\":3184:3220   */\n      mstore\n        /* \"#utility.yul\":3111:3226   */\n      pop\n      pop\n      jump\t// out\n        /* \"#utility.yul\":3232:3450   */\n    tag_32:\n        /* \"#utility.yul\":3323:3327   */\n      0x00\n        /* \"#utility.yul\":3361:3363   */\n      0x20\n        /* \"#utility.yul\":3350:3359   */\n      dup3\n        /* \"#utility.yul\":3346:3364   */\n      add\n        /* \"#utility.yul\":3338:3364   */\n      swap1\n      pop\n        /* \"#utility.yul\":3374:3443   */\n      tag_102\n        /* \"#utility.yul\":3440:3441   */\n      0x00\n        /* \"#utility.yul\":3429:3438   */\n      dup4\n        /* \"#utility.yul\":3425:3442   */\n      add\n        /* \"#utility.yul\":3416:3422   */\n      dup5\n        /* \"#utility.yul\":3374:3443   */\n      tag_57\n      jump\t// in\n    tag_102:\n        /* \"#utility.yul\":3232:3450   */\n      swap3\n      swap2\n      pop\n      pop\n      jump\t// out\n        /* \"#utility.yul\":3456:3636   */\n    tag_58:\n        /* \"#utility.yul\":3504:3581   */\n      0x4e487b7100000000000000000000000000000000000000000000000000000000\n        /* \"#utility.yul\":3501:3502   */\n      0x00\n        /* \"#utility.yul\":3494:3582   */\n      mstore\n        /* \"#utility.yul\":3601:3605   */\n      0x11\n        /* \"#utility.yul\":3598:3599   */\n      0x04\n        /* \"#utility.yul\":3591:3606   */\n      mstore\n        /* \"#utility.yul\":3625:3629   */\n      0x24\n        /* \"#utility.yul\":3622:3623   */\n      0x00\n        /* \"#utility.yul\":3615:3630   */\n      revert\n        /* \"#utility.yul\":3642:4052   */\n    tag_38:\n        /* \"#utility.yul\":3682:3689   */\n      0x00\n        /* \"#utility.yul\":3705:3725   */\n      tag_105\n        /* \"#utility.yul\":3723:3724   */\n      dup3\n        /* \"#utility.yul\":3705:3725   */\n      tag_45\n      jump\t// in\n    tag_105:\n        /* \"#utility.yul\":3700:3725   */\n      swap2\n      pop\n        /* \"#utility.yul\":3739:3759   */\n      tag_106\n        /* \"#utility.yul\":3757:3758   */\n      dup4\n        /* \"#utility.yul\":3739:3759   */\n      tag_45\n      jump\t// in\n    tag_106:\n        /* \"#utility.yul\":3734:3759   */\n      swap3\n      pop\n        /* \"#utility.yul\":3794:3795   */\n      dup3\n        /* \"#utility.yul\":3791:3792   */\n      dup3\n        /* \"#utility.yul\":3787:3796   */\n      mul\n        /* \"#utility.yul\":3816:3846   */\n      tag_107\n        /* \"#utility.yul\":3834:3845   */\n      dup2\n        /* \"#utility.yul\":3816:3846   */\n      tag_45\n      jump\t// in\n    tag_107:\n        /* \"#utility.yul\":3805:3846   */\n      swap2\n      pop\n        /* \"#utility.yul\":3995:3996   */\n      dup3\n        /* \"#utility.yul\":3986:3993   */\n      dup3\n        /* \"#utility.yul\":3982:3997   */\n      div\n        /* \"#utility.yul\":3979:3980   */\n      dup5\n        /* \"#utility.yul\":3976:3998   */\n      eq\n        /* \"#utility.yul\":3956:3957   */\n      dup4\n        /* \"#utility.yul\":3949:3958   */\n      iszero\n        /* \"#utility.yul\":3929:4012   */\n      or\n        /* \"#utility.yul\":3906:4045   */\n      tag_108\n      jumpi\n        /* \"#utility.yul\":4025:4043   */\n      tag_109\n      tag_58\n      jump\t// in\n    tag_109:\n        /* \"#utility.yul\":3906:4045   */\n    tag_108:\n        /* \"#utility.yul\":3690:4052   */\n      pop\n        /* \"#utility.yul\":3642:4052   */\n      swap3\n      swap2\n      pop\n      pop\n      jump\t// out\n        /* \"#utility.yul\":4058:4238   */\n    tag_59:\n        /* \"#utility.yul\":4106:4183   */\n      0x4e487b7100000000000000000000000000000000000000000000000000000000\n        /* \"#utility.yul\":4103:4104   */\n      0x00\n        /* \"#utility.yul\":4096:4184   */\n      mstore\n        /* \"#utility.yul\":4203:4207   */\n      0x12\n        /* \"#utility.yul\":4200:4201   */\n      0x04\n        /* \"#utility.yul\":4193:4208   */\n      mstore\n        /* \"#utility.yul\":4227:4231   */\n      0x24\n        /* \"#utility.yul\":4224:4225   */\n      0x00\n        /* \"#utility.yul\":4217:4232   */\n      revert\n        /* \"#utility.yul\":4244:4420   */\n    tag_41:\n        /* \"#utility.yul\":4276:4277   */\n      0x00\n        /* \"#utility.yul\":4293:4313   */\n      tag_112\n        /* \"#utility.yul\":4311:4312   */\n      dup3\n        /* \"#utility.yul\":4293:4313   */\n      tag_45\n      jump\t// in\n    tag_112:\n        /* \"#utility.yul\":4288:4313   */\n      swap2\n      pop\n        /* \"#utility.yul\":4327:4347   */\n      tag_113\n        /* \"#utility.yul\":4345:4346   */\n      dup4\n        /* \"#utility.yul\":4327:4347   */\n      tag_45\n      jump\t// in\n    tag_113:\n        /* \"#utility.yul\":4322:4347   */\n      swap3\n      pop\n        /* \"#utility.yul\":4366:4367   */\n      dup3\n        /* \"#utility.yul\":4356:4391   */\n      tag_114\n      jumpi\n        /* \"#utility.yul\":4371:4389   */\n      tag_115\n      tag_59\n      jump\t// in\n    tag_115:\n        /* \"#utility.yul\":4356:4391   */\n    tag_114:\n        /* \"#utility.yul\":4412:4413   */\n      dup3\n        /* \"#utility.yul\":4409:4410   */\n      dup3\n        /* \"#utility.yul\":4405:4414   */\n      mod\n        /* \"#utility.yul\":4400:4414   */\n      swap1\n      pop\n        /* \"#utility.yul\":4244:4420   */\n      swap3\n      swap2\n      pop\n      pop\n      jump\t// out\n        /* \"#utility.yul\":4426:4801   */\n    tag_44:\n        /* \"#utility.yul\":4465:4468   */\n      0x00\n        /* \"#utility.yul\":4484:4503   */\n      tag_117\n        /* \"#utility.yul\":4501:4502   */\n      dup3\n        /* \"#utility.yul\":4484:4503   */\n      tag_54\n      jump\t// in\n    tag_117:\n        /* \"#utility.yul\":4479:4503   */\n      swap2\n      pop\n        /* \"#utility.yul\":4517:4536   */\n      tag_118\n        /* \"#utility.yul\":4534:4535   */\n      dup4\n        /* \"#utility.yul\":4517:4536   */\n      tag_54\n      jump\t// in\n    tag_118:\n        /* \"#utility.yul\":4512:4536   */\n      swap3\n      pop\n        /* \"#utility.yul\":4559:4560   */\n      dup3\n        /* \"#utility.yul\":4556:4557   */\n      dup3\n        /* \"#utility.yul\":4552:4561   */\n      add\n        /* \"#utility.yul\":4545:4561   */\n      swap1\n      pop\n        /* \"#utility.yul\":4757:4758   */\n      dup3\n        /* \"#utility.yul\":4752:4755   */\n      dup2\n        /* \"#utility.yul\":4748:4759   */\n      slt\n        /* \"#utility.yul\":4741:4760   */\n      iszero\n        /* \"#utility.yul\":4737:4738   */\n      0x00\n        /* \"#utility.yul\":4734:4735   */\n      dup4\n        /* \"#utility.yul\":4730:4739   */\n      slt\n        /* \"#utility.yul\":4726:4761   */\n      and\n        /* \"#utility.yul\":4709:4710   */\n      dup4\n        /* \"#utility.yul\":4704:4707   */\n      dup3\n        /* \"#utility.yul\":4700:4711   */\n      slt\n        /* \"#utility.yul\":4695:4696   */\n      0x00\n        /* \"#utility.yul\":4692:4693   */\n      dup5\n        /* \"#utility.yul\":4688:4697   */\n      slt\n        /* \"#utility.yul\":4681:4698   */\n      iszero\n        /* \"#utility.yul\":4677:4712   */\n      and\n        /* \"#utility.yul\":4661:4771   */\n      or\n        /* \"#utility.yul\":4658:4794   */\n      iszero\n      tag_119\n      jumpi\n        /* \"#utility.yul\":4774:4792   */\n      tag_120\n      tag_58\n      jump\t// in\n    tag_120:\n        /* \"#utility.yul\":4658:4794   */\n    tag_119:\n        /* \"#utility.yul\":4426:4801   */\n      swap3\n      swap2\n      pop\n      pop\n      jump\t// out\n\n    auxdata: 0xa2646970667358221220d04cdc76e0b45146a78f52a4db8c398ccc3412a769f9328f758e17d07c1c9a6964736f6c634300081a0033\n}\n",
				"bytecode": {
					"linkReferences": {},
					"object": "608060405260185f557fffffffffffffffffffffffffffffffffffffffffffffffffffffffffffffffe9600155600160025f6101000a81548160ff0219169083151502179055503480156050575f80fd5b506104828061005e5f395ff3fe608060405234801561000f575f80fd5b5060043610610060575f3560e01c80630372b01514610064578063165c4a16146100825780632a2e1320146100b2578063971217b7146100e2578063a5f3c23b14610100578063addf380414610130575b5f80fd5b61006c61014e565b60405161007991906101c4565b60405180910390f35b61009c6004803603810190610097919061020b565b610153565b6040516100a991906101c4565b60405180910390f35b6100cc60048036038101906100c79190610249565b610168565b6040516100d9919061028e565b60405180910390f35b6100ea61017f565b6040516100f7919061028e565b60405180910390f35b61011a600480360381019061011591906102da565b610191565b6040516101279190610327565b60405180910390f35b6101386101a6565b6040516101459190610327565b60405180910390f35b5f5481565b5f8183610160919061036d565b905092915050565b5f8060028361017791906103db565b149050919050565b60025f9054906101000a900460ff1681565b5f818361019e919061040b565b905092915050565b60015481565b5f819050919050565b6101be816101ac565b82525050565b5f6020820190506101d75f8301846101b5565b92915050565b5f80fd5b6101ea816101ac565b81146101f4575f80fd5b50565b5f81359050610205816101e1565b92915050565b5f8060408385031215610221576102206101dd565b5b5f61022e858286016101f7565b925050602061023f858286016101f7565b9150509250929050565b5f6020828403121561025e5761025d6101dd565b5b5f61026b848285016101f7565b91505092915050565b5f8115159050919050565b61028881610274565b82525050565b5f6020820190506102a15f83018461027f565b92915050565b5f819050919050565b6102b9816102a7565b81146102c3575f80fd5b50565b5f813590506102d4816102b0565b92915050565b5f80604083850312156102f0576102ef6101dd565b5b5f6102fd858286016102c6565b925050602061030e858286016102c6565b9150509250929050565b610321816102a7565b82525050565b5f60208201905061033a5f830184610318565b92915050565b7f4e487b71000000000000000000000000000000000000000000000000000000005f52601160045260245ffd5b5f610377826101ac565b9150610382836101ac565b9250828202610390816101ac565b915082820484148315176103a7576103a6610340565b5b5092915050565b7f4e487b71000000000000000000000000000000000000000000000000000000005f52601260045260245ffd5b5f6103e5826101ac565b91506103f0836101ac565b925082610400576103ff6103ae565b5b828206905092915050565b5f610415826102a7565b9150610420836102a7565b92508282019050828112155f8312168382125f84121516171561044657610445610340565b5b9291505056fea2646970667358221220d04cdc76e0b45146a78f52a4db8c398ccc3412a769f9328f758e17d07c1c9a6964736f6c634300081a0033",
					"opcodes": "PUSH1 0x80 PUSH1 0x40 MSTORE PUSH1 0x18 PUSH0 SSTORE PUSH32 0xFFFFFFFFFFFFFFFFFFFFFFFFFFFFFFFFFFFFFFFFFFFFFFFFFFFFFFFFFFFFFFE9 PUSH1 0x1 SSTORE PUSH1 0x1 PUSH1 0x2 PUSH0 PUSH2 0x100 EXP DUP2 SLOAD DUP2 PUSH1 0xFF MUL NOT AND SWAP1 DUP4 ISZERO ISZERO MUL OR SWAP1 SSTORE POP CALLVALUE DUP1 ISZERO PUSH1 0x50 JUMPI PUSH0 DUP1 REVERT JUMPDEST POP PUSH2 0x482 DUP1 PUSH2 0x5E PUSH0 CODECOPY PUSH0 RETURN INVALID PUSH1 0x80 PUSH1 0x40 MSTORE CALLVALUE DUP1 ISZERO PUSH2 0xF JUMPI PUSH0 DUP1 REVERT JUMPDEST POP PUSH1 0x4 CALLDATASIZE LT PUSH2 0x60 JUMPI PUSH0 CALLDATALOAD PUSH1 0xE0 SHR DUP1 PUSH4 0x372B015 EQ PUSH2 0x64 JUMPI DUP1 PUSH4 0x165C4A16 EQ PUSH2 0x82 JUMPI DUP1 PUSH4 0x2A2E1320 EQ PUSH2 0xB2 JUMPI DUP1 PUSH4 0x971217B7 EQ PUSH2 0xE2 JUMPI DUP1 PUSH4 0xA5F3C23B EQ PUSH2 0x100 JUMPI DUP1 PUSH4 0xADDF3804 EQ PUSH2 0x130 JUMPI JUMPDEST PUSH0 DUP1 REVERT JUMPDEST PUSH2 0x6C PUSH2 0x14E JUMP JUMPDEST PUSH1 0x40 MLOAD PUSH2 0x79 SWAP2 SWAP1 PUSH2 0x1C4 JUMP JUMPDEST PUSH1 0x40 MLOAD DUP1 SWAP2 SUB SWAP1 RETURN JUMPDEST PUSH2 0x9C PUSH1 0x4 DUP1 CALLDATASIZE SUB DUP2 ADD SWAP1 PUSH2 0x97 SWAP2 SWAP1 PUSH2 0x20B JUMP JUMPDEST PUSH2 0x153 JUMP JUMPDEST PUSH1 0x40 MLOAD PUSH2 0xA9 SWAP2 SWAP1 PUSH2 0x1C4 JUMP JUMPDEST PUSH1 0x40 MLOAD DUP1 SWAP2 SUB SWAP1 RETURN JUMPDEST PUSH2 0xCC PUSH1 0x4 DUP1 CALLDATASIZE SUB DUP2 ADD SWAP1 PUSH2 0xC7 SWAP2 SWAP1 PUSH2 0x249 JUMP JUMPDEST PUSH2 0x168 JUMP JUMPDEST PUSH1 0x40 MLOAD PUSH2 0xD9 SWAP2 SWAP1 PUSH2 0x28E JUMP JUMPDEST PUSH1 0x40 MLOAD DUP1 SWAP2 SUB SWAP1 RETURN JUMPDEST PUSH2 0xEA PUSH2 0x17F JUMP JUMPDEST PUSH1 0x40 MLOAD PUSH2 0xF7 SWAP2 SWAP1 PUSH2 0x28E JUMP JUMPDEST PUSH1 0x40 MLOAD DUP1 SWAP2 SUB SWAP1 RETURN JUMPDEST PUSH2 0x11A PUSH1 0x4 DUP1 CALLDATASIZE SUB DUP2 ADD SWAP1 PUSH2 0x115 SWAP2 SWAP1 PUSH2 0x2DA JUMP JUMPDEST PUSH2 0x191 JUMP JUMPDEST PUSH1 0x40 MLOAD PUSH2 0x127 SWAP2 SWAP1 PUSH2 0x327 JUMP JUMPDEST PUSH1 0x40 MLOAD DUP1 SWAP2 SUB SWAP1 RETURN JUMPDEST PUSH2 0x138 PUSH2 0x1A6 JUMP JUMPDEST PUSH1 0x40 MLOAD PUSH2 0x145 SWAP2 SWAP1 PUSH2 0x327 JUMP JUMPDEST PUSH1 0x40 MLOAD DUP1 SWAP2 SUB SWAP1 RETURN JUMPDEST PUSH0 SLOAD DUP2 JUMP JUMPDEST PUSH0 DUP2 DUP4 PUSH2 0x160 SWAP2 SWAP1 PUSH2 0x36D JUMP JUMPDEST SWAP1 POP SWAP3 SWAP2 POP POP JUMP JUMPDEST PUSH0 DUP1 PUSH1 0x2 DUP4 PUSH2 0x177 SWAP2 SWAP1 PUSH2 0x3DB JUMP JUMPDEST EQ SWAP1 POP SWAP2 SWAP1 POP JUMP JUMPDEST PUSH1 0x2 PUSH0 SWAP1 SLOAD SWAP1 PUSH2 0x100 EXP SWAP1 DIV PUSH1 0xFF AND DUP2 JUMP JUMPDEST PUSH0 DUP2 DUP4 PUSH2 0x19E SWAP2 SWAP1 PUSH2 0x40B JUMP JUMPDEST SWAP1 POP SWAP3 SWAP2 POP POP JUMP JUMPDEST PUSH1 0x1 SLOAD DUP2 JUMP JUMPDEST PUSH0 DUP2 SWAP1 POP SWAP2 SWAP1 POP JUMP JUMPDEST PUSH2 0x1BE DUP2 PUSH2 0x1AC JUMP JUMPDEST DUP3 MSTORE POP POP JUMP JUMPDEST PUSH0 PUSH1 0x20 DUP3 ADD SWAP1 POP PUSH2 0x1D7 PUSH0 DUP4 ADD DUP5 PUSH2 0x1B5 JUMP JUMPDEST SWAP3 SWAP2 POP POP JUMP JUMPDEST PUSH0 DUP1 REVERT JUMPDEST PUSH2 0x1EA DUP2 PUSH2 0x1AC JUMP JUMPDEST DUP2 EQ PUSH2 0x1F4 JUMPI PUSH0 DUP1 REVERT JUMPDEST POP JUMP JUMPDEST PUSH0 DUP2 CALLDATALOAD SWAP1 POP PUSH2 0x205 DUP2 PUSH2 0x1E1 JUMP JUMPDEST SWAP3 SWAP2 POP POP JUMP JUMPDEST PUSH0 DUP1 PUSH1 0x40 DUP4 DUP6 SUB SLT ISZERO PUSH2 0x221 JUMPI PUSH2 0x220 PUSH2 0x1DD JUMP JUMPDEST JUMPDEST PUSH0 PUSH2 0x22E DUP6 DUP3 DUP7 ADD PUSH2 0x1F7 JUMP JUMPDEST SWAP3 POP POP PUSH1 0x20 PUSH2 0x23F DUP6 DUP3 DUP7 ADD PUSH2 0x1F7 JUMP JUMPDEST SWAP2 POP POP SWAP3 POP SWAP3 SWAP1 POP JUMP JUMPDEST PUSH0 PUSH1 0x20 DUP3 DUP5 SUB SLT ISZERO PUSH2 0x25E JUMPI PUSH2 0x25D PUSH2 0x1DD JUMP JUMPDEST JUMPDEST PUSH0 PUSH2 0x26B DUP5 DUP3 DUP6 ADD PUSH2 0x1F7 JUMP JUMPDEST SWAP2 POP POP SWAP3 SWAP2 POP POP JUMP JUMPDEST PUSH0 DUP2 ISZERO ISZERO SWAP1 POP SWAP2 SWAP1 POP JUMP JUMPDEST PUSH2 0x288 DUP2 PUSH2 0x274 JUMP JUMPDEST DUP3 MSTORE POP POP JUMP JUMPDEST PUSH0 PUSH1 0x20 DUP3 ADD SWAP1 POP PUSH2 0x2A1 PUSH0 DUP4 ADD DUP5 PUSH2 0x27F JUMP JUMPDEST SWAP3 SWAP2 POP POP JUMP JUMPDEST PUSH0 DUP2 SWAP1 POP SWAP2 SWAP1 POP JUMP JUMPDEST PUSH2 0x2B9 DUP2 PUSH2 0x2A7 JUMP JUMPDEST DUP2 EQ PUSH2 0x2C3 JUMPI PUSH0 DUP1 REVERT JUMPDEST POP JUMP JUMPDEST PUSH0 DUP2 CALLDATALOAD SWAP1 POP PUSH2 0x2D4 DUP2 PUSH2 0x2B0 JUMP JUMPDEST SWAP3 SWAP2 POP POP JUMP JUMPDEST PUSH0 DUP1 PUSH1 0x40 DUP4 DUP6 SUB SLT ISZERO PUSH2 0x2F0 JUMPI PUSH2 0x2EF PUSH2 0x1DD JUMP JUMPDEST JUMPDEST PUSH0 PUSH2 0x2FD DUP6 DUP3 DUP7 ADD PUSH2 0x2C6 JUMP JUMPDEST SWAP3 POP POP PUSH1 0x20 PUSH2 0x30E DUP6 DUP3 DUP7 ADD PUSH2 0x2C6 JUMP JUMPDEST SWAP2 POP POP SWAP3 POP SWAP3 SWAP1 POP JUMP JUMPDEST PUSH2 0x321 DUP2 PUSH2 0x2A7 JUMP JUMPDEST DUP3 MSTORE POP POP JUMP JUMPDEST PUSH0 PUSH1 0x20 DUP3 ADD SWAP1 POP PUSH2 0x33A PUSH0 DUP4 ADD DUP5 PUSH2 0x318 JUMP JUMPDEST SWAP3 SWAP2 POP POP JUMP JUMPDEST PUSH32 0x4E487B7100000000000000000000000000000000000000000000000000000000 PUSH0 MSTORE PUSH1 0x11 PUSH1 0x4 MSTORE PUSH1 0x24 PUSH0 REVERT JUMPDEST PUSH0 PUSH2 0x377 DUP3 PUSH2 0x1AC JUMP JUMPDEST SWAP2 POP PUSH2 0x382 DUP4 PUSH2 0x1AC JUMP JUMPDEST SWAP3 POP DUP3 DUP3 MUL PUSH2 0x390 DUP2 PUSH2 0x1AC JUMP JUMPDEST SWAP2 POP DUP3 DUP3 DIV DUP5 EQ DUP4 ISZERO OR PUSH2 0x3A7 JUMPI PUSH2 0x3A6 PUSH2 0x340 JUMP JUMPDEST JUMPDEST POP SWAP3 SWAP2 POP POP JUMP JUMPDEST PUSH32 0x4E487B7100000000000000000000000000000000000000000000000000000000 PUSH0 MSTORE PUSH1 0x12 PUSH1 0x4 MSTORE PUSH1 0x24 PUSH0 REVERT JUMPDEST PUSH0 PUSH2 0x3E5 DUP3 PUSH2 0x1AC JUMP JUMPDEST SWAP2 POP PUSH2 0x3F0 DUP4 PUSH2 0x1AC JUMP JUMPDEST SWAP3 POP DUP3 PUSH2 0x400 JUMPI PUSH2 0x3FF PUSH2 0x3AE JUMP JUMPDEST JUMPDEST DUP3 DUP3 MOD SWAP1 POP SWAP3 SWAP2 POP POP JUMP JUMPDEST PUSH0 PUSH2 0x415 DUP3 PUSH2 0x2A7 JUMP JUMPDEST SWAP2 POP PUSH2 0x420 DUP4 PUSH2 0x2A7 JUMP JUMPDEST SWAP3 POP DUP3 DUP3 ADD SWAP1 POP DUP3 DUP2 SLT ISZERO PUSH0 DUP4 SLT AND DUP4 DUP3 SLT PUSH0 DUP5 SLT ISZERO AND OR ISZERO PUSH2 0x446 JUMPI PUSH2 0x445 PUSH2 0x340 JUMP JUMPDEST JUMPDEST SWAP3 SWAP2 POP POP JUMP INVALID LOG2 PUSH5 0x6970667358 0x22 SLT KECCAK256 0xD0 0x4C 0xDC PUSH23 0xE0B45146A78F52A4DB8C398CCC3412A769F9328F758E17 0xD0 PUSH29 0x1C9A6964736F6C634300081A0033000000000000000000000000000000 "
				},
				"gasEstimates": {
					"creation": {
						"codeDepositCost": "230800",
						"executionCost": "68750",
						"totalCost": "299550"
					},
					"external": {
						"add(int256,int256)": "infinite",
						"isEven(uint256)": "infinite",
						"math()": "2513",
						"math1()": "2402",
						"multiply(uint256,uint256)": "infinite",
						"values()": "2510"
					}
				},
				"methodIdentifiers": {
					"add(int256,int256)": "a5f3c23b",
					"isEven(uint256)": "2a2e1320",
					"math()": "addf3804",
					"math1()": "0372b015",
					"multiply(uint256,uint256)": "165c4a16",
					"values()": "971217b7"
				}
			},
			"storageLayout": {
				"storage": [
					{
						"astId": 4,
						"contract": "contracts/PES1UG22CS698_VINEET_V_PAI_TASK1.sol:BasicMath",
						"label": "math1",
						"offset": 0,
						"slot": "0",
						"type": "t_uint256"
					},
					{
						"astId": 8,
						"contract": "contracts/PES1UG22CS698_VINEET_V_PAI_TASK1.sol:BasicMath",
						"label": "math",
						"offset": 0,
						"slot": "1",
						"type": "t_int256"
					},
					{
						"astId": 11,
						"contract": "contracts/PES1UG22CS698_VINEET_V_PAI_TASK1.sol:BasicMath",
						"label": "values",
						"offset": 0,
						"slot": "2",
						"type": "t_bool"
					}
				],
				"types": {
					"t_bool": {
						"encoding": "inplace",
						"label": "bool",
						"numberOfBytes": "1"
					},
					"t_int256": {
						"encoding": "inplace",
						"label": "int256",
						"numberOfBytes": "32"
					},
					"t_uint256": {
						"encoding": "inplace",
						"label": "uint256",
						"numberOfBytes": "32"
					}
				}
			},
			"userdoc": {
				"kind": "user",
				"methods": {},
				"version": 1
			}
		}
	}
}