{
	"contracts/PES1UG22CS698_VINEET_V_PAI_TASK2.sol": {
		"MathUtils": {
			"abi": [
				{
					"inputs": [
						{
							"internalType": "uint256",
							"name": "n",
							"type": "uint256"
						}
					],
					"name": "factorial",
					"outputs": [
						{
							"internalType": "uint256",
							"name": "",
							"type": "uint256"
						}
					],
					"stateMutability": "pure",
					"type": "function"
				},
				{
					"inputs": [
						{
							"internalType": "uint256",
							"name": "a",
							"type": "uint256"
						},
						{
							"internalType": "uint256",
							"name": "b",
							"type": "uint256"
						}
					],
					"name": "gcd",
					"outputs": [
						{
							"internalType": "uint256",
							"name": "",
							"type": "uint256"
						}
					],
					"stateMutability": "pure",
					"type": "function"
				},
				{
					"inputs": [],
					"name": "getContractBalance",
					"outputs": [
						{
							"internalType": "uint256",
							"name": "",
							"type": "uint256"
						}
					],
					"stateMutability": "view",
					"type": "function"
				},
				{
					"inputs": [
						{
							"internalType": "uint256",
							"name": "num",
							"type": "uint256"
						}
					],
					"name": "isPrime",
					"outputs": [
						{
							"internalType": "bool",
							"name": "",
							"type": "bool"
						}
					],
					"stateMutability": "pure",
					"type": "function"
				},
				{
					"inputs": [
						{
							"internalType": "uint256",
							"name": "base",
							"type": "uint256"
						},
						{
							"internalType": "uint256",
							"name": "exponent",
							"type": "uint256"
						},
						{
							"internalType": "uint256",
							"name": "modulus",
							"type": "uint256"
						}
					],
					"name": "modExp",
					"outputs": [
						{
							"internalType": "uint256",
							"name": "",
							"type": "uint256"
						}
					],
					"stateMutability": "pure",
					"type": "function"
				},
				{
					"inputs": [
						{
							"internalType": "uint256",
							"name": "base",
							"type": "uint256"
						},
						{
							"internalType": "uint256",
							"name": "exponent",
							"type": "uint256"
						}
					],
					"name": "power",
					"outputs": [
						{
							"internalType": "uint256",
							"name": "",
							"type": "uint256"
						}
					],
					"stateMutability": "pure",
					"type": "function"
				}
			],
			"devdoc": {
				"kind": "dev",
				"methods": {},
				"version": 1
			},
			"evm": {
				"assembly": "    /* \"contracts/PES1UG22CS698_VINEET_V_PAI_TASK2.sol\":60:1435  contract MathUtils {... */\n  mstore(0x40, 0x80)\n  callvalue\n  dup1\n  iszero\n  tag_1\n  jumpi\n  0x00\n  dup1\n  revert\ntag_1:\n  pop\n  dataSize(sub_0)\n  dup1\n  dataOffset(sub_0)\n  0x00\n  codecopy\n  0x00\n  return\nstop\n\nsub_0: assembly {\n        /* \"contracts/PES1UG22CS698_VINEET_V_PAI_TASK2.sol\":60:1435  contract MathUtils {... */\n      mstore(0x40, 0x80)\n      callvalue\n      dup1\n      iszero\n      tag_1\n      jumpi\n      0x00\n      dup1\n      revert\n    tag_1:\n      pop\n      jumpi(tag_2, lt(calldatasize, 0x04))\n      shr(0xe0, calldataload(0x00))\n      dup1\n      0x3148f14f\n      eq\n      tag_3\n      jumpi\n      dup1\n      0x42703494\n      eq\n      tag_4\n      jumpi\n      dup1\n      0x6f9fb98a\n      eq\n      tag_5\n      jumpi\n      dup1\n      0x83714834\n      eq\n      tag_6\n      jumpi\n      dup1\n      0xb9650dac\n      eq\n      tag_7\n      jumpi\n      dup1\n      0xc04f01fc\n      eq\n      tag_8\n      jumpi\n    tag_2:\n      0x00\n      dup1\n      revert\n        /* \"contracts/PES1UG22CS698_VINEET_V_PAI_TASK2.sol\":625:860  function modExp(uint256 base, uint256 exponent, uint256... */\n    tag_3:\n      tag_9\n      0x04\n      dup1\n      calldatasize\n      sub\n      dup2\n      add\n      swap1\n      tag_10\n      swap2\n      swap1\n      tag_11\n      jump\t// in\n    tag_10:\n      tag_12\n      jump\t// in\n    tag_9:\n      mload(0x40)\n      tag_13\n      swap2\n      swap1\n      tag_14\n      jump\t// in\n    tag_13:\n      mload(0x40)\n      dup1\n      swap2\n      sub\n      swap1\n      return\n        /* \"contracts/PES1UG22CS698_VINEET_V_PAI_TASK2.sol\":1075:1432  function isPrime(uint256 num) public pure returns (bool){... */\n    tag_4:\n      tag_15\n      0x04\n      dup1\n      calldatasize\n      sub\n      dup2\n      add\n      swap1\n      tag_16\n      swap2\n      swap1\n      tag_17\n      jump\t// in\n    tag_16:\n      tag_18\n      jump\t// in\n    tag_15:\n      mload(0x40)\n      tag_19\n      swap2\n      swap1\n      tag_20\n      jump\t// in\n    tag_19:\n      mload(0x40)\n      dup1\n      swap2\n      sub\n      swap1\n      return\n        /* \"contracts/PES1UG22CS698_VINEET_V_PAI_TASK2.sol\":505:617  function getContractBalance() public view returns (uint256)... */\n    tag_5:\n      tag_21\n      tag_22\n      jump\t// in\n    tag_21:\n      mload(0x40)\n      tag_23\n      swap2\n      swap1\n      tag_14\n      jump\t// in\n    tag_23:\n      mload(0x40)\n      dup1\n      swap2\n      sub\n      swap1\n      return\n        /* \"contracts/PES1UG22CS698_VINEET_V_PAI_TASK2.sol\":307:499  function factorial(uint256 n) public pure returns(uint256) {... */\n    tag_6:\n      tag_24\n      0x04\n      dup1\n      calldatasize\n      sub\n      dup2\n      add\n      swap1\n      tag_25\n      swap2\n      swap1\n      tag_17\n      jump\t// in\n    tag_25:\n      tag_26\n      jump\t// in\n    tag_24:\n      mload(0x40)\n      tag_27\n      swap2\n      swap1\n      tag_14\n      jump\t// in\n    tag_27:\n      mload(0x40)\n      dup1\n      swap2\n      sub\n      swap1\n      return\n        /* \"contracts/PES1UG22CS698_VINEET_V_PAI_TASK2.sol\":867:1068  function gcd(uint256 a, uint256 b) public pure returns (uint256){... */\n    tag_7:\n      tag_28\n      0x04\n      dup1\n      calldatasize\n      sub\n      dup2\n      add\n      swap1\n      tag_29\n      swap2\n      swap1\n      tag_30\n      jump\t// in\n    tag_29:\n      tag_31\n      jump\t// in\n    tag_28:\n      mload(0x40)\n      tag_32\n      swap2\n      swap1\n      tag_14\n      jump\t// in\n    tag_32:\n      mload(0x40)\n      dup1\n      swap2\n      sub\n      swap1\n      return\n        /* \"contracts/PES1UG22CS698_VINEET_V_PAI_TASK2.sol\":86:301  function power(uint256 base, uint256 exponent) public pure returns(uint256){... */\n    tag_8:\n      tag_33\n      0x04\n      dup1\n      calldatasize\n      sub\n      dup2\n      add\n      swap1\n      tag_34\n      swap2\n      swap1\n      tag_30\n      jump\t// in\n    tag_34:\n      tag_35\n      jump\t// in\n    tag_33:\n      mload(0x40)\n      tag_36\n      swap2\n      swap1\n      tag_14\n      jump\t// in\n    tag_36:\n      mload(0x40)\n      dup1\n      swap2\n      sub\n      swap1\n      return\n        /* \"contracts/PES1UG22CS698_VINEET_V_PAI_TASK2.sol\":625:860  function modExp(uint256 base, uint256 exponent, uint256... */\n    tag_12:\n        /* \"contracts/PES1UG22CS698_VINEET_V_PAI_TASK2.sol\":712:719  uint256 */\n      0x00\n        /* \"contracts/PES1UG22CS698_VINEET_V_PAI_TASK2.sol\":726:735  uint temp */\n      dup1\n        /* \"contracts/PES1UG22CS698_VINEET_V_PAI_TASK2.sol\":736:737  1 */\n      0x01\n        /* \"contracts/PES1UG22CS698_VINEET_V_PAI_TASK2.sol\":726:737  uint temp=1 */\n      swap1\n      pop\n        /* \"contracts/PES1UG22CS698_VINEET_V_PAI_TASK2.sol\":752:761  uint256 i */\n      0x00\n        /* \"contracts/PES1UG22CS698_VINEET_V_PAI_TASK2.sol\":762:763  1 */\n      0x01\n        /* \"contracts/PES1UG22CS698_VINEET_V_PAI_TASK2.sol\":752:763  uint256 i=1 */\n      swap1\n      pop\n        /* \"contracts/PES1UG22CS698_VINEET_V_PAI_TASK2.sol\":748:827  for(uint256 i=1;i<=exponent;i++)... */\n    tag_38:\n        /* \"contracts/PES1UG22CS698_VINEET_V_PAI_TASK2.sol\":767:775  exponent */\n      dup5\n        /* \"contracts/PES1UG22CS698_VINEET_V_PAI_TASK2.sol\":764:765  i */\n      dup2\n        /* \"contracts/PES1UG22CS698_VINEET_V_PAI_TASK2.sol\":764:775  i<=exponent */\n      gt\n        /* \"contracts/PES1UG22CS698_VINEET_V_PAI_TASK2.sol\":748:827  for(uint256 i=1;i<=exponent;i++)... */\n      tag_39\n      jumpi\n        /* \"contracts/PES1UG22CS698_VINEET_V_PAI_TASK2.sol\":811:815  base */\n      dup6\n        /* \"contracts/PES1UG22CS698_VINEET_V_PAI_TASK2.sol\":805:815  temp*=base */\n      dup3\n      tag_41\n      swap2\n      swap1\n      tag_42\n      jump\t// in\n    tag_41:\n      swap2\n      pop\n        /* \"contracts/PES1UG22CS698_VINEET_V_PAI_TASK2.sol\":776:779  i++ */\n      dup1\n      dup1\n      tag_43\n      swap1\n      tag_44\n      jump\t// in\n    tag_43:\n      swap2\n      pop\n      pop\n        /* \"contracts/PES1UG22CS698_VINEET_V_PAI_TASK2.sol\":748:827  for(uint256 i=1;i<=exponent;i++)... */\n      jump(tag_38)\n    tag_39:\n      pop\n        /* \"contracts/PES1UG22CS698_VINEET_V_PAI_TASK2.sol\":849:856  modulus */\n      dup3\n        /* \"contracts/PES1UG22CS698_VINEET_V_PAI_TASK2.sol\":844:848  temp */\n      dup2\n        /* \"contracts/PES1UG22CS698_VINEET_V_PAI_TASK2.sol\":844:856  temp%modulus */\n      tag_45\n      swap2\n      swap1\n      tag_46\n      jump\t// in\n    tag_45:\n        /* \"contracts/PES1UG22CS698_VINEET_V_PAI_TASK2.sol\":837:856  return temp%modulus */\n      swap2\n      pop\n      pop\n        /* \"contracts/PES1UG22CS698_VINEET_V_PAI_TASK2.sol\":625:860  function modExp(uint256 base, uint256 exponent, uint256... */\n      swap4\n      swap3\n      pop\n      pop\n      pop\n      jump\t// out\n        /* \"contracts/PES1UG22CS698_VINEET_V_PAI_TASK2.sol\":1075:1432  function isPrime(uint256 num) public pure returns (bool){... */\n    tag_18:\n        /* \"contracts/PES1UG22CS698_VINEET_V_PAI_TASK2.sol\":1126:1130  bool */\n      0x00\n        /* \"contracts/PES1UG22CS698_VINEET_V_PAI_TASK2.sol\":1146:1147  0 */\n      dup1\n        /* \"contracts/PES1UG22CS698_VINEET_V_PAI_TASK2.sol\":1141:1144  num */\n      dup3\n        /* \"contracts/PES1UG22CS698_VINEET_V_PAI_TASK2.sol\":1141:1147  num==0 */\n      eq\n        /* \"contracts/PES1UG22CS698_VINEET_V_PAI_TASK2.sol\":1141:1157  num==0 || num==1 */\n      dup1\n      tag_48\n      jumpi\n      pop\n        /* \"contracts/PES1UG22CS698_VINEET_V_PAI_TASK2.sol\":1156:1157  1 */\n      0x01\n        /* \"contracts/PES1UG22CS698_VINEET_V_PAI_TASK2.sol\":1151:1154  num */\n      dup3\n        /* \"contracts/PES1UG22CS698_VINEET_V_PAI_TASK2.sol\":1151:1157  num==1 */\n      eq\n        /* \"contracts/PES1UG22CS698_VINEET_V_PAI_TASK2.sol\":1141:1157  num==0 || num==1 */\n    tag_48:\n        /* \"contracts/PES1UG22CS698_VINEET_V_PAI_TASK2.sol\":1138:1195  if(num==0 || num==1)... */\n      iszero\n      tag_49\n      jumpi\n        /* \"contracts/PES1UG22CS698_VINEET_V_PAI_TASK2.sol\":1182:1187  false */\n      0x00\n        /* \"contracts/PES1UG22CS698_VINEET_V_PAI_TASK2.sol\":1175:1187  return false */\n      swap1\n      pop\n      jump(tag_47)\n        /* \"contracts/PES1UG22CS698_VINEET_V_PAI_TASK2.sol\":1138:1195  if(num==0 || num==1)... */\n    tag_49:\n        /* \"contracts/PES1UG22CS698_VINEET_V_PAI_TASK2.sol\":1201:1214  uint256 count */\n      0x00\n        /* \"contracts/PES1UG22CS698_VINEET_V_PAI_TASK2.sol\":1227:1236  uint256 i */\n      dup1\n        /* \"contracts/PES1UG22CS698_VINEET_V_PAI_TASK2.sol\":1237:1238  2 */\n      0x02\n        /* \"contracts/PES1UG22CS698_VINEET_V_PAI_TASK2.sol\":1227:1238  uint256 i=2 */\n      swap1\n      pop\n        /* \"contracts/PES1UG22CS698_VINEET_V_PAI_TASK2.sol\":1223:1406  for(uint256 i=2;i<=num;i++)... */\n    tag_50:\n        /* \"contracts/PES1UG22CS698_VINEET_V_PAI_TASK2.sol\":1242:1245  num */\n      dup4\n        /* \"contracts/PES1UG22CS698_VINEET_V_PAI_TASK2.sol\":1239:1240  i */\n      dup2\n        /* \"contracts/PES1UG22CS698_VINEET_V_PAI_TASK2.sol\":1239:1245  i<=num */\n      gt\n        /* \"contracts/PES1UG22CS698_VINEET_V_PAI_TASK2.sol\":1223:1406  for(uint256 i=2;i<=num;i++)... */\n      tag_51\n      jumpi\n        /* \"contracts/PES1UG22CS698_VINEET_V_PAI_TASK2.sol\":1278:1279  0 */\n      0x00\n        /* \"contracts/PES1UG22CS698_VINEET_V_PAI_TASK2.sol\":1275:1276  i */\n      dup2\n        /* \"contracts/PES1UG22CS698_VINEET_V_PAI_TASK2.sol\":1271:1274  num */\n      dup6\n        /* \"contracts/PES1UG22CS698_VINEET_V_PAI_TASK2.sol\":1271:1276  num%i */\n      tag_53\n      swap2\n      swap1\n      tag_46\n      jump\t// in\n    tag_53:\n        /* \"contracts/PES1UG22CS698_VINEET_V_PAI_TASK2.sol\":1271:1279  num%i==0 */\n      sub\n        /* \"contracts/PES1UG22CS698_VINEET_V_PAI_TASK2.sol\":1268:1326  if(num%i==0)... */\n      tag_54\n      jumpi\n        /* \"contracts/PES1UG22CS698_VINEET_V_PAI_TASK2.sol\":1306:1313  count++ */\n      dup2\n      dup1\n      tag_55\n      swap1\n      tag_44\n      jump\t// in\n    tag_55:\n      swap3\n      pop\n      pop\n        /* \"contracts/PES1UG22CS698_VINEET_V_PAI_TASK2.sol\":1268:1326  if(num%i==0)... */\n    tag_54:\n        /* \"contracts/PES1UG22CS698_VINEET_V_PAI_TASK2.sol\":1346:1347  1 */\n      0x01\n        /* \"contracts/PES1UG22CS698_VINEET_V_PAI_TASK2.sol\":1340:1345  count */\n      dup3\n        /* \"contracts/PES1UG22CS698_VINEET_V_PAI_TASK2.sol\":1340:1347  count>1 */\n      gt\n        /* \"contracts/PES1UG22CS698_VINEET_V_PAI_TASK2.sol\":1337:1399  if(count>1)... */\n      iszero\n      tag_56\n      jumpi\n        /* \"contracts/PES1UG22CS698_VINEET_V_PAI_TASK2.sol\":1381:1386  false */\n      0x00\n        /* \"contracts/PES1UG22CS698_VINEET_V_PAI_TASK2.sol\":1374:1386  return false */\n      swap3\n      pop\n      pop\n      pop\n      jump(tag_47)\n        /* \"contracts/PES1UG22CS698_VINEET_V_PAI_TASK2.sol\":1337:1399  if(count>1)... */\n    tag_56:\n        /* \"contracts/PES1UG22CS698_VINEET_V_PAI_TASK2.sol\":1246:1249  i++ */\n      dup1\n      dup1\n      tag_57\n      swap1\n      tag_44\n      jump\t// in\n    tag_57:\n      swap2\n      pop\n      pop\n        /* \"contracts/PES1UG22CS698_VINEET_V_PAI_TASK2.sol\":1223:1406  for(uint256 i=2;i<=num;i++)... */\n      jump(tag_50)\n    tag_51:\n      pop\n        /* \"contracts/PES1UG22CS698_VINEET_V_PAI_TASK2.sol\":1419:1423  true */\n      0x01\n        /* \"contracts/PES1UG22CS698_VINEET_V_PAI_TASK2.sol\":1412:1423  return true */\n      swap2\n      pop\n      pop\n        /* \"contracts/PES1UG22CS698_VINEET_V_PAI_TASK2.sol\":1075:1432  function isPrime(uint256 num) public pure returns (bool){... */\n    tag_47:\n      swap2\n      swap1\n      pop\n      jump\t// out\n        /* \"contracts/PES1UG22CS698_VINEET_V_PAI_TASK2.sol\":505:617  function getContractBalance() public view returns (uint256)... */\n    tag_22:\n        /* \"contracts/PES1UG22CS698_VINEET_V_PAI_TASK2.sol\":556:563  uint256 */\n      0x00\n        /* \"contracts/PES1UG22CS698_VINEET_V_PAI_TASK2.sol\":588:609  address(this).balance */\n      selfbalance\n        /* \"contracts/PES1UG22CS698_VINEET_V_PAI_TASK2.sol\":581:609  return address(this).balance */\n      swap1\n      pop\n        /* \"contracts/PES1UG22CS698_VINEET_V_PAI_TASK2.sol\":505:617  function getContractBalance() public view returns (uint256)... */\n      swap1\n      jump\t// out\n        /* \"contracts/PES1UG22CS698_VINEET_V_PAI_TASK2.sol\":307:499  function factorial(uint256 n) public pure returns(uint256) {... */\n    tag_26:\n        /* \"contracts/PES1UG22CS698_VINEET_V_PAI_TASK2.sol\":357:364  uint256 */\n      0x00\n        /* \"contracts/PES1UG22CS698_VINEET_V_PAI_TASK2.sol\":376:388  uint256 temp */\n      dup1\n        /* \"contracts/PES1UG22CS698_VINEET_V_PAI_TASK2.sol\":389:390  1 */\n      0x01\n        /* \"contracts/PES1UG22CS698_VINEET_V_PAI_TASK2.sol\":376:390  uint256 temp=1 */\n      swap1\n      pop\n        /* \"contracts/PES1UG22CS698_VINEET_V_PAI_TASK2.sol\":405:414  uint256 i */\n      0x00\n        /* \"contracts/PES1UG22CS698_VINEET_V_PAI_TASK2.sol\":415:416  n */\n      dup4\n        /* \"contracts/PES1UG22CS698_VINEET_V_PAI_TASK2.sol\":405:416  uint256 i=n */\n      swap1\n      pop\n        /* \"contracts/PES1UG22CS698_VINEET_V_PAI_TASK2.sol\":401:470  for(uint256 i=n;i>=1;i--)... */\n    tag_60:\n        /* \"contracts/PES1UG22CS698_VINEET_V_PAI_TASK2.sol\":420:421  1 */\n      0x01\n        /* \"contracts/PES1UG22CS698_VINEET_V_PAI_TASK2.sol\":417:418  i */\n      dup2\n        /* \"contracts/PES1UG22CS698_VINEET_V_PAI_TASK2.sol\":417:421  i>=1 */\n      lt\n        /* \"contracts/PES1UG22CS698_VINEET_V_PAI_TASK2.sol\":401:470  for(uint256 i=n;i>=1;i--)... */\n      tag_61\n      jumpi\n        /* \"contracts/PES1UG22CS698_VINEET_V_PAI_TASK2.sol\":457:458  i */\n      dup1\n        /* \"contracts/PES1UG22CS698_VINEET_V_PAI_TASK2.sol\":451:458  temp*=i */\n      dup3\n      tag_63\n      swap2\n      swap1\n      tag_42\n      jump\t// in\n    tag_63:\n      swap2\n      pop\n        /* \"contracts/PES1UG22CS698_VINEET_V_PAI_TASK2.sol\":422:425  i-- */\n      dup1\n      dup1\n      tag_64\n      swap1\n      tag_65\n      jump\t// in\n    tag_64:\n      swap2\n      pop\n      pop\n        /* \"contracts/PES1UG22CS698_VINEET_V_PAI_TASK2.sol\":401:470  for(uint256 i=n;i>=1;i--)... */\n      jump(tag_60)\n    tag_61:\n      pop\n        /* \"contracts/PES1UG22CS698_VINEET_V_PAI_TASK2.sol\":487:491  temp */\n      dup1\n        /* \"contracts/PES1UG22CS698_VINEET_V_PAI_TASK2.sol\":480:491  return temp */\n      swap2\n      pop\n      pop\n        /* \"contracts/PES1UG22CS698_VINEET_V_PAI_TASK2.sol\":307:499  function factorial(uint256 n) public pure returns(uint256) {... */\n      swap2\n      swap1\n      pop\n      jump\t// out\n        /* \"contracts/PES1UG22CS698_VINEET_V_PAI_TASK2.sol\":867:1068  function gcd(uint256 a, uint256 b) public pure returns (uint256){... */\n    tag_31:\n        /* \"contracts/PES1UG22CS698_VINEET_V_PAI_TASK2.sol\":923:930  uint256 */\n      0x00\n        /* \"contracts/PES1UG22CS698_VINEET_V_PAI_TASK2.sol\":938:1043  while (b != 0) {... */\n    tag_67:\n        /* \"contracts/PES1UG22CS698_VINEET_V_PAI_TASK2.sol\":950:951  0 */\n      0x00\n        /* \"contracts/PES1UG22CS698_VINEET_V_PAI_TASK2.sol\":945:946  b */\n      dup3\n        /* \"contracts/PES1UG22CS698_VINEET_V_PAI_TASK2.sol\":945:951  b != 0 */\n      eq\n        /* \"contracts/PES1UG22CS698_VINEET_V_PAI_TASK2.sol\":938:1043  while (b != 0) {... */\n      tag_68\n      jumpi\n        /* \"contracts/PES1UG22CS698_VINEET_V_PAI_TASK2.sol\":968:980  uint256 temp */\n      0x00\n        /* \"contracts/PES1UG22CS698_VINEET_V_PAI_TASK2.sol\":983:984  b */\n      dup3\n        /* \"contracts/PES1UG22CS698_VINEET_V_PAI_TASK2.sol\":968:984  uint256 temp = b */\n      swap1\n      pop\n        /* \"contracts/PES1UG22CS698_VINEET_V_PAI_TASK2.sol\":1007:1008  b */\n      dup3\n        /* \"contracts/PES1UG22CS698_VINEET_V_PAI_TASK2.sol\":1003:1004  a */\n      dup5\n        /* \"contracts/PES1UG22CS698_VINEET_V_PAI_TASK2.sol\":1003:1008  a % b */\n      tag_69\n      swap2\n      swap1\n      tag_46\n      jump\t// in\n    tag_69:\n        /* \"contracts/PES1UG22CS698_VINEET_V_PAI_TASK2.sol\":999:1008  b = a % b */\n      swap3\n      pop\n        /* \"contracts/PES1UG22CS698_VINEET_V_PAI_TASK2.sol\":1027:1031  temp */\n      dup1\n        /* \"contracts/PES1UG22CS698_VINEET_V_PAI_TASK2.sol\":1023:1031  a = temp */\n      swap4\n      pop\n        /* \"contracts/PES1UG22CS698_VINEET_V_PAI_TASK2.sol\":953:1043  {... */\n      pop\n        /* \"contracts/PES1UG22CS698_VINEET_V_PAI_TASK2.sol\":938:1043  while (b != 0) {... */\n      jump(tag_67)\n    tag_68:\n        /* \"contracts/PES1UG22CS698_VINEET_V_PAI_TASK2.sol\":1060:1061  a */\n      dup3\n        /* \"contracts/PES1UG22CS698_VINEET_V_PAI_TASK2.sol\":1053:1061  return a */\n      swap1\n      pop\n        /* \"contracts/PES1UG22CS698_VINEET_V_PAI_TASK2.sol\":867:1068  function gcd(uint256 a, uint256 b) public pure returns (uint256){... */\n      swap3\n      swap2\n      pop\n      pop\n      jump\t// out\n        /* \"contracts/PES1UG22CS698_VINEET_V_PAI_TASK2.sol\":86:301  function power(uint256 base, uint256 exponent) public pure returns(uint256){... */\n    tag_35:\n        /* \"contracts/PES1UG22CS698_VINEET_V_PAI_TASK2.sol\":153:160  uint256 */\n      0x00\n        /* \"contracts/PES1UG22CS698_VINEET_V_PAI_TASK2.sol\":171:180  uint temp */\n      dup1\n        /* \"contracts/PES1UG22CS698_VINEET_V_PAI_TASK2.sol\":181:182  1 */\n      0x01\n        /* \"contracts/PES1UG22CS698_VINEET_V_PAI_TASK2.sol\":171:182  uint temp=1 */\n      swap1\n      pop\n        /* \"contracts/PES1UG22CS698_VINEET_V_PAI_TASK2.sol\":197:206  uint256 i */\n      0x00\n        /* \"contracts/PES1UG22CS698_VINEET_V_PAI_TASK2.sol\":207:208  1 */\n      0x01\n        /* \"contracts/PES1UG22CS698_VINEET_V_PAI_TASK2.sol\":197:208  uint256 i=1 */\n      swap1\n      pop\n        /* \"contracts/PES1UG22CS698_VINEET_V_PAI_TASK2.sol\":193:272  for(uint256 i=1;i<=exponent;i++)... */\n    tag_71:\n        /* \"contracts/PES1UG22CS698_VINEET_V_PAI_TASK2.sol\":212:220  exponent */\n      dup4\n        /* \"contracts/PES1UG22CS698_VINEET_V_PAI_TASK2.sol\":209:210  i */\n      dup2\n        /* \"contracts/PES1UG22CS698_VINEET_V_PAI_TASK2.sol\":209:220  i<=exponent */\n      gt\n        /* \"contracts/PES1UG22CS698_VINEET_V_PAI_TASK2.sol\":193:272  for(uint256 i=1;i<=exponent;i++)... */\n      tag_72\n      jumpi\n        /* \"contracts/PES1UG22CS698_VINEET_V_PAI_TASK2.sol\":256:260  base */\n      dup5\n        /* \"contracts/PES1UG22CS698_VINEET_V_PAI_TASK2.sol\":250:260  temp*=base */\n      dup3\n      tag_74\n      swap2\n      swap1\n      tag_42\n      jump\t// in\n    tag_74:\n      swap2\n      pop\n        /* \"contracts/PES1UG22CS698_VINEET_V_PAI_TASK2.sol\":221:224  i++ */\n      dup1\n      dup1\n      tag_75\n      swap1\n      tag_44\n      jump\t// in\n    tag_75:\n      swap2\n      pop\n      pop\n        /* \"contracts/PES1UG22CS698_VINEET_V_PAI_TASK2.sol\":193:272  for(uint256 i=1;i<=exponent;i++)... */\n      jump(tag_71)\n    tag_72:\n      pop\n        /* \"contracts/PES1UG22CS698_VINEET_V_PAI_TASK2.sol\":289:293  temp */\n      dup1\n        /* \"contracts/PES1UG22CS698_VINEET_V_PAI_TASK2.sol\":282:293  return temp */\n      swap2\n      pop\n      pop\n        /* \"contracts/PES1UG22CS698_VINEET_V_PAI_TASK2.sol\":86:301  function power(uint256 base, uint256 exponent) public pure returns(uint256){... */\n      swap3\n      swap2\n      pop\n      pop\n      jump\t// out\n        /* \"#utility.yul\":88:205   */\n    tag_77:\n        /* \"#utility.yul\":197:198   */\n      0x00\n        /* \"#utility.yul\":194:195   */\n      dup1\n        /* \"#utility.yul\":187:199   */\n      revert\n        /* \"#utility.yul\":334:411   */\n    tag_79:\n        /* \"#utility.yul\":371:378   */\n      0x00\n        /* \"#utility.yul\":400:405   */\n      dup2\n        /* \"#utility.yul\":389:405   */\n      swap1\n      pop\n        /* \"#utility.yul\":334:411   */\n      swap2\n      swap1\n      pop\n      jump\t// out\n        /* \"#utility.yul\":417:539   */\n    tag_80:\n        /* \"#utility.yul\":490:514   */\n      tag_93\n        /* \"#utility.yul\":508:513   */\n      dup2\n        /* \"#utility.yul\":490:514   */\n      tag_79\n      jump\t// in\n    tag_93:\n        /* \"#utility.yul\":483:488   */\n      dup2\n        /* \"#utility.yul\":480:515   */\n      eq\n        /* \"#utility.yul\":470:533   */\n      tag_94\n      jumpi\n        /* \"#utility.yul\":529:530   */\n      0x00\n        /* \"#utility.yul\":526:527   */\n      dup1\n        /* \"#utility.yul\":519:531   */\n      revert\n        /* \"#utility.yul\":470:533   */\n    tag_94:\n        /* \"#utility.yul\":417:539   */\n      pop\n      jump\t// out\n        /* \"#utility.yul\":545:684   */\n    tag_81:\n        /* \"#utility.yul\":591:596   */\n      0x00\n        /* \"#utility.yul\":629:635   */\n      dup2\n        /* \"#utility.yul\":616:636   */\n      calldataload\n        /* \"#utility.yul\":607:636   */\n      swap1\n      pop\n        /* \"#utility.yul\":645:678   */\n      tag_96\n        /* \"#utility.yul\":672:677   */\n      dup2\n        /* \"#utility.yul\":645:678   */\n      tag_80\n      jump\t// in\n    tag_96:\n        /* \"#utility.yul\":545:684   */\n      swap3\n      swap2\n      pop\n      pop\n      jump\t// out\n        /* \"#utility.yul\":690:1309   */\n    tag_11:\n        /* \"#utility.yul\":767:773   */\n      0x00\n        /* \"#utility.yul\":775:781   */\n      dup1\n        /* \"#utility.yul\":783:789   */\n      0x00\n        /* \"#utility.yul\":832:834   */\n      0x60\n        /* \"#utility.yul\":820:829   */\n      dup5\n        /* \"#utility.yul\":811:818   */\n      dup7\n        /* \"#utility.yul\":807:830   */\n      sub\n        /* \"#utility.yul\":803:835   */\n      slt\n        /* \"#utility.yul\":800:919   */\n      iszero\n      tag_98\n      jumpi\n        /* \"#utility.yul\":838:917   */\n      tag_99\n      tag_77\n      jump\t// in\n    tag_99:\n        /* \"#utility.yul\":800:919   */\n    tag_98:\n        /* \"#utility.yul\":958:959   */\n      0x00\n        /* \"#utility.yul\":983:1036   */\n      tag_100\n        /* \"#utility.yul\":1028:1035   */\n      dup7\n        /* \"#utility.yul\":1019:1025   */\n      dup3\n        /* \"#utility.yul\":1008:1017   */\n      dup8\n        /* \"#utility.yul\":1004:1026   */\n      add\n        /* \"#utility.yul\":983:1036   */\n      tag_81\n      jump\t// in\n    tag_100:\n        /* \"#utility.yul\":973:1036   */\n      swap4\n      pop\n        /* \"#utility.yul\":929:1046   */\n      pop\n        /* \"#utility.yul\":1085:1087   */\n      0x20\n        /* \"#utility.yul\":1111:1164   */\n      tag_101\n        /* \"#utility.yul\":1156:1163   */\n      dup7\n        /* \"#utility.yul\":1147:1153   */\n      dup3\n        /* \"#utility.yul\":1136:1145   */\n      dup8\n        /* \"#utility.yul\":1132:1154   */\n      add\n        /* \"#utility.yul\":1111:1164   */\n      tag_81\n      jump\t// in\n    tag_101:\n        /* \"#utility.yul\":1101:1164   */\n      swap3\n      pop\n        /* \"#utility.yul\":1056:1174   */\n      pop\n        /* \"#utility.yul\":1213:1215   */\n      0x40\n        /* \"#utility.yul\":1239:1292   */\n      tag_102\n        /* \"#utility.yul\":1284:1291   */\n      dup7\n        /* \"#utility.yul\":1275:1281   */\n      dup3\n        /* \"#utility.yul\":1264:1273   */\n      dup8\n        /* \"#utility.yul\":1260:1282   */\n      add\n        /* \"#utility.yul\":1239:1292   */\n      tag_81\n      jump\t// in\n    tag_102:\n        /* \"#utility.yul\":1229:1292   */\n      swap2\n      pop\n        /* \"#utility.yul\":1184:1302   */\n      pop\n        /* \"#utility.yul\":690:1309   */\n      swap3\n      pop\n      swap3\n      pop\n      swap3\n      jump\t// out\n        /* \"#utility.yul\":1315:1433   */\n    tag_82:\n        /* \"#utility.yul\":1402:1426   */\n      tag_104\n        /* \"#utility.yul\":1420:1425   */\n      dup2\n        /* \"#utility.yul\":1402:1426   */\n      tag_79\n      jump\t// in\n    tag_104:\n        /* \"#utility.yul\":1397:1400   */\n      dup3\n        /* \"#utility.yul\":1390:1427   */\n      mstore\n        /* \"#utility.yul\":1315:1433   */\n      pop\n      pop\n      jump\t// out\n        /* \"#utility.yul\":1439:1661   */\n    tag_14:\n        /* \"#utility.yul\":1532:1536   */\n      0x00\n        /* \"#utility.yul\":1570:1572   */\n      0x20\n        /* \"#utility.yul\":1559:1568   */\n      dup3\n        /* \"#utility.yul\":1555:1573   */\n      add\n        /* \"#utility.yul\":1547:1573   */\n      swap1\n      pop\n        /* \"#utility.yul\":1583:1654   */\n      tag_106\n        /* \"#utility.yul\":1651:1652   */\n      0x00\n        /* \"#utility.yul\":1640:1649   */\n      dup4\n        /* \"#utility.yul\":1636:1653   */\n      add\n        /* \"#utility.yul\":1627:1633   */\n      dup5\n        /* \"#utility.yul\":1583:1654   */\n      tag_82\n      jump\t// in\n    tag_106:\n        /* \"#utility.yul\":1439:1661   */\n      swap3\n      swap2\n      pop\n      pop\n      jump\t// out\n        /* \"#utility.yul\":1667:1996   */\n    tag_17:\n        /* \"#utility.yul\":1726:1732   */\n      0x00\n        /* \"#utility.yul\":1775:1777   */\n      0x20\n        /* \"#utility.yul\":1763:1772   */\n      dup3\n        /* \"#utility.yul\":1754:1761   */\n      dup5\n        /* \"#utility.yul\":1750:1773   */\n      sub\n        /* \"#utility.yul\":1746:1778   */\n      slt\n        /* \"#utility.yul\":1743:1862   */\n      iszero\n      tag_108\n      jumpi\n        /* \"#utility.yul\":1781:1860   */\n      tag_109\n      tag_77\n      jump\t// in\n    tag_109:\n        /* \"#utility.yul\":1743:1862   */\n    tag_108:\n        /* \"#utility.yul\":1901:1902   */\n      0x00\n        /* \"#utility.yul\":1926:1979   */\n      tag_110\n        /* \"#utility.yul\":1971:1978   */\n      dup5\n        /* \"#utility.yul\":1962:1968   */\n      dup3\n        /* \"#utility.yul\":1951:1960   */\n      dup6\n        /* \"#utility.yul\":1947:1969   */\n      add\n        /* \"#utility.yul\":1926:1979   */\n      tag_81\n      jump\t// in\n    tag_110:\n        /* \"#utility.yul\":1916:1979   */\n      swap2\n      pop\n        /* \"#utility.yul\":1872:1989   */\n      pop\n        /* \"#utility.yul\":1667:1996   */\n      swap3\n      swap2\n      pop\n      pop\n      jump\t// out\n        /* \"#utility.yul\":2002:2092   */\n    tag_83:\n        /* \"#utility.yul\":2036:2043   */\n      0x00\n        /* \"#utility.yul\":2079:2084   */\n      dup2\n        /* \"#utility.yul\":2072:2085   */\n      iszero\n        /* \"#utility.yul\":2065:2086   */\n      iszero\n        /* \"#utility.yul\":2054:2086   */\n      swap1\n      pop\n        /* \"#utility.yul\":2002:2092   */\n      swap2\n      swap1\n      pop\n      jump\t// out\n        /* \"#utility.yul\":2098:2207   */\n    tag_84:\n        /* \"#utility.yul\":2179:2200   */\n      tag_113\n        /* \"#utility.yul\":2194:2199   */\n      dup2\n        /* \"#utility.yul\":2179:2200   */\n      tag_83\n      jump\t// in\n    tag_113:\n        /* \"#utility.yul\":2174:2177   */\n      dup3\n        /* \"#utility.yul\":2167:2201   */\n      mstore\n        /* \"#utility.yul\":2098:2207   */\n      pop\n      pop\n      jump\t// out\n        /* \"#utility.yul\":2213:2423   */\n    tag_20:\n        /* \"#utility.yul\":2300:2304   */\n      0x00\n        /* \"#utility.yul\":2338:2340   */\n      0x20\n        /* \"#utility.yul\":2327:2336   */\n      dup3\n        /* \"#utility.yul\":2323:2341   */\n      add\n        /* \"#utility.yul\":2315:2341   */\n      swap1\n      pop\n        /* \"#utility.yul\":2351:2416   */\n      tag_115\n        /* \"#utility.yul\":2413:2414   */\n      0x00\n        /* \"#utility.yul\":2402:2411   */\n      dup4\n        /* \"#utility.yul\":2398:2415   */\n      add\n        /* \"#utility.yul\":2389:2395   */\n      dup5\n        /* \"#utility.yul\":2351:2416   */\n      tag_84\n      jump\t// in\n    tag_115:\n        /* \"#utility.yul\":2213:2423   */\n      swap3\n      swap2\n      pop\n      pop\n      jump\t// out\n        /* \"#utility.yul\":2429:2903   */\n    tag_30:\n        /* \"#utility.yul\":2497:2503   */\n      0x00\n        /* \"#utility.yul\":2505:2511   */\n      dup1\n        /* \"#utility.yul\":2554:2556   */\n      0x40\n        /* \"#utility.yul\":2542:2551   */\n      dup4\n        /* \"#utility.yul\":2533:2540   */\n      dup6\n        /* \"#utility.yul\":2529:2552   */\n      sub\n        /* \"#utility.yul\":2525:2557   */\n      slt\n        /* \"#utility.yul\":2522:2641   */\n      iszero\n      tag_117\n      jumpi\n        /* \"#utility.yul\":2560:2639   */\n      tag_118\n      tag_77\n      jump\t// in\n    tag_118:\n        /* \"#utility.yul\":2522:2641   */\n    tag_117:\n        /* \"#utility.yul\":2680:2681   */\n      0x00\n        /* \"#utility.yul\":2705:2758   */\n      tag_119\n        /* \"#utility.yul\":2750:2757   */\n      dup6\n        /* \"#utility.yul\":2741:2747   */\n      dup3\n        /* \"#utility.yul\":2730:2739   */\n      dup7\n        /* \"#utility.yul\":2726:2748   */\n      add\n        /* \"#utility.yul\":2705:2758   */\n      tag_81\n      jump\t// in\n    tag_119:\n        /* \"#utility.yul\":2695:2758   */\n      swap3\n      pop\n        /* \"#utility.yul\":2651:2768   */\n      pop\n        /* \"#utility.yul\":2807:2809   */\n      0x20\n        /* \"#utility.yul\":2833:2886   */\n      tag_120\n        /* \"#utility.yul\":2878:2885   */\n      dup6\n        /* \"#utility.yul\":2869:2875   */\n      dup3\n        /* \"#utility.yul\":2858:2867   */\n      dup7\n        /* \"#utility.yul\":2854:2876   */\n      add\n        /* \"#utility.yul\":2833:2886   */\n      tag_81\n      jump\t// in\n    tag_120:\n        /* \"#utility.yul\":2823:2886   */\n      swap2\n      pop\n        /* \"#utility.yul\":2778:2896   */\n      pop\n        /* \"#utility.yul\":2429:2903   */\n      swap3\n      pop\n      swap3\n      swap1\n      pop\n      jump\t// out\n        /* \"#utility.yul\":2909:3089   */\n    tag_85:\n        /* \"#utility.yul\":2957:3034   */\n      0x4e487b7100000000000000000000000000000000000000000000000000000000\n        /* \"#utility.yul\":2954:2955   */\n      0x00\n        /* \"#utility.yul\":2947:3035   */\n      mstore\n        /* \"#utility.yul\":3054:3058   */\n      0x11\n        /* \"#utility.yul\":3051:3052   */\n      0x04\n        /* \"#utility.yul\":3044:3059   */\n      mstore\n        /* \"#utility.yul\":3078:3082   */\n      0x24\n        /* \"#utility.yul\":3075:3076   */\n      0x00\n        /* \"#utility.yul\":3068:3083   */\n      revert\n        /* \"#utility.yul\":3095:3505   */\n    tag_42:\n        /* \"#utility.yul\":3135:3142   */\n      0x00\n        /* \"#utility.yul\":3158:3178   */\n      tag_123\n        /* \"#utility.yul\":3176:3177   */\n      dup3\n        /* \"#utility.yul\":3158:3178   */\n      tag_79\n      jump\t// in\n    tag_123:\n        /* \"#utility.yul\":3153:3178   */\n      swap2\n      pop\n        /* \"#utility.yul\":3192:3212   */\n      tag_124\n        /* \"#utility.yul\":3210:3211   */\n      dup4\n        /* \"#utility.yul\":3192:3212   */\n      tag_79\n      jump\t// in\n    tag_124:\n        /* \"#utility.yul\":3187:3212   */\n      swap3\n      pop\n        /* \"#utility.yul\":3247:3248   */\n      dup3\n        /* \"#utility.yul\":3244:3245   */\n      dup3\n        /* \"#utility.yul\":3240:3249   */\n      mul\n        /* \"#utility.yul\":3269:3299   */\n      tag_125\n        /* \"#utility.yul\":3287:3298   */\n      dup2\n        /* \"#utility.yul\":3269:3299   */\n      tag_79\n      jump\t// in\n    tag_125:\n        /* \"#utility.yul\":3258:3299   */\n      swap2\n      pop\n        /* \"#utility.yul\":3448:3449   */\n      dup3\n        /* \"#utility.yul\":3439:3446   */\n      dup3\n        /* \"#utility.yul\":3435:3450   */\n      div\n        /* \"#utility.yul\":3432:3433   */\n      dup5\n        /* \"#utility.yul\":3429:3451   */\n      eq\n        /* \"#utility.yul\":3409:3410   */\n      dup4\n        /* \"#utility.yul\":3402:3411   */\n      iszero\n        /* \"#utility.yul\":3382:3465   */\n      or\n        /* \"#utility.yul\":3359:3498   */\n      tag_126\n      jumpi\n        /* \"#utility.yul\":3478:3496   */\n      tag_127\n      tag_85\n      jump\t// in\n    tag_127:\n        /* \"#utility.yul\":3359:3498   */\n    tag_126:\n        /* \"#utility.yul\":3143:3505   */\n      pop\n        /* \"#utility.yul\":3095:3505   */\n      swap3\n      swap2\n      pop\n      pop\n      jump\t// out\n        /* \"#utility.yul\":3511:3744   */\n    tag_44:\n        /* \"#utility.yul\":3550:3553   */\n      0x00\n        /* \"#utility.yul\":3573:3597   */\n      tag_129\n        /* \"#utility.yul\":3591:3596   */\n      dup3\n        /* \"#utility.yul\":3573:3597   */\n      tag_79\n      jump\t// in\n    tag_129:\n        /* \"#utility.yul\":3564:3597   */\n      swap2\n      pop\n        /* \"#utility.yul\":3619:3685   */\n      0xffffffffffffffffffffffffffffffffffffffffffffffffffffffffffffffff\n        /* \"#utility.yul\":3612:3617   */\n      dup3\n        /* \"#utility.yul\":3609:3686   */\n      sub\n        /* \"#utility.yul\":3606:3709   */\n      tag_130\n      jumpi\n        /* \"#utility.yul\":3689:3707   */\n      tag_131\n      tag_85\n      jump\t// in\n    tag_131:\n        /* \"#utility.yul\":3606:3709   */\n    tag_130:\n        /* \"#utility.yul\":3736:3737   */\n      0x01\n        /* \"#utility.yul\":3729:3734   */\n      dup3\n        /* \"#utility.yul\":3725:3738   */\n      add\n        /* \"#utility.yul\":3718:3738   */\n      swap1\n      pop\n        /* \"#utility.yul\":3511:3744   */\n      swap2\n      swap1\n      pop\n      jump\t// out\n        /* \"#utility.yul\":3750:3930   */\n    tag_86:\n        /* \"#utility.yul\":3798:3875   */\n      0x4e487b7100000000000000000000000000000000000000000000000000000000\n        /* \"#utility.yul\":3795:3796   */\n      0x00\n        /* \"#utility.yul\":3788:3876   */\n      mstore\n        /* \"#utility.yul\":3895:3899   */\n      0x12\n        /* \"#utility.yul\":3892:3893   */\n      0x04\n        /* \"#utility.yul\":3885:3900   */\n      mstore\n        /* \"#utility.yul\":3919:3923   */\n      0x24\n        /* \"#utility.yul\":3916:3917   */\n      0x00\n        /* \"#utility.yul\":3909:3924   */\n      revert\n        /* \"#utility.yul\":3936:4112   */\n    tag_46:\n        /* \"#utility.yul\":3968:3969   */\n      0x00\n        /* \"#utility.yul\":3985:4005   */\n      tag_134\n        /* \"#utility.yul\":4003:4004   */\n      dup3\n        /* \"#utility.yul\":3985:4005   */\n      tag_79\n      jump\t// in\n    tag_134:\n        /* \"#utility.yul\":3980:4005   */\n      swap2\n      pop\n        /* \"#utility.yul\":4019:4039   */\n      tag_135\n        /* \"#utility.yul\":4037:4038   */\n      dup4\n        /* \"#utility.yul\":4019:4039   */\n      tag_79\n      jump\t// in\n    tag_135:\n        /* \"#utility.yul\":4014:4039   */\n      swap3\n      pop\n        /* \"#utility.yul\":4058:4059   */\n      dup3\n        /* \"#utility.yul\":4048:4083   */\n      tag_136\n      jumpi\n        /* \"#utility.yul\":4063:4081   */\n      tag_137\n      tag_86\n      jump\t// in\n    tag_137:\n        /* \"#utility.yul\":4048:4083   */\n    tag_136:\n        /* \"#utility.yul\":4104:4105   */\n      dup3\n        /* \"#utility.yul\":4101:4102   */\n      dup3\n        /* \"#utility.yul\":4097:4106   */\n      mod\n        /* \"#utility.yul\":4092:4106   */\n      swap1\n      pop\n        /* \"#utility.yul\":3936:4112   */\n      swap3\n      swap2\n      pop\n      pop\n      jump\t// out\n        /* \"#utility.yul\":4118:4289   */\n    tag_65:\n        /* \"#utility.yul\":4157:4160   */\n      0x00\n        /* \"#utility.yul\":4180:4204   */\n      tag_139\n        /* \"#utility.yul\":4198:4203   */\n      dup3\n        /* \"#utility.yul\":4180:4204   */\n      tag_79\n      jump\t// in\n    tag_139:\n        /* \"#utility.yul\":4171:4204   */\n      swap2\n      pop\n        /* \"#utility.yul\":4226:4230   */\n      0x00\n        /* \"#utility.yul\":4219:4224   */\n      dup3\n        /* \"#utility.yul\":4216:4231   */\n      sub\n        /* \"#utility.yul\":4213:4254   */\n      tag_140\n      jumpi\n        /* \"#utility.yul\":4234:4252   */\n      tag_141\n      tag_85\n      jump\t// in\n    tag_141:\n        /* \"#utility.yul\":4213:4254   */\n    tag_140:\n        /* \"#utility.yul\":4281:4282   */\n      0x01\n        /* \"#utility.yul\":4274:4279   */\n      dup3\n        /* \"#utility.yul\":4270:4283   */\n      sub\n        /* \"#utility.yul\":4263:4283   */\n      swap1\n      pop\n        /* \"#utility.yul\":4118:4289   */\n      swap2\n      swap1\n      pop\n      jump\t// out\n\n    auxdata: 0xa26469706673582212209959ef364a4d4f6e764afca76a4738963a5cdc73ddc11f5bb65c5f3529cbd96d64736f6c634300081a0033\n}\n",
				"bytecode": {
					"linkReferences": {},
					"object": "6080604052348015600e575f80fd5b506105a58061001c5f395ff3fe608060405234801561000f575f80fd5b5060043610610060575f3560e01c80633148f14f1461006457806342703494146100945780636f9fb98a146100c457806383714834146100e2578063b9650dac14610112578063c04f01fc14610142575b5f80fd5b61007e60048036038101906100799190610322565b610172565b60405161008b9190610381565b60405180910390f35b6100ae60048036038101906100a9919061039a565b6101bd565b6040516100bb91906103df565b60405180910390f35b6100cc61023a565b6040516100d99190610381565b60405180910390f35b6100fc60048036038101906100f7919061039a565b610241565b6040516101099190610381565b60405180910390f35b61012c600480360381019061012791906103f8565b61027f565b6040516101399190610381565b60405180910390f35b61015c600480360381019061015791906103f8565b6102ac565b6040516101699190610381565b60405180910390f35b5f80600190505f600190505b8481116101a65785826101919190610463565b9150808061019e906104a4565b91505061017e565b5082816101b39190610518565b9150509392505050565b5f808214806101cc5750600182145b156101d9575f9050610235565b5f80600290505b83811161022e575f81856101f49190610518565b03610208578180610204906104a4565b9250505b600182111561021b575f92505050610235565b8080610226906104a4565b9150506101e0565b5060019150505b919050565b5f47905090565b5f80600190505f8390505b600181106102755780826102609190610463565b9150808061026d90610548565b91505061024c565b5080915050919050565b5f5b5f82146102a3575f82905082846102989190610518565b925080935050610281565b82905092915050565b5f80600190505f600190505b8381116102e05784826102cb9190610463565b915080806102d8906104a4565b9150506102b8565b508091505092915050565b5f80fd5b5f819050919050565b610301816102ef565b811461030b575f80fd5b50565b5f8135905061031c816102f8565b92915050565b5f805f60608486031215610339576103386102eb565b5b5f6103468682870161030e565b93505060206103578682870161030e565b92505060406103688682870161030e565b9150509250925092565b61037b816102ef565b82525050565b5f6020820190506103945f830184610372565b92915050565b5f602082840312156103af576103ae6102eb565b5b5f6103bc8482850161030e565b91505092915050565b5f8115159050919050565b6103d9816103c5565b82525050565b5f6020820190506103f25f8301846103d0565b92915050565b5f806040838503121561040e5761040d6102eb565b5b5f61041b8582860161030e565b925050602061042c8582860161030e565b9150509250929050565b7f4e487b71000000000000000000000000000000000000000000000000000000005f52601160045260245ffd5b5f61046d826102ef565b9150610478836102ef565b9250828202610486816102ef565b9150828204841483151761049d5761049c610436565b5b5092915050565b5f6104ae826102ef565b91507fffffffffffffffffffffffffffffffffffffffffffffffffffffffffffffffff82036104e0576104df610436565b5b600182019050919050565b7f4e487b71000000000000000000000000000000000000000000000000000000005f52601260045260245ffd5b5f610522826102ef565b915061052d836102ef565b92508261053d5761053c6104eb565b5b828206905092915050565b5f610552826102ef565b91505f820361056457610563610436565b5b60018203905091905056fea26469706673582212209959ef364a4d4f6e764afca76a4738963a5cdc73ddc11f5bb65c5f3529cbd96d64736f6c634300081a0033",
					"opcodes": "PUSH1 0x80 PUSH1 0x40 MSTORE CALLVALUE DUP1 ISZERO PUSH1 0xE JUMPI PUSH0 DUP1 REVERT JUMPDEST POP PUSH2 0x5A5 DUP1 PUSH2 0x1C PUSH0 CODECOPY PUSH0 RETURN INVALID PUSH1 0x80 PUSH1 0x40 MSTORE CALLVALUE DUP1 ISZERO PUSH2 0xF JUMPI PUSH0 DUP1 REVERT JUMPDEST POP PUSH1 0x4 CALLDATASIZE LT PUSH2 0x60 JUMPI PUSH0 CALLDATALOAD PUSH1 0xE0 SHR DUP1 PUSH4 0x3148F14F EQ PUSH2 0x64 JUMPI DUP1 PUSH4 0x42703494 EQ PUSH2 0x94 JUMPI DUP1 PUSH4 0x6F9FB98A EQ PUSH2 0xC4 JUMPI DUP1 PUSH4 0x83714834 EQ PUSH2 0xE2 JUMPI DUP1 PUSH4 0xB9650DAC EQ PUSH2 0x112 JUMPI DUP1 PUSH4 0xC04F01FC EQ PUSH2 0x142 JUMPI JUMPDEST PUSH0 DUP1 REVERT JUMPDEST PUSH2 0x7E PUSH1 0x4 DUP1 CALLDATASIZE SUB DUP2 ADD SWAP1 PUSH2 0x79 SWAP2 SWAP1 PUSH2 0x322 JUMP JUMPDEST PUSH2 0x172 JUMP JUMPDEST PUSH1 0x40 MLOAD PUSH2 0x8B SWAP2 SWAP1 PUSH2 0x381 JUMP JUMPDEST PUSH1 0x40 MLOAD DUP1 SWAP2 SUB SWAP1 RETURN JUMPDEST PUSH2 0xAE PUSH1 0x4 DUP1 CALLDATASIZE SUB DUP2 ADD SWAP1 PUSH2 0xA9 SWAP2 SWAP1 PUSH2 0x39A JUMP JUMPDEST PUSH2 0x1BD JUMP JUMPDEST PUSH1 0x40 MLOAD PUSH2 0xBB SWAP2 SWAP1 PUSH2 0x3DF JUMP JUMPDEST PUSH1 0x40 MLOAD DUP1 SWAP2 SUB SWAP1 RETURN JUMPDEST PUSH2 0xCC PUSH2 0x23A JUMP JUMPDEST PUSH1 0x40 MLOAD PUSH2 0xD9 SWAP2 SWAP1 PUSH2 0x381 JUMP JUMPDEST PUSH1 0x40 MLOAD DUP1 SWAP2 SUB SWAP1 RETURN JUMPDEST PUSH2 0xFC PUSH1 0x4 DUP1 CALLDATASIZE SUB DUP2 ADD SWAP1 PUSH2 0xF7 SWAP2 SWAP1 PUSH2 0x39A JUMP JUMPDEST PUSH2 0x241 JUMP JUMPDEST PUSH1 0x40 MLOAD PUSH2 0x109 SWAP2 SWAP1 PUSH2 0x381 JUMP JUMPDEST PUSH1 0x40 MLOAD DUP1 SWAP2 SUB SWAP1 RETURN JUMPDEST PUSH2 0x12C PUSH1 0x4 DUP1 CALLDATASIZE SUB DUP2 ADD SWAP1 PUSH2 0x127 SWAP2 SWAP1 PUSH2 0x3F8 JUMP JUMPDEST PUSH2 0x27F JUMP JUMPDEST PUSH1 0x40 MLOAD PUSH2 0x139 SWAP2 SWAP1 PUSH2 0x381 JUMP JUMPDEST PUSH1 0x40 MLOAD DUP1 SWAP2 SUB SWAP1 RETURN JUMPDEST PUSH2 0x15C PUSH1 0x4 DUP1 CALLDATASIZE SUB DUP2 ADD SWAP1 PUSH2 0x157 SWAP2 SWAP1 PUSH2 0x3F8 JUMP JUMPDEST PUSH2 0x2AC JUMP JUMPDEST PUSH1 0x40 MLOAD PUSH2 0x169 SWAP2 SWAP1 PUSH2 0x381 JUMP JUMPDEST PUSH1 0x40 MLOAD DUP1 SWAP2 SUB SWAP1 RETURN JUMPDEST PUSH0 DUP1 PUSH1 0x1 SWAP1 POP PUSH0 PUSH1 0x1 SWAP1 POP JUMPDEST DUP5 DUP2 GT PUSH2 0x1A6 JUMPI DUP6 DUP3 PUSH2 0x191 SWAP2 SWAP1 PUSH2 0x463 JUMP JUMPDEST SWAP2 POP DUP1 DUP1 PUSH2 0x19E SWAP1 PUSH2 0x4A4 JUMP JUMPDEST SWAP2 POP POP PUSH2 0x17E JUMP JUMPDEST POP DUP3 DUP2 PUSH2 0x1B3 SWAP2 SWAP1 PUSH2 0x518 JUMP JUMPDEST SWAP2 POP POP SWAP4 SWAP3 POP POP POP JUMP JUMPDEST PUSH0 DUP1 DUP3 EQ DUP1 PUSH2 0x1CC JUMPI POP PUSH1 0x1 DUP3 EQ JUMPDEST ISZERO PUSH2 0x1D9 JUMPI PUSH0 SWAP1 POP PUSH2 0x235 JUMP JUMPDEST PUSH0 DUP1 PUSH1 0x2 SWAP1 POP JUMPDEST DUP4 DUP2 GT PUSH2 0x22E JUMPI PUSH0 DUP2 DUP6 PUSH2 0x1F4 SWAP2 SWAP1 PUSH2 0x518 JUMP JUMPDEST SUB PUSH2 0x208 JUMPI DUP2 DUP1 PUSH2 0x204 SWAP1 PUSH2 0x4A4 JUMP JUMPDEST SWAP3 POP POP JUMPDEST PUSH1 0x1 DUP3 GT ISZERO PUSH2 0x21B JUMPI PUSH0 SWAP3 POP POP POP PUSH2 0x235 JUMP JUMPDEST DUP1 DUP1 PUSH2 0x226 SWAP1 PUSH2 0x4A4 JUMP JUMPDEST SWAP2 POP POP PUSH2 0x1E0 JUMP JUMPDEST POP PUSH1 0x1 SWAP2 POP POP JUMPDEST SWAP2 SWAP1 POP JUMP JUMPDEST PUSH0 SELFBALANCE SWAP1 POP SWAP1 JUMP JUMPDEST PUSH0 DUP1 PUSH1 0x1 SWAP1 POP PUSH0 DUP4 SWAP1 POP JUMPDEST PUSH1 0x1 DUP2 LT PUSH2 0x275 JUMPI DUP1 DUP3 PUSH2 0x260 SWAP2 SWAP1 PUSH2 0x463 JUMP JUMPDEST SWAP2 POP DUP1 DUP1 PUSH2 0x26D SWAP1 PUSH2 0x548 JUMP JUMPDEST SWAP2 POP POP PUSH2 0x24C JUMP JUMPDEST POP DUP1 SWAP2 POP POP SWAP2 SWAP1 POP JUMP JUMPDEST PUSH0 JUMPDEST PUSH0 DUP3 EQ PUSH2 0x2A3 JUMPI PUSH0 DUP3 SWAP1 POP DUP3 DUP5 PUSH2 0x298 SWAP2 SWAP1 PUSH2 0x518 JUMP JUMPDEST SWAP3 POP DUP1 SWAP4 POP POP PUSH2 0x281 JUMP JUMPDEST DUP3 SWAP1 POP SWAP3 SWAP2 POP POP JUMP JUMPDEST PUSH0 DUP1 PUSH1 0x1 SWAP1 POP PUSH0 PUSH1 0x1 SWAP1 POP JUMPDEST DUP4 DUP2 GT PUSH2 0x2E0 JUMPI DUP5 DUP3 PUSH2 0x2CB SWAP2 SWAP1 PUSH2 0x463 JUMP JUMPDEST SWAP2 POP DUP1 DUP1 PUSH2 0x2D8 SWAP1 PUSH2 0x4A4 JUMP JUMPDEST SWAP2 POP POP PUSH2 0x2B8 JUMP JUMPDEST POP DUP1 SWAP2 POP POP SWAP3 SWAP2 POP POP JUMP JUMPDEST PUSH0 DUP1 REVERT JUMPDEST PUSH0 DUP2 SWAP1 POP SWAP2 SWAP1 POP JUMP JUMPDEST PUSH2 0x301 DUP2 PUSH2 0x2EF JUMP JUMPDEST DUP2 EQ PUSH2 0x30B JUMPI PUSH0 DUP1 REVERT JUMPDEST POP JUMP JUMPDEST PUSH0 DUP2 CALLDATALOAD SWAP1 POP PUSH2 0x31C DUP2 PUSH2 0x2F8 JUMP JUMPDEST SWAP3 SWAP2 POP POP JUMP JUMPDEST PUSH0 DUP1 PUSH0 PUSH1 0x60 DUP5 DUP7 SUB SLT ISZERO PUSH2 0x339 JUMPI PUSH2 0x338 PUSH2 0x2EB JUMP JUMPDEST JUMPDEST PUSH0 PUSH2 0x346 DUP7 DUP3 DUP8 ADD PUSH2 0x30E JUMP JUMPDEST SWAP4 POP POP PUSH1 0x20 PUSH2 0x357 DUP7 DUP3 DUP8 ADD PUSH2 0x30E JUMP JUMPDEST SWAP3 POP POP PUSH1 0x40 PUSH2 0x368 DUP7 DUP3 DUP8 ADD PUSH2 0x30E JUMP JUMPDEST SWAP2 POP POP SWAP3 POP SWAP3 POP SWAP3 JUMP JUMPDEST PUSH2 0x37B DUP2 PUSH2 0x2EF JUMP JUMPDEST DUP3 MSTORE POP POP JUMP JUMPDEST PUSH0 PUSH1 0x20 DUP3 ADD SWAP1 POP PUSH2 0x394 PUSH0 DUP4 ADD DUP5 PUSH2 0x372 JUMP JUMPDEST SWAP3 SWAP2 POP POP JUMP JUMPDEST PUSH0 PUSH1 0x20 DUP3 DUP5 SUB SLT ISZERO PUSH2 0x3AF JUMPI PUSH2 0x3AE PUSH2 0x2EB JUMP JUMPDEST JUMPDEST PUSH0 PUSH2 0x3BC DUP5 DUP3 DUP6 ADD PUSH2 0x30E JUMP JUMPDEST SWAP2 POP POP SWAP3 SWAP2 POP POP JUMP JUMPDEST PUSH0 DUP2 ISZERO ISZERO SWAP1 POP SWAP2 SWAP1 POP JUMP JUMPDEST PUSH2 0x3D9 DUP2 PUSH2 0x3C5 JUMP JUMPDEST DUP3 MSTORE POP POP JUMP JUMPDEST PUSH0 PUSH1 0x20 DUP3 ADD SWAP1 POP PUSH2 0x3F2 PUSH0 DUP4 ADD DUP5 PUSH2 0x3D0 JUMP JUMPDEST SWAP3 SWAP2 POP POP JUMP JUMPDEST PUSH0 DUP1 PUSH1 0x40 DUP4 DUP6 SUB SLT ISZERO PUSH2 0x40E JUMPI PUSH2 0x40D PUSH2 0x2EB JUMP JUMPDEST JUMPDEST PUSH0 PUSH2 0x41B DUP6 DUP3 DUP7 ADD PUSH2 0x30E JUMP JUMPDEST SWAP3 POP POP PUSH1 0x20 PUSH2 0x42C DUP6 DUP3 DUP7 ADD PUSH2 0x30E JUMP JUMPDEST SWAP2 POP POP SWAP3 POP SWAP3 SWAP1 POP JUMP JUMPDEST PUSH32 0x4E487B7100000000000000000000000000000000000000000000000000000000 PUSH0 MSTORE PUSH1 0x11 PUSH1 0x4 MSTORE PUSH1 0x24 PUSH0 REVERT JUMPDEST PUSH0 PUSH2 0x46D DUP3 PUSH2 0x2EF JUMP JUMPDEST SWAP2 POP PUSH2 0x478 DUP4 PUSH2 0x2EF JUMP JUMPDEST SWAP3 POP DUP3 DUP3 MUL PUSH2 0x486 DUP2 PUSH2 0x2EF JUMP JUMPDEST SWAP2 POP DUP3 DUP3 DIV DUP5 EQ DUP4 ISZERO OR PUSH2 0x49D JUMPI PUSH2 0x49C PUSH2 0x436 JUMP JUMPDEST JUMPDEST POP SWAP3 SWAP2 POP POP JUMP JUMPDEST PUSH0 PUSH2 0x4AE DUP3 PUSH2 0x2EF JUMP JUMPDEST SWAP2 POP PUSH32 0xFFFFFFFFFFFFFFFFFFFFFFFFFFFFFFFFFFFFFFFFFFFFFFFFFFFFFFFFFFFFFFFF DUP3 SUB PUSH2 0x4E0 JUMPI PUSH2 0x4DF PUSH2 0x436 JUMP JUMPDEST JUMPDEST PUSH1 0x1 DUP3 ADD SWAP1 POP SWAP2 SWAP1 POP JUMP JUMPDEST PUSH32 0x4E487B7100000000000000000000000000000000000000000000000000000000 PUSH0 MSTORE PUSH1 0x12 PUSH1 0x4 MSTORE PUSH1 0x24 PUSH0 REVERT JUMPDEST PUSH0 PUSH2 0x522 DUP3 PUSH2 0x2EF JUMP JUMPDEST SWAP2 POP PUSH2 0x52D DUP4 PUSH2 0x2EF JUMP JUMPDEST SWAP3 POP DUP3 PUSH2 0x53D JUMPI PUSH2 0x53C PUSH2 0x4EB JUMP JUMPDEST JUMPDEST DUP3 DUP3 MOD SWAP1 POP SWAP3 SWAP2 POP POP JUMP JUMPDEST PUSH0 PUSH2 0x552 DUP3 PUSH2 0x2EF JUMP JUMPDEST SWAP2 POP PUSH0 DUP3 SUB PUSH2 0x564 JUMPI PUSH2 0x563 PUSH2 0x436 JUMP JUMPDEST JUMPDEST PUSH1 0x1 DUP3 SUB SWAP1 POP SWAP2 SWAP1 POP JUMP INVALID LOG2 PUSH5 0x6970667358 0x22 SLT KECCAK256 SWAP10 MSIZE 0xEF CALLDATASIZE BLOBBASEFEE 0x4D 0x4F PUSH15 0x764AFCA76A4738963A5CDC73DDC11F JUMPDEST 0xB6 TLOAD PUSH0 CALLDATALOAD 0x29 0xCB 0xD9 PUSH14 0x64736F6C634300081A0033000000 "
				},
				"gasEstimates": {
					"creation": {
						"codeDepositCost": "289000",
						"executionCost": "329",
						"totalCost": "289329"
					},
					"external": {
						"factorial(uint256)": "infinite",
						"gcd(uint256,uint256)": "infinite",
						"getContractBalance()": "356",
						"isPrime(uint256)": "infinite",
						"modExp(uint256,uint256,uint256)": "infinite",
						"power(uint256,uint256)": "infinite"
					}
				},
				"methodIdentifiers": {
					"factorial(uint256)": "83714834",
					"gcd(uint256,uint256)": "b9650dac",
					"getContractBalance()": "6f9fb98a",
					"isPrime(uint256)": "42703494",
					"modExp(uint256,uint256,uint256)": "3148f14f",
					"power(uint256,uint256)": "c04f01fc"
				}
			},
			"storageLayout": {
				"storage": [],
				"types": null
			},
			"userdoc": {
				"kind": "user",
				"methods": {},
				"version": 1
			}
		}
	}
}