{
	"data": {
		"bytecode": {
			"linkReferences": {},
			"object": "6080604052348015600e575f80fd5b506105a58061001c5f395ff3fe608060405234801561000f575f80fd5b5060043610610060575f3560e01c80633148f14f1461006457806342703494146100945780636f9fb98a146100c457806383714834146100e2578063b9650dac14610112578063c04f01fc14610142575b5f80fd5b61007e60048036038101906100799190610322565b610172565b60405161008b9190610381565b60405180910390f35b6100ae60048036038101906100a9919061039a565b6101bd565b6040516100bb91906103df565b60405180910390f35b6100cc61023a565b6040516100d99190610381565b60405180910390f35b6100fc60048036038101906100f7919061039a565b610241565b6040516101099190610381565b60405180910390f35b61012c600480360381019061012791906103f8565b61027f565b6040516101399190610381565b60405180910390f35b61015c600480360381019061015791906103f8565b6102ac565b6040516101699190610381565b60405180910390f35b5f80600190505f600190505b8481116101a65785826101919190610463565b9150808061019e906104a4565b91505061017e565b5082816101b39190610518565b9150509392505050565b5f808214806101cc5750600182145b156101d9575f9050610235565b5f80600290505b83811161022e575f81856101f49190610518565b03610208578180610204906104a4565b9250505b600182111561021b575f92505050610235565b8080610226906104a4565b9150506101e0565b5060019150505b919050565b5f47905090565b5f80600190505f8390505b600181106102755780826102609190610463565b9150808061026d90610548565b91505061024c565b5080915050919050565b5f5b5f82146102a3575f82905082846102989190610518565b925080935050610281565b82905092915050565b5f80600190505f600190505b8381116102e05784826102cb9190610463565b915080806102d8906104a4565b9150506102b8565b508091505092915050565b5f80fd5b5f819050919050565b610301816102ef565b811461030b575f80fd5b50565b5f8135905061031c816102f8565b92915050565b5f805f60608486031215610339576103386102eb565b5b5f6103468682870161030e565b93505060206103578682870161030e565b92505060406103688682870161030e565b9150509250925092565b61037b816102ef565b82525050565b5f6020820190506103945f830184610372565b92915050565b5f602082840312156103af576103ae6102eb565b5b5f6103bc8482850161030e565b91505092915050565b5f8115159050919050565b6103d9816103c5565b82525050565b5f6020820190506103f25f8301846103d0565b92915050565b5f806040838503121561040e5761040d6102eb565b5b5f61041b8582860161030e565b925050602061042c8582860161030e565b9150509250929050565b7f4e487b71000000000000000000000000000000000000000000000000000000005f52601160045260245ffd5b5f61046d826102ef565b9150610478836102ef565b9250828202610486816102ef565b9150828204841483151761049d5761049c610436565b5b5092915050565b5f6104ae826102ef565b91507fffffffffffffffffffffffffffffffffffffffffffffffffffffffffffffffff82036104e0576104df610436565b5b600182019050919050565b7f4e487b71000000000000000000000000000000000000000000000000000000005f52601260045260245ffd5b5f610522826102ef565b915061052d836102ef565b92508261053d5761053c6104eb565b5b828206905092915050565b5f610552826102ef565b91505f820361056457610563610436565b5b60018203905091905056fea26469706673582212209959ef364a4d4f6e764afca76a4738963a5cdc73ddc11f5bb65c5f3529cbd96d64736f6c634300081a0033",
			"opcodes": "PUSH1 0x80 PUSH1 0x40 MSTORE CALLVALUE DUP1 ISZERO PUSH1 0xE JUMPI PUSH0 DUP1 REVERT JUMPDEST POP PUSH2 0x5A5 DUP1 PUSH2 0x1C PUSH0 CODECOPY PUSH0 RETURN INVALID PUSH1 0x80 PUSH1 0x40 MSTORE CALLVALUE DUP1 ISZERO PUSH2 0xF JUMPI PUSH0 DUP1 REVERT JUMPDEST POP PUSH1 0x4 CALLDATASIZE LT PUSH2 0x60 JUMPI PUSH0 CALLDATALOAD PUSH1 0xE0 SHR DUP1 PUSH4 0x3148F14F EQ PUSH2 0x64 JUMPI DUP1 PUSH4 0x42703494 EQ PUSH2 0x94 JUMPI DUP1 PUSH4 0x6F9FB98A EQ PUSH2 0xC4 JUMPI DUP1 PUSH4 0x83714834 EQ PUSH2 0xE2 JUMPI DUP1 PUSH4 0xB9650DAC EQ PUSH2 0x112 JUMPI DUP1 PUSH4 0xC04F01FC EQ PUSH2 0x142 JUMPI JUMPDEST PUSH0 DUP1 REVERT JUMPDEST PUSH2 0x7E PUSH1 0x4 DUP1 CALLDATASIZE SUB DUP2 ADD SWAP1 PUSH2 0x79 SWAP2 SWAP1 PUSH2 0x322 JUMP JUMPDEST PUSH2 0x172 JUMP JUMPDEST PUSH1 0x40 MLOAD PUSH2 0x8B SWAP2 SWAP1 PUSH2 0x381 JUMP JUMPDEST PUSH1 0x40 MLOAD DUP1 SWAP2 SUB SWAP1 RETURN JUMPDEST PUSH2 0xAE PUSH1 0x4 DUP1 CALLDATASIZE SUB DUP2 ADD SWAP1 PUSH2 0xA9 SWAP2 SWAP1 PUSH2 0x39A JUMP JUMPDEST PUSH2 0x1BD JUMP JUMPDEST PUSH1 0x40 MLOAD PUSH2 0xBB SWAP2 SWAP1 PUSH2 0x3DF JUMP JUMPDEST PUSH1 0x40 MLOAD DUP1 SWAP2 SUB SWAP1 RETURN JUMPDEST PUSH2 0xCC PUSH2 0x23A JUMP JUMPDEST PUSH1 0x40 MLOAD PUSH2 0xD9 SWAP2 SWAP1 PUSH2 0x381 JUMP JUMPDEST PUSH1 0x40 MLOAD DUP1 SWAP2 SUB SWAP1 RETURN JUMPDEST PUSH2 0xFC PUSH1 0x4 DUP1 CALLDATASIZE SUB DUP2 ADD SWAP1 PUSH2 0xF7 SWAP2 SWAP1 PUSH2 0x39A JUMP JUMPDEST PUSH2 0x241 JUMP JUMPDEST PUSH1 0x40 MLOAD PUSH2 0x109 SWAP2 SWAP1 PUSH2 0x381 JUMP JUMPDEST PUSH1 0x40 MLOAD DUP1 SWAP2 SUB SWAP1 RETURN JUMPDEST PUSH2 0x12C PUSH1 0x4 DUP1 CALLDATASIZE SUB DUP2 ADD SWAP1 PUSH2 0x127 SWAP2 SWAP1 PUSH2 0x3F8 JUMP JUMPDEST PUSH2 0x27F JUMP JUMPDEST PUSH1 0x40 MLOAD PUSH2 0x139 SWAP2 SWAP1 PUSH2 0x381 JUMP JUMPDEST PUSH1 0x40 MLOAD DUP1 SWAP2 SUB SWAP1 RETURN JUMPDEST PUSH2 0x15C PUSH1 0x4 DUP1 CALLDATASIZE SUB DUP2 ADD SWAP1 PUSH2 0x157 SWAP2 SWAP1 PUSH2 0x3F8 JUMP JUMPDEST PUSH2 0x2AC JUMP JUMPDEST PUSH1 0x40 MLOAD PUSH2 0x169 SWAP2 SWAP1 PUSH2 0x381 JUMP JUMPDEST PUSH1 0x40 MLOAD DUP1 SWAP2 SUB SWAP1 RETURN JUMPDEST PUSH0 DUP1 PUSH1 0x1 SWAP1 POP PUSH0 PUSH1 0x1 SWAP1 POP JUMPDEST DUP5 DUP2 GT PUSH2 0x1A6 JUMPI DUP6 DUP3 PUSH2 0x191 SWAP2 SWAP1 PUSH2 0x463 JUMP JUMPDEST SWAP2 POP DUP1 DUP1 PUSH2 0x19E SWAP1 PUSH2 0x4A4 JUMP JUMPDEST SWAP2 POP POP PUSH2 0x17E JUMP JUMPDEST POP DUP3 DUP2 PUSH2 0x1B3 SWAP2 SWAP1 PUSH2 0x518 JUMP JUMPDEST SWAP2 POP POP SWAP4 SWAP3 POP POP POP JUMP JUMPDEST PUSH0 DUP1 DUP3 EQ DUP1 PUSH2 0x1CC JUMPI POP PUSH1 0x1 DUP3 EQ JUMPDEST ISZERO PUSH2 0x1D9 JUMPI PUSH0 SWAP1 POP PUSH2 0x235 JUMP JUMPDEST PUSH0 DUP1 PUSH1 0x2 SWAP1 POP JUMPDEST DUP4 DUP2 GT PUSH2 0x22E JUMPI PUSH0 DUP2 DUP6 PUSH2 0x1F4 SWAP2 SWAP1 PUSH2 0x518 JUMP JUMPDEST SUB PUSH2 0x208 JUMPI DUP2 DUP1 PUSH2 0x204 SWAP1 PUSH2 0x4A4 JUMP JUMPDEST SWAP3 POP POP JUMPDEST PUSH1 0x1 DUP3 GT ISZERO PUSH2 0x21B JUMPI PUSH0 SWAP3 POP POP POP PUSH2 0x235 JUMP JUMPDEST DUP1 DUP1 PUSH2 0x226 SWAP1 PUSH2 0x4A4 JUMP JUMPDEST SWAP2 POP POP PUSH2 0x1E0 JUMP JUMPDEST POP PUSH1 0x1 SWAP2 POP POP JUMPDEST SWAP2 SWAP1 POP JUMP JUMPDEST PUSH0 SELFBALANCE SWAP1 POP SWAP1 JUMP JUMPDEST PUSH0 DUP1 PUSH1 0x1 SWAP1 POP PUSH0 DUP4 SWAP1 POP JUMPDEST PUSH1 0x1 DUP2 LT PUSH2 0x275 JUMPI DUP1 DUP3 PUSH2 0x260 SWAP2 SWAP1 PUSH2 0x463 JUMP JUMPDEST SWAP2 POP DUP1 DUP1 PUSH2 0x26D SWAP1 PUSH2 0x548 JUMP JUMPDEST SWAP2 POP POP PUSH2 0x24C JUMP JUMPDEST POP DUP1 SWAP2 POP POP SWAP2 SWAP1 POP JUMP JUMPDEST PUSH0 JUMPDEST PUSH0 DUP3 EQ PUSH2 0x2A3 JUMPI PUSH0 DUP3 SWAP1 POP DUP3 DUP5 PUSH2 0x298 SWAP2 SWAP1 PUSH2 0x518 JUMP JUMPDEST SWAP3 POP DUP1 SWAP4 POP POP PUSH2 0x281 JUMP JUMPDEST DUP3 SWAP1 POP SWAP3 SWAP2 POP POP JUMP JUMPDEST PUSH0 DUP1 PUSH1 0x1 SWAP1 POP PUSH0 PUSH1 0x1 SWAP1 POP JUMPDEST DUP4 DUP2 GT PUSH2 0x2E0 JUMPI DUP5 DUP3 PUSH2 0x2CB SWAP2 SWAP1 PUSH2 0x463 JUMP JUMPDEST SWAP2 POP DUP1 DUP1 PUSH2 0x2D8 SWAP1 PUSH2 0x4A4 JUMP JUMPDEST SWAP2 POP POP PUSH2 0x2B8 JUMP JUMPDEST POP DUP1 SWAP2 POP POP SWAP3 SWAP2 POP POP JUMP JUMPDEST PUSH0 DUP1 REVERT JUMPDEST PUSH0 DUP2 SWAP1 POP SWAP2 SWAP1 POP JUMP JUMPDEST PUSH2 0x301 DUP2 PUSH2 0x2EF JUMP JUMPDEST DUP2 EQ PUSH2 0x30B JUMPI PUSH0 DUP1 REVERT JUMPDEST POP JUMP JUMPDEST PUSH0 DUP2 CALLDATALOAD SWAP1 POP PUSH2 0x31C DUP2 PUSH2 0x2F8 JUMP JUMPDEST SWAP3 SWAP2 POP POP JUMP JUMPDEST PUSH0 DUP1 PUSH0 PUSH1 0x60 DUP5 DUP7 SUB SLT ISZERO PUSH2 0x339 JUMPI PUSH2 0x338 PUSH2 0x2EB JUMP JUMPDEST JUMPDEST PUSH0 PUSH2 0x346 DUP7 DUP3 DUP8 ADD PUSH2 0x30E JUMP JUMPDEST SWAP4 POP POP PUSH1 0x20 PUSH2 0x357 DUP7 DUP3 DUP8 ADD PUSH2 0x30E JUMP JUMPDEST SWAP3 POP POP PUSH1 0x40 PUSH2 0x368 DUP7 DUP3 DUP8 ADD PUSH2 0x30E JUMP JUMPDEST SWAP2 POP POP SWAP3 POP SWAP3 POP SWAP3 JUMP JUMPDEST PUSH2 0x37B DUP2 PUSH2 0x2EF JUMP JUMPDEST DUP3 MSTORE POP POP JUMP JUMPDEST PUSH0 PUSH1 0x20 DUP3 ADD SWAP1 POP PUSH2 0x394 PUSH0 DUP4 ADD DUP5 PUSH2 0x372 JUMP JUMPDEST SWAP3 SWAP2 POP POP JUMP JUMPDEST PUSH0 PUSH1 0x20 DUP3 DUP5 SUB SLT ISZERO PUSH2 0x3AF JUMPI PUSH2 0x3AE PUSH2 0x2EB JUMP JUMPDEST JUMPDEST PUSH0 PUSH2 0x3BC DUP5 DUP3 DUP6 ADD PUSH2 0x30E JUMP JUMPDEST SWAP2 POP POP SWAP3 SWAP2 POP POP JUMP JUMPDEST PUSH0 DUP2 ISZERO ISZERO SWAP1 POP SWAP2 SWAP1 POP JUMP JUMPDEST PUSH2 0x3D9 DUP2 PUSH2 0x3C5 JUMP JUMPDEST DUP3 MSTORE POP POP JUMP JUMPDEST PUSH0 PUSH1 0x20 DUP3 ADD SWAP1 POP PUSH2 0x3F2 PUSH0 DUP4 ADD DUP5 PUSH2 0x3D0 JUMP JUMPDEST SWAP3 SWAP2 POP POP JUMP JUMPDEST PUSH0 DUP1 PUSH1 0x40 DUP4 DUP6 SUB SLT ISZERO PUSH2 0x40E JUMPI PUSH2 0x40D PUSH2 0x2EB JUMP JUMPDEST JUMPDEST PUSH0 PUSH2 0x41B DUP6 DUP3 DUP7 ADD PUSH2 0x30E JUMP JUMPDEST SWAP3 POP POP PUSH1 0x20 PUSH2 0x42C DUP6 DUP3 DUP7 ADD PUSH2 0x30E JUMP JUMPDEST SWAP2 POP POP SWAP3 POP SWAP3 SWAP1 POP JUMP JUMPDEST PUSH32 0x4E487B7100000000000000000000000000000000000000000000000000000000 PUSH0 MSTORE PUSH1 0x11 PUSH1 0x4 MSTORE PUSH1 0x24 PUSH0 REVERT JUMPDEST PUSH0 PUSH2 0x46D DUP3 PUSH2 0x2EF JUMP JUMPDEST SWAP2 POP PUSH2 0x478 DUP4 PUSH2 0x2EF JUMP JUMPDEST SWAP3 POP DUP3 DUP3 MUL PUSH2 0x486 DUP2 PUSH2 0x2EF JUMP JUMPDEST SWAP2 POP DUP3 DUP3 DIV DUP5 EQ DUP4 ISZERO OR PUSH2 0x49D JUMPI PUSH2 0x49C PUSH2 0x436 JUMP JUMPDEST JUMPDEST POP SWAP3 SWAP2 POP POP JUMP JUMPDEST PUSH0 PUSH2 0x4AE DUP3 PUSH2 0x2EF JUMP JUMPDEST SWAP2 POP PUSH32 0xFFFFFFFFFFFFFFFFFFFFFFFFFFFFFFFFFFFFFFFFFFFFFFFFFFFFFFFFFFFFFFFF DUP3 SUB PUSH2 0x4E0 JUMPI PUSH2 0x4DF PUSH2 0x436 JUMP JUMPDEST JUMPDEST PUSH1 0x1 DUP3 ADD SWAP1 POP SWAP2 SWAP1 POP JUMP JUMPDEST PUSH32 0x4E487B7100000000000000000000000000000000000000000000000000000000 PUSH0 MSTORE PUSH1 0x12 PUSH1 0x4 MSTORE PUSH1 0x24 PUSH0 REVERT JUMPDEST PUSH0 PUSH2 0x522 DUP3 PUSH2 0x2EF JUMP JUMPDEST SWAP2 POP PUSH2 0x52D DUP4 PUSH2 0x2EF JUMP JUMPDEST SWAP3 POP DUP3 PUSH2 0x53D JUMPI PUSH2 0x53C PUSH2 0x4EB JUMP JUMPDEST JUMPDEST DUP3 DUP3 MOD SWAP1 POP SWAP3 SWAP2 POP POP JUMP JUMPDEST PUSH0 PUSH2 0x552 DUP3 PUSH2 0x2EF JUMP JUMPDEST SWAP2 POP PUSH0 DUP3 SUB PUSH2 0x564 JUMPI PUSH2 0x563 PUSH2 0x436 JUMP JUMPDEST JUMPDEST PUSH1 0x1 DUP3 SUB SWAP1 POP SWAP2 SWAP1 POP JUMP INVALID LOG2 PUSH5 0x6970667358 0x22 SLT KECCAK256 SWAP10 MSIZE 0xEF CALLDATASIZE BLOBBASEFEE 0x4D 0x4F PUSH15 0x764AFCA76A4738963A5CDC73DDC11F JUMPDEST 0xB6 TLOAD PUSH0 CALLDATALOAD 0x29 0xCB 0xD9 PUSH14 0x64736F6C634300081A0033000000 "
		},
		"gasEstimates": {
			"creation": {
				"codeDepositCost": "289000",
				"executionCost": "329",
				"totalCost": "289329"
			},
			"external": {
				"factorial(uint256)": "infinite",
				"gcd(uint256,uint256)": "infinite",
				"getContractBalance()": "356",
				"isPrime(uint256)": "infinite",
				"modExp(uint256,uint256,uint256)": "infinite",
				"power(uint256,uint256)": "infinite"
			}
		},
		"methodIdentifiers": {
			"factorial(uint256)": "83714834",
			"gcd(uint256,uint256)": "b9650dac",
			"getContractBalance()": "6f9fb98a",
			"isPrime(uint256)": "42703494",
			"modExp(uint256,uint256,uint256)": "3148f14f",
			"power(uint256,uint256)": "c04f01fc"
		}
	},
	"abi": [
		{
			"inputs": [
				{
					"internalType": "uint256",
					"name": "n",
					"type": "uint256"
				}
			],
			"name": "factorial",
			"outputs": [
				{
					"internalType": "uint256",
					"name": "",
					"type": "uint256"
				}
			],
			"stateMutability": "pure",
			"type": "function"
		},
		{
			"inputs": [
				{
					"internalType": "uint256",
					"name": "a",
					"type": "uint256"
				},
				{
					"internalType": "uint256",
					"name": "b",
					"type": "uint256"
				}
			],
			"name": "gcd",
			"outputs": [
				{
					"internalType": "uint256",
					"name": "",
					"type": "uint256"
				}
			],
			"stateMutability": "pure",
			"type": "function"
		},
		{
			"inputs": [],
			"name": "getContractBalance",
			"outputs": [
				{
					"internalType": "uint256",
					"name": "",
					"type": "uint256"
				}
			],
			"stateMutability": "view",
			"type": "function"
		},
		{
			"inputs": [
				{
					"internalType": "uint256",
					"name": "num",
					"type": "uint256"
				}
			],
			"name": "isPrime",
			"outputs": [
				{
					"internalType": "bool",
					"name": "",
					"type": "bool"
				}
			],
			"stateMutability": "pure",
			"type": "function"
		},
		{
			"inputs": [
				{
					"internalType": "uint256",
					"name": "base",
					"type": "uint256"
				},
				{
					"internalType": "uint256",
					"name": "exponent",
					"type": "uint256"
				},
				{
					"internalType": "uint256",
					"name": "modulus",
					"type": "uint256"
				}
			],
			"name": "modExp",
			"outputs": [
				{
					"internalType": "uint256",
					"name": "",
					"type": "uint256"
				}
			],
			"stateMutability": "pure",
			"type": "function"
		},
		{
			"inputs": [
				{
					"internalType": "uint256",
					"name": "base",
					"type": "uint256"
				},
				{
					"internalType": "uint256",
					"name": "exponent",
					"type": "uint256"
				}
			],
			"name": "power",
			"outputs": [
				{
					"internalType": "uint256",
					"name": "",
					"type": "uint256"
				}
			],
			"stateMutability": "pure",
			"type": "function"
		}
	]
}