{
	"data": {
		"bytecode": {
			"linkReferences": {},
			"object": "6080604052348015600e575f80fd5b5061050e8061001c5f395ff3fe608060405234801561000f575f80fd5b5060043610610029575f3560e01c8063949f80c51461002d575b5f80fd5b61004760048036038101906100429190610184565b61005e565b6040516100559291906101d1565b60405180910390f35b5f805f838561006d9190610225565b905061007881610084565b92509250509250929050565b5f805f8303610099575f915060019050610148565b5f600890505b60018160026100ae9190610387565b6100b891906103d1565b8411156100d3576008816100cc9190610225565b905061009f565b5f6008826100e19190610431565b90505f600290505f61270f90505b86821461012d575f82886101039190610461565b0361011a578082106101155780610117565b815b90505b818061012590610491565b9250506100ef565b61270f810361013a575f90505b8087901b9550829450505050505b915091565b5f80fd5b5f819050919050565b61016381610151565b811461016d575f80fd5b50565b5f8135905061017e8161015a565b92915050565b5f806040838503121561019a5761019961014d565b5b5f6101a785828601610170565b92505060206101b885828601610170565b9150509250929050565b6101cb81610151565b82525050565b5f6040820190506101e45f8301856101c2565b6101f160208301846101c2565b9392505050565b7f4e487b71000000000000000000000000000000000000000000000000000000005f52601160045260245ffd5b5f61022f82610151565b915061023a83610151565b9250828201905080821115610252576102516101f8565b5b92915050565b5f8160011c9050919050565b5f808291508390505b60018511156102ad57808604811115610289576102886101f8565b5b60018516156102985780820291505b80810290506102a685610258565b945061026d565b94509492505050565b5f826102c55760019050610380565b816102d2575f9050610380565b81600181146102e857600281146102f257610321565b6001915050610380565b60ff841115610304576103036101f8565b5b8360020a91508482111561031b5761031a6101f8565b5b50610380565b5060208310610133831016604e8410600b84101617156103565782820a905083811115610351576103506101f8565b5b610380565b6103638484846001610264565b9250905081840481111561037a576103796101f8565b5b81810290505b9392505050565b5f61039182610151565b915061039c83610151565b92506103c97fffffffffffffffffffffffffffffffffffffffffffffffffffffffffffffffff84846102b6565b905092915050565b5f6103db82610151565b91506103e683610151565b92508282039050818111156103fe576103fd6101f8565b5b92915050565b7f4e487b71000000000000000000000000000000000000000000000000000000005f52601260045260245ffd5b5f61043b82610151565b915061044683610151565b92508261045657610455610404565b5b828204905092915050565b5f61046b82610151565b915061047683610151565b92508261048657610485610404565b5b828206905092915050565b5f61049b82610151565b91507fffffffffffffffffffffffffffffffffffffffffffffffffffffffffffffffff82036104cd576104cc6101f8565b5b60018201905091905056fea26469706673582212204fa537e4618808f83488e5588223f760f8fc8cc6150c1ce54316324314e4435b64736f6c634300081a0033",
			"opcodes": "PUSH1 0x80 PUSH1 0x40 MSTORE CALLVALUE DUP1 ISZERO PUSH1 0xE JUMPI PUSH0 DUP1 REVERT JUMPDEST POP PUSH2 0x50E DUP1 PUSH2 0x1C PUSH0 CODECOPY PUSH0 RETURN INVALID PUSH1 0x80 PUSH1 0x40 MSTORE CALLVALUE DUP1 ISZERO PUSH2 0xF JUMPI PUSH0 DUP1 REVERT JUMPDEST POP PUSH1 0x4 CALLDATASIZE LT PUSH2 0x29 JUMPI PUSH0 CALLDATALOAD PUSH1 0xE0 SHR DUP1 PUSH4 0x949F80C5 EQ PUSH2 0x2D JUMPI JUMPDEST PUSH0 DUP1 REVERT JUMPDEST PUSH2 0x47 PUSH1 0x4 DUP1 CALLDATASIZE SUB DUP2 ADD SWAP1 PUSH2 0x42 SWAP2 SWAP1 PUSH2 0x184 JUMP JUMPDEST PUSH2 0x5E JUMP JUMPDEST PUSH1 0x40 MLOAD PUSH2 0x55 SWAP3 SWAP2 SWAP1 PUSH2 0x1D1 JUMP JUMPDEST PUSH1 0x40 MLOAD DUP1 SWAP2 SUB SWAP1 RETURN JUMPDEST PUSH0 DUP1 PUSH0 DUP4 DUP6 PUSH2 0x6D SWAP2 SWAP1 PUSH2 0x225 JUMP JUMPDEST SWAP1 POP PUSH2 0x78 DUP2 PUSH2 0x84 JUMP JUMPDEST SWAP3 POP SWAP3 POP POP SWAP3 POP SWAP3 SWAP1 POP JUMP JUMPDEST PUSH0 DUP1 PUSH0 DUP4 SUB PUSH2 0x99 JUMPI PUSH0 SWAP2 POP PUSH1 0x1 SWAP1 POP PUSH2 0x148 JUMP JUMPDEST PUSH0 PUSH1 0x8 SWAP1 POP JUMPDEST PUSH1 0x1 DUP2 PUSH1 0x2 PUSH2 0xAE SWAP2 SWAP1 PUSH2 0x387 JUMP JUMPDEST PUSH2 0xB8 SWAP2 SWAP1 PUSH2 0x3D1 JUMP JUMPDEST DUP5 GT ISZERO PUSH2 0xD3 JUMPI PUSH1 0x8 DUP2 PUSH2 0xCC SWAP2 SWAP1 PUSH2 0x225 JUMP JUMPDEST SWAP1 POP PUSH2 0x9F JUMP JUMPDEST PUSH0 PUSH1 0x8 DUP3 PUSH2 0xE1 SWAP2 SWAP1 PUSH2 0x431 JUMP JUMPDEST SWAP1 POP PUSH0 PUSH1 0x2 SWAP1 POP PUSH0 PUSH2 0x270F SWAP1 POP JUMPDEST DUP7 DUP3 EQ PUSH2 0x12D JUMPI PUSH0 DUP3 DUP9 PUSH2 0x103 SWAP2 SWAP1 PUSH2 0x461 JUMP JUMPDEST SUB PUSH2 0x11A JUMPI DUP1 DUP3 LT PUSH2 0x115 JUMPI DUP1 PUSH2 0x117 JUMP JUMPDEST DUP2 JUMPDEST SWAP1 POP JUMPDEST DUP2 DUP1 PUSH2 0x125 SWAP1 PUSH2 0x491 JUMP JUMPDEST SWAP3 POP POP PUSH2 0xEF JUMP JUMPDEST PUSH2 0x270F DUP2 SUB PUSH2 0x13A JUMPI PUSH0 SWAP1 POP JUMPDEST DUP1 DUP8 SWAP1 SHL SWAP6 POP DUP3 SWAP5 POP POP POP POP POP JUMPDEST SWAP2 POP SWAP2 JUMP JUMPDEST PUSH0 DUP1 REVERT JUMPDEST PUSH0 DUP2 SWAP1 POP SWAP2 SWAP1 POP JUMP JUMPDEST PUSH2 0x163 DUP2 PUSH2 0x151 JUMP JUMPDEST DUP2 EQ PUSH2 0x16D JUMPI PUSH0 DUP1 REVERT JUMPDEST POP JUMP JUMPDEST PUSH0 DUP2 CALLDATALOAD SWAP1 POP PUSH2 0x17E DUP2 PUSH2 0x15A JUMP JUMPDEST SWAP3 SWAP2 POP POP JUMP JUMPDEST PUSH0 DUP1 PUSH1 0x40 DUP4 DUP6 SUB SLT ISZERO PUSH2 0x19A JUMPI PUSH2 0x199 PUSH2 0x14D JUMP JUMPDEST JUMPDEST PUSH0 PUSH2 0x1A7 DUP6 DUP3 DUP7 ADD PUSH2 0x170 JUMP JUMPDEST SWAP3 POP POP PUSH1 0x20 PUSH2 0x1B8 DUP6 DUP3 DUP7 ADD PUSH2 0x170 JUMP JUMPDEST SWAP2 POP POP SWAP3 POP SWAP3 SWAP1 POP JUMP JUMPDEST PUSH2 0x1CB DUP2 PUSH2 0x151 JUMP JUMPDEST DUP3 MSTORE POP POP JUMP JUMPDEST PUSH0 PUSH1 0x40 DUP3 ADD SWAP1 POP PUSH2 0x1E4 PUSH0 DUP4 ADD DUP6 PUSH2 0x1C2 JUMP JUMPDEST PUSH2 0x1F1 PUSH1 0x20 DUP4 ADD DUP5 PUSH2 0x1C2 JUMP JUMPDEST SWAP4 SWAP3 POP POP POP JUMP JUMPDEST PUSH32 0x4E487B7100000000000000000000000000000000000000000000000000000000 PUSH0 MSTORE PUSH1 0x11 PUSH1 0x4 MSTORE PUSH1 0x24 PUSH0 REVERT JUMPDEST PUSH0 PUSH2 0x22F DUP3 PUSH2 0x151 JUMP JUMPDEST SWAP2 POP PUSH2 0x23A DUP4 PUSH2 0x151 JUMP JUMPDEST SWAP3 POP DUP3 DUP3 ADD SWAP1 POP DUP1 DUP3 GT ISZERO PUSH2 0x252 JUMPI PUSH2 0x251 PUSH2 0x1F8 JUMP JUMPDEST JUMPDEST SWAP3 SWAP2 POP POP JUMP JUMPDEST PUSH0 DUP2 PUSH1 0x1 SHR SWAP1 POP SWAP2 SWAP1 POP JUMP JUMPDEST PUSH0 DUP1 DUP3 SWAP2 POP DUP4 SWAP1 POP JUMPDEST PUSH1 0x1 DUP6 GT ISZERO PUSH2 0x2AD JUMPI DUP1 DUP7 DIV DUP2 GT ISZERO PUSH2 0x289 JUMPI PUSH2 0x288 PUSH2 0x1F8 JUMP JUMPDEST JUMPDEST PUSH1 0x1 DUP6 AND ISZERO PUSH2 0x298 JUMPI DUP1 DUP3 MUL SWAP2 POP JUMPDEST DUP1 DUP2 MUL SWAP1 POP PUSH2 0x2A6 DUP6 PUSH2 0x258 JUMP JUMPDEST SWAP5 POP PUSH2 0x26D JUMP JUMPDEST SWAP5 POP SWAP5 SWAP3 POP POP POP JUMP JUMPDEST PUSH0 DUP3 PUSH2 0x2C5 JUMPI PUSH1 0x1 SWAP1 POP PUSH2 0x380 JUMP JUMPDEST DUP2 PUSH2 0x2D2 JUMPI PUSH0 SWAP1 POP PUSH2 0x380 JUMP JUMPDEST DUP2 PUSH1 0x1 DUP2 EQ PUSH2 0x2E8 JUMPI PUSH1 0x2 DUP2 EQ PUSH2 0x2F2 JUMPI PUSH2 0x321 JUMP JUMPDEST PUSH1 0x1 SWAP2 POP POP PUSH2 0x380 JUMP JUMPDEST PUSH1 0xFF DUP5 GT ISZERO PUSH2 0x304 JUMPI PUSH2 0x303 PUSH2 0x1F8 JUMP JUMPDEST JUMPDEST DUP4 PUSH1 0x2 EXP SWAP2 POP DUP5 DUP3 GT ISZERO PUSH2 0x31B JUMPI PUSH2 0x31A PUSH2 0x1F8 JUMP JUMPDEST JUMPDEST POP PUSH2 0x380 JUMP JUMPDEST POP PUSH1 0x20 DUP4 LT PUSH2 0x133 DUP4 LT AND PUSH1 0x4E DUP5 LT PUSH1 0xB DUP5 LT AND OR ISZERO PUSH2 0x356 JUMPI DUP3 DUP3 EXP SWAP1 POP DUP4 DUP2 GT ISZERO PUSH2 0x351 JUMPI PUSH2 0x350 PUSH2 0x1F8 JUMP JUMPDEST JUMPDEST PUSH2 0x380 JUMP JUMPDEST PUSH2 0x363 DUP5 DUP5 DUP5 PUSH1 0x1 PUSH2 0x264 JUMP JUMPDEST SWAP3 POP SWAP1 POP DUP2 DUP5 DIV DUP2 GT ISZERO PUSH2 0x37A JUMPI PUSH2 0x379 PUSH2 0x1F8 JUMP JUMPDEST JUMPDEST DUP2 DUP2 MUL SWAP1 POP JUMPDEST SWAP4 SWAP3 POP POP POP JUMP JUMPDEST PUSH0 PUSH2 0x391 DUP3 PUSH2 0x151 JUMP JUMPDEST SWAP2 POP PUSH2 0x39C DUP4 PUSH2 0x151 JUMP JUMPDEST SWAP3 POP PUSH2 0x3C9 PUSH32 0xFFFFFFFFFFFFFFFFFFFFFFFFFFFFFFFFFFFFFFFFFFFFFFFFFFFFFFFFFFFFFFFF DUP5 DUP5 PUSH2 0x2B6 JUMP JUMPDEST SWAP1 POP SWAP3 SWAP2 POP POP JUMP JUMPDEST PUSH0 PUSH2 0x3DB DUP3 PUSH2 0x151 JUMP JUMPDEST SWAP2 POP PUSH2 0x3E6 DUP4 PUSH2 0x151 JUMP JUMPDEST SWAP3 POP DUP3 DUP3 SUB SWAP1 POP DUP2 DUP2 GT ISZERO PUSH2 0x3FE JUMPI PUSH2 0x3FD PUSH2 0x1F8 JUMP JUMPDEST JUMPDEST SWAP3 SWAP2 POP POP JUMP JUMPDEST PUSH32 0x4E487B7100000000000000000000000000000000000000000000000000000000 PUSH0 MSTORE PUSH1 0x12 PUSH1 0x4 MSTORE PUSH1 0x24 PUSH0 REVERT JUMPDEST PUSH0 PUSH2 0x43B DUP3 PUSH2 0x151 JUMP JUMPDEST SWAP2 POP PUSH2 0x446 DUP4 PUSH2 0x151 JUMP JUMPDEST SWAP3 POP DUP3 PUSH2 0x456 JUMPI PUSH2 0x455 PUSH2 0x404 JUMP JUMPDEST JUMPDEST DUP3 DUP3 DIV SWAP1 POP SWAP3 SWAP2 POP POP JUMP JUMPDEST PUSH0 PUSH2 0x46B DUP3 PUSH2 0x151 JUMP JUMPDEST SWAP2 POP PUSH2 0x476 DUP4 PUSH2 0x151 JUMP JUMPDEST SWAP3 POP DUP3 PUSH2 0x486 JUMPI PUSH2 0x485 PUSH2 0x404 JUMP JUMPDEST JUMPDEST DUP3 DUP3 MOD SWAP1 POP SWAP3 SWAP2 POP POP JUMP JUMPDEST PUSH0 PUSH2 0x49B DUP3 PUSH2 0x151 JUMP JUMPDEST SWAP2 POP PUSH32 0xFFFFFFFFFFFFFFFFFFFFFFFFFFFFFFFFFFFFFFFFFFFFFFFFFFFFFFFFFFFFFFFF DUP3 SUB PUSH2 0x4CD JUMPI PUSH2 0x4CC PUSH2 0x1F8 JUMP JUMPDEST JUMPDEST PUSH1 0x1 DUP3 ADD SWAP1 POP SWAP2 SWAP1 POP JUMP INVALID LOG2 PUSH5 0x6970667358 0x22 SLT KECCAK256 0x4F 0xA5 CALLDATACOPY 0xE4 PUSH2 0x8808 0xF8 CALLVALUE DUP9 0xE5 PC DUP3 0x23 0xF7 PUSH1 0xF8 0xFC DUP13 0xC6 ISZERO 0xC SHR 0xE5 NUMBER AND ORIGIN NUMBER EQ 0xE4 NUMBER JUMPDEST PUSH5 0x736F6C6343 STOP ADDMOD BYTE STOP CALLER "
		},
		"gasEstimates": {
			"creation": {
				"codeDepositCost": "258800",
				"executionCost": "298",
				"totalCost": "259098"
			},
			"external": {
				"getResult(uint256,uint256)": "infinite"
			},
			"internal": {
				"Mystery(uint256)": "infinite"
			}
		},
		"methodIdentifiers": {
			"getResult(uint256,uint256)": "949f80c5"
		}
	},
	"abi": [
		{
			"inputs": [],
			"stateMutability": "nonpayable",
			"type": "constructor"
		},
		{
			"inputs": [
				{
					"internalType": "uint256",
					"name": "var1",
					"type": "uint256"
				},
				{
					"internalType": "uint256",
					"name": "var2",
					"type": "uint256"
				}
			],
			"name": "getResult",
			"outputs": [
				{
					"internalType": "uint256",
					"name": "",
					"type": "uint256"
				},
				{
					"internalType": "uint256",
					"name": "",
					"type": "uint256"
				}
			],
			"stateMutability": "pure",
			"type": "function"
		}
	]
}